{
  "_format": "hh-sol-artifact-1",
  "contractName": "Auction",
  "sourceName": "contracts/Auction.sol",
  "abi": [
    {
      "inputs": [
        {
          "internalType": "address",
          "name": "_storageContractAddress",
          "type": "address"
        }
      ],
      "stateMutability": "nonpayable",
      "type": "constructor"
    },
    {
      "inputs": [
        {
          "internalType": "address",
          "name": "_nftAddress",
          "type": "address"
        },
        {
          "internalType": "uint256",
          "name": "_nftId",
          "type": "uint256"
        }
      ],
      "name": "applyEndOfAuction",
      "outputs": [],
      "stateMutability": "nonpayable",
      "type": "function"
    },
    {
      "inputs": [
        {
          "internalType": "address",
          "name": "_nftAddress",
          "type": "address"
        },
        {
          "internalType": "uint256",
          "name": "_nftId",
          "type": "uint256"
        }
      ],
      "name": "bidOnAuction",
      "outputs": [],
      "stateMutability": "payable",
      "type": "function"
    },
    {
      "inputs": [
        {
          "internalType": "address",
          "name": "FractionTokenAddress",
          "type": "address"
        }
      ],
      "name": "claimFromBuyoutTokens",
      "outputs": [],
      "stateMutability": "nonpayable",
      "type": "function"
    },
    {
      "inputs": [
        {
          "internalType": "address",
          "name": "_fractionTokenAddress",
          "type": "address"
        },
        {
          "internalType": "address",
          "name": "_user",
          "type": "address"
        }
      ],
      "name": "getAddressTokenBalance",
      "outputs": [
        {
          "internalType": "uint256",
          "name": "",
          "type": "uint256"
        }
      ],
      "stateMutability": "view",
      "type": "function"
    },
    {
      "inputs": [
        {
          "internalType": "address",
          "name": "_nftAddress",
          "type": "address"
        },
        {
          "internalType": "uint256",
          "name": "_nftId",
          "type": "uint256"
        }
      ],
      "name": "getAuctionCurrentBid",
      "outputs": [
        {
          "internalType": "uint256",
          "name": "",
          "type": "uint256"
        }
      ],
      "stateMutability": "view",
      "type": "function"
    },
    {
      "inputs": [
        {
          "internalType": "address",
          "name": "_nftAddress",
          "type": "address"
        },
        {
          "internalType": "uint256",
          "name": "_nftId",
          "type": "uint256"
        }
      ],
      "name": "getAuctionCurrentLeader",
      "outputs": [
        {
          "internalType": "address",
          "name": "",
          "type": "address"
        }
      ],
      "stateMutability": "view",
      "type": "function"
    },
    {
      "inputs": [
        {
          "internalType": "address",
          "name": "_nftAddress",
          "type": "address"
        },
        {
          "internalType": "uint256",
          "name": "_nftId",
          "type": "uint256"
        }
      ],
      "name": "getIfNftIsInAuction",
      "outputs": [
        {
          "internalType": "bool",
          "name": "",
          "type": "bool"
        }
      ],
      "stateMutability": "view",
      "type": "function"
    },
    {
      "inputs": [
        {
          "internalType": "address",
          "name": "_nftAddress",
          "type": "address"
        },
        {
          "internalType": "uint256",
          "name": "_nftId",
          "type": "uint256"
        }
      ],
      "name": "getIsNftInProposal",
      "outputs": [
        {
          "internalType": "bool",
          "name": "",
          "type": "bool"
        }
      ],
      "stateMutability": "view",
      "type": "function"
    },
    {
      "inputs": [
        {
          "internalType": "address",
          "name": "_nftAddress",
          "type": "address"
        },
        {
          "internalType": "uint256",
          "name": "_nftId",
          "type": "uint256"
        }
      ],
      "name": "getProposalFinishTime",
      "outputs": [
        {
          "internalType": "uint256",
          "name": "",
          "type": "uint256"
        }
      ],
      "stateMutability": "view",
      "type": "function"
    },
    {
      "inputs": [
        {
          "internalType": "address",
          "name": "_nftAddress",
          "type": "address"
        },
        {
          "internalType": "uint256",
          "name": "_nftId",
          "type": "uint256"
        }
      ],
      "name": "getProposalInitiator",
      "outputs": [
        {
          "internalType": "address",
          "name": "",
          "type": "address"
        }
      ],
      "stateMutability": "view",
      "type": "function"
    },
    {
      "inputs": [
        {
          "internalType": "address",
          "name": "_nftAddress",
          "type": "address"
        },
        {
          "internalType": "uint256",
          "name": "_nftId",
          "type": "uint256"
        }
      ],
      "name": "getProposalScore",
      "outputs": [
        {
          "internalType": "uint256",
          "name": "",
          "type": "uint256"
        }
      ],
      "stateMutability": "view",
      "type": "function"
    },
    {
      "inputs": [
        {
          "internalType": "address",
          "name": "_nftAddress",
          "type": "address"
        },
        {
          "internalType": "uint256",
          "name": "_nftId",
          "type": "uint256"
        }
      ],
      "name": "getProposalStartPrice",
      "outputs": [
        {
          "internalType": "uint256",
          "name": "",
          "type": "uint256"
        }
      ],
      "stateMutability": "view",
      "type": "function"
    },
    {
      "inputs": [
        {
          "internalType": "address",
          "name": "_nftAddress",
          "type": "address"
        },
        {
          "internalType": "uint256",
          "name": "_nftId",
          "type": "uint256"
        }
      ],
      "name": "getProposalTotalVoted",
      "outputs": [
        {
          "internalType": "uint256",
          "name": "",
          "type": "uint256"
        }
      ],
      "stateMutability": "view",
      "type": "function"
    },
    {
      "inputs": [],
      "name": "getTimestamp",
      "outputs": [
        {
          "internalType": "uint256",
          "name": "",
          "type": "uint256"
        }
      ],
      "stateMutability": "view",
      "type": "function"
    },
    {
      "inputs": [
        {
          "internalType": "address",
          "name": "_fractionAddress",
          "type": "address"
        },
        {
          "internalType": "address",
          "name": "_user",
          "type": "address"
        }
      ],
      "name": "getTotalStaked",
      "outputs": [
        {
          "internalType": "uint256",
          "name": "",
          "type": "uint256"
        }
      ],
      "stateMutability": "view",
      "type": "function"
    },
    {
      "inputs": [
        {
          "internalType": "address",
          "name": "_nftAddress",
          "type": "address"
        },
        {
          "internalType": "uint256",
          "name": "_nftId",
          "type": "uint256"
        }
      ],
      "name": "isAuctionActive",
      "outputs": [
        {
          "internalType": "bool",
          "name": "",
          "type": "bool"
        }
      ],
      "stateMutability": "view",
      "type": "function"
    },
    {
      "inputs": [
        {
          "internalType": "address",
          "name": "_fractionAddress",
          "type": "address"
        },
        {
          "internalType": "uint256",
          "name": "_amount",
          "type": "uint256"
        }
      ],
      "name": "stakeTokens",
      "outputs": [],
      "stateMutability": "nonpayable",
      "type": "function"
    },
    {
      "inputs": [
        {
          "internalType": "address",
          "name": "_nftAddress",
          "type": "address"
        },
        {
          "internalType": "uint256",
          "name": "_nftId",
          "type": "uint256"
        },
        {
          "internalType": "uint256",
          "name": "_auctionTime",
          "type": "uint256"
        }
      ],
      "name": "startAuction",
      "outputs": [],
      "stateMutability": "nonpayable",
      "type": "function"
    },
    {
      "inputs": [
        {
          "internalType": "address",
          "name": "_nftAddress",
          "type": "address"
        },
        {
          "internalType": "uint256",
          "name": "_nftId",
          "type": "uint256"
        },
        {
          "internalType": "uint256",
          "name": "_startPrice",
          "type": "uint256"
        },
        {
          "internalType": "uint256",
          "name": "_time",
          "type": "uint256"
        },
        {
          "internalType": "uint256",
          "name": "_stakeAmount",
          "type": "uint256"
        }
      ],
      "name": "startProposal",
      "outputs": [],
      "stateMutability": "nonpayable",
      "type": "function"
    },
    {
      "inputs": [
        {
          "internalType": "address",
          "name": "_fractionAddress",
          "type": "address"
        },
        {
          "internalType": "uint256",
          "name": "_amount",
          "type": "uint256"
        }
      ],
      "name": "unstakeTokens",
      "outputs": [],
      "stateMutability": "nonpayable",
      "type": "function"
    },
    {
      "inputs": [
        {
          "internalType": "address",
          "name": "_nftAddress",
          "type": "address"
        },
        {
          "internalType": "uint256",
          "name": "_nftId",
          "type": "uint256"
        },
        {
          "internalType": "bool",
          "name": "_voteValue",
          "type": "bool"
        },
        {
          "internalType": "uint256",
          "name": "_voteAmount",
          "type": "uint256"
        }
      ],
      "name": "voteOnProposal",
      "outputs": [],
      "stateMutability": "nonpayable",
      "type": "function"
    }
  ],
  "bytecode": "0x60806040526203f4806000553480156200001857600080fd5b506040516200417a3803806200417a83398181016040528101906200003e9190620000f0565b80601360006101000a81548173ffffffffffffffffffffffffffffffffffffffff021916908373ffffffffffffffffffffffffffffffffffffffff1602179055505062000122565b600080fd5b600073ffffffffffffffffffffffffffffffffffffffff82169050919050565b6000620000b8826200008b565b9050919050565b620000ca81620000ab565b8114620000d657600080fd5b50565b600081519050620000ea81620000bf565b92915050565b60006020828403121562000109576200010862000086565b5b60006200011984828501620000d9565b91505092915050565b61404880620001326000396000f3fe60806040526004361061012a5760003560e01c806387602e2e116100ab578063cb3224b81161006f578063cb3224b814610417578063d2af1fa214610454578063dabb9e0414610491578063e583464e146104ce578063e89a173e1461050b578063ffb57e28146105345761012a565b806387602e2e146102fa5780638b98dd3e14610337578063950bf1a314610374578063ad32e9dd1461039d578063caee8e15146103da5761012a565b806337224c3a116100f257806337224c3a1461020557806356dd47551461024257806362c2ec591461026b57806379a83f5a146102a857806381917b45146102d15761012a565b8063014040461461012f5780630890b90c146101585780630c6cab4f14610174578063188ec356146101b157806326587bbb146101dc575b600080fd5b34801561013b57600080fd5b5061015660048036038101906101519190613385565b610571565b005b610172600480360381019061016d91906133e8565b61062f565b005b34801561018057600080fd5b5061019b600480360381019061019691906133e8565b610dc0565b6040516101a89190613437565b60405180910390f35b3480156101bd57600080fd5b506101c6610e1b565b6040516101d39190613437565b60405180910390f35b3480156101e857600080fd5b5061020360048036038101906101fe919061348a565b610e23565b005b34801561021157600080fd5b5061022c600480360381019061022791906133e8565b6116d8565b6040516102399190613500565b60405180910390f35b34801561024e57600080fd5b506102696004803603810190610264919061351b565b611740565b005b34801561027757600080fd5b50610292600480360381019061028d91906133e8565b611add565b60405161029f9190613500565b60405180910390f35b3480156102b457600080fd5b506102cf60048036038101906102ca91906133e8565b611b45565b005b3480156102dd57600080fd5b506102f860048036038101906102f3919061356e565b611eeb565b005b34801561030657600080fd5b50610321600480360381019061031c91906133e8565b61252a565b60405161032e9190613500565b60405180910390f35b34801561034357600080fd5b5061035e600480360381019061035991906135e9565b612592565b60405161036b9190613437565b60405180910390f35b34801561038057600080fd5b5061039b600480360381019061039691906133e8565b612619565b005b3480156103a957600080fd5b506103c460048036038101906103bf91906135e9565b612898565b6040516103d19190613437565b60405180910390f35b3480156103e657600080fd5b5061040160048036038101906103fc91906133e8565b61291f565b60405161040e9190613437565b60405180910390f35b34801561042357600080fd5b5061043e600480360381019061043991906133e8565b61297a565b60405161044b9190613437565b60405180910390f35b34801561046057600080fd5b5061047b600480360381019061047691906133e8565b6129d5565b6040516104889190613437565b60405180910390f35b34801561049d57600080fd5b506104b860048036038101906104b391906133e8565b612a30565b6040516104c59190613638565b60405180910390f35b3480156104da57600080fd5b506104f560048036038101906104f091906133e8565b612aab565b6040516105029190613437565b60405180910390f35b34801561051757600080fd5b50610532600480360381019061052d91906133e8565b612b06565b005b34801561054057600080fd5b5061055b600480360381019061055691906133e8565b612ff5565b6040516105689190613638565b60405180910390f35b6000819050600115158173ffffffffffffffffffffffffffffffffffffffff166309323b026040518163ffffffff1660e01b8152600401602060405180830381865afa1580156105c5573d6000803e3d6000fd5b505050506040513d601f19601f820116820180604052508101906105e99190613668565b15151461062b576040517f08c379a000000000000000000000000000000000000000000000000000000000815260040161062290613718565b60405180910390fd5b5050565b60001515600260008473ffffffffffffffffffffffffffffffffffffffff1673ffffffffffffffffffffffffffffffffffffffff168152602001908152602001600020600083815260200190815260200160002060009054906101000a900460ff161515146106d3576040517f08c379a00000000000000000000000000000000000000000000000000000000081526004016106ca90613784565b60405180910390fd5b60011515600860008473ffffffffffffffffffffffffffffffffffffffff1673ffffffffffffffffffffffffffffffffffffffff168152602001908152602001600020600083815260200190815260200160002060009054906101000a900460ff16151514610777576040517f08c379a000000000000000000000000000000000000000000000000000000000815260040161076e906137f0565b60405180910390fd5b600960008373ffffffffffffffffffffffffffffffffffffffff1673ffffffffffffffffffffffffffffffffffffffff1681526020019081526020016000206000828152602001908152602001600020543411610809576040517f08c379a000000000000000000000000000000000000000000000000000000000815260040161080090613882565b60405180910390fd5b6000601360009054906101000a900473ffffffffffffffffffffffffffffffffffffffff1673ffffffffffffffffffffffffffffffffffffffff1663aafef26784846040518363ffffffff1660e01b81526004016108689291906138a2565b602060405180830381865afa158015610885573d6000803e3d6000fd5b505050506040513d601f19601f820116820180604052508101906108a991906138e0565b9050600b60008473ffffffffffffffffffffffffffffffffffffffff1673ffffffffffffffffffffffffffffffffffffffff168152602001908152602001600020600083815260200190815260200160002054421015610c3a576001600e60008573ffffffffffffffffffffffffffffffffffffffff1673ffffffffffffffffffffffffffffffffffffffff16815260200190815260200160002060008481526020019081526020016000206000600a60008773ffffffffffffffffffffffffffffffffffffffff1673ffffffffffffffffffffffffffffffffffffffff168152602001908152602001600020600086815260200190815260200160002060009054906101000a900473ffffffffffffffffffffffffffffffffffffffff1673ffffffffffffffffffffffffffffffffffffffff1673ffffffffffffffffffffffffffffffffffffffff16815260200190815260200160002060006101000a81548160ff0219169083151502179055506000600e60008573ffffffffffffffffffffffffffffffffffffffff1673ffffffffffffffffffffffffffffffffffffffff168152602001908152602001600020600084815260200190815260200160002060003373ffffffffffffffffffffffffffffffffffffffff1673ffffffffffffffffffffffffffffffffffffffff16815260200190815260200160002060006101000a81548160ff02191690831515021790555033600a60008573ffffffffffffffffffffffffffffffffffffffff1673ffffffffffffffffffffffffffffffffffffffff168152602001908152602001600020600084815260200190815260200160002060006101000a81548173ffffffffffffffffffffffffffffffffffffffff021916908373ffffffffffffffffffffffffffffffffffffffff16021790555034600960008573ffffffffffffffffffffffffffffffffffffffff1673ffffffffffffffffffffffffffffffffffffffff16815260200190815260200160002060008481526020019081526020016000208190555034600d60008573ffffffffffffffffffffffffffffffffffffffff1673ffffffffffffffffffffffffffffffffffffffff168152602001908152602001600020600084815260200190815260200160002060003373ffffffffffffffffffffffffffffffffffffffff1673ffffffffffffffffffffffffffffffffffffffff16815260200190815260200160002081905550610dbb565b6000600860008573ffffffffffffffffffffffffffffffffffffffff1673ffffffffffffffffffffffffffffffffffffffff168152602001908152602001600020600084815260200190815260200160002060006101000a81548160ff0219169083151502179055508073ffffffffffffffffffffffffffffffffffffffff166318160ddd6040518163ffffffff1660e01b8152600401602060405180830381865afa158015610cee573d6000803e3d6000fd5b505050506040513d601f19601f82011682018060405250810190610d129190613922565b600960008573ffffffffffffffffffffffffffffffffffffffff1673ffffffffffffffffffffffffffffffffffffffff168152602001908152602001600020600084815260200190815260200160002054610d6d91906139ad565b600c60008373ffffffffffffffffffffffffffffffffffffffff1673ffffffffffffffffffffffffffffffffffffffff16815260200190815260200160002081905550610dba8383613070565b5b505050565b6000600360008473ffffffffffffffffffffffffffffffffffffffff1673ffffffffffffffffffffffffffffffffffffffff168152602001908152602001600020600083815260200190815260200160002054905092915050565b600042905090565b6000601360009054906101000a900473ffffffffffffffffffffffffffffffffffffffff1673ffffffffffffffffffffffffffffffffffffffff1663aafef26786866040518363ffffffff1660e01b8152600401610e829291906138a2565b602060405180830381865afa158015610e9f573d6000803e3d6000fd5b505050506040513d601f19601f82011682018060405250810190610ec391906138e0565b9050600081905060011515600260008873ffffffffffffffffffffffffffffffffffffffff1673ffffffffffffffffffffffffffffffffffffffff168152602001908152602001600020600087815260200190815260200160002060009054906101000a900460ff16151514610f6e576040517f08c379a0000000000000000000000000000000000000000000000000000000008152600401610f6590613a50565b60405180910390fd5b600160008373ffffffffffffffffffffffffffffffffffffffff1673ffffffffffffffffffffffffffffffffffffffff16815260200190815260200160002060003373ffffffffffffffffffffffffffffffffffffffff1673ffffffffffffffffffffffffffffffffffffffff1681526020019081526020016000205483111561102d576040517f08c379a000000000000000000000000000000000000000000000000000000000815260040161102490613ae2565b60405180910390fd5b600560008773ffffffffffffffffffffffffffffffffffffffff1673ffffffffffffffffffffffffffffffffffffffff1681526020019081526020016000206000868152602001908152602001600020544210156111cd5782600660008873ffffffffffffffffffffffffffffffffffffffff1673ffffffffffffffffffffffffffffffffffffffff168152602001908152602001600020600087815260200190815260200160002060008282546110e59190613b02565b9250508190555060011515841515036111645782600760008873ffffffffffffffffffffffffffffffffffffffff1673ffffffffffffffffffffffffffffffffffffffff168152602001908152602001600020600087815260200190815260200160002060008282546111589190613b02565b925050819055506111cc565b82600760008873ffffffffffffffffffffffffffffffffffffffff1673ffffffffffffffffffffffffffffffffffffffff168152602001908152602001600020600087815260200190815260200160002060008282546111c49190613b58565b925050819055505b5b60008173ffffffffffffffffffffffffffffffffffffffff166318160ddd6040518163ffffffff1660e01b8152600401602060405180830381865afa15801561121a573d6000803e3d6000fd5b505050506040513d601f19601f8201168201806040525081019061123e9190613922565b905060028161124d91906139ad565b600660008973ffffffffffffffffffffffffffffffffffffffff1673ffffffffffffffffffffffffffffffffffffffff168152602001908152602001600020600088815260200190815260200160002054106116cf576002816112b091906139ad565b600760008973ffffffffffffffffffffffffffffffffffffffff1673ffffffffffffffffffffffffffffffffffffffff168152602001908152602001600020600088815260200190815260200160002054106114d1576113618787600560008b73ffffffffffffffffffffffffffffffffffffffff1673ffffffffffffffffffffffffffffffffffffffff16815260200190815260200160002060008a815260200190815260200160002054611740565b6000600260008973ffffffffffffffffffffffffffffffffffffffff1673ffffffffffffffffffffffffffffffffffffffff168152602001908152602001600020600088815260200190815260200160002060006101000a81548160ff0219169083151502179055506000600560008973ffffffffffffffffffffffffffffffffffffffff1673ffffffffffffffffffffffffffffffffffffffff1681526020019081526020016000206000888152602001908152602001600020819055506000600660008973ffffffffffffffffffffffffffffffffffffffff1673ffffffffffffffffffffffffffffffffffffffff1681526020019081526020016000206000888152602001908152602001600020819055506000600760008973ffffffffffffffffffffffffffffffffffffffff1673ffffffffffffffffffffffffffffffffffffffff1681526020019081526020016000206000888152602001908152602001600020819055506116ce565b6000600260008973ffffffffffffffffffffffffffffffffffffffff1673ffffffffffffffffffffffffffffffffffffffff168152602001908152602001600020600088815260200190815260200160002060006101000a81548160ff0219169083151502179055506000600560008973ffffffffffffffffffffffffffffffffffffffff1673ffffffffffffffffffffffffffffffffffffffff1681526020019081526020016000206000888152602001908152602001600020819055506000600660008973ffffffffffffffffffffffffffffffffffffffff1673ffffffffffffffffffffffffffffffffffffffff1681526020019081526020016000206000888152602001908152602001600020819055506000600760008973ffffffffffffffffffffffffffffffffffffffff1673ffffffffffffffffffffffffffffffffffffffff16815260200190815260200160002060008881526020019081526020016000208190555061dead600460008973ffffffffffffffffffffffffffffffffffffffff1673ffffffffffffffffffffffffffffffffffffffff168152602001908152602001600020600088815260200190815260200160002060006101000a81548173ffffffffffffffffffffffffffffffffffffffff021916908373ffffffffffffffffffffffffffffffffffffffff1602179055505b5b50505050505050565b6000600260008473ffffffffffffffffffffffffffffffffffffffff1673ffffffffffffffffffffffffffffffffffffffff168152602001908152602001600020600083815260200190815260200160002060009054906101000a900460ff16905092915050565b6000544261174e9190613b02565b811061178f576040517f08c379a000000000000000000000000000000000000000000000000000000000815260040161178690613bd8565b60405180910390fd5b80600b60008573ffffffffffffffffffffffffffffffffffffffff1673ffffffffffffffffffffffffffffffffffffffff1681526020019081526020016000206000848152602001908152602001600020819055506001600860008573ffffffffffffffffffffffffffffffffffffffff1673ffffffffffffffffffffffffffffffffffffffff168152602001908152602001600020600084815260200190815260200160002060006101000a81548160ff021916908315150217905550600360008473ffffffffffffffffffffffffffffffffffffffff1673ffffffffffffffffffffffffffffffffffffffff168152602001908152602001600020600083815260200190815260200160002054600960008573ffffffffffffffffffffffffffffffffffffffff1673ffffffffffffffffffffffffffffffffffffffff1681526020019081526020016000206000848152602001908152602001600020819055506000600360008573ffffffffffffffffffffffffffffffffffffffff1673ffffffffffffffffffffffffffffffffffffffff168152602001908152602001600020600084815260200190815260200160002081905550600460008473ffffffffffffffffffffffffffffffffffffffff1673ffffffffffffffffffffffffffffffffffffffff168152602001908152602001600020600083815260200190815260200160002060009054906101000a900473ffffffffffffffffffffffffffffffffffffffff16600a60008573ffffffffffffffffffffffffffffffffffffffff1673ffffffffffffffffffffffffffffffffffffffff168152602001908152602001600020600084815260200190815260200160002060006101000a81548173ffffffffffffffffffffffffffffffffffffffff021916908373ffffffffffffffffffffffffffffffffffffffff16021790555061dead600460008573ffffffffffffffffffffffffffffffffffffffff1673ffffffffffffffffffffffffffffffffffffffff168152602001908152602001600020600084815260200190815260200160002060006101000a81548173ffffffffffffffffffffffffffffffffffffffff021916908373ffffffffffffffffffffffffffffffffffffffff160217905550505050565b6000600860008473ffffffffffffffffffffffffffffffffffffffff1673ffffffffffffffffffffffffffffffffffffffff168152602001908152602001600020600083815260200190815260200160002060009054906101000a900460ff16905092915050565b600082905060008173ffffffffffffffffffffffffffffffffffffffff1663be9a71bd6040518163ffffffff1660e01b8152600401602060405180830381865afa158015611b97573d6000803e3d6000fd5b505050506040513d601f19601f82011682018060405250810190611bbb91906138e0565b905060008273ffffffffffffffffffffffffffffffffffffffff1663644c45e06040518163ffffffff1660e01b8152600401602060405180830381865afa158015611c0a573d6000803e3d6000fd5b505050506040513d601f19601f82011682018060405250810190611c2e9190613922565b905060011515601360009054906101000a900473ffffffffffffffffffffffffffffffffffffffff1673ffffffffffffffffffffffffffffffffffffffff1663dcea9a9684846040518363ffffffff1660e01b8152600401611c919291906138a2565b602060405180830381865afa158015611cae573d6000803e3d6000fd5b505050506040513d601f19601f82011682018060405250810190611cd29190613668565b151514611d14576040517f08c379a0000000000000000000000000000000000000000000000000000000008152600401611d0b90613c44565b60405180910390fd5b8273ffffffffffffffffffffffffffffffffffffffff166370a08231336040518263ffffffff1660e01b8152600401611d4d9190613638565b602060405180830381865afa158015611d6a573d6000803e3d6000fd5b505050506040513d601f19601f82011682018060405250810190611d8e9190613922565b841115611dd0576040517f08c379a0000000000000000000000000000000000000000000000000000000008152600401611dc790613cb0565b60405180910390fd5b8273ffffffffffffffffffffffffffffffffffffffff166323b872dd3330876040518463ffffffff1660e01b8152600401611e0d93929190613cd0565b6020604051808303816000875af1158015611e2c573d6000803e3d6000fd5b505050506040513d601f19601f82011682018060405250810190611e509190613668565b5083600160008773ffffffffffffffffffffffffffffffffffffffff1673ffffffffffffffffffffffffffffffffffffffff16815260200190815260200160002060003373ffffffffffffffffffffffffffffffffffffffff1673ffffffffffffffffffffffffffffffffffffffff1681526020019081526020016000206000828254611edd9190613b02565b925050819055505050505050565b3373ffffffffffffffffffffffffffffffffffffffff16601360009054906101000a900473ffffffffffffffffffffffffffffffffffffffff1673ffffffffffffffffffffffffffffffffffffffff16635044613687876040518363ffffffff1660e01b8152600401611f5f9291906138a2565b602060405180830381865afa158015611f7c573d6000803e3d6000fd5b505050506040513d601f19601f82011682018060405250810190611fa091906138e0565b73ffffffffffffffffffffffffffffffffffffffff1614611fc057600080fd5b60011515601360009054906101000a900473ffffffffffffffffffffffffffffffffffffffff1673ffffffffffffffffffffffffffffffffffffffff1663491f667487876040518363ffffffff1660e01b81526004016120219291906138a2565b602060405180830381865afa15801561203e573d6000803e3d6000fd5b505050506040513d601f19601f820116820180604052508101906120629190613668565b1515146120a4576040517f08c379a000000000000000000000000000000000000000000000000000000000815260040161209b90613d53565b60405180910390fd5b6000601360009054906101000a900473ffffffffffffffffffffffffffffffffffffffff1673ffffffffffffffffffffffffffffffffffffffff1663aafef26787876040518363ffffffff1660e01b81526004016121039291906138a2565b602060405180830381865afa158015612120573d6000803e3d6000fd5b505050506040513d601f19601f8201168201806040525081019061214491906138e0565b90506000819050600160008373ffffffffffffffffffffffffffffffffffffffff1673ffffffffffffffffffffffffffffffffffffffff16815260200190815260200160002060003373ffffffffffffffffffffffffffffffffffffffff1673ffffffffffffffffffffffffffffffffffffffff1681526020019081526020016000205483111561220a576040517f08c379a000000000000000000000000000000000000000000000000000000000815260040161220190613de5565b60405180910390fd5b6001600260008973ffffffffffffffffffffffffffffffffffffffff1673ffffffffffffffffffffffffffffffffffffffff168152602001908152602001600020600088815260200190815260200160002060006101000a81548160ff02191690831515021790555033600460008973ffffffffffffffffffffffffffffffffffffffff1673ffffffffffffffffffffffffffffffffffffffff168152602001908152602001600020600088815260200190815260200160002060006101000a81548173ffffffffffffffffffffffffffffffffffffffff021916908373ffffffffffffffffffffffffffffffffffffffff16021790555084600360008973ffffffffffffffffffffffffffffffffffffffff1673ffffffffffffffffffffffffffffffffffffffff168152602001908152602001600020600088815260200190815260200160002081905550600084036123c6576000544261236d9190613b02565b600560008973ffffffffffffffffffffffffffffffffffffffff1673ffffffffffffffffffffffffffffffffffffffff168152602001908152602001600020600088815260200190815260200160002081905550612427565b83426123d29190613b02565b600560008973ffffffffffffffffffffffffffffffffffffffff1673ffffffffffffffffffffffffffffffffffffffff1681526020019081526020016000206000888152602001908152602001600020819055505b82600660008973ffffffffffffffffffffffffffffffffffffffff1673ffffffffffffffffffffffffffffffffffffffff168152602001908152602001600020600088815260200190815260200160002081905550600660008873ffffffffffffffffffffffffffffffffffffffff1673ffffffffffffffffffffffffffffffffffffffff168152602001908152602001600020600087815260200190815260200160002054600760008973ffffffffffffffffffffffffffffffffffffffff1673ffffffffffffffffffffffffffffffffffffffff16815260200190815260200160002060008881526020019081526020016000208190555050505050505050565b6000600860008473ffffffffffffffffffffffffffffffffffffffff1673ffffffffffffffffffffffffffffffffffffffff168152602001908152602001600020600083815260200190815260200160002060009054906101000a900460ff16905092915050565b6000600160008473ffffffffffffffffffffffffffffffffffffffff1673ffffffffffffffffffffffffffffffffffffffff16815260200190815260200160002060008373ffffffffffffffffffffffffffffffffffffffff1673ffffffffffffffffffffffffffffffffffffffff16815260200190815260200160002054905092915050565b600b60008373ffffffffffffffffffffffffffffffffffffffff1673ffffffffffffffffffffffffffffffffffffffff1681526020019081526020016000206000828152602001908152602001600020544210612894576000601360009054906101000a900473ffffffffffffffffffffffffffffffffffffffff1673ffffffffffffffffffffffffffffffffffffffff1663aafef26784846040518363ffffffff1660e01b81526004016126cf9291906138a2565b602060405180830381865afa1580156126ec573d6000803e3d6000fd5b505050506040513d601f19601f8201168201806040525081019061271091906138e0565b90506000600860008573ffffffffffffffffffffffffffffffffffffffff1673ffffffffffffffffffffffffffffffffffffffff168152602001908152602001600020600084815260200190815260200160002060006101000a81548160ff0219169083151502179055508073ffffffffffffffffffffffffffffffffffffffff166318160ddd6040518163ffffffff1660e01b8152600401602060405180830381865afa1580156127c6573d6000803e3d6000fd5b505050506040513d601f19601f820116820180604052508101906127ea9190613922565b600960008573ffffffffffffffffffffffffffffffffffffffff1673ffffffffffffffffffffffffffffffffffffffff16815260200190815260200160002060008481526020019081526020016000205461284591906139ad565b600c60008373ffffffffffffffffffffffffffffffffffffffff1673ffffffffffffffffffffffffffffffffffffffff168152602001908152602001600020819055506128928383613070565b505b5050565b6000600160008473ffffffffffffffffffffffffffffffffffffffff1673ffffffffffffffffffffffffffffffffffffffff16815260200190815260200160002060008373ffffffffffffffffffffffffffffffffffffffff1673ffffffffffffffffffffffffffffffffffffffff16815260200190815260200160002054905092915050565b6000600760008473ffffffffffffffffffffffffffffffffffffffff1673ffffffffffffffffffffffffffffffffffffffff168152602001908152602001600020600083815260200190815260200160002054905092915050565b6000600960008473ffffffffffffffffffffffffffffffffffffffff1673ffffffffffffffffffffffffffffffffffffffff168152602001908152602001600020600083815260200190815260200160002054905092915050565b6000600660008473ffffffffffffffffffffffffffffffffffffffff1673ffffffffffffffffffffffffffffffffffffffff168152602001908152602001600020600083815260200190815260200160002054905092915050565b6000600460008473ffffffffffffffffffffffffffffffffffffffff1673ffffffffffffffffffffffffffffffffffffffff168152602001908152602001600020600083815260200190815260200160002060009054906101000a900473ffffffffffffffffffffffffffffffffffffffff16905092915050565b6000600560008473ffffffffffffffffffffffffffffffffffffffff1673ffffffffffffffffffffffffffffffffffffffff168152602001908152602001600020600083815260200190815260200160002054905092915050565b600082905060008173ffffffffffffffffffffffffffffffffffffffff1663be9a71bd6040518163ffffffff1660e01b8152600401602060405180830381865afa158015612b58573d6000803e3d6000fd5b505050506040513d601f19601f82011682018060405250810190612b7c91906138e0565b905060008273ffffffffffffffffffffffffffffffffffffffff1663644c45e06040518163ffffffff1660e01b8152600401602060405180830381865afa158015612bcb573d6000803e3d6000fd5b505050506040513d601f19601f82011682018060405250810190612bef9190613922565b905060011515601360009054906101000a900473ffffffffffffffffffffffffffffffffffffffff1673ffffffffffffffffffffffffffffffffffffffff1663491f667484846040518363ffffffff1660e01b8152600401612c529291906138a2565b602060405180830381865afa158015612c6f573d6000803e3d6000fd5b505050506040513d601f19601f82011682018060405250810190612c939190613668565b151514612cd5576040517f08c379a0000000000000000000000000000000000000000000000000000000008152600401612ccc90613e51565b60405180910390fd5b60001515600260008473ffffffffffffffffffffffffffffffffffffffff1673ffffffffffffffffffffffffffffffffffffffff168152602001908152602001600020600083815260200190815260200160002060009054906101000a900460ff16151514612d79576040517f08c379a0000000000000000000000000000000000000000000000000000000008152600401612d7090613ebd565b60405180910390fd5b60001515600860008473ffffffffffffffffffffffffffffffffffffffff1673ffffffffffffffffffffffffffffffffffffffff168152602001908152602001600020600083815260200190815260200160002060009054906101000a900460ff16151514612e1d576040517f08c379a0000000000000000000000000000000000000000000000000000000008152600401612e1490613f29565b60405180910390fd5b600160008673ffffffffffffffffffffffffffffffffffffffff1673ffffffffffffffffffffffffffffffffffffffff16815260200190815260200160002060003373ffffffffffffffffffffffffffffffffffffffff1673ffffffffffffffffffffffffffffffffffffffff16815260200190815260200160002054841115612edc576040517f08c379a0000000000000000000000000000000000000000000000000000000008152600401612ed390613fbb565b60405180910390fd5b8273ffffffffffffffffffffffffffffffffffffffff1663a9059cbb33866040518363ffffffff1660e01b8152600401612f179291906138a2565b6020604051808303816000875af1158015612f36573d6000803e3d6000fd5b505050506040513d601f19601f82011682018060405250810190612f5a9190613668565b5083600160008773ffffffffffffffffffffffffffffffffffffffff1673ffffffffffffffffffffffffffffffffffffffff16815260200190815260200160002060003373ffffffffffffffffffffffffffffffffffffffff1673ffffffffffffffffffffffffffffffffffffffff1681526020019081526020016000206000828254612fe79190613b58565b925050819055505050505050565b6000600a60008473ffffffffffffffffffffffffffffffffffffffff1673ffffffffffffffffffffffffffffffffffffffff168152602001908152602001600020600083815260200190815260200160002060009054906101000a900473ffffffffffffffffffffffffffffffffffffffff16905092915050565b601360009054906101000a900473ffffffffffffffffffffffffffffffffffffffff1673ffffffffffffffffffffffffffffffffffffffff16636b1ac39883836040518363ffffffff1660e01b81526004016130cd9291906138a2565b600060405180830381600087803b1580156130e757600080fd5b505af11580156130fb573d6000803e3d6000fd5b50505050601360009054906101000a900473ffffffffffffffffffffffffffffffffffffffff1673ffffffffffffffffffffffffffffffffffffffff1663f2bb4a888383600a60008773ffffffffffffffffffffffffffffffffffffffff1673ffffffffffffffffffffffffffffffffffffffff168152602001908152602001600020600086815260200190815260200160002060009054906101000a900473ffffffffffffffffffffffffffffffffffffffff166040518463ffffffff1660e01b81526004016131ce93929190613fdb565b600060405180830381600087803b1580156131e857600080fd5b505af11580156131fc573d6000803e3d6000fd5b50505050601360009054906101000a900473ffffffffffffffffffffffffffffffffffffffff1673ffffffffffffffffffffffffffffffffffffffff166334acdea783836040518363ffffffff1660e01b815260040161325d9291906138a2565b600060405180830381600087803b15801561327757600080fd5b505af115801561328b573d6000803e3d6000fd5b50505050601360009054906101000a900473ffffffffffffffffffffffffffffffffffffffff1673ffffffffffffffffffffffffffffffffffffffff16636deb100583836040518363ffffffff1660e01b81526004016132ec9291906138a2565b600060405180830381600087803b15801561330657600080fd5b505af115801561331a573d6000803e3d6000fd5b505050505050565b600080fd5b600073ffffffffffffffffffffffffffffffffffffffff82169050919050565b600061335282613327565b9050919050565b61336281613347565b811461336d57600080fd5b50565b60008135905061337f81613359565b92915050565b60006020828403121561339b5761339a613322565b5b60006133a984828501613370565b91505092915050565b6000819050919050565b6133c5816133b2565b81146133d057600080fd5b50565b6000813590506133e2816133bc565b92915050565b600080604083850312156133ff576133fe613322565b5b600061340d85828601613370565b925050602061341e858286016133d3565b9150509250929050565b613431816133b2565b82525050565b600060208201905061344c6000830184613428565b92915050565b60008115159050919050565b61346781613452565b811461347257600080fd5b50565b6000813590506134848161345e565b92915050565b600080600080608085870312156134a4576134a3613322565b5b60006134b287828801613370565b94505060206134c3878288016133d3565b93505060406134d487828801613475565b92505060606134e5878288016133d3565b91505092959194509250565b6134fa81613452565b82525050565b600060208201905061351560008301846134f1565b92915050565b60008060006060848603121561353457613533613322565b5b600061354286828701613370565b9350506020613553868287016133d3565b9250506040613564868287016133d3565b9150509250925092565b600080600080600060a0868803121561358a57613589613322565b5b600061359888828901613370565b95505060206135a9888289016133d3565b94505060406135ba888289016133d3565b93505060606135cb888289016133d3565b92505060806135dc888289016133d3565b9150509295509295909350565b60008060408385031215613600576135ff613322565b5b600061360e85828601613370565b925050602061361f85828601613370565b9150509250929050565b61363281613347565b82525050565b600060208201905061364d6000830184613629565b92915050565b6000815190506136628161345e565b92915050565b60006020828403121561367e5761367d613322565b5b600061368c84828501613653565b91505092915050565b600082825260208201905092915050565b7f5468697320746f6b656e206973207374696c6c2061637469766520617320612060008201527f6672616374696f6e20746f6b656e20666f7220616e204e465400000000000000602082015250565b6000613702603983613695565b915061370d826136a6565b604082019050919050565b60006020820190508181036000830152613731816136f5565b9050919050565b7f50726f706f73616c20666f72204e4654206973207374696c6c20616374697665600082015250565b600061376e602083613695565b915061377982613738565b602082019050919050565b6000602082019050818103600083015261379d81613761565b9050919050565b7f41756374696f6e206e6f742061637469766520666f722074686973204e465400600082015250565b60006137da601f83613695565b91506137e5826137a4565b602082019050919050565b60006020820190508181036000830152613809816137cd565b9050919050565b7f596f75722062696420776173206c657373207468616e2074686520637572726560008201527f6e74206269640000000000000000000000000000000000000000000000000000602082015250565b600061386c602683613695565b915061387782613810565b604082019050919050565b6000602082019050818103600083015261389b8161385f565b9050919050565b60006040820190506138b76000830185613629565b6138c46020830184613428565b9392505050565b6000815190506138da81613359565b92915050565b6000602082840312156138f6576138f5613322565b5b6000613904848285016138cb565b91505092915050565b60008151905061391c816133bc565b92915050565b60006020828403121561393857613937613322565b5b60006139468482850161390d565b91505092915050565b7f4e487b7100000000000000000000000000000000000000000000000000000000600052601260045260246000fd5b7f4e487b7100000000000000000000000000000000000000000000000000000000600052601160045260246000fd5b60006139b8826133b2565b91506139c3836133b2565b9250826139d3576139d261394f565b5b828204905092915050565b7f5468657265206973206e6f2070726f706f73616c2061637469766520666f722060008201527f74686973204e4654000000000000000000000000000000000000000000000000602082015250565b6000613a3a602883613695565b9150613a45826139de565b604082019050919050565b60006020820190508181036000830152613a6981613a2d565b9050919050565b7f596f7520646f6e2774206861766520656e6f75676820746f6b656e732073746160008201527f6b65640000000000000000000000000000000000000000000000000000000000602082015250565b6000613acc602383613695565b9150613ad782613a70565b604082019050919050565b60006020820190508181036000830152613afb81613abf565b9050919050565b6000613b0d826133b2565b9150613b18836133b2565b9250827fffffffffffffffffffffffffffffffffffffffffffffffffffffffffffffffff03821115613b4d57613b4c61397e565b5b828201905092915050565b6000613b63826133b2565b9150613b6e836133b2565b925082821015613b8157613b8061397e565b5b828203905092915050565b7f5365742061756374696f6e2074696d65206c6f776572207468616e206d617800600082015250565b6000613bc2601f83613695565b9150613bcd82613b8c565b602082019050919050565b60006020820190508181036000830152613bf181613bb5565b9050919050565b7f746f6b656e7320646f206e6f74206861766520616e20616374697665204e4654600082015250565b6000613c2e602083613695565b9150613c3982613bf8565b602082019050919050565b60006020820190508181036000830152613c5d81613c21565b9050919050565b7f796f7520646f6e74206861766520656e6f75676820746f6b656e730000000000600082015250565b6000613c9a601b83613695565b9150613ca582613c64565b602082019050919050565b60006020820190508181036000830152613cc981613c8d565b9050919050565b6000606082019050613ce56000830186613629565b613cf26020830185613629565b613cff6040830184613428565b949350505050565b7f54686973204e4654206973206e6f74206672616374696f6e616c697365000000600082015250565b6000613d3d601d83613695565b9150613d4882613d07565b602082019050919050565b60006020820190508181036000830152613d6c81613d30565b9050919050565b7f596f7520646f206e6f74206861766520656e6f75676820746f6b656e7320737460008201527f616b656400000000000000000000000000000000000000000000000000000000602082015250565b6000613dcf602483613695565b9150613dda82613d73565b604082019050919050565b60006020820190508181036000830152613dfe81613dc2565b9050919050565b7f4e4654206973206e6f74206672616374696f6e616c6973650000000000000000600082015250565b6000613e3b601883613695565b9150613e4682613e05565b602082019050919050565b60006020820190508181036000830152613e6a81613e2e565b9050919050565b7f4e465420697320696e2070726f706f73616c0000000000000000000000000000600082015250565b6000613ea7601283613695565b9150613eb282613e71565b602082019050919050565b60006020820190508181036000830152613ed681613e9a565b9050919050565b7f4e465420697320696e2061756374696f6e000000000000000000000000000000600082015250565b6000613f13601183613695565b9150613f1e82613edd565b602082019050919050565b60006020820190508181036000830152613f4281613f06565b9050919050565b7f796f7520646f6e74206861766520656e6f75676820746f6b656e73207374616b60008201527f6564000000000000000000000000000000000000000000000000000000000000602082015250565b6000613fa5602283613695565b9150613fb082613f49565b604082019050919050565b60006020820190508181036000830152613fd481613f98565b9050919050565b6000606082019050613ff06000830186613629565b613ffd6020830185613428565b61400a6040830184613629565b94935050505056fea26469706673582212208007f41ab0d9a5fd228df51a250f275d8dbc467287dee7161bf6797aef49798764736f6c634300080d0033",
  "linkReferences": {},
  "deployedLinkReferences": {}
}