{
  "_format": "hh-sol-artifact-1",
  "contractName": "baseFractionToken",
  "sourceName": "contracts/FractionToken.sol",
  "abi": [
    {
      "inputs": [
        {
          "internalType": "address",
          "name": "_nftAddress",
          "type": "address"
        },
        {
          "internalType": "uint256",
          "name": "_nftId",
          "type": "uint256"
        },
        {
          "internalType": "address",
          "name": "_nftOwner",
          "type": "address"
        },
        {
          "internalType": "string",
          "name": "_tokenName",
          "type": "string"
        },
        {
          "internalType": "string",
          "name": "_tokenTicker",
          "type": "string"
        },
        {
          "internalType": "uint256",
          "name": "_supply",
          "type": "uint256"
        },
        {
          "internalType": "uint256",
          "name": "_royaltyPercentage",
          "type": "uint256"
        },
        {
          "internalType": "address",
          "name": "_storageContractAddress",
          "type": "address"
        }
      ],
      "stateMutability": "nonpayable",
      "type": "constructor"
    },
    {
      "anonymous": false,
      "inputs": [
        {
          "indexed": true,
          "internalType": "address",
          "name": "owner",
          "type": "address"
        },
        {
          "indexed": true,
          "internalType": "address",
          "name": "spender",
          "type": "address"
        },
        {
          "indexed": false,
          "internalType": "uint256",
          "name": "value",
          "type": "uint256"
        }
      ],
      "name": "Approval",
      "type": "event"
    },
    {
      "anonymous": false,
      "inputs": [
        {
          "indexed": true,
          "internalType": "address",
          "name": "from",
          "type": "address"
        },
        {
          "indexed": true,
          "internalType": "address",
          "name": "to",
          "type": "address"
        },
        {
          "indexed": false,
          "internalType": "uint256",
          "name": "value",
          "type": "uint256"
        }
      ],
      "name": "Transfer",
      "type": "event"
    },
    {
      "inputs": [
        {
          "internalType": "address",
          "name": "_from",
          "type": "address"
        },
        {
          "internalType": "address",
          "name": "_to",
          "type": "address"
        },
        {
          "internalType": "uint256",
          "name": "_amount",
          "type": "uint256"
        }
      ],
      "name": "_transferWithRoyalty",
      "outputs": [],
      "stateMutability": "nonpayable",
      "type": "function"
    },
    {
      "inputs": [
        {
          "internalType": "address",
          "name": "newUser",
          "type": "address"
        },
        {
          "internalType": "address",
          "name": "oldUser",
          "type": "address"
        }
      ],
      "name": "addNewUserRemoveOld",
      "outputs": [],
      "stateMutability": "nonpayable",
      "type": "function"
    },
    {
      "inputs": [
        {
          "internalType": "address",
          "name": "owner",
          "type": "address"
        },
        {
          "internalType": "address",
          "name": "spender",
          "type": "address"
        }
      ],
      "name": "allowance",
      "outputs": [
        {
          "internalType": "uint256",
          "name": "",
          "type": "uint256"
        }
      ],
      "stateMutability": "view",
      "type": "function"
    },
    {
      "inputs": [
        {
          "internalType": "address",
          "name": "spender",
          "type": "address"
        },
        {
          "internalType": "uint256",
          "name": "amount",
          "type": "uint256"
        }
      ],
      "name": "approve",
      "outputs": [
        {
          "internalType": "bool",
          "name": "",
          "type": "bool"
        }
      ],
      "stateMutability": "nonpayable",
      "type": "function"
    },
    {
      "inputs": [
        {
          "internalType": "address",
          "name": "account",
          "type": "address"
        }
      ],
      "name": "balanceOf",
      "outputs": [
        {
          "internalType": "uint256",
          "name": "",
          "type": "uint256"
        }
      ],
      "stateMutability": "view",
      "type": "function"
    },
    {
      "inputs": [
        {
          "internalType": "uint256",
          "name": "amount",
          "type": "uint256"
        }
      ],
      "name": "burn",
      "outputs": [],
      "stateMutability": "nonpayable",
      "type": "function"
    },
    {
      "inputs": [
        {
          "internalType": "address",
          "name": "account",
          "type": "address"
        },
        {
          "internalType": "uint256",
          "name": "amount",
          "type": "uint256"
        }
      ],
      "name": "burnFrom",
      "outputs": [],
      "stateMutability": "nonpayable",
      "type": "function"
    },
    {
      "inputs": [],
      "name": "decimals",
      "outputs": [
        {
          "internalType": "uint8",
          "name": "",
          "type": "uint8"
        }
      ],
      "stateMutability": "view",
      "type": "function"
    },
    {
      "inputs": [
        {
          "internalType": "address",
          "name": "spender",
          "type": "address"
        },
        {
          "internalType": "uint256",
          "name": "subtractedValue",
          "type": "uint256"
        }
      ],
      "name": "decreaseAllowance",
      "outputs": [
        {
          "internalType": "bool",
          "name": "",
          "type": "bool"
        }
      ],
      "stateMutability": "nonpayable",
      "type": "function"
    },
    {
      "inputs": [],
      "name": "getNftAddress",
      "outputs": [
        {
          "internalType": "address",
          "name": "",
          "type": "address"
        }
      ],
      "stateMutability": "view",
      "type": "function"
    },
    {
      "inputs": [],
      "name": "getNftId",
      "outputs": [
        {
          "internalType": "uint256",
          "name": "",
          "type": "uint256"
        }
      ],
      "stateMutability": "view",
      "type": "function"
    },
    {
      "inputs": [],
      "name": "getNftOwner",
      "outputs": [
        {
          "internalType": "address",
          "name": "",
          "type": "address"
        }
      ],
      "stateMutability": "view",
      "type": "function"
    },
    {
      "inputs": [],
      "name": "getNoLongerFractionToken",
      "outputs": [
        {
          "internalType": "bool",
          "name": "",
          "type": "bool"
        }
      ],
      "stateMutability": "view",
      "type": "function"
    },
    {
      "inputs": [
        {
          "internalType": "uint256",
          "name": "_amount",
          "type": "uint256"
        }
      ],
      "name": "getRoyaltyFee",
      "outputs": [
        {
          "internalType": "uint256",
          "name": "",
          "type": "uint256"
        }
      ],
      "stateMutability": "view",
      "type": "function"
    },
    {
      "inputs": [],
      "name": "getRoyaltyPercentage",
      "outputs": [
        {
          "internalType": "uint256",
          "name": "",
          "type": "uint256"
        }
      ],
      "stateMutability": "view",
      "type": "function"
    },
    {
      "inputs": [
        {
          "internalType": "address",
          "name": "spender",
          "type": "address"
        },
        {
          "internalType": "uint256",
          "name": "addedValue",
          "type": "uint256"
        }
      ],
      "name": "increaseAllowance",
      "outputs": [
        {
          "internalType": "bool",
          "name": "",
          "type": "bool"
        }
      ],
      "stateMutability": "nonpayable",
      "type": "function"
    },
    {
      "inputs": [],
      "name": "name",
      "outputs": [
        {
          "internalType": "string",
          "name": "",
          "type": "string"
        }
      ],
      "stateMutability": "view",
      "type": "function"
    },
    {
      "inputs": [],
      "name": "returnTokenOwners",
      "outputs": [
        {
          "internalType": "address[]",
          "name": "",
          "type": "address[]"
        }
      ],
      "stateMutability": "view",
      "type": "function"
    },
    {
      "inputs": [
        {
          "internalType": "address",
          "name": "_address",
          "type": "address"
        }
      ],
      "name": "setAuctionContractAddress",
      "outputs": [],
      "stateMutability": "nonpayable",
      "type": "function"
    },
    {
      "inputs": [],
      "name": "setNoLongerFractionTokenTrue",
      "outputs": [],
      "stateMutability": "nonpayable",
      "type": "function"
    },
    {
      "inputs": [],
      "name": "symbol",
      "outputs": [
        {
          "internalType": "string",
          "name": "",
          "type": "string"
        }
      ],
      "stateMutability": "view",
      "type": "function"
    },
    {
      "inputs": [],
      "name": "totalSupply",
      "outputs": [
        {
          "internalType": "uint256",
          "name": "",
          "type": "uint256"
        }
      ],
      "stateMutability": "view",
      "type": "function"
    },
    {
      "inputs": [
        {
          "internalType": "address",
          "name": "to",
          "type": "address"
        },
        {
          "internalType": "uint256",
          "name": "amount",
          "type": "uint256"
        }
      ],
      "name": "transfer",
      "outputs": [
        {
          "internalType": "bool",
          "name": "",
          "type": "bool"
        }
      ],
      "stateMutability": "nonpayable",
      "type": "function"
    },
    {
      "inputs": [
        {
          "internalType": "address",
          "name": "from",
          "type": "address"
        },
        {
          "internalType": "address",
          "name": "to",
          "type": "address"
        },
        {
          "internalType": "uint256",
          "name": "amount",
          "type": "uint256"
        }
      ],
      "name": "transferFrom",
      "outputs": [
        {
          "internalType": "bool",
          "name": "",
          "type": "bool"
        }
      ],
      "stateMutability": "nonpayable",
      "type": "function"
    },
    {
      "inputs": [
        {
          "internalType": "address",
          "name": "_newOwner",
          "type": "address"
        }
      ],
      "name": "updateNFTOwner",
      "outputs": [],
      "stateMutability": "nonpayable",
      "type": "function"
    }
  ],
  "bytecode": "0x60806040523480156200001157600080fd5b5060405162002c7a38038062002c7a83398181016040528101906200003791906200060a565b84848160039080519060200190620000519291906200031d565b5080600490805190602001906200006a9291906200031d565b50505087600960006101000a81548173ffffffffffffffffffffffffffffffffffffffff021916908373ffffffffffffffffffffffffffffffffffffffff16021790555086600a8190555085600560006101000a81548173ffffffffffffffffffffffffffffffffffffffff021916908373ffffffffffffffffffffffffffffffffffffffff1602179055508160088190555062000131600560009054906101000a900473ffffffffffffffffffffffffffffffffffffffff16846200019b60201b60201c565b80600660006101000a81548173ffffffffffffffffffffffffffffffffffffffff021916908373ffffffffffffffffffffffffffffffffffffffff1602179055506000600c60006101000a81548160ff0219169083151502179055505050505050505050620008b2565b600073ffffffffffffffffffffffffffffffffffffffff168273ffffffffffffffffffffffffffffffffffffffff16036200020d576040517f08c379a0000000000000000000000000000000000000000000000000000000008152600401620002049062000772565b60405180910390fd5b62000221600083836200031360201b60201c565b8060026000828254620002359190620007c3565b92505081905550806000808473ffffffffffffffffffffffffffffffffffffffff1673ffffffffffffffffffffffffffffffffffffffff16815260200190815260200160002060008282546200028c9190620007c3565b925050819055508173ffffffffffffffffffffffffffffffffffffffff16600073ffffffffffffffffffffffffffffffffffffffff167fddf252ad1be2c89b69c2b068fc378daa952ba7f163c4a11628f55a4df523b3ef83604051620002f3919062000831565b60405180910390a36200030f600083836200031860201b60201c565b5050565b505050565b505050565b8280546200032b906200087d565b90600052602060002090601f0160209004810192826200034f57600085556200039b565b82601f106200036a57805160ff19168380011785556200039b565b828001600101855582156200039b579182015b828111156200039a5782518255916020019190600101906200037d565b5b509050620003aa9190620003ae565b5090565b5b80821115620003c9576000816000905550600101620003af565b5090565b6000604051905090565b600080fd5b600080fd5b600073ffffffffffffffffffffffffffffffffffffffff82169050919050565b60006200040e82620003e1565b9050919050565b620004208162000401565b81146200042c57600080fd5b50565b600081519050620004408162000415565b92915050565b6000819050919050565b6200045b8162000446565b81146200046757600080fd5b50565b6000815190506200047b8162000450565b92915050565b600080fd5b600080fd5b6000601f19601f8301169050919050565b7f4e487b7100000000000000000000000000000000000000000000000000000000600052604160045260246000fd5b620004d6826200048b565b810181811067ffffffffffffffff82111715620004f857620004f76200049c565b5b80604052505050565b60006200050d620003cd565b90506200051b8282620004cb565b919050565b600067ffffffffffffffff8211156200053e576200053d6200049c565b5b62000549826200048b565b9050602081019050919050565b60005b838110156200057657808201518184015260208101905062000559565b8381111562000586576000848401525b50505050565b6000620005a36200059d8462000520565b62000501565b905082815260208101848484011115620005c257620005c162000486565b5b620005cf84828562000556565b509392505050565b600082601f830112620005ef57620005ee62000481565b5b8151620006018482602086016200058c565b91505092915050565b600080600080600080600080610100898b0312156200062e576200062d620003d7565b5b60006200063e8b828c016200042f565b9850506020620006518b828c016200046a565b9750506040620006648b828c016200042f565b965050606089015167ffffffffffffffff811115620006885762000687620003dc565b5b620006968b828c01620005d7565b955050608089015167ffffffffffffffff811115620006ba57620006b9620003dc565b5b620006c88b828c01620005d7565b94505060a0620006db8b828c016200046a565b93505060c0620006ee8b828c016200046a565b92505060e0620007018b828c016200042f565b9150509295985092959890939650565b600082825260208201905092915050565b7f45524332303a206d696e7420746f20746865207a65726f206164647265737300600082015250565b60006200075a601f8362000711565b9150620007678262000722565b602082019050919050565b600060208201905081810360008301526200078d816200074b565b9050919050565b7f4e487b7100000000000000000000000000000000000000000000000000000000600052601160045260246000fd5b6000620007d08262000446565b9150620007dd8362000446565b9250827fffffffffffffffffffffffffffffffffffffffffffffffffffffffffffffffff0382111562000815576200081462000794565b5b828201905092915050565b6200082b8162000446565b82525050565b600060208201905062000848600083018462000820565b92915050565b7f4e487b7100000000000000000000000000000000000000000000000000000000600052602260045260246000fd5b600060028204905060018216806200089657607f821691505b602082108103620008ac57620008ab6200084e565b5b50919050565b6123b880620008c26000396000f3fe608060405234801561001057600080fd5b50600436106101735760003560e01c8063644c45e0116100de57806394ee29d911610097578063a457c2d711610071578063a457c2d714610428578063a9059cbb14610458578063be9a71bd14610488578063dd62ed3e146104a657610173565b806394ee29d9146103bc57806395d89b41146103da5780639e4c0141146103f857610173565b8063644c45e0146102fe57806370a082311461031c578063765012211461034c578063777b8eb11461036857806379cc6790146103845780639385e55a146103a057610173565b8063313ce56711610130578063313ce5671461025057806331d8e4551461026e578063395093511461028a57806342966c68146102ba57806359c8b7dd146102d657806362032bc5146102f457610173565b806306fdde031461017857806309323b0214610196578063095ea7b3146101b457806318160ddd146101e457806323b872dd146102025780632b8fdd8914610232575b600080fd5b6101806104d6565b60405161018d919061178f565b60405180910390f35b61019e610568565b6040516101ab91906117cc565b60405180910390f35b6101ce60048036038101906101c99190611880565b61057f565b6040516101db91906117cc565b60405180910390f35b6101ec6105a2565b6040516101f991906118cf565b60405180910390f35b61021c600480360381019061021791906118ea565b6105ac565b60405161022991906117cc565b60405180910390f35b61023a6106ad565b604051610247919061194c565b60405180910390f35b6102586106d7565b6040516102659190611983565b60405180910390f35b6102886004803603810190610283919061199e565b6106e0565b005b6102a4600480360381019061029f9190611880565b6107b4565b6040516102b191906117cc565b60405180910390f35b6102d460048036038101906102cf91906119cb565b6107eb565b005b6102de6107ff565b6040516102eb91906118cf565b60405180910390f35b6102fc610809565b005b6103066108b6565b60405161031391906118cf565b60405180910390f35b6103366004803603810190610331919061199e565b6108c0565b60405161034391906118cf565b60405180910390f35b6103666004803603810190610361919061199e565b610908565b005b610382600480360381019061037d91906118ea565b6109dc565b005b61039e60048036038101906103999190611880565b610a38565b005b6103ba60048036038101906103b591906119f8565b610a58565b005b6103c4610cb8565b6040516103d19190611af6565b60405180910390f35b6103e2610d46565b6040516103ef919061178f565b60405180910390f35b610412600480360381019061040d91906119cb565b610dd8565b60405161041f91906118cf565b60405180910390f35b610442600480360381019061043d9190611880565b610dfb565b60405161044f91906117cc565b60405180910390f35b610472600480360381019061046d9190611880565b610e72565b60405161047f91906117cc565b60405180910390f35b610490610f89565b60405161049d919061194c565b60405180910390f35b6104c060048036038101906104bb91906119f8565b610fb3565b6040516104cd91906118cf565b60405180910390f35b6060600380546104e590611b47565b80601f016020809104026020016040519081016040528092919081815260200182805461051190611b47565b801561055e5780601f106105335761010080835404028352916020019161055e565b820191906000526020600020905b81548152906001019060200180831161054157829003601f168201915b5050505050905090565b6000600c60009054906101000a900460ff16905090565b60008061058a61103a565b9050610597818585611042565b600191505092915050565b6000600254905090565b6000806105b761103a565b90506105c485828561120b565b600760009054906101000a900473ffffffffffffffffffffffffffffffffffffffff1673ffffffffffffffffffffffffffffffffffffffff1661060561103a565b73ffffffffffffffffffffffffffffffffffffffff161415806106765750600760009054906101000a900473ffffffffffffffffffffffffffffffffffffffff1673ffffffffffffffffffffffffffffffffffffffff168473ffffffffffffffffffffffffffffffffffffffff1614155b1561068b576106868585856109dc565b610697565b610696858585611297565b5b6106a18486610a58565b60019150509392505050565b6000600560009054906101000a900473ffffffffffffffffffffffffffffffffffffffff16905090565b60006012905090565b600660009054906101000a900473ffffffffffffffffffffffffffffffffffffffff1673ffffffffffffffffffffffffffffffffffffffff163373ffffffffffffffffffffffffffffffffffffffff1614610770576040517f08c379a000000000000000000000000000000000000000000000000000000000815260040161076790611bea565b60405180910390fd5b80600760006101000a81548173ffffffffffffffffffffffffffffffffffffffff021916908373ffffffffffffffffffffffffffffffffffffffff16021790555050565b6000806107bf61103a565b90506107e08185856107d18589610fb3565b6107db9190611c39565b611042565b600191505092915050565b6107fc6107f661103a565b82611516565b50565b6000600854905090565b600660009054906101000a900473ffffffffffffffffffffffffffffffffffffffff1673ffffffffffffffffffffffffffffffffffffffff163373ffffffffffffffffffffffffffffffffffffffff1614610899576040517f08c379a000000000000000000000000000000000000000000000000000000000815260040161089090611d01565b60405180910390fd5b6001600c60006101000a81548160ff021916908315150217905550565b6000600a54905090565b60008060008373ffffffffffffffffffffffffffffffffffffffff1673ffffffffffffffffffffffffffffffffffffffff168152602001908152602001600020549050919050565b600660009054906101000a900473ffffffffffffffffffffffffffffffffffffffff1673ffffffffffffffffffffffffffffffffffffffff163373ffffffffffffffffffffffffffffffffffffffff1614610998576040517f08c379a000000000000000000000000000000000000000000000000000000000815260040161098f90611bea565b60405180910390fd5b80600560006101000a81548173ffffffffffffffffffffffffffffffffffffffff021916908373ffffffffffffffffffffffffffffffffffffffff16021790555050565b60006109e782610dd8565b9050600081836109f79190611d21565b9050610a2685600560009054906101000a900473ffffffffffffffffffffffffffffffffffffffff1684611297565b610a31858583611297565b5050505050565b610a4a82610a4461103a565b8361120b565b610a548282611516565b5050565b600b829080600181540180825580915050600190039060005260206000200160009091909190916101000a81548173ffffffffffffffffffffffffffffffffffffffff021916908373ffffffffffffffffffffffffffffffffffffffff1602179055506001600d60008473ffffffffffffffffffffffffffffffffffffffff1673ffffffffffffffffffffffffffffffffffffffff16815260200190815260200160002060006101000a81548160ff02191690831515021790555060011515600d60008373ffffffffffffffffffffffffffffffffffffffff1673ffffffffffffffffffffffffffffffffffffffff16815260200190815260200160002060009054906101000a900460ff161515148015610b7b57506000610b79826108c0565b145b15610cb45760005b600b80549050811015610cb2578173ffffffffffffffffffffffffffffffffffffffff16600b8281548110610bbb57610bba611d55565b5b9060005260206000200160009054906101000a900473ffffffffffffffffffffffffffffffffffffffff1673ffffffffffffffffffffffffffffffffffffffff1603610c9f57600b8181548110610c1557610c14611d55565b5b9060005260206000200160006101000a81549073ffffffffffffffffffffffffffffffffffffffff02191690556000600d60008473ffffffffffffffffffffffffffffffffffffffff1673ffffffffffffffffffffffffffffffffffffffff16815260200190815260200160002060006101000a81548160ff021916908315150217905550610cb2565b8080610caa90611d84565b915050610b83565b505b5050565b6060600b805480602002602001604051908101604052809291908181526020018280548015610d3c57602002820191906000526020600020905b8160009054906101000a900473ffffffffffffffffffffffffffffffffffffffff1673ffffffffffffffffffffffffffffffffffffffff1681526020019060010190808311610cf2575b5050505050905090565b606060048054610d5590611b47565b80601f0160208091040260200160405190810160405280929190818152602001828054610d8190611b47565b8015610dce5780601f10610da357610100808354040283529160200191610dce565b820191906000526020600020905b815481529060010190602001808311610db157829003601f168201915b5050505050905090565b6000606460085483610dea9190611dcc565b610df49190611e55565b9050919050565b600080610e0661103a565b90506000610e148286610fb3565b905083811015610e59576040517f08c379a0000000000000000000000000000000000000000000000000000000008152600401610e5090611ef8565b60405180910390fd5b610e668286868403611042565b60019250505092915050565b600080610e7d61103a565b9050600760009054906101000a900473ffffffffffffffffffffffffffffffffffffffff1673ffffffffffffffffffffffffffffffffffffffff16610ec061103a565b73ffffffffffffffffffffffffffffffffffffffff16141580610f315750600760009054906101000a900473ffffffffffffffffffffffffffffffffffffffff1673ffffffffffffffffffffffffffffffffffffffff168473ffffffffffffffffffffffffffffffffffffffff1614155b15610f4657610f418185856109dc565b610f74565b610f7381600560009054906101000a900473ffffffffffffffffffffffffffffffffffffffff1685611297565b5b610f7e8482610a58565b600191505092915050565b6000600960009054906101000a900473ffffffffffffffffffffffffffffffffffffffff16905090565b6000600160008473ffffffffffffffffffffffffffffffffffffffff1673ffffffffffffffffffffffffffffffffffffffff16815260200190815260200160002060008373ffffffffffffffffffffffffffffffffffffffff1673ffffffffffffffffffffffffffffffffffffffff16815260200190815260200160002054905092915050565b600033905090565b600073ffffffffffffffffffffffffffffffffffffffff168373ffffffffffffffffffffffffffffffffffffffff16036110b1576040517f08c379a00000000000000000000000000000000000000000000000000000000081526004016110a890611f8a565b60405180910390fd5b600073ffffffffffffffffffffffffffffffffffffffff168273ffffffffffffffffffffffffffffffffffffffff1603611120576040517f08c379a00000000000000000000000000000000000000000000000000000000081526004016111179061201c565b60405180910390fd5b80600160008573ffffffffffffffffffffffffffffffffffffffff1673ffffffffffffffffffffffffffffffffffffffff16815260200190815260200160002060008473ffffffffffffffffffffffffffffffffffffffff1673ffffffffffffffffffffffffffffffffffffffff168152602001908152602001600020819055508173ffffffffffffffffffffffffffffffffffffffff168373ffffffffffffffffffffffffffffffffffffffff167f8c5be1e5ebec7d5bd14f71427d1e84f3dd0314c0f7b2291e5b200ac8c7c3b925836040516111fe91906118cf565b60405180910390a3505050565b60006112178484610fb3565b90507fffffffffffffffffffffffffffffffffffffffffffffffffffffffffffffffff81146112915781811015611283576040517f08c379a000000000000000000000000000000000000000000000000000000000815260040161127a90612088565b60405180910390fd5b6112908484848403611042565b5b50505050565b600073ffffffffffffffffffffffffffffffffffffffff168373ffffffffffffffffffffffffffffffffffffffff1603611306576040517f08c379a00000000000000000000000000000000000000000000000000000000081526004016112fd9061211a565b60405180910390fd5b600073ffffffffffffffffffffffffffffffffffffffff168273ffffffffffffffffffffffffffffffffffffffff1603611375576040517f08c379a000000000000000000000000000000000000000000000000000000000815260040161136c906121ac565b60405180910390fd5b6113808383836116ec565b60008060008573ffffffffffffffffffffffffffffffffffffffff1673ffffffffffffffffffffffffffffffffffffffff16815260200190815260200160002054905081811015611406576040517f08c379a00000000000000000000000000000000000000000000000000000000081526004016113fd9061223e565b60405180910390fd5b8181036000808673ffffffffffffffffffffffffffffffffffffffff1673ffffffffffffffffffffffffffffffffffffffff16815260200190815260200160002081905550816000808573ffffffffffffffffffffffffffffffffffffffff1673ffffffffffffffffffffffffffffffffffffffff16815260200190815260200160002060008282546114999190611c39565b925050819055508273ffffffffffffffffffffffffffffffffffffffff168473ffffffffffffffffffffffffffffffffffffffff167fddf252ad1be2c89b69c2b068fc378daa952ba7f163c4a11628f55a4df523b3ef846040516114fd91906118cf565b60405180910390a36115108484846116f1565b50505050565b600073ffffffffffffffffffffffffffffffffffffffff168273ffffffffffffffffffffffffffffffffffffffff1603611585576040517f08c379a000000000000000000000000000000000000000000000000000000000815260040161157c906122d0565b60405180910390fd5b611591826000836116ec565b60008060008473ffffffffffffffffffffffffffffffffffffffff1673ffffffffffffffffffffffffffffffffffffffff16815260200190815260200160002054905081811015611617576040517f08c379a000000000000000000000000000000000000000000000000000000000815260040161160e90612362565b60405180910390fd5b8181036000808573ffffffffffffffffffffffffffffffffffffffff1673ffffffffffffffffffffffffffffffffffffffff16815260200190815260200160002081905550816002600082825461166e9190611d21565b92505081905550600073ffffffffffffffffffffffffffffffffffffffff168373ffffffffffffffffffffffffffffffffffffffff167fddf252ad1be2c89b69c2b068fc378daa952ba7f163c4a11628f55a4df523b3ef846040516116d391906118cf565b60405180910390a36116e7836000846116f1565b505050565b505050565b505050565b600081519050919050565b600082825260208201905092915050565b60005b83811015611730578082015181840152602081019050611715565b8381111561173f576000848401525b50505050565b6000601f19601f8301169050919050565b6000611761826116f6565b61176b8185611701565b935061177b818560208601611712565b61178481611745565b840191505092915050565b600060208201905081810360008301526117a98184611756565b905092915050565b60008115159050919050565b6117c6816117b1565b82525050565b60006020820190506117e160008301846117bd565b92915050565b600080fd5b600073ffffffffffffffffffffffffffffffffffffffff82169050919050565b6000611817826117ec565b9050919050565b6118278161180c565b811461183257600080fd5b50565b6000813590506118448161181e565b92915050565b6000819050919050565b61185d8161184a565b811461186857600080fd5b50565b60008135905061187a81611854565b92915050565b60008060408385031215611897576118966117e7565b5b60006118a585828601611835565b92505060206118b68582860161186b565b9150509250929050565b6118c98161184a565b82525050565b60006020820190506118e460008301846118c0565b92915050565b600080600060608486031215611903576119026117e7565b5b600061191186828701611835565b935050602061192286828701611835565b92505060406119338682870161186b565b9150509250925092565b6119468161180c565b82525050565b6000602082019050611961600083018461193d565b92915050565b600060ff82169050919050565b61197d81611967565b82525050565b60006020820190506119986000830184611974565b92915050565b6000602082840312156119b4576119b36117e7565b5b60006119c284828501611835565b91505092915050565b6000602082840312156119e1576119e06117e7565b5b60006119ef8482850161186b565b91505092915050565b60008060408385031215611a0f57611a0e6117e7565b5b6000611a1d85828601611835565b9250506020611a2e85828601611835565b9150509250929050565b600081519050919050565b600082825260208201905092915050565b6000819050602082019050919050565b611a6d8161180c565b82525050565b6000611a7f8383611a64565b60208301905092915050565b6000602082019050919050565b6000611aa382611a38565b611aad8185611a43565b9350611ab883611a54565b8060005b83811015611ae9578151611ad08882611a73565b9750611adb83611a8b565b925050600181019050611abc565b5085935050505092915050565b60006020820190508181036000830152611b108184611a98565b905092915050565b7f4e487b7100000000000000000000000000000000000000000000000000000000600052602260045260246000fd5b60006002820490506001821680611b5f57607f821691505b602082108103611b7257611b71611b18565b5b50919050565b7f6f6e6c792073746f7261676520636f6e74726163742063616e2075706461746560008201527f2074686973000000000000000000000000000000000000000000000000000000602082015250565b6000611bd4602583611701565b9150611bdf82611b78565b604082019050919050565b60006020820190508181036000830152611c0381611bc7565b9050919050565b7f4e487b7100000000000000000000000000000000000000000000000000000000600052601160045260246000fd5b6000611c448261184a565b9150611c4f8361184a565b9250827fffffffffffffffffffffffffffffffffffffffffffffffffffffffffffffffff03821115611c8457611c83611c0a565b5b828201905092915050565b7f546869732066756e6374696f6e2063616e206f6e6c792062652063616c6c656460008201527f2066726f6d207468652073746f7261676520636f6e7472616374000000000000602082015250565b6000611ceb603a83611701565b9150611cf682611c8f565b604082019050919050565b60006020820190508181036000830152611d1a81611cde565b9050919050565b6000611d2c8261184a565b9150611d378361184a565b925082821015611d4a57611d49611c0a565b5b828203905092915050565b7f4e487b7100000000000000000000000000000000000000000000000000000000600052603260045260246000fd5b6000611d8f8261184a565b91507fffffffffffffffffffffffffffffffffffffffffffffffffffffffffffffffff8203611dc157611dc0611c0a565b5b600182019050919050565b6000611dd78261184a565b9150611de28361184a565b9250817fffffffffffffffffffffffffffffffffffffffffffffffffffffffffffffffff0483118215151615611e1b57611e1a611c0a565b5b828202905092915050565b7f4e487b7100000000000000000000000000000000000000000000000000000000600052601260045260246000fd5b6000611e608261184a565b9150611e6b8361184a565b925082611e7b57611e7a611e26565b5b828204905092915050565b7f45524332303a2064656372656173656420616c6c6f77616e63652062656c6f7760008201527f207a65726f000000000000000000000000000000000000000000000000000000602082015250565b6000611ee2602583611701565b9150611eed82611e86565b604082019050919050565b60006020820190508181036000830152611f1181611ed5565b9050919050565b7f45524332303a20617070726f76652066726f6d20746865207a65726f2061646460008201527f7265737300000000000000000000000000000000000000000000000000000000602082015250565b6000611f74602483611701565b9150611f7f82611f18565b604082019050919050565b60006020820190508181036000830152611fa381611f67565b9050919050565b7f45524332303a20617070726f766520746f20746865207a65726f20616464726560008201527f7373000000000000000000000000000000000000000000000000000000000000602082015250565b6000612006602283611701565b915061201182611faa565b604082019050919050565b6000602082019050818103600083015261203581611ff9565b9050919050565b7f45524332303a20696e73756666696369656e7420616c6c6f77616e6365000000600082015250565b6000612072601d83611701565b915061207d8261203c565b602082019050919050565b600060208201905081810360008301526120a181612065565b9050919050565b7f45524332303a207472616e736665722066726f6d20746865207a65726f20616460008201527f6472657373000000000000000000000000000000000000000000000000000000602082015250565b6000612104602583611701565b915061210f826120a8565b604082019050919050565b60006020820190508181036000830152612133816120f7565b9050919050565b7f45524332303a207472616e7366657220746f20746865207a65726f206164647260008201527f6573730000000000000000000000000000000000000000000000000000000000602082015250565b6000612196602383611701565b91506121a18261213a565b604082019050919050565b600060208201905081810360008301526121c581612189565b9050919050565b7f45524332303a207472616e7366657220616d6f756e742065786365656473206260008201527f616c616e63650000000000000000000000000000000000000000000000000000602082015250565b6000612228602683611701565b9150612233826121cc565b604082019050919050565b600060208201905081810360008301526122578161221b565b9050919050565b7f45524332303a206275726e2066726f6d20746865207a65726f2061646472657360008201527f7300000000000000000000000000000000000000000000000000000000000000602082015250565b60006122ba602183611701565b91506122c58261225e565b604082019050919050565b600060208201905081810360008301526122e9816122ad565b9050919050565b7f45524332303a206275726e20616d6f756e7420657863656564732062616c616e60008201527f6365000000000000000000000000000000000000000000000000000000000000602082015250565b600061234c602283611701565b9150612357826122f0565b604082019050919050565b6000602082019050818103600083015261237b8161233f565b905091905056fea26469706673582212205e6a4a6663beb33441c9be516bfb4d78f9a3dd705e33827b3b35780db68355e064736f6c634300080e0033",
  "linkReferences": {},
  "deployedLinkReferences": {}
}