{
  "_format": "hh-sol-artifact-1",
  "contractName": "NFT",
  "sourceName": "contracts/NFTContract.sol",
  "abi": [
    {
      "inputs": [
        {
          "internalType": "string",
          "name": "_name",
          "type": "string"
        },
        {
          "internalType": "string",
          "name": "_symbol",
          "type": "string"
        },
        {
          "internalType": "string",
          "name": "_initBaseURI",
          "type": "string"
        }
      ],
      "stateMutability": "nonpayable",
      "type": "constructor"
    },
    {
      "anonymous": false,
      "inputs": [
        {
          "indexed": true,
          "internalType": "address",
          "name": "owner",
          "type": "address"
        },
        {
          "indexed": true,
          "internalType": "address",
          "name": "approved",
          "type": "address"
        },
        {
          "indexed": true,
          "internalType": "uint256",
          "name": "tokenId",
          "type": "uint256"
        }
      ],
      "name": "Approval",
      "type": "event"
    },
    {
      "anonymous": false,
      "inputs": [
        {
          "indexed": true,
          "internalType": "address",
          "name": "owner",
          "type": "address"
        },
        {
          "indexed": true,
          "internalType": "address",
          "name": "operator",
          "type": "address"
        },
        {
          "indexed": false,
          "internalType": "bool",
          "name": "approved",
          "type": "bool"
        }
      ],
      "name": "ApprovalForAll",
      "type": "event"
    },
    {
      "anonymous": false,
      "inputs": [
        {
          "indexed": true,
          "internalType": "address",
          "name": "previousOwner",
          "type": "address"
        },
        {
          "indexed": true,
          "internalType": "address",
          "name": "newOwner",
          "type": "address"
        }
      ],
      "name": "OwnershipTransferred",
      "type": "event"
    },
    {
      "anonymous": false,
      "inputs": [
        {
          "indexed": true,
          "internalType": "address",
          "name": "from",
          "type": "address"
        },
        {
          "indexed": true,
          "internalType": "address",
          "name": "to",
          "type": "address"
        },
        {
          "indexed": true,
          "internalType": "uint256",
          "name": "tokenId",
          "type": "uint256"
        }
      ],
      "name": "Transfer",
      "type": "event"
    },
    {
      "inputs": [
        {
          "internalType": "address",
          "name": "to",
          "type": "address"
        },
        {
          "internalType": "uint256",
          "name": "tokenId",
          "type": "uint256"
        }
      ],
      "name": "approve",
      "outputs": [],
      "stateMutability": "nonpayable",
      "type": "function"
    },
    {
      "inputs": [
        {
          "internalType": "address",
          "name": "owner",
          "type": "address"
        }
      ],
      "name": "balanceOf",
      "outputs": [
        {
          "internalType": "uint256",
          "name": "",
          "type": "uint256"
        }
      ],
      "stateMutability": "view",
      "type": "function"
    },
    {
      "inputs": [],
      "name": "baseExtension",
      "outputs": [
        {
          "internalType": "string",
          "name": "",
          "type": "string"
        }
      ],
      "stateMutability": "view",
      "type": "function"
    },
    {
      "inputs": [],
      "name": "baseURI",
      "outputs": [
        {
          "internalType": "string",
          "name": "",
          "type": "string"
        }
      ],
      "stateMutability": "view",
      "type": "function"
    },
    {
      "inputs": [
        {
          "internalType": "uint256",
          "name": "tokenId",
          "type": "uint256"
        }
      ],
      "name": "getApproved",
      "outputs": [
        {
          "internalType": "address",
          "name": "",
          "type": "address"
        }
      ],
      "stateMutability": "view",
      "type": "function"
    },
    {
      "inputs": [
        {
          "internalType": "address",
          "name": "owner",
          "type": "address"
        },
        {
          "internalType": "address",
          "name": "operator",
          "type": "address"
        }
      ],
      "name": "isApprovedForAll",
      "outputs": [
        {
          "internalType": "bool",
          "name": "",
          "type": "bool"
        }
      ],
      "stateMutability": "view",
      "type": "function"
    },
    {
      "inputs": [],
      "name": "maxMintAmount",
      "outputs": [
        {
          "internalType": "uint256",
          "name": "",
          "type": "uint256"
        }
      ],
      "stateMutability": "view",
      "type": "function"
    },
    {
      "inputs": [],
      "name": "maxSupply",
      "outputs": [
        {
          "internalType": "uint256",
          "name": "",
          "type": "uint256"
        }
      ],
      "stateMutability": "view",
      "type": "function"
    },
    {
      "inputs": [
        {
          "internalType": "address",
          "name": "_to",
          "type": "address"
        },
        {
          "internalType": "uint256",
          "name": "_mintAmount",
          "type": "uint256"
        }
      ],
      "name": "mint",
      "outputs": [],
      "stateMutability": "nonpayable",
      "type": "function"
    },
    {
      "inputs": [],
      "name": "name",
      "outputs": [
        {
          "internalType": "string",
          "name": "",
          "type": "string"
        }
      ],
      "stateMutability": "view",
      "type": "function"
    },
    {
      "inputs": [],
      "name": "owner",
      "outputs": [
        {
          "internalType": "address",
          "name": "",
          "type": "address"
        }
      ],
      "stateMutability": "view",
      "type": "function"
    },
    {
      "inputs": [
        {
          "internalType": "uint256",
          "name": "tokenId",
          "type": "uint256"
        }
      ],
      "name": "ownerOf",
      "outputs": [
        {
          "internalType": "address",
          "name": "",
          "type": "address"
        }
      ],
      "stateMutability": "view",
      "type": "function"
    },
    {
      "inputs": [],
      "name": "paused",
      "outputs": [
        {
          "internalType": "bool",
          "name": "",
          "type": "bool"
        }
      ],
      "stateMutability": "view",
      "type": "function"
    },
    {
      "inputs": [],
      "name": "renounceOwnership",
      "outputs": [],
      "stateMutability": "nonpayable",
      "type": "function"
    },
    {
      "inputs": [
        {
          "internalType": "address",
          "name": "from",
          "type": "address"
        },
        {
          "internalType": "address",
          "name": "to",
          "type": "address"
        },
        {
          "internalType": "uint256",
          "name": "tokenId",
          "type": "uint256"
        }
      ],
      "name": "safeTransferFrom",
      "outputs": [],
      "stateMutability": "nonpayable",
      "type": "function"
    },
    {
      "inputs": [
        {
          "internalType": "address",
          "name": "from",
          "type": "address"
        },
        {
          "internalType": "address",
          "name": "to",
          "type": "address"
        },
        {
          "internalType": "uint256",
          "name": "tokenId",
          "type": "uint256"
        },
        {
          "internalType": "bytes",
          "name": "_data",
          "type": "bytes"
        }
      ],
      "name": "safeTransferFrom",
      "outputs": [],
      "stateMutability": "nonpayable",
      "type": "function"
    },
    {
      "inputs": [
        {
          "internalType": "address",
          "name": "operator",
          "type": "address"
        },
        {
          "internalType": "bool",
          "name": "approved",
          "type": "bool"
        }
      ],
      "name": "setApprovalForAll",
      "outputs": [],
      "stateMutability": "nonpayable",
      "type": "function"
    },
    {
      "inputs": [
        {
          "internalType": "string",
          "name": "_newBaseExtension",
          "type": "string"
        }
      ],
      "name": "setBaseExtension",
      "outputs": [],
      "stateMutability": "nonpayable",
      "type": "function"
    },
    {
      "inputs": [
        {
          "internalType": "string",
          "name": "_newBaseURI",
          "type": "string"
        }
      ],
      "name": "setBaseURI",
      "outputs": [],
      "stateMutability": "nonpayable",
      "type": "function"
    },
    {
      "inputs": [
        {
          "internalType": "uint256",
          "name": "_newmaxMintAmount",
          "type": "uint256"
        }
      ],
      "name": "setmaxMintAmount",
      "outputs": [],
      "stateMutability": "nonpayable",
      "type": "function"
    },
    {
      "inputs": [
        {
          "internalType": "bytes4",
          "name": "interfaceId",
          "type": "bytes4"
        }
      ],
      "name": "supportsInterface",
      "outputs": [
        {
          "internalType": "bool",
          "name": "",
          "type": "bool"
        }
      ],
      "stateMutability": "view",
      "type": "function"
    },
    {
      "inputs": [],
      "name": "symbol",
      "outputs": [
        {
          "internalType": "string",
          "name": "",
          "type": "string"
        }
      ],
      "stateMutability": "view",
      "type": "function"
    },
    {
      "inputs": [
        {
          "internalType": "uint256",
          "name": "index",
          "type": "uint256"
        }
      ],
      "name": "tokenByIndex",
      "outputs": [
        {
          "internalType": "uint256",
          "name": "",
          "type": "uint256"
        }
      ],
      "stateMutability": "view",
      "type": "function"
    },
    {
      "inputs": [
        {
          "internalType": "address",
          "name": "owner",
          "type": "address"
        },
        {
          "internalType": "uint256",
          "name": "index",
          "type": "uint256"
        }
      ],
      "name": "tokenOfOwnerByIndex",
      "outputs": [
        {
          "internalType": "uint256",
          "name": "",
          "type": "uint256"
        }
      ],
      "stateMutability": "view",
      "type": "function"
    },
    {
      "inputs": [
        {
          "internalType": "uint256",
          "name": "tokenId",
          "type": "uint256"
        }
      ],
      "name": "tokenURI",
      "outputs": [
        {
          "internalType": "string",
          "name": "",
          "type": "string"
        }
      ],
      "stateMutability": "view",
      "type": "function"
    },
    {
      "inputs": [],
      "name": "totalSupply",
      "outputs": [
        {
          "internalType": "uint256",
          "name": "",
          "type": "uint256"
        }
      ],
      "stateMutability": "view",
      "type": "function"
    },
    {
      "inputs": [
        {
          "internalType": "address",
          "name": "from",
          "type": "address"
        },
        {
          "internalType": "address",
          "name": "to",
          "type": "address"
        },
        {
          "internalType": "uint256",
          "name": "tokenId",
          "type": "uint256"
        }
      ],
      "name": "transferFrom",
      "outputs": [],
      "stateMutability": "nonpayable",
      "type": "function"
    },
    {
      "inputs": [
        {
          "internalType": "address",
          "name": "newOwner",
          "type": "address"
        }
      ],
      "name": "transferOwnership",
      "outputs": [],
      "stateMutability": "nonpayable",
      "type": "function"
    },
    {
      "inputs": [
        {
          "internalType": "address",
          "name": "_owner",
          "type": "address"
        }
      ],
      "name": "walletOfOwner",
      "outputs": [
        {
          "internalType": "uint256[]",
          "name": "",
          "type": "uint256[]"
        }
      ],
      "stateMutability": "view",
      "type": "function"
    },
    {
      "inputs": [
        {
          "internalType": "address",
          "name": "",
          "type": "address"
        }
      ],
      "name": "whitelisted",
      "outputs": [
        {
          "internalType": "bool",
          "name": "",
          "type": "bool"
        }
      ],
      "stateMutability": "view",
      "type": "function"
    }
  ],
  "bytecode": "0x60806040526040518060400160405280600581526020017f2e6a736f6e000000000000000000000000000000000000000000000000000000815250600c90805190602001906200005192919062000d8e565b50612710600d556001600e556000600f60006101000a81548160ff0219169083151502179055503480156200008557600080fd5b5060405162005187380380620051878339818101604052810190620000ab919062000fdb565b82828160009080519060200190620000c592919062000d8e565b508060019080519060200190620000de92919062000d8e565b50505062000101620000f56200012e60201b60201c565b6200013660201b60201c565b6200011281620001fc60201b60201c565b62000125336001620002a760201b60201c565b505050620016a1565b600033905090565b6000600a60009054906101000a900473ffffffffffffffffffffffffffffffffffffffff16905081600a60006101000a81548173ffffffffffffffffffffffffffffffffffffffff021916908373ffffffffffffffffffffffffffffffffffffffff1602179055508173ffffffffffffffffffffffffffffffffffffffff168173ffffffffffffffffffffffffffffffffffffffff167f8be0079c531659141344cd1fd0a4f28419497f9722a3daafe3b4186f6b6457e060405160405180910390a35050565b6200020c6200012e60201b60201c565b73ffffffffffffffffffffffffffffffffffffffff16620002326200035b60201b60201c565b73ffffffffffffffffffffffffffffffffffffffff16146200028b576040517f08c379a00000000000000000000000000000000000000000000000000000000081526004016200028290620010f5565b60405180910390fd5b80600b9080519060200190620002a392919062000d8e565b5050565b6000620002b96200038560201b60201c565b9050600f60009054906101000a900460ff1615620002d657600080fd5b60008211620002e457600080fd5b600e54821115620002f457600080fd5b600d54828262000305919062001150565b11156200031157600080fd5b6000600190505b82811162000355576200033f84828462000333919062001150565b6200039260201b60201c565b80806200034c90620011ad565b91505062000318565b50505050565b6000600a60009054906101000a900473ffffffffffffffffffffffffffffffffffffffff16905090565b6000600880549050905090565b620003b4828260405180602001604052806000815250620003b860201b60201c565b5050565b620003ca83836200042660201b60201c565b620003df60008484846200061f60201b60201c565b62000421576040517f08c379a0000000000000000000000000000000000000000000000000000000008152600401620004189062001270565b60405180910390fd5b505050565b600073ffffffffffffffffffffffffffffffffffffffff168273ffffffffffffffffffffffffffffffffffffffff160362000498576040517f08c379a00000000000000000000000000000000000000000000000000000000081526004016200048f90620012e2565b60405180910390fd5b620004a981620007c860201b60201c565b15620004ec576040517f08c379a0000000000000000000000000000000000000000000000000000000008152600401620004e39062001354565b60405180910390fd5b62000500600083836200083460201b60201c565b6001600360008473ffffffffffffffffffffffffffffffffffffffff1673ffffffffffffffffffffffffffffffffffffffff168152602001908152602001600020600082825462000552919062001150565b92505081905550816002600083815260200190815260200160002060006101000a81548173ffffffffffffffffffffffffffffffffffffffff021916908373ffffffffffffffffffffffffffffffffffffffff160217905550808273ffffffffffffffffffffffffffffffffffffffff16600073ffffffffffffffffffffffffffffffffffffffff167fddf252ad1be2c89b69c2b068fc378daa952ba7f163c4a11628f55a4df523b3ef60405160405180910390a46200061b600083836200097960201b60201c565b5050565b60006200064d8473ffffffffffffffffffffffffffffffffffffffff166200097e60201b620013dc1760201c565b15620007bb578373ffffffffffffffffffffffffffffffffffffffff1663150b7a026200067f6200012e60201b60201c565b8786866040518563ffffffff1660e01b8152600401620006a3949392919062001429565b6020604051808303816000875af1925050508015620006e257506040513d601f19601f82011682018060405250810190620006df9190620014da565b60015b6200076a573d806000811462000715576040519150601f19603f3d011682016040523d82523d6000602084013e6200071a565b606091505b50600081510362000762576040517f08c379a0000000000000000000000000000000000000000000000000000000008152600401620007599062001270565b60405180910390fd5b805181602001fd5b63150b7a0260e01b7bffffffffffffffffffffffffffffffffffffffffffffffffffffffff1916817bffffffffffffffffffffffffffffffffffffffffffffffffffffffff191614915050620007c0565b600190505b949350505050565b60008073ffffffffffffffffffffffffffffffffffffffff166002600084815260200190815260200160002060009054906101000a900473ffffffffffffffffffffffffffffffffffffffff1673ffffffffffffffffffffffffffffffffffffffff1614159050919050565b6200084c838383620009a160201b620013ff1760201c565b600073ffffffffffffffffffffffffffffffffffffffff168373ffffffffffffffffffffffffffffffffffffffff160362000898576200089281620009a660201b60201c565b620008e0565b8173ffffffffffffffffffffffffffffffffffffffff168373ffffffffffffffffffffffffffffffffffffffff1614620008df57620008de8382620009ef60201b60201c565b5b5b600073ffffffffffffffffffffffffffffffffffffffff168273ffffffffffffffffffffffffffffffffffffffff16036200092c57620009268162000b6c60201b60201c565b62000974565b8273ffffffffffffffffffffffffffffffffffffffff168273ffffffffffffffffffffffffffffffffffffffff1614620009735762000972828262000c4860201b60201c565b5b5b505050565b505050565b6000808273ffffffffffffffffffffffffffffffffffffffff163b119050919050565b505050565b6008805490506009600083815260200190815260200160002081905550600881908060018154018082558091505060019003906000526020600020016000909190919091505550565b6000600162000a098462000cd460201b62000d6e1760201c565b62000a1591906200150c565b905060006007600084815260200190815260200160002054905081811462000afb576000600660008673ffffffffffffffffffffffffffffffffffffffff1673ffffffffffffffffffffffffffffffffffffffff168152602001908152602001600020600084815260200190815260200160002054905080600660008773ffffffffffffffffffffffffffffffffffffffff1673ffffffffffffffffffffffffffffffffffffffff168152602001908152602001600020600084815260200190815260200160002081905550816007600083815260200190815260200160002081905550505b6007600084815260200190815260200160002060009055600660008573ffffffffffffffffffffffffffffffffffffffff1673ffffffffffffffffffffffffffffffffffffffff16815260200190815260200160002060008381526020019081526020016000206000905550505050565b6000600160088054905062000b8291906200150c565b905060006009600084815260200190815260200160002054905060006008838154811062000bb55762000bb462001547565b5b90600052602060002001549050806008838154811062000bda5762000bd962001547565b5b90600052602060002001819055508160096000838152602001908152602001600020819055506009600085815260200190815260200160002060009055600880548062000c2c5762000c2b62001576565b5b6001900381819060005260206000200160009055905550505050565b600062000c608362000cd460201b62000d6e1760201c565b905081600660008573ffffffffffffffffffffffffffffffffffffffff1673ffffffffffffffffffffffffffffffffffffffff168152602001908152602001600020600083815260200190815260200160002081905550806007600084815260200190815260200160002081905550505050565b60008073ffffffffffffffffffffffffffffffffffffffff168273ffffffffffffffffffffffffffffffffffffffff160362000d47576040517f08c379a000000000000000000000000000000000000000000000000000000000815260040162000d3e906200161b565b60405180910390fd5b600360008373ffffffffffffffffffffffffffffffffffffffff1673ffffffffffffffffffffffffffffffffffffffff168152602001908152602001600020549050919050565b82805462000d9c906200166c565b90600052602060002090601f01602090048101928262000dc0576000855562000e0c565b82601f1062000ddb57805160ff191683800117855562000e0c565b8280016001018555821562000e0c579182015b8281111562000e0b57825182559160200191906001019062000dee565b5b50905062000e1b919062000e1f565b5090565b5b8082111562000e3a57600081600090555060010162000e20565b5090565b6000604051905090565b600080fd5b600080fd5b600080fd5b600080fd5b6000601f19601f8301169050919050565b7f4e487b7100000000000000000000000000000000000000000000000000000000600052604160045260246000fd5b62000ea78262000e5c565b810181811067ffffffffffffffff8211171562000ec95762000ec862000e6d565b5b80604052505050565b600062000ede62000e3e565b905062000eec828262000e9c565b919050565b600067ffffffffffffffff82111562000f0f5762000f0e62000e6d565b5b62000f1a8262000e5c565b9050602081019050919050565b60005b8381101562000f4757808201518184015260208101905062000f2a565b8381111562000f57576000848401525b50505050565b600062000f7462000f6e8462000ef1565b62000ed2565b90508281526020810184848401111562000f935762000f9262000e57565b5b62000fa084828562000f27565b509392505050565b600082601f83011262000fc05762000fbf62000e52565b5b815162000fd284826020860162000f5d565b91505092915050565b60008060006060848603121562000ff75762000ff662000e48565b5b600084015167ffffffffffffffff81111562001018576200101762000e4d565b5b620010268682870162000fa8565b935050602084015167ffffffffffffffff8111156200104a576200104962000e4d565b5b620010588682870162000fa8565b925050604084015167ffffffffffffffff8111156200107c576200107b62000e4d565b5b6200108a8682870162000fa8565b9150509250925092565b600082825260208201905092915050565b7f4f776e61626c653a2063616c6c6572206973206e6f7420746865206f776e6572600082015250565b6000620010dd60208362001094565b9150620010ea82620010a5565b602082019050919050565b600060208201905081810360008301526200111081620010ce565b9050919050565b6000819050919050565b7f4e487b7100000000000000000000000000000000000000000000000000000000600052601160045260246000fd5b60006200115d8262001117565b91506200116a8362001117565b9250827fffffffffffffffffffffffffffffffffffffffffffffffffffffffffffffffff03821115620011a257620011a162001121565b5b828201905092915050565b6000620011ba8262001117565b91507fffffffffffffffffffffffffffffffffffffffffffffffffffffffffffffffff8203620011ef57620011ee62001121565b5b600182019050919050565b7f4552433732313a207472616e7366657220746f206e6f6e20455243373231526560008201527f63656976657220696d706c656d656e7465720000000000000000000000000000602082015250565b60006200125860328362001094565b91506200126582620011fa565b604082019050919050565b600060208201905081810360008301526200128b8162001249565b9050919050565b7f4552433732313a206d696e7420746f20746865207a65726f2061646472657373600082015250565b6000620012ca60208362001094565b9150620012d78262001292565b602082019050919050565b60006020820190508181036000830152620012fd81620012bb565b9050919050565b7f4552433732313a20746f6b656e20616c7265616479206d696e74656400000000600082015250565b60006200133c601c8362001094565b9150620013498262001304565b602082019050919050565b600060208201905081810360008301526200136f816200132d565b9050919050565b600073ffffffffffffffffffffffffffffffffffffffff82169050919050565b6000620013a38262001376565b9050919050565b620013b58162001396565b82525050565b620013c68162001117565b82525050565b600081519050919050565b600082825260208201905092915050565b6000620013f582620013cc565b620014018185620013d7565b93506200141381856020860162000f27565b6200141e8162000e5c565b840191505092915050565b6000608082019050620014406000830187620013aa565b6200144f6020830186620013aa565b6200145e6040830185620013bb565b8181036060830152620014728184620013e8565b905095945050505050565b60007fffffffff0000000000000000000000000000000000000000000000000000000082169050919050565b620014b4816200147d565b8114620014c057600080fd5b50565b600081519050620014d481620014a9565b92915050565b600060208284031215620014f357620014f262000e48565b5b60006200150384828501620014c3565b91505092915050565b6000620015198262001117565b9150620015268362001117565b9250828210156200153c576200153b62001121565b5b828203905092915050565b7f4e487b7100000000000000000000000000000000000000000000000000000000600052603260045260246000fd5b7f4e487b7100000000000000000000000000000000000000000000000000000000600052603160045260246000fd5b7f4552433732313a2062616c616e636520717565727920666f7220746865207a6560008201527f726f206164647265737300000000000000000000000000000000000000000000602082015250565b600062001603602a8362001094565b91506200161082620015a5565b604082019050919050565b600060208201905081810360008301526200163681620015f4565b9050919050565b7f4e487b7100000000000000000000000000000000000000000000000000000000600052602260045260246000fd5b600060028204905060018216806200168557607f821691505b6020821081036200169b576200169a6200163d565b5b50919050565b613ad680620016b16000396000f3fe608060405234801561001057600080fd5b50600436106101da5760003560e01c80636c0360eb11610104578063b88d4fde116100a2578063d936547e11610071578063d936547e14610557578063da3ef23f14610587578063e985e9c5146105a3578063f2fde38b146105d3576101da565b8063b88d4fde146104cf578063c6682862146104eb578063c87b56dd14610509578063d5abeb0114610539576101da565b80637f00c7a6116100de5780637f00c7a61461045b5780638da5cb5b1461047757806395d89b4114610495578063a22cb465146104b3576101da565b80636c0360eb1461040357806370a0823114610421578063715018a614610451576101da565b80632f745c591161017c5780634f6ccce71161014b5780634f6ccce71461036957806355f804b3146103995780635c975abb146103b55780636352211e146103d3576101da565b80632f745c59146102d157806340c10f191461030157806342842e0e1461031d578063438b630014610339576101da565b8063095ea7b3116101b8578063095ea7b31461025d57806318160ddd14610279578063239c70ae1461029757806323b872dd146102b5576101da565b806301ffc9a7146101df57806306fdde031461020f578063081812fc1461022d575b600080fd5b6101f960048036038101906101f491906125e6565b6105ef565b604051610206919061262e565b60405180910390f35b610217610669565b60405161022491906126e2565b60405180910390f35b6102476004803603810190610242919061273a565b6106fb565b60405161025491906127a8565b60405180910390f35b610277600480360381019061027291906127ef565b610780565b005b610281610897565b60405161028e919061283e565b60405180910390f35b61029f6108a4565b6040516102ac919061283e565b60405180910390f35b6102cf60048036038101906102ca9190612859565b6108aa565b005b6102eb60048036038101906102e691906127ef565b61090a565b6040516102f8919061283e565b60405180910390f35b61031b600480360381019061031691906127ef565b6109af565b005b61033760048036038101906103329190612859565b610a47565b005b610353600480360381019061034e91906128ac565b610a67565b6040516103609190612997565b60405180910390f35b610383600480360381019061037e919061273a565b610b15565b604051610390919061283e565b60405180910390f35b6103b360048036038101906103ae9190612aee565b610b86565b005b6103bd610c1c565b6040516103ca919061262e565b60405180910390f35b6103ed60048036038101906103e8919061273a565b610c2f565b6040516103fa91906127a8565b60405180910390f35b61040b610ce0565b60405161041891906126e2565b60405180910390f35b61043b600480360381019061043691906128ac565b610d6e565b604051610448919061283e565b60405180910390f35b610459610e25565b005b6104756004803603810190610470919061273a565b610ead565b005b61047f610f33565b60405161048c91906127a8565b60405180910390f35b61049d610f5d565b6040516104aa91906126e2565b60405180910390f35b6104cd60048036038101906104c89190612b63565b610fef565b005b6104e960048036038101906104e49190612c44565b611005565b005b6104f3611067565b60405161050091906126e2565b60405180910390f35b610523600480360381019061051e919061273a565b6110f5565b60405161053091906126e2565b60405180910390f35b610541611195565b60405161054e919061283e565b60405180910390f35b610571600480360381019061056c91906128ac565b61119b565b60405161057e919061262e565b60405180910390f35b6105a1600480360381019061059c9190612aee565b6111bb565b005b6105bd60048036038101906105b89190612cc7565b611251565b6040516105ca919061262e565b60405180910390f35b6105ed60048036038101906105e891906128ac565b6112e5565b005b60007f780e9d63000000000000000000000000000000000000000000000000000000007bffffffffffffffffffffffffffffffffffffffffffffffffffffffff1916827bffffffffffffffffffffffffffffffffffffffffffffffffffffffff19161480610662575061066182611404565b5b9050919050565b60606000805461067890612d36565b80601f01602080910402602001604051908101604052809291908181526020018280546106a490612d36565b80156106f15780601f106106c6576101008083540402835291602001916106f1565b820191906000526020600020905b8154815290600101906020018083116106d457829003601f168201915b5050505050905090565b6000610706826114e6565b610745576040517f08c379a000000000000000000000000000000000000000000000000000000000815260040161073c90612dd9565b60405180910390fd5b6004600083815260200190815260200160002060009054906101000a900473ffffffffffffffffffffffffffffffffffffffff169050919050565b600061078b82610c2f565b90508073ffffffffffffffffffffffffffffffffffffffff168373ffffffffffffffffffffffffffffffffffffffff16036107fb576040517f08c379a00000000000000000000000000000000000000000000000000000000081526004016107f290612e6b565b60405180910390fd5b8073ffffffffffffffffffffffffffffffffffffffff1661081a611552565b73ffffffffffffffffffffffffffffffffffffffff161480610849575061084881610843611552565b611251565b5b610888576040517f08c379a000000000000000000000000000000000000000000000000000000000815260040161087f90612efd565b60405180910390fd5b610892838361155a565b505050565b6000600880549050905090565b600e5481565b6108bb6108b5611552565b82611613565b6108fa576040517f08c379a00000000000000000000000000000000000000000000000000000000081526004016108f190612f8f565b60405180910390fd5b6109058383836116f1565b505050565b600061091583610d6e565b8210610956576040517f08c379a000000000000000000000000000000000000000000000000000000000815260040161094d90613021565b60405180910390fd5b600660008473ffffffffffffffffffffffffffffffffffffffff1673ffffffffffffffffffffffffffffffffffffffff168152602001908152602001600020600083815260200190815260200160002054905092915050565b60006109b9610897565b9050600f60009054906101000a900460ff16156109d557600080fd5b600082116109e257600080fd5b600e548211156109f157600080fd5b600d548282610a009190613070565b1115610a0b57600080fd5b6000600190505b828111610a4157610a2e848284610a299190613070565b611957565b8080610a39906130c6565b915050610a12565b50505050565b610a6283838360405180602001604052806000815250611005565b505050565b60606000610a7483610d6e565b905060008167ffffffffffffffff811115610a9257610a916129c3565b5b604051908082528060200260200182016040528015610ac05781602001602082028036833780820191505090505b50905060005b82811015610b0a57610ad8858261090a565b828281518110610aeb57610aea61310e565b5b6020026020010181815250508080610b02906130c6565b915050610ac6565b508092505050919050565b6000610b1f610897565b8210610b60576040517f08c379a0000000000000000000000000000000000000000000000000000000008152600401610b57906131af565b60405180910390fd5b60088281548110610b7457610b7361310e565b5b90600052602060002001549050919050565b610b8e611552565b73ffffffffffffffffffffffffffffffffffffffff16610bac610f33565b73ffffffffffffffffffffffffffffffffffffffff1614610c02576040517f08c379a0000000000000000000000000000000000000000000000000000000008152600401610bf99061321b565b60405180910390fd5b80600b9080519060200190610c189291906124d7565b5050565b600f60009054906101000a900460ff1681565b6000806002600084815260200190815260200160002060009054906101000a900473ffffffffffffffffffffffffffffffffffffffff169050600073ffffffffffffffffffffffffffffffffffffffff168173ffffffffffffffffffffffffffffffffffffffff1603610cd7576040517f08c379a0000000000000000000000000000000000000000000000000000000008152600401610cce906132ad565b60405180910390fd5b80915050919050565b600b8054610ced90612d36565b80601f0160208091040260200160405190810160405280929190818152602001828054610d1990612d36565b8015610d665780601f10610d3b57610100808354040283529160200191610d66565b820191906000526020600020905b815481529060010190602001808311610d4957829003601f168201915b505050505081565b60008073ffffffffffffffffffffffffffffffffffffffff168273ffffffffffffffffffffffffffffffffffffffff1603610dde576040517f08c379a0000000000000000000000000000000000000000000000000000000008152600401610dd59061333f565b60405180910390fd5b600360008373ffffffffffffffffffffffffffffffffffffffff1673ffffffffffffffffffffffffffffffffffffffff168152602001908152602001600020549050919050565b610e2d611552565b73ffffffffffffffffffffffffffffffffffffffff16610e4b610f33565b73ffffffffffffffffffffffffffffffffffffffff1614610ea1576040517f08c379a0000000000000000000000000000000000000000000000000000000008152600401610e989061321b565b60405180910390fd5b610eab6000611975565b565b610eb5611552565b73ffffffffffffffffffffffffffffffffffffffff16610ed3610f33565b73ffffffffffffffffffffffffffffffffffffffff1614610f29576040517f08c379a0000000000000000000000000000000000000000000000000000000008152600401610f209061321b565b60405180910390fd5b80600e8190555050565b6000600a60009054906101000a900473ffffffffffffffffffffffffffffffffffffffff16905090565b606060018054610f6c90612d36565b80601f0160208091040260200160405190810160405280929190818152602001828054610f9890612d36565b8015610fe55780601f10610fba57610100808354040283529160200191610fe5565b820191906000526020600020905b815481529060010190602001808311610fc857829003601f168201915b5050505050905090565b611001610ffa611552565b8383611a3b565b5050565b611016611010611552565b83611613565b611055576040517f08c379a000000000000000000000000000000000000000000000000000000000815260040161104c90612f8f565b60405180910390fd5b61106184848484611ba7565b50505050565b600c805461107490612d36565b80601f01602080910402602001604051908101604052809291908181526020018280546110a090612d36565b80156110ed5780601f106110c2576101008083540402835291602001916110ed565b820191906000526020600020905b8154815290600101906020018083116110d057829003601f168201915b505050505081565b6060611100826114e6565b61113f576040517f08c379a0000000000000000000000000000000000000000000000000000000008152600401611136906133d1565b60405180910390fd5b6000611149611c03565b90506000815111611169576040518060200160405280600081525061118d565b80600c60405160200161117d92919061350d565b6040516020818303038152906040525b915050919050565b600d5481565b60106020528060005260406000206000915054906101000a900460ff1681565b6111c3611552565b73ffffffffffffffffffffffffffffffffffffffff166111e1610f33565b73ffffffffffffffffffffffffffffffffffffffff1614611237576040517f08c379a000000000000000000000000000000000000000000000000000000000815260040161122e9061321b565b60405180910390fd5b80600c908051906020019061124d9291906124d7565b5050565b6000600560008473ffffffffffffffffffffffffffffffffffffffff1673ffffffffffffffffffffffffffffffffffffffff16815260200190815260200160002060008373ffffffffffffffffffffffffffffffffffffffff1673ffffffffffffffffffffffffffffffffffffffff16815260200190815260200160002060009054906101000a900460ff16905092915050565b6112ed611552565b73ffffffffffffffffffffffffffffffffffffffff1661130b610f33565b73ffffffffffffffffffffffffffffffffffffffff1614611361576040517f08c379a00000000000000000000000000000000000000000000000000000000081526004016113589061321b565b60405180910390fd5b600073ffffffffffffffffffffffffffffffffffffffff168173ffffffffffffffffffffffffffffffffffffffff16036113d0576040517f08c379a00000000000000000000000000000000000000000000000000000000081526004016113c7906135ae565b60405180910390fd5b6113d981611975565b50565b6000808273ffffffffffffffffffffffffffffffffffffffff163b119050919050565b505050565b60007f80ac58cd000000000000000000000000000000000000000000000000000000007bffffffffffffffffffffffffffffffffffffffffffffffffffffffff1916827bffffffffffffffffffffffffffffffffffffffffffffffffffffffff191614806114cf57507f5b5e139f000000000000000000000000000000000000000000000000000000007bffffffffffffffffffffffffffffffffffffffffffffffffffffffff1916827bffffffffffffffffffffffffffffffffffffffffffffffffffffffff1916145b806114df57506114de82611c95565b5b9050919050565b60008073ffffffffffffffffffffffffffffffffffffffff166002600084815260200190815260200160002060009054906101000a900473ffffffffffffffffffffffffffffffffffffffff1673ffffffffffffffffffffffffffffffffffffffff1614159050919050565b600033905090565b816004600083815260200190815260200160002060006101000a81548173ffffffffffffffffffffffffffffffffffffffff021916908373ffffffffffffffffffffffffffffffffffffffff160217905550808273ffffffffffffffffffffffffffffffffffffffff166115cd83610c2f565b73ffffffffffffffffffffffffffffffffffffffff167f8c5be1e5ebec7d5bd14f71427d1e84f3dd0314c0f7b2291e5b200ac8c7c3b92560405160405180910390a45050565b600061161e826114e6565b61165d576040517f08c379a000000000000000000000000000000000000000000000000000000000815260040161165490613640565b60405180910390fd5b600061166883610c2f565b90508073ffffffffffffffffffffffffffffffffffffffff168473ffffffffffffffffffffffffffffffffffffffff1614806116aa57506116a98185611251565b5b806116e857508373ffffffffffffffffffffffffffffffffffffffff166116d0846106fb565b73ffffffffffffffffffffffffffffffffffffffff16145b91505092915050565b8273ffffffffffffffffffffffffffffffffffffffff1661171182610c2f565b73ffffffffffffffffffffffffffffffffffffffff1614611767576040517f08c379a000000000000000000000000000000000000000000000000000000000815260040161175e906136d2565b60405180910390fd5b600073ffffffffffffffffffffffffffffffffffffffff168273ffffffffffffffffffffffffffffffffffffffff16036117d6576040517f08c379a00000000000000000000000000000000000000000000000000000000081526004016117cd90613764565b60405180910390fd5b6117e1838383611cff565b6117ec60008261155a565b6001600360008573ffffffffffffffffffffffffffffffffffffffff1673ffffffffffffffffffffffffffffffffffffffff168152602001908152602001600020600082825461183c9190613784565b925050819055506001600360008473ffffffffffffffffffffffffffffffffffffffff1673ffffffffffffffffffffffffffffffffffffffff16815260200190815260200160002060008282546118939190613070565b92505081905550816002600083815260200190815260200160002060006101000a81548173ffffffffffffffffffffffffffffffffffffffff021916908373ffffffffffffffffffffffffffffffffffffffff160217905550808273ffffffffffffffffffffffffffffffffffffffff168473ffffffffffffffffffffffffffffffffffffffff167fddf252ad1be2c89b69c2b068fc378daa952ba7f163c4a11628f55a4df523b3ef60405160405180910390a4611952838383611e11565b505050565b611971828260405180602001604052806000815250611e16565b5050565b6000600a60009054906101000a900473ffffffffffffffffffffffffffffffffffffffff16905081600a60006101000a81548173ffffffffffffffffffffffffffffffffffffffff021916908373ffffffffffffffffffffffffffffffffffffffff1602179055508173ffffffffffffffffffffffffffffffffffffffff168173ffffffffffffffffffffffffffffffffffffffff167f8be0079c531659141344cd1fd0a4f28419497f9722a3daafe3b4186f6b6457e060405160405180910390a35050565b8173ffffffffffffffffffffffffffffffffffffffff168373ffffffffffffffffffffffffffffffffffffffff1603611aa9576040517f08c379a0000000000000000000000000000000000000000000000000000000008152600401611aa090613804565b60405180910390fd5b80600560008573ffffffffffffffffffffffffffffffffffffffff1673ffffffffffffffffffffffffffffffffffffffff16815260200190815260200160002060008473ffffffffffffffffffffffffffffffffffffffff1673ffffffffffffffffffffffffffffffffffffffff16815260200190815260200160002060006101000a81548160ff0219169083151502179055508173ffffffffffffffffffffffffffffffffffffffff168373ffffffffffffffffffffffffffffffffffffffff167f17307eab39ab6107e8899845ad3d59bd9653f200f220920489ca2b5937696c3183604051611b9a919061262e565b60405180910390a3505050565b611bb28484846116f1565b611bbe84848484611e71565b611bfd576040517f08c379a0000000000000000000000000000000000000000000000000000000008152600401611bf490613896565b60405180910390fd5b50505050565b6060600b8054611c1290612d36565b80601f0160208091040260200160405190810160405280929190818152602001828054611c3e90612d36565b8015611c8b5780601f10611c6057610100808354040283529160200191611c8b565b820191906000526020600020905b815481529060010190602001808311611c6e57829003601f168201915b5050505050905090565b60007f01ffc9a7000000000000000000000000000000000000000000000000000000007bffffffffffffffffffffffffffffffffffffffffffffffffffffffff1916827bffffffffffffffffffffffffffffffffffffffffffffffffffffffff1916149050919050565b611d0a8383836113ff565b600073ffffffffffffffffffffffffffffffffffffffff168373ffffffffffffffffffffffffffffffffffffffff1603611d4c57611d4781611ff8565b611d8b565b8173ffffffffffffffffffffffffffffffffffffffff168373ffffffffffffffffffffffffffffffffffffffff1614611d8a57611d898382612041565b5b5b600073ffffffffffffffffffffffffffffffffffffffff168273ffffffffffffffffffffffffffffffffffffffff1603611dcd57611dc8816121ae565b611e0c565b8273ffffffffffffffffffffffffffffffffffffffff168273ffffffffffffffffffffffffffffffffffffffff1614611e0b57611e0a828261227f565b5b5b505050565b505050565b611e2083836122fe565b611e2d6000848484611e71565b611e6c576040517f08c379a0000000000000000000000000000000000000000000000000000000008152600401611e6390613896565b60405180910390fd5b505050565b6000611e928473ffffffffffffffffffffffffffffffffffffffff166113dc565b15611feb578373ffffffffffffffffffffffffffffffffffffffff1663150b7a02611ebb611552565b8786866040518563ffffffff1660e01b8152600401611edd949392919061390b565b6020604051808303816000875af1925050508015611f1957506040513d601f19601f82011682018060405250810190611f16919061396c565b60015b611f9b573d8060008114611f49576040519150601f19603f3d011682016040523d82523d6000602084013e611f4e565b606091505b506000815103611f93576040517f08c379a0000000000000000000000000000000000000000000000000000000008152600401611f8a90613896565b60405180910390fd5b805181602001fd5b63150b7a0260e01b7bffffffffffffffffffffffffffffffffffffffffffffffffffffffff1916817bffffffffffffffffffffffffffffffffffffffffffffffffffffffff191614915050611ff0565b600190505b949350505050565b6008805490506009600083815260200190815260200160002081905550600881908060018154018082558091505060019003906000526020600020016000909190919091505550565b6000600161204e84610d6e565b6120589190613784565b905060006007600084815260200190815260200160002054905081811461213d576000600660008673ffffffffffffffffffffffffffffffffffffffff1673ffffffffffffffffffffffffffffffffffffffff168152602001908152602001600020600084815260200190815260200160002054905080600660008773ffffffffffffffffffffffffffffffffffffffff1673ffffffffffffffffffffffffffffffffffffffff168152602001908152602001600020600084815260200190815260200160002081905550816007600083815260200190815260200160002081905550505b6007600084815260200190815260200160002060009055600660008573ffffffffffffffffffffffffffffffffffffffff1673ffffffffffffffffffffffffffffffffffffffff16815260200190815260200160002060008381526020019081526020016000206000905550505050565b600060016008805490506121c29190613784565b90506000600960008481526020019081526020016000205490506000600883815481106121f2576121f161310e565b5b9060005260206000200154905080600883815481106122145761221361310e565b5b90600052602060002001819055508160096000838152602001908152602001600020819055506009600085815260200190815260200160002060009055600880548061226357612262613999565b5b6001900381819060005260206000200160009055905550505050565b600061228a83610d6e565b905081600660008573ffffffffffffffffffffffffffffffffffffffff1673ffffffffffffffffffffffffffffffffffffffff168152602001908152602001600020600083815260200190815260200160002081905550806007600084815260200190815260200160002081905550505050565b600073ffffffffffffffffffffffffffffffffffffffff168273ffffffffffffffffffffffffffffffffffffffff160361236d576040517f08c379a000000000000000000000000000000000000000000000000000000000815260040161236490613a14565b60405180910390fd5b612376816114e6565b156123b6576040517f08c379a00000000000000000000000000000000000000000000000000000000081526004016123ad90613a80565b60405180910390fd5b6123c260008383611cff565b6001600360008473ffffffffffffffffffffffffffffffffffffffff1673ffffffffffffffffffffffffffffffffffffffff16815260200190815260200160002060008282546124129190613070565b92505081905550816002600083815260200190815260200160002060006101000a81548173ffffffffffffffffffffffffffffffffffffffff021916908373ffffffffffffffffffffffffffffffffffffffff160217905550808273ffffffffffffffffffffffffffffffffffffffff16600073ffffffffffffffffffffffffffffffffffffffff167fddf252ad1be2c89b69c2b068fc378daa952ba7f163c4a11628f55a4df523b3ef60405160405180910390a46124d360008383611e11565b5050565b8280546124e390612d36565b90600052602060002090601f016020900481019282612505576000855561254c565b82601f1061251e57805160ff191683800117855561254c565b8280016001018555821561254c579182015b8281111561254b578251825591602001919060010190612530565b5b509050612559919061255d565b5090565b5b8082111561257657600081600090555060010161255e565b5090565b6000604051905090565b600080fd5b600080fd5b60007fffffffff0000000000000000000000000000000000000000000000000000000082169050919050565b6125c38161258e565b81146125ce57600080fd5b50565b6000813590506125e0816125ba565b92915050565b6000602082840312156125fc576125fb612584565b5b600061260a848285016125d1565b91505092915050565b60008115159050919050565b61262881612613565b82525050565b6000602082019050612643600083018461261f565b92915050565b600081519050919050565b600082825260208201905092915050565b60005b83811015612683578082015181840152602081019050612668565b83811115612692576000848401525b50505050565b6000601f19601f8301169050919050565b60006126b482612649565b6126be8185612654565b93506126ce818560208601612665565b6126d781612698565b840191505092915050565b600060208201905081810360008301526126fc81846126a9565b905092915050565b6000819050919050565b61271781612704565b811461272257600080fd5b50565b6000813590506127348161270e565b92915050565b6000602082840312156127505761274f612584565b5b600061275e84828501612725565b91505092915050565b600073ffffffffffffffffffffffffffffffffffffffff82169050919050565b600061279282612767565b9050919050565b6127a281612787565b82525050565b60006020820190506127bd6000830184612799565b92915050565b6127cc81612787565b81146127d757600080fd5b50565b6000813590506127e9816127c3565b92915050565b6000806040838503121561280657612805612584565b5b6000612814858286016127da565b925050602061282585828601612725565b9150509250929050565b61283881612704565b82525050565b6000602082019050612853600083018461282f565b92915050565b60008060006060848603121561287257612871612584565b5b6000612880868287016127da565b9350506020612891868287016127da565b92505060406128a286828701612725565b9150509250925092565b6000602082840312156128c2576128c1612584565b5b60006128d0848285016127da565b91505092915050565b600081519050919050565b600082825260208201905092915050565b6000819050602082019050919050565b61290e81612704565b82525050565b60006129208383612905565b60208301905092915050565b6000602082019050919050565b6000612944826128d9565b61294e81856128e4565b9350612959836128f5565b8060005b8381101561298a5781516129718882612914565b975061297c8361292c565b92505060018101905061295d565b5085935050505092915050565b600060208201905081810360008301526129b18184612939565b905092915050565b600080fd5b600080fd5b7f4e487b7100000000000000000000000000000000000000000000000000000000600052604160045260246000fd5b6129fb82612698565b810181811067ffffffffffffffff82111715612a1a57612a196129c3565b5b80604052505050565b6000612a2d61257a565b9050612a3982826129f2565b919050565b600067ffffffffffffffff821115612a5957612a586129c3565b5b612a6282612698565b9050602081019050919050565b82818337600083830152505050565b6000612a91612a8c84612a3e565b612a23565b905082815260208101848484011115612aad57612aac6129be565b5b612ab8848285612a6f565b509392505050565b600082601f830112612ad557612ad46129b9565b5b8135612ae5848260208601612a7e565b91505092915050565b600060208284031215612b0457612b03612584565b5b600082013567ffffffffffffffff811115612b2257612b21612589565b5b612b2e84828501612ac0565b91505092915050565b612b4081612613565b8114612b4b57600080fd5b50565b600081359050612b5d81612b37565b92915050565b60008060408385031215612b7a57612b79612584565b5b6000612b88858286016127da565b9250506020612b9985828601612b4e565b9150509250929050565b600067ffffffffffffffff821115612bbe57612bbd6129c3565b5b612bc782612698565b9050602081019050919050565b6000612be7612be284612ba3565b612a23565b905082815260208101848484011115612c0357612c026129be565b5b612c0e848285612a6f565b509392505050565b600082601f830112612c2b57612c2a6129b9565b5b8135612c3b848260208601612bd4565b91505092915050565b60008060008060808587031215612c5e57612c5d612584565b5b6000612c6c878288016127da565b9450506020612c7d878288016127da565b9350506040612c8e87828801612725565b925050606085013567ffffffffffffffff811115612caf57612cae612589565b5b612cbb87828801612c16565b91505092959194509250565b60008060408385031215612cde57612cdd612584565b5b6000612cec858286016127da565b9250506020612cfd858286016127da565b9150509250929050565b7f4e487b7100000000000000000000000000000000000000000000000000000000600052602260045260246000fd5b60006002820490506001821680612d4e57607f821691505b602082108103612d6157612d60612d07565b5b50919050565b7f4552433732313a20617070726f76656420717565727920666f72206e6f6e657860008201527f697374656e7420746f6b656e0000000000000000000000000000000000000000602082015250565b6000612dc3602c83612654565b9150612dce82612d67565b604082019050919050565b60006020820190508181036000830152612df281612db6565b9050919050565b7f4552433732313a20617070726f76616c20746f2063757272656e74206f776e6560008201527f7200000000000000000000000000000000000000000000000000000000000000602082015250565b6000612e55602183612654565b9150612e6082612df9565b604082019050919050565b60006020820190508181036000830152612e8481612e48565b9050919050565b7f4552433732313a20617070726f76652063616c6c6572206973206e6f74206f7760008201527f6e6572206e6f7220617070726f76656420666f7220616c6c0000000000000000602082015250565b6000612ee7603883612654565b9150612ef282612e8b565b604082019050919050565b60006020820190508181036000830152612f1681612eda565b9050919050565b7f4552433732313a207472616e736665722063616c6c6572206973206e6f74206f60008201527f776e6572206e6f7220617070726f766564000000000000000000000000000000602082015250565b6000612f79603183612654565b9150612f8482612f1d565b604082019050919050565b60006020820190508181036000830152612fa881612f6c565b9050919050565b7f455243373231456e756d657261626c653a206f776e657220696e646578206f7560008201527f74206f6620626f756e6473000000000000000000000000000000000000000000602082015250565b600061300b602b83612654565b915061301682612faf565b604082019050919050565b6000602082019050818103600083015261303a81612ffe565b9050919050565b7f4e487b7100000000000000000000000000000000000000000000000000000000600052601160045260246000fd5b600061307b82612704565b915061308683612704565b9250827fffffffffffffffffffffffffffffffffffffffffffffffffffffffffffffffff038211156130bb576130ba613041565b5b828201905092915050565b60006130d182612704565b91507fffffffffffffffffffffffffffffffffffffffffffffffffffffffffffffffff820361310357613102613041565b5b600182019050919050565b7f4e487b7100000000000000000000000000000000000000000000000000000000600052603260045260246000fd5b7f455243373231456e756d657261626c653a20676c6f62616c20696e646578206f60008201527f7574206f6620626f756e64730000000000000000000000000000000000000000602082015250565b6000613199602c83612654565b91506131a48261313d565b604082019050919050565b600060208201905081810360008301526131c88161318c565b9050919050565b7f4f776e61626c653a2063616c6c6572206973206e6f7420746865206f776e6572600082015250565b6000613205602083612654565b9150613210826131cf565b602082019050919050565b60006020820190508181036000830152613234816131f8565b9050919050565b7f4552433732313a206f776e657220717565727920666f72206e6f6e657869737460008201527f656e7420746f6b656e0000000000000000000000000000000000000000000000602082015250565b6000613297602983612654565b91506132a28261323b565b604082019050919050565b600060208201905081810360008301526132c68161328a565b9050919050565b7f4552433732313a2062616c616e636520717565727920666f7220746865207a6560008201527f726f206164647265737300000000000000000000000000000000000000000000602082015250565b6000613329602a83612654565b9150613334826132cd565b604082019050919050565b600060208201905081810360008301526133588161331c565b9050919050565b7f4552433732314d657461646174613a2055524920717565727920666f72206e6f60008201527f6e6578697374656e7420746f6b656e0000000000000000000000000000000000602082015250565b60006133bb602f83612654565b91506133c68261335f565b604082019050919050565b600060208201905081810360008301526133ea816133ae565b9050919050565b600081905092915050565b600061340782612649565b61341181856133f1565b9350613421818560208601612665565b80840191505092915050565b7f3100000000000000000000000000000000000000000000000000000000000000600082015250565b60006134636001836133f1565b915061346e8261342d565b600182019050919050565b60008190508160005260206000209050919050565b6000815461349b81612d36565b6134a581866133f1565b945060018216600081146134c057600181146134d157613504565b60ff19831686528186019350613504565b6134da85613479565b60005b838110156134fc578154818901526001820191506020810190506134dd565b838801955050505b50505092915050565b600061351982856133fc565b915061352482613456565b9150613530828461348e565b91508190509392505050565b7f4f776e61626c653a206e6577206f776e657220697320746865207a65726f206160008201527f6464726573730000000000000000000000000000000000000000000000000000602082015250565b6000613598602683612654565b91506135a38261353c565b604082019050919050565b600060208201905081810360008301526135c78161358b565b9050919050565b7f4552433732313a206f70657261746f7220717565727920666f72206e6f6e657860008201527f697374656e7420746f6b656e0000000000000000000000000000000000000000602082015250565b600061362a602c83612654565b9150613635826135ce565b604082019050919050565b600060208201905081810360008301526136598161361d565b9050919050565b7f4552433732313a207472616e736665722066726f6d20696e636f72726563742060008201527f6f776e6572000000000000000000000000000000000000000000000000000000602082015250565b60006136bc602583612654565b91506136c782613660565b604082019050919050565b600060208201905081810360008301526136eb816136af565b9050919050565b7f4552433732313a207472616e7366657220746f20746865207a65726f2061646460008201527f7265737300000000000000000000000000000000000000000000000000000000602082015250565b600061374e602483612654565b9150613759826136f2565b604082019050919050565b6000602082019050818103600083015261377d81613741565b9050919050565b600061378f82612704565b915061379a83612704565b9250828210156137ad576137ac613041565b5b828203905092915050565b7f4552433732313a20617070726f766520746f2063616c6c657200000000000000600082015250565b60006137ee601983612654565b91506137f9826137b8565b602082019050919050565b6000602082019050818103600083015261381d816137e1565b9050919050565b7f4552433732313a207472616e7366657220746f206e6f6e20455243373231526560008201527f63656976657220696d706c656d656e7465720000000000000000000000000000602082015250565b6000613880603283612654565b915061388b82613824565b604082019050919050565b600060208201905081810360008301526138af81613873565b9050919050565b600081519050919050565b600082825260208201905092915050565b60006138dd826138b6565b6138e781856138c1565b93506138f7818560208601612665565b61390081612698565b840191505092915050565b60006080820190506139206000830187612799565b61392d6020830186612799565b61393a604083018561282f565b818103606083015261394c81846138d2565b905095945050505050565b600081519050613966816125ba565b92915050565b60006020828403121561398257613981612584565b5b600061399084828501613957565b91505092915050565b7f4e487b7100000000000000000000000000000000000000000000000000000000600052603160045260246000fd5b7f4552433732313a206d696e7420746f20746865207a65726f2061646472657373600082015250565b60006139fe602083612654565b9150613a09826139c8565b602082019050919050565b60006020820190508181036000830152613a2d816139f1565b9050919050565b7f4552433732313a20746f6b656e20616c7265616479206d696e74656400000000600082015250565b6000613a6a601c83612654565b9150613a7582613a34565b602082019050919050565b60006020820190508181036000830152613a9981613a5d565b905091905056fea26469706673582212204e855fee4b9abc5177d27a44351639c6153ba283d41bec2edfef4be082a0892064736f6c634300080d0033",
  "linkReferences": {},
  "deployedLinkReferences": {}
}