{
  "_format": "hh-sol-artifact-1",
  "contractName": "NFTGenerator",
  "sourceName": "contracts/NFTContract.sol",
  "abi": [
    {
      "inputs": [],
      "stateMutability": "nonpayable",
      "type": "constructor"
    },
    {
      "anonymous": false,
      "inputs": [
        {
          "indexed": true,
          "internalType": "address",
          "name": "owner",
          "type": "address"
        },
        {
          "indexed": true,
          "internalType": "address",
          "name": "approved",
          "type": "address"
        },
        {
          "indexed": true,
          "internalType": "uint256",
          "name": "tokenId",
          "type": "uint256"
        }
      ],
      "name": "Approval",
      "type": "event"
    },
    {
      "anonymous": false,
      "inputs": [
        {
          "indexed": true,
          "internalType": "address",
          "name": "owner",
          "type": "address"
        },
        {
          "indexed": true,
          "internalType": "address",
          "name": "operator",
          "type": "address"
        },
        {
          "indexed": false,
          "internalType": "bool",
          "name": "approved",
          "type": "bool"
        }
      ],
      "name": "ApprovalForAll",
      "type": "event"
    },
    {
      "anonymous": false,
      "inputs": [
        {
          "indexed": true,
          "internalType": "address",
          "name": "previousOwner",
          "type": "address"
        },
        {
          "indexed": true,
          "internalType": "address",
          "name": "newOwner",
          "type": "address"
        }
      ],
      "name": "OwnershipTransferred",
      "type": "event"
    },
    {
      "anonymous": false,
      "inputs": [
        {
          "indexed": true,
          "internalType": "address",
          "name": "from",
          "type": "address"
        },
        {
          "indexed": true,
          "internalType": "address",
          "name": "to",
          "type": "address"
        },
        {
          "indexed": true,
          "internalType": "uint256",
          "name": "tokenId",
          "type": "uint256"
        }
      ],
      "name": "Transfer",
      "type": "event"
    },
    {
      "inputs": [
        {
          "internalType": "address",
          "name": "to",
          "type": "address"
        },
        {
          "internalType": "uint256",
          "name": "tokenId",
          "type": "uint256"
        }
      ],
      "name": "approve",
      "outputs": [],
      "stateMutability": "nonpayable",
      "type": "function"
    },
    {
      "inputs": [
        {
          "internalType": "address",
          "name": "owner",
          "type": "address"
        }
      ],
      "name": "balanceOf",
      "outputs": [
        {
          "internalType": "uint256",
          "name": "",
          "type": "uint256"
        }
      ],
      "stateMutability": "view",
      "type": "function"
    },
    {
      "inputs": [
        {
          "internalType": "uint256",
          "name": "tokenId",
          "type": "uint256"
        }
      ],
      "name": "getApproved",
      "outputs": [
        {
          "internalType": "address",
          "name": "",
          "type": "address"
        }
      ],
      "stateMutability": "view",
      "type": "function"
    },
    {
      "inputs": [],
      "name": "getSupply",
      "outputs": [
        {
          "internalType": "uint256",
          "name": "",
          "type": "uint256"
        }
      ],
      "stateMutability": "view",
      "type": "function"
    },
    {
      "inputs": [
        {
          "internalType": "address",
          "name": "owner",
          "type": "address"
        },
        {
          "internalType": "address",
          "name": "operator",
          "type": "address"
        }
      ],
      "name": "isApprovedForAll",
      "outputs": [
        {
          "internalType": "bool",
          "name": "",
          "type": "bool"
        }
      ],
      "stateMutability": "view",
      "type": "function"
    },
    {
      "inputs": [],
      "name": "name",
      "outputs": [
        {
          "internalType": "string",
          "name": "",
          "type": "string"
        }
      ],
      "stateMutability": "view",
      "type": "function"
    },
    {
      "inputs": [],
      "name": "owner",
      "outputs": [
        {
          "internalType": "address",
          "name": "",
          "type": "address"
        }
      ],
      "stateMutability": "view",
      "type": "function"
    },
    {
      "inputs": [
        {
          "internalType": "uint256",
          "name": "tokenId",
          "type": "uint256"
        }
      ],
      "name": "ownerOf",
      "outputs": [
        {
          "internalType": "address",
          "name": "",
          "type": "address"
        }
      ],
      "stateMutability": "view",
      "type": "function"
    },
    {
      "inputs": [],
      "name": "renounceOwnership",
      "outputs": [],
      "stateMutability": "nonpayable",
      "type": "function"
    },
    {
      "inputs": [
        {
          "internalType": "address",
          "name": "to",
          "type": "address"
        },
        {
          "internalType": "uint256",
          "name": "tokenId",
          "type": "uint256"
        }
      ],
      "name": "safeMint",
      "outputs": [],
      "stateMutability": "nonpayable",
      "type": "function"
    },
    {
      "inputs": [],
      "name": "safeMintNextId",
      "outputs": [],
      "stateMutability": "nonpayable",
      "type": "function"
    },
    {
      "inputs": [
        {
          "internalType": "address",
          "name": "from",
          "type": "address"
        },
        {
          "internalType": "address",
          "name": "to",
          "type": "address"
        },
        {
          "internalType": "uint256",
          "name": "tokenId",
          "type": "uint256"
        }
      ],
      "name": "safeTransferFrom",
      "outputs": [],
      "stateMutability": "nonpayable",
      "type": "function"
    },
    {
      "inputs": [
        {
          "internalType": "address",
          "name": "from",
          "type": "address"
        },
        {
          "internalType": "address",
          "name": "to",
          "type": "address"
        },
        {
          "internalType": "uint256",
          "name": "tokenId",
          "type": "uint256"
        },
        {
          "internalType": "bytes",
          "name": "_data",
          "type": "bytes"
        }
      ],
      "name": "safeTransferFrom",
      "outputs": [],
      "stateMutability": "nonpayable",
      "type": "function"
    },
    {
      "inputs": [
        {
          "internalType": "address",
          "name": "operator",
          "type": "address"
        },
        {
          "internalType": "bool",
          "name": "approved",
          "type": "bool"
        }
      ],
      "name": "setApprovalForAll",
      "outputs": [],
      "stateMutability": "nonpayable",
      "type": "function"
    },
    {
      "inputs": [],
      "name": "supply",
      "outputs": [
        {
          "internalType": "uint256",
          "name": "",
          "type": "uint256"
        }
      ],
      "stateMutability": "view",
      "type": "function"
    },
    {
      "inputs": [
        {
          "internalType": "bytes4",
          "name": "interfaceId",
          "type": "bytes4"
        }
      ],
      "name": "supportsInterface",
      "outputs": [
        {
          "internalType": "bool",
          "name": "",
          "type": "bool"
        }
      ],
      "stateMutability": "view",
      "type": "function"
    },
    {
      "inputs": [],
      "name": "symbol",
      "outputs": [
        {
          "internalType": "string",
          "name": "",
          "type": "string"
        }
      ],
      "stateMutability": "view",
      "type": "function"
    },
    {
      "inputs": [
        {
          "internalType": "uint256",
          "name": "tokenId",
          "type": "uint256"
        }
      ],
      "name": "tokenURI",
      "outputs": [
        {
          "internalType": "string",
          "name": "",
          "type": "string"
        }
      ],
      "stateMutability": "view",
      "type": "function"
    },
    {
      "inputs": [
        {
          "internalType": "address",
          "name": "from",
          "type": "address"
        },
        {
          "internalType": "address",
          "name": "to",
          "type": "address"
        },
        {
          "internalType": "uint256",
          "name": "tokenId",
          "type": "uint256"
        }
      ],
      "name": "transferFrom",
      "outputs": [],
      "stateMutability": "nonpayable",
      "type": "function"
    },
    {
      "inputs": [
        {
          "internalType": "address",
          "name": "newOwner",
          "type": "address"
        }
      ],
      "name": "transferOwnership",
      "outputs": [],
      "stateMutability": "nonpayable",
      "type": "function"
    }
  ],
  "bytecode": "0x60806040523480156200001157600080fd5b506040518060400160405280600d81526020017f4e46542047656e657261746f72000000000000000000000000000000000000008152506040518060400160405280600481526020017f4e46544700000000000000000000000000000000000000000000000000000000815250816000908051906020019062000096929190620001ae565b508060019080519060200190620000af929190620001ae565b505050620000d2620000c6620000e060201b60201c565b620000e860201b60201c565b6000600781905550620002c2565b600033905090565b6000600660009054906101000a900473ffffffffffffffffffffffffffffffffffffffff16905081600660006101000a81548173ffffffffffffffffffffffffffffffffffffffff021916908373ffffffffffffffffffffffffffffffffffffffff1602179055508173ffffffffffffffffffffffffffffffffffffffff168173ffffffffffffffffffffffffffffffffffffffff167f8be0079c531659141344cd1fd0a4f28419497f9722a3daafe3b4186f6b6457e060405160405180910390a35050565b828054620001bc906200028d565b90600052602060002090601f016020900481019282620001e057600085556200022c565b82601f10620001fb57805160ff19168380011785556200022c565b828001600101855582156200022c579182015b828111156200022b5782518255916020019190600101906200020e565b5b5090506200023b91906200023f565b5090565b5b808211156200025a57600081600090555060010162000240565b5090565b7f4e487b7100000000000000000000000000000000000000000000000000000000600052602260045260246000fd5b60006002820490506001821680620002a657607f821691505b602082108103620002bc57620002bb6200025e565b5b50919050565b612bcc80620002d26000396000f3fe608060405234801561001057600080fd5b506004361061012c5760003560e01c806370a08231116100ad578063a22cb46511610071578063a22cb4651461030b578063b88d4fde14610327578063c87b56dd14610343578063e985e9c514610373578063f2fde38b146103a35761012c565b806370a0823114610279578063715018a6146102a95780638da5cb5b146102b357806395d89b41146102d1578063a1448194146102ef5761012c565b806322d65589116100f457806322d65589146101e957806323b872dd146101f357806342842e0e1461020f5780636352211e1461022b5780636c9c2faf1461025b5761012c565b806301ffc9a714610131578063047fc9aa1461016157806306fdde031461017f578063081812fc1461019d578063095ea7b3146101cd575b600080fd5b61014b60048036038101906101469190611a53565b6103bf565b6040516101589190611a9b565b60405180910390f35b6101696104a1565b6040516101769190611acf565b60405180910390f35b6101876104a7565b6040516101949190611b83565b60405180910390f35b6101b760048036038101906101b29190611bd1565b610539565b6040516101c49190611c3f565b60405180910390f35b6101e760048036038101906101e29190611c86565b6105be565b005b6101f16106d5565b005b61020d60048036038101906102089190611cc6565b6106fb565b005b61022960048036038101906102249190611cc6565b61075b565b005b61024560048036038101906102409190611bd1565b61077b565b6040516102529190611c3f565b60405180910390f35b61026361082c565b6040516102709190611acf565b60405180910390f35b610293600480360381019061028e9190611d19565b610836565b6040516102a09190611acf565b60405180910390f35b6102b16108ed565b005b6102bb610975565b6040516102c89190611c3f565b60405180910390f35b6102d961099f565b6040516102e69190611b83565b60405180910390f35b61030960048036038101906103049190611c86565b610a31565b005b61032560048036038101906103209190611d72565b610a57565b005b610341600480360381019061033c9190611ee7565b610a6d565b005b61035d60048036038101906103589190611bd1565b610acf565b60405161036a9190611b83565b60405180910390f35b61038d60048036038101906103889190611f6a565b610b76565b60405161039a9190611a9b565b60405180910390f35b6103bd60048036038101906103b89190611d19565b610c0a565b005b60007f80ac58cd000000000000000000000000000000000000000000000000000000007bffffffffffffffffffffffffffffffffffffffffffffffffffffffff1916827bffffffffffffffffffffffffffffffffffffffffffffffffffffffff1916148061048a57507f5b5e139f000000000000000000000000000000000000000000000000000000007bffffffffffffffffffffffffffffffffffffffffffffffffffffffff1916827bffffffffffffffffffffffffffffffffffffffffffffffffffffffff1916145b8061049a575061049982610d01565b5b9050919050565b60075481565b6060600080546104b690611fd9565b80601f01602080910402602001604051908101604052809291908181526020018280546104e290611fd9565b801561052f5780601f106105045761010080835404028352916020019161052f565b820191906000526020600020905b81548152906001019060200180831161051257829003601f168201915b5050505050905090565b600061054482610d6b565b610583576040517f08c379a000000000000000000000000000000000000000000000000000000000815260040161057a9061207c565b60405180910390fd5b6004600083815260200190815260200160002060009054906101000a900473ffffffffffffffffffffffffffffffffffffffff169050919050565b60006105c98261077b565b90508073ffffffffffffffffffffffffffffffffffffffff168373ffffffffffffffffffffffffffffffffffffffff1603610639576040517f08c379a00000000000000000000000000000000000000000000000000000000081526004016106309061210e565b60405180910390fd5b8073ffffffffffffffffffffffffffffffffffffffff16610658610dd7565b73ffffffffffffffffffffffffffffffffffffffff161480610687575061068681610681610dd7565b610b76565b5b6106c6576040517f08c379a00000000000000000000000000000000000000000000000000000000081526004016106bd906121a0565b60405180910390fd5b6106d08383610ddf565b505050565b6106e133600754610e98565b600760008154809291906106f4906121ef565b9190505550565b61070c610706610dd7565b82610eb6565b61074b576040517f08c379a0000000000000000000000000000000000000000000000000000000008152600401610742906122a9565b60405180910390fd5b610756838383610f94565b505050565b61077683838360405180602001604052806000815250610a6d565b505050565b6000806002600084815260200190815260200160002060009054906101000a900473ffffffffffffffffffffffffffffffffffffffff169050600073ffffffffffffffffffffffffffffffffffffffff168173ffffffffffffffffffffffffffffffffffffffff1603610823576040517f08c379a000000000000000000000000000000000000000000000000000000000815260040161081a9061233b565b60405180910390fd5b80915050919050565b6000600754905090565b60008073ffffffffffffffffffffffffffffffffffffffff168273ffffffffffffffffffffffffffffffffffffffff16036108a6576040517f08c379a000000000000000000000000000000000000000000000000000000000815260040161089d906123cd565b60405180910390fd5b600360008373ffffffffffffffffffffffffffffffffffffffff1673ffffffffffffffffffffffffffffffffffffffff168152602001908152602001600020549050919050565b6108f5610dd7565b73ffffffffffffffffffffffffffffffffffffffff16610913610975565b73ffffffffffffffffffffffffffffffffffffffff1614610969576040517f08c379a000000000000000000000000000000000000000000000000000000000815260040161096090612439565b60405180910390fd5b61097360006111fa565b565b6000600660009054906101000a900473ffffffffffffffffffffffffffffffffffffffff16905090565b6060600180546109ae90611fd9565b80601f01602080910402602001604051908101604052809291908181526020018280546109da90611fd9565b8015610a275780601f106109fc57610100808354040283529160200191610a27565b820191906000526020600020905b815481529060010190602001808311610a0a57829003601f168201915b5050505050905090565b610a3b8282610e98565b60076000815480929190610a4e906121ef565b91905055505050565b610a69610a62610dd7565b83836112c0565b5050565b610a7e610a78610dd7565b83610eb6565b610abd576040517f08c379a0000000000000000000000000000000000000000000000000000000008152600401610ab4906122a9565b60405180910390fd5b610ac98484848461142c565b50505050565b6060610ada82610d6b565b610b19576040517f08c379a0000000000000000000000000000000000000000000000000000000008152600401610b10906124cb565b60405180910390fd5b6000610b23611488565b90506000815111610b435760405180602001604052806000815250610b6e565b80610b4d8461149f565b604051602001610b5e929190612527565b6040516020818303038152906040525b915050919050565b6000600560008473ffffffffffffffffffffffffffffffffffffffff1673ffffffffffffffffffffffffffffffffffffffff16815260200190815260200160002060008373ffffffffffffffffffffffffffffffffffffffff1673ffffffffffffffffffffffffffffffffffffffff16815260200190815260200160002060009054906101000a900460ff16905092915050565b610c12610dd7565b73ffffffffffffffffffffffffffffffffffffffff16610c30610975565b73ffffffffffffffffffffffffffffffffffffffff1614610c86576040517f08c379a0000000000000000000000000000000000000000000000000000000008152600401610c7d90612439565b60405180910390fd5b600073ffffffffffffffffffffffffffffffffffffffff168173ffffffffffffffffffffffffffffffffffffffff1603610cf5576040517f08c379a0000000000000000000000000000000000000000000000000000000008152600401610cec906125bd565b60405180910390fd5b610cfe816111fa565b50565b60007f01ffc9a7000000000000000000000000000000000000000000000000000000007bffffffffffffffffffffffffffffffffffffffffffffffffffffffff1916827bffffffffffffffffffffffffffffffffffffffffffffffffffffffff1916149050919050565b60008073ffffffffffffffffffffffffffffffffffffffff166002600084815260200190815260200160002060009054906101000a900473ffffffffffffffffffffffffffffffffffffffff1673ffffffffffffffffffffffffffffffffffffffff1614159050919050565b600033905090565b816004600083815260200190815260200160002060006101000a81548173ffffffffffffffffffffffffffffffffffffffff021916908373ffffffffffffffffffffffffffffffffffffffff160217905550808273ffffffffffffffffffffffffffffffffffffffff16610e528361077b565b73ffffffffffffffffffffffffffffffffffffffff167f8c5be1e5ebec7d5bd14f71427d1e84f3dd0314c0f7b2291e5b200ac8c7c3b92560405160405180910390a45050565b610eb28282604051806020016040528060008152506115ff565b5050565b6000610ec182610d6b565b610f00576040517f08c379a0000000000000000000000000000000000000000000000000000000008152600401610ef79061264f565b60405180910390fd5b6000610f0b8361077b565b90508073ffffffffffffffffffffffffffffffffffffffff168473ffffffffffffffffffffffffffffffffffffffff161480610f4d5750610f4c8185610b76565b5b80610f8b57508373ffffffffffffffffffffffffffffffffffffffff16610f7384610539565b73ffffffffffffffffffffffffffffffffffffffff16145b91505092915050565b8273ffffffffffffffffffffffffffffffffffffffff16610fb48261077b565b73ffffffffffffffffffffffffffffffffffffffff161461100a576040517f08c379a0000000000000000000000000000000000000000000000000000000008152600401611001906126e1565b60405180910390fd5b600073ffffffffffffffffffffffffffffffffffffffff168273ffffffffffffffffffffffffffffffffffffffff1603611079576040517f08c379a000000000000000000000000000000000000000000000000000000000815260040161107090612773565b60405180910390fd5b61108483838361165a565b61108f600082610ddf565b6001600360008573ffffffffffffffffffffffffffffffffffffffff1673ffffffffffffffffffffffffffffffffffffffff16815260200190815260200160002060008282546110df9190612793565b925050819055506001600360008473ffffffffffffffffffffffffffffffffffffffff1673ffffffffffffffffffffffffffffffffffffffff168152602001908152602001600020600082825461113691906127c7565b92505081905550816002600083815260200190815260200160002060006101000a81548173ffffffffffffffffffffffffffffffffffffffff021916908373ffffffffffffffffffffffffffffffffffffffff160217905550808273ffffffffffffffffffffffffffffffffffffffff168473ffffffffffffffffffffffffffffffffffffffff167fddf252ad1be2c89b69c2b068fc378daa952ba7f163c4a11628f55a4df523b3ef60405160405180910390a46111f583838361165f565b505050565b6000600660009054906101000a900473ffffffffffffffffffffffffffffffffffffffff16905081600660006101000a81548173ffffffffffffffffffffffffffffffffffffffff021916908373ffffffffffffffffffffffffffffffffffffffff1602179055508173ffffffffffffffffffffffffffffffffffffffff168173ffffffffffffffffffffffffffffffffffffffff167f8be0079c531659141344cd1fd0a4f28419497f9722a3daafe3b4186f6b6457e060405160405180910390a35050565b8173ffffffffffffffffffffffffffffffffffffffff168373ffffffffffffffffffffffffffffffffffffffff160361132e576040517f08c379a000000000000000000000000000000000000000000000000000000000815260040161132590612869565b60405180910390fd5b80600560008573ffffffffffffffffffffffffffffffffffffffff1673ffffffffffffffffffffffffffffffffffffffff16815260200190815260200160002060008473ffffffffffffffffffffffffffffffffffffffff1673ffffffffffffffffffffffffffffffffffffffff16815260200190815260200160002060006101000a81548160ff0219169083151502179055508173ffffffffffffffffffffffffffffffffffffffff168373ffffffffffffffffffffffffffffffffffffffff167f17307eab39ab6107e8899845ad3d59bd9653f200f220920489ca2b5937696c318360405161141f9190611a9b565b60405180910390a3505050565b611437848484610f94565b61144384848484611664565b611482576040517f08c379a0000000000000000000000000000000000000000000000000000000008152600401611479906128fb565b60405180910390fd5b50505050565b606060405180602001604052806000815250905090565b6060600082036114e6576040518060400160405280600181526020017f300000000000000000000000000000000000000000000000000000000000000081525090506115fa565b600082905060005b60008214611518578080611501906121ef565b915050600a82611511919061294a565b91506114ee565b60008167ffffffffffffffff81111561153457611533611dbc565b5b6040519080825280601f01601f1916602001820160405280156115665781602001600182028036833780820191505090505b5090505b600085146115f35760018261157f9190612793565b9150600a8561158e919061297b565b603061159a91906127c7565b60f81b8183815181106115b0576115af6129ac565b5b60200101907effffffffffffffffffffffffffffffffffffffffffffffffffffffffffffff1916908160001a905350600a856115ec919061294a565b945061156a565b8093505050505b919050565b61160983836117eb565b6116166000848484611664565b611655576040517f08c379a000000000000000000000000000000000000000000000000000000000815260040161164c906128fb565b60405180910390fd5b505050565b505050565b505050565b60006116858473ffffffffffffffffffffffffffffffffffffffff166119c4565b156117de578373ffffffffffffffffffffffffffffffffffffffff1663150b7a026116ae610dd7565b8786866040518563ffffffff1660e01b81526004016116d09493929190612a30565b6020604051808303816000875af192505050801561170c57506040513d601f19601f820116820180604052508101906117099190612a91565b60015b61178e573d806000811461173c576040519150601f19603f3d011682016040523d82523d6000602084013e611741565b606091505b506000815103611786576040517f08c379a000000000000000000000000000000000000000000000000000000000815260040161177d906128fb565b60405180910390fd5b805181602001fd5b63150b7a0260e01b7bffffffffffffffffffffffffffffffffffffffffffffffffffffffff1916817bffffffffffffffffffffffffffffffffffffffffffffffffffffffff1916149150506117e3565b600190505b949350505050565b600073ffffffffffffffffffffffffffffffffffffffff168273ffffffffffffffffffffffffffffffffffffffff160361185a576040517f08c379a000000000000000000000000000000000000000000000000000000000815260040161185190612b0a565b60405180910390fd5b61186381610d6b565b156118a3576040517f08c379a000000000000000000000000000000000000000000000000000000000815260040161189a90612b76565b60405180910390fd5b6118af6000838361165a565b6001600360008473ffffffffffffffffffffffffffffffffffffffff1673ffffffffffffffffffffffffffffffffffffffff16815260200190815260200160002060008282546118ff91906127c7565b92505081905550816002600083815260200190815260200160002060006101000a81548173ffffffffffffffffffffffffffffffffffffffff021916908373ffffffffffffffffffffffffffffffffffffffff160217905550808273ffffffffffffffffffffffffffffffffffffffff16600073ffffffffffffffffffffffffffffffffffffffff167fddf252ad1be2c89b69c2b068fc378daa952ba7f163c4a11628f55a4df523b3ef60405160405180910390a46119c06000838361165f565b5050565b6000808273ffffffffffffffffffffffffffffffffffffffff163b119050919050565b6000604051905090565b600080fd5b600080fd5b60007fffffffff0000000000000000000000000000000000000000000000000000000082169050919050565b611a30816119fb565b8114611a3b57600080fd5b50565b600081359050611a4d81611a27565b92915050565b600060208284031215611a6957611a686119f1565b5b6000611a7784828501611a3e565b91505092915050565b60008115159050919050565b611a9581611a80565b82525050565b6000602082019050611ab06000830184611a8c565b92915050565b6000819050919050565b611ac981611ab6565b82525050565b6000602082019050611ae46000830184611ac0565b92915050565b600081519050919050565b600082825260208201905092915050565b60005b83811015611b24578082015181840152602081019050611b09565b83811115611b33576000848401525b50505050565b6000601f19601f8301169050919050565b6000611b5582611aea565b611b5f8185611af5565b9350611b6f818560208601611b06565b611b7881611b39565b840191505092915050565b60006020820190508181036000830152611b9d8184611b4a565b905092915050565b611bae81611ab6565b8114611bb957600080fd5b50565b600081359050611bcb81611ba5565b92915050565b600060208284031215611be757611be66119f1565b5b6000611bf584828501611bbc565b91505092915050565b600073ffffffffffffffffffffffffffffffffffffffff82169050919050565b6000611c2982611bfe565b9050919050565b611c3981611c1e565b82525050565b6000602082019050611c546000830184611c30565b92915050565b611c6381611c1e565b8114611c6e57600080fd5b50565b600081359050611c8081611c5a565b92915050565b60008060408385031215611c9d57611c9c6119f1565b5b6000611cab85828601611c71565b9250506020611cbc85828601611bbc565b9150509250929050565b600080600060608486031215611cdf57611cde6119f1565b5b6000611ced86828701611c71565b9350506020611cfe86828701611c71565b9250506040611d0f86828701611bbc565b9150509250925092565b600060208284031215611d2f57611d2e6119f1565b5b6000611d3d84828501611c71565b91505092915050565b611d4f81611a80565b8114611d5a57600080fd5b50565b600081359050611d6c81611d46565b92915050565b60008060408385031215611d8957611d886119f1565b5b6000611d9785828601611c71565b9250506020611da885828601611d5d565b9150509250929050565b600080fd5b600080fd5b7f4e487b7100000000000000000000000000000000000000000000000000000000600052604160045260246000fd5b611df482611b39565b810181811067ffffffffffffffff82111715611e1357611e12611dbc565b5b80604052505050565b6000611e266119e7565b9050611e328282611deb565b919050565b600067ffffffffffffffff821115611e5257611e51611dbc565b5b611e5b82611b39565b9050602081019050919050565b82818337600083830152505050565b6000611e8a611e8584611e37565b611e1c565b905082815260208101848484011115611ea657611ea5611db7565b5b611eb1848285611e68565b509392505050565b600082601f830112611ece57611ecd611db2565b5b8135611ede848260208601611e77565b91505092915050565b60008060008060808587031215611f0157611f006119f1565b5b6000611f0f87828801611c71565b9450506020611f2087828801611c71565b9350506040611f3187828801611bbc565b925050606085013567ffffffffffffffff811115611f5257611f516119f6565b5b611f5e87828801611eb9565b91505092959194509250565b60008060408385031215611f8157611f806119f1565b5b6000611f8f85828601611c71565b9250506020611fa085828601611c71565b9150509250929050565b7f4e487b7100000000000000000000000000000000000000000000000000000000600052602260045260246000fd5b60006002820490506001821680611ff157607f821691505b60208210810361200457612003611faa565b5b50919050565b7f4552433732313a20617070726f76656420717565727920666f72206e6f6e657860008201527f697374656e7420746f6b656e0000000000000000000000000000000000000000602082015250565b6000612066602c83611af5565b91506120718261200a565b604082019050919050565b6000602082019050818103600083015261209581612059565b9050919050565b7f4552433732313a20617070726f76616c20746f2063757272656e74206f776e6560008201527f7200000000000000000000000000000000000000000000000000000000000000602082015250565b60006120f8602183611af5565b91506121038261209c565b604082019050919050565b60006020820190508181036000830152612127816120eb565b9050919050565b7f4552433732313a20617070726f76652063616c6c6572206973206e6f74206f7760008201527f6e6572206e6f7220617070726f76656420666f7220616c6c0000000000000000602082015250565b600061218a603883611af5565b91506121958261212e565b604082019050919050565b600060208201905081810360008301526121b98161217d565b9050919050565b7f4e487b7100000000000000000000000000000000000000000000000000000000600052601160045260246000fd5b60006121fa82611ab6565b91507fffffffffffffffffffffffffffffffffffffffffffffffffffffffffffffffff820361222c5761222b6121c0565b5b600182019050919050565b7f4552433732313a207472616e736665722063616c6c6572206973206e6f74206f60008201527f776e6572206e6f7220617070726f766564000000000000000000000000000000602082015250565b6000612293603183611af5565b915061229e82612237565b604082019050919050565b600060208201905081810360008301526122c281612286565b9050919050565b7f4552433732313a206f776e657220717565727920666f72206e6f6e657869737460008201527f656e7420746f6b656e0000000000000000000000000000000000000000000000602082015250565b6000612325602983611af5565b9150612330826122c9565b604082019050919050565b6000602082019050818103600083015261235481612318565b9050919050565b7f4552433732313a2062616c616e636520717565727920666f7220746865207a6560008201527f726f206164647265737300000000000000000000000000000000000000000000602082015250565b60006123b7602a83611af5565b91506123c28261235b565b604082019050919050565b600060208201905081810360008301526123e6816123aa565b9050919050565b7f4f776e61626c653a2063616c6c6572206973206e6f7420746865206f776e6572600082015250565b6000612423602083611af5565b915061242e826123ed565b602082019050919050565b6000602082019050818103600083015261245281612416565b9050919050565b7f4552433732314d657461646174613a2055524920717565727920666f72206e6f60008201527f6e6578697374656e7420746f6b656e0000000000000000000000000000000000602082015250565b60006124b5602f83611af5565b91506124c082612459565b604082019050919050565b600060208201905081810360008301526124e4816124a8565b9050919050565b600081905092915050565b600061250182611aea565b61250b81856124eb565b935061251b818560208601611b06565b80840191505092915050565b600061253382856124f6565b915061253f82846124f6565b91508190509392505050565b7f4f776e61626c653a206e6577206f776e657220697320746865207a65726f206160008201527f6464726573730000000000000000000000000000000000000000000000000000602082015250565b60006125a7602683611af5565b91506125b28261254b565b604082019050919050565b600060208201905081810360008301526125d68161259a565b9050919050565b7f4552433732313a206f70657261746f7220717565727920666f72206e6f6e657860008201527f697374656e7420746f6b656e0000000000000000000000000000000000000000602082015250565b6000612639602c83611af5565b9150612644826125dd565b604082019050919050565b600060208201905081810360008301526126688161262c565b9050919050565b7f4552433732313a207472616e736665722066726f6d20696e636f72726563742060008201527f6f776e6572000000000000000000000000000000000000000000000000000000602082015250565b60006126cb602583611af5565b91506126d68261266f565b604082019050919050565b600060208201905081810360008301526126fa816126be565b9050919050565b7f4552433732313a207472616e7366657220746f20746865207a65726f2061646460008201527f7265737300000000000000000000000000000000000000000000000000000000602082015250565b600061275d602483611af5565b915061276882612701565b604082019050919050565b6000602082019050818103600083015261278c81612750565b9050919050565b600061279e82611ab6565b91506127a983611ab6565b9250828210156127bc576127bb6121c0565b5b828203905092915050565b60006127d282611ab6565b91506127dd83611ab6565b9250827fffffffffffffffffffffffffffffffffffffffffffffffffffffffffffffffff03821115612812576128116121c0565b5b828201905092915050565b7f4552433732313a20617070726f766520746f2063616c6c657200000000000000600082015250565b6000612853601983611af5565b915061285e8261281d565b602082019050919050565b6000602082019050818103600083015261288281612846565b9050919050565b7f4552433732313a207472616e7366657220746f206e6f6e20455243373231526560008201527f63656976657220696d706c656d656e7465720000000000000000000000000000602082015250565b60006128e5603283611af5565b91506128f082612889565b604082019050919050565b60006020820190508181036000830152612914816128d8565b9050919050565b7f4e487b7100000000000000000000000000000000000000000000000000000000600052601260045260246000fd5b600061295582611ab6565b915061296083611ab6565b9250826129705761296f61291b565b5b828204905092915050565b600061298682611ab6565b915061299183611ab6565b9250826129a1576129a061291b565b5b828206905092915050565b7f4e487b7100000000000000000000000000000000000000000000000000000000600052603260045260246000fd5b600081519050919050565b600082825260208201905092915050565b6000612a02826129db565b612a0c81856129e6565b9350612a1c818560208601611b06565b612a2581611b39565b840191505092915050565b6000608082019050612a456000830187611c30565b612a526020830186611c30565b612a5f6040830185611ac0565b8181036060830152612a7181846129f7565b905095945050505050565b600081519050612a8b81611a27565b92915050565b600060208284031215612aa757612aa66119f1565b5b6000612ab584828501612a7c565b91505092915050565b7f4552433732313a206d696e7420746f20746865207a65726f2061646472657373600082015250565b6000612af4602083611af5565b9150612aff82612abe565b602082019050919050565b60006020820190508181036000830152612b2381612ae7565b9050919050565b7f4552433732313a20746f6b656e20616c7265616479206d696e74656400000000600082015250565b6000612b60601c83611af5565b9150612b6b82612b2a565b602082019050919050565b60006020820190508181036000830152612b8f81612b53565b905091905056fea26469706673582212208d87fbf9b4cae6defa2b8898f64d4fbd94daafd5df923021b9ef9d7093a02b3a64736f6c634300080e0033",
  "linkReferences": {},
  "deployedLinkReferences": {}
}