{
  "_format": "hh-sol-artifact-1",
  "contractName": "Storage",
  "sourceName": "contracts/Storage.sol",
  "abi": [
    {
      "inputs": [],
      "stateMutability": "nonpayable",
      "type": "constructor"
    },
    {
      "inputs": [
        {
          "internalType": "address",
          "name": "_nftAddress",
          "type": "address"
        },
        {
          "internalType": "uint256",
          "name": "_nftId",
          "type": "uint256"
        },
        {
          "internalType": "string",
          "name": "_tokenName",
          "type": "string"
        },
        {
          "internalType": "string",
          "name": "_tokenTicker",
          "type": "string"
        },
        {
          "internalType": "uint256",
          "name": "_supply",
          "type": "uint256"
        },
        {
          "internalType": "uint256",
          "name": "_royaltyPercentage",
          "type": "uint256"
        }
      ],
      "name": "createFraction",
      "outputs": [],
      "stateMutability": "nonpayable",
      "type": "function"
    },
    {
      "inputs": [
        {
          "internalType": "address",
          "name": "_nftAddress",
          "type": "address"
        },
        {
          "internalType": "uint256",
          "name": "_nftId",
          "type": "uint256"
        }
      ],
      "name": "depositNft",
      "outputs": [],
      "stateMutability": "nonpayable",
      "type": "function"
    },
    {
      "inputs": [
        {
          "internalType": "address",
          "name": "_nftAddress",
          "type": "address"
        },
        {
          "internalType": "uint256",
          "name": "_nftID",
          "type": "uint256"
        }
      ],
      "name": "disableIsFractionalised",
      "outputs": [],
      "stateMutability": "nonpayable",
      "type": "function"
    },
    {
      "inputs": [],
      "name": "getAuctionAddress",
      "outputs": [
        {
          "internalType": "address",
          "name": "",
          "type": "address"
        }
      ],
      "stateMutability": "view",
      "type": "function"
    },
    {
      "inputs": [
        {
          "internalType": "address",
          "name": "_nftAddress",
          "type": "address"
        },
        {
          "internalType": "uint256",
          "name": "_nftId",
          "type": "uint256"
        }
      ],
      "name": "getFractionAddressFromNft",
      "outputs": [
        {
          "internalType": "address",
          "name": "",
          "type": "address"
        }
      ],
      "stateMutability": "view",
      "type": "function"
    },
    {
      "inputs": [
        {
          "internalType": "address",
          "name": "_nftAddress",
          "type": "address"
        },
        {
          "internalType": "uint256",
          "name": "_nftId",
          "type": "uint256"
        }
      ],
      "name": "getIsChangingNftOwner",
      "outputs": [
        {
          "internalType": "bool",
          "name": "",
          "type": "bool"
        }
      ],
      "stateMutability": "view",
      "type": "function"
    },
    {
      "inputs": [
        {
          "internalType": "address",
          "name": "_nftAddress",
          "type": "address"
        },
        {
          "internalType": "uint256",
          "name": "_nftId",
          "type": "uint256"
        }
      ],
      "name": "getIsNftDeposited",
      "outputs": [
        {
          "internalType": "bool",
          "name": "",
          "type": "bool"
        }
      ],
      "stateMutability": "view",
      "type": "function"
    },
    {
      "inputs": [
        {
          "internalType": "address",
          "name": "_nftAddress",
          "type": "address"
        },
        {
          "internalType": "uint256",
          "name": "_nftId",
          "type": "uint256"
        }
      ],
      "name": "getIsNftFractionalised",
      "outputs": [
        {
          "internalType": "bool",
          "name": "",
          "type": "bool"
        }
      ],
      "stateMutability": "view",
      "type": "function"
    },
    {
      "inputs": [
        {
          "internalType": "contract baseFractionToken",
          "name": "_fractionToken",
          "type": "address"
        }
      ],
      "name": "getNftAddressFromFraction",
      "outputs": [
        {
          "internalType": "address",
          "name": "",
          "type": "address"
        }
      ],
      "stateMutability": "view",
      "type": "function"
    },
    {
      "inputs": [
        {
          "internalType": "contract baseFractionToken",
          "name": "_fractionToken",
          "type": "address"
        }
      ],
      "name": "getNftIdFromFraction",
      "outputs": [
        {
          "internalType": "uint256",
          "name": "",
          "type": "uint256"
        }
      ],
      "stateMutability": "view",
      "type": "function"
    },
    {
      "inputs": [
        {
          "internalType": "address",
          "name": "_nftAddress",
          "type": "address"
        },
        {
          "internalType": "uint256",
          "name": "_nftId",
          "type": "uint256"
        }
      ],
      "name": "getNftOwner",
      "outputs": [
        {
          "internalType": "address",
          "name": "",
          "type": "address"
        }
      ],
      "stateMutability": "view",
      "type": "function"
    },
    {
      "inputs": [
        {
          "internalType": "address",
          "name": "_nftAddress",
          "type": "address"
        },
        {
          "internalType": "uint256",
          "name": "_nftId",
          "type": "uint256"
        }
      ],
      "name": "isNftActive",
      "outputs": [
        {
          "internalType": "bool",
          "name": "",
          "type": "bool"
        }
      ],
      "stateMutability": "view",
      "type": "function"
    },
    {
      "inputs": [
        {
          "internalType": "address",
          "name": "",
          "type": "address"
        },
        {
          "internalType": "address",
          "name": "from",
          "type": "address"
        },
        {
          "internalType": "uint256",
          "name": "",
          "type": "uint256"
        },
        {
          "internalType": "bytes",
          "name": "",
          "type": "bytes"
        }
      ],
      "name": "onERC721Received",
      "outputs": [
        {
          "internalType": "bytes4",
          "name": "",
          "type": "bytes4"
        }
      ],
      "stateMutability": "pure",
      "type": "function"
    },
    {
      "inputs": [
        {
          "internalType": "address",
          "name": "_auctionAddress",
          "type": "address"
        }
      ],
      "name": "setAuctionAddress",
      "outputs": [],
      "stateMutability": "nonpayable",
      "type": "function"
    },
    {
      "inputs": [
        {
          "internalType": "address",
          "name": "_fractionAddress",
          "type": "address"
        }
      ],
      "name": "setAuctionAddressInFraction",
      "outputs": [],
      "stateMutability": "nonpayable",
      "type": "function"
    },
    {
      "inputs": [
        {
          "internalType": "address",
          "name": "_nftAddress",
          "type": "address"
        },
        {
          "internalType": "uint256",
          "name": "_nftId",
          "type": "uint256"
        }
      ],
      "name": "setIsNftChangingOwnerTrue",
      "outputs": [],
      "stateMutability": "nonpayable",
      "type": "function"
    },
    {
      "inputs": [
        {
          "internalType": "address",
          "name": "_nftAddress",
          "type": "address"
        },
        {
          "internalType": "uint256",
          "name": "_nftId",
          "type": "uint256"
        },
        {
          "internalType": "address",
          "name": "newOwner",
          "type": "address"
        }
      ],
      "name": "setNftOwner",
      "outputs": [],
      "stateMutability": "nonpayable",
      "type": "function"
    },
    {
      "inputs": [
        {
          "internalType": "address",
          "name": "_nftAddress",
          "type": "address"
        },
        {
          "internalType": "uint256",
          "name": "_nftId",
          "type": "uint256"
        }
      ],
      "name": "setNoLongerFractionTokenTrue",
      "outputs": [],
      "stateMutability": "nonpayable",
      "type": "function"
    },
    {
      "inputs": [
        {
          "internalType": "address",
          "name": "_nftAddress",
          "type": "address"
        },
        {
          "internalType": "uint256",
          "name": "_nftId",
          "type": "uint256"
        }
      ],
      "name": "withdrawNft",
      "outputs": [],
      "stateMutability": "nonpayable",
      "type": "function"
    }
  ],
  "bytecode": "0x608060405234801561001057600080fd5b5033600760006101000a81548173ffffffffffffffffffffffffffffffffffffffff021916908373ffffffffffffffffffffffffffffffffffffffff160217905550615137806100616000396000f3fe60806040523480156200001157600080fd5b50600436106200013c5760003560e01c80639d91f93511620000bd578063b6926178116200007b578063b6926178146200039d578063d8fc651914620003d3578063dcea9a9614620003f3578063f2bb4a881462000429578063f82d24271462000449576200013c565b80639d91f93514620002bb578063a72e2cd614620002db578063aafef26714620002fb578063ab2397f71462000331578063add933a31462000367576200013c565b80636b1ac398116200010b5780636b1ac39814620002035780636deb100514620002235780638b9ca88514620002435780638c4d094a146200026557806393ac3638146200029b576200013c565b8063150b7a02146200014157806334acdea71462000177578063491f667414620001975780635044613614620001cd575b600080fd5b6200015f600480360381019062000159919062001848565b62000469565b6040516200016e91906200191b565b60405180910390f35b6200019560048036038101906200018f919062001938565b6200047e565b005b620001b56004803603810190620001af919062001938565b62000588565b604051620001c491906200199c565b60405180910390f35b620001eb6004803603810190620001e5919062001938565b620005f0565b604051620001fa9190620019ca565b60405180910390f35b6200022160048036038101906200021b919062001938565b6200066b565b005b6200024160048036038101906200023b919062001938565b6200076b565b005b6200024d6200086b565b6040516200025c9190620019ca565b60405180910390f35b6200028360048036038101906200027d919062001a2c565b62000895565b60405162000292919062001a6f565b60405180910390f35b620002b96004803603810190620002b3919062001a8c565b620008de565b005b620002d96004803603810190620002d3919062001c1b565b620009b5565b005b620002f96004803603810190620002f3919062001938565b62000c81565b005b62000319600480360381019062000313919062001938565b62000df5565b604051620003289190620019ca565b60405180910390f35b6200034f600480360381019062000349919062001938565b62000e70565b6040516200035e91906200199c565b60405180910390f35b6200038560048036038101906200037f919062001a2c565b62000ed8565b604051620003949190620019ca565b60405180910390f35b620003bb6004803603810190620003b5919062001938565b62000f41565b604051620003ca91906200199c565b60405180910390f35b620003f16004803603810190620003eb919062001938565b62000fa8565b005b6200041160048036038101906200040b919062001938565b62001359565b6040516200042091906200199c565b60405180910390f35b62000447600480360381019062000441919062001cf5565b62001447565b005b62000467600480360381019062000461919062001a8c565b6200167e565b005b600063150b7a0260e01b905095945050505050565b600860009054906101000a900473ffffffffffffffffffffffffffffffffffffffff1673ffffffffffffffffffffffffffffffffffffffff163373ffffffffffffffffffffffffffffffffffffffff161462000511576040517f08c379a0000000000000000000000000000000000000000000000000000000008152600401620005089062001dd8565b60405180910390fd5b60006200051f838362000df5565b90508073ffffffffffffffffffffffffffffffffffffffff166362032bc56040518163ffffffff1660e01b8152600401600060405180830381600087803b1580156200056a57600080fd5b505af11580156200057f573d6000803e3d6000fd5b50505050505050565b6000600360008473ffffffffffffffffffffffffffffffffffffffff1673ffffffffffffffffffffffffffffffffffffffff168152602001908152602001600020600083815260200190815260200160002060009054906101000a900460ff16905092915050565b6000600160008473ffffffffffffffffffffffffffffffffffffffff1673ffffffffffffffffffffffffffffffffffffffff168152602001908152602001600020600083815260200190815260200160002060009054906101000a900473ffffffffffffffffffffffffffffffffffffffff16905092915050565b600860009054906101000a900473ffffffffffffffffffffffffffffffffffffffff1673ffffffffffffffffffffffffffffffffffffffff163373ffffffffffffffffffffffffffffffffffffffff1614620006fe576040517f08c379a0000000000000000000000000000000000000000000000000000000008152600401620006f59062001e70565b60405180910390fd5b6001600260008473ffffffffffffffffffffffffffffffffffffffff1673ffffffffffffffffffffffffffffffffffffffff168152602001908152602001600020600083815260200190815260200160002060006101000a81548160ff0219169083151502179055505050565b600860009054906101000a900473ffffffffffffffffffffffffffffffffffffffff1673ffffffffffffffffffffffffffffffffffffffff163373ffffffffffffffffffffffffffffffffffffffff1614620007fe576040517f08c379a0000000000000000000000000000000000000000000000000000000008152600401620007f59062001dd8565b60405180910390fd5b6000600360008473ffffffffffffffffffffffffffffffffffffffff1673ffffffffffffffffffffffffffffffffffffffff168152602001908152602001600020600083815260200190815260200160002060006101000a81548160ff0219169083151502179055505050565b6000600860009054906101000a900473ffffffffffffffffffffffffffffffffffffffff16905090565b6000600660008373ffffffffffffffffffffffffffffffffffffffff1673ffffffffffffffffffffffffffffffffffffffff168152602001908152602001600020549050919050565b600760009054906101000a900473ffffffffffffffffffffffffffffffffffffffff1673ffffffffffffffffffffffffffffffffffffffff163373ffffffffffffffffffffffffffffffffffffffff161462000971576040517f08c379a0000000000000000000000000000000000000000000000000000000008152600401620009689062001f08565b60405180910390fd5b80600860006101000a81548173ffffffffffffffffffffffffffffffffffffffff021916908373ffffffffffffffffffffffffffffffffffffffff16021790555050565b6000808773ffffffffffffffffffffffffffffffffffffffff1673ffffffffffffffffffffffffffffffffffffffff168152602001908152602001600020600086815260200190815260200160002060009054906101000a900460ff1662000a54576040517f08c379a000000000000000000000000000000000000000000000000000000000815260040162000a4b9062001fa0565b60405180910390fd5b3373ffffffffffffffffffffffffffffffffffffffff16600160008873ffffffffffffffffffffffffffffffffffffffff1673ffffffffffffffffffffffffffffffffffffffff168152602001908152602001600020600087815260200190815260200160002060009054906101000a900473ffffffffffffffffffffffffffffffffffffffff1673ffffffffffffffffffffffffffffffffffffffff161462000b35576040517f08c379a000000000000000000000000000000000000000000000000000000000815260040162000b2c9062002012565b60405180910390fd5b6001600360008873ffffffffffffffffffffffffffffffffffffffff1673ffffffffffffffffffffffffffffffffffffffff168152602001908152602001600020600087815260200190815260200160002060006101000a81548160ff0219169083151502179055506000868633878787873060405162000bb69062001718565b62000bc9989796959493929190620020b6565b604051809103906000f08015801562000be6573d6000803e3d6000fd5b50905080600460008973ffffffffffffffffffffffffffffffffffffffff1673ffffffffffffffffffffffffffffffffffffffff168152602001908152602001600020600088815260200190815260200160002060006101000a81548173ffffffffffffffffffffffffffffffffffffffff021916908373ffffffffffffffffffffffffffffffffffffffff16021790555050505050505050565b60008290508073ffffffffffffffffffffffffffffffffffffffff166342842e0e3330856040518463ffffffff1660e01b815260040162000cc59392919062002152565b600060405180830381600087803b15801562000ce057600080fd5b505af115801562000cf5573d6000803e3d6000fd5b5050505060016000808573ffffffffffffffffffffffffffffffffffffffff1673ffffffffffffffffffffffffffffffffffffffff168152602001908152602001600020600084815260200190815260200160002060006101000a81548160ff02191690831515021790555033600160008573ffffffffffffffffffffffffffffffffffffffff1673ffffffffffffffffffffffffffffffffffffffff168152602001908152602001600020600084815260200190815260200160002060006101000a81548173ffffffffffffffffffffffffffffffffffffffff021916908373ffffffffffffffffffffffffffffffffffffffff160217905550505050565b6000600460008473ffffffffffffffffffffffffffffffffffffffff1673ffffffffffffffffffffffffffffffffffffffff168152602001908152602001600020600083815260200190815260200160002060009054906101000a900473ffffffffffffffffffffffffffffffffffffffff16905092915050565b6000600260008473ffffffffffffffffffffffffffffffffffffffff1673ffffffffffffffffffffffffffffffffffffffff168152602001908152602001600020600083815260200190815260200160002060009054906101000a900460ff16905092915050565b6000600560008373ffffffffffffffffffffffffffffffffffffffff1673ffffffffffffffffffffffffffffffffffffffff16815260200190815260200160002060009054906101000a900473ffffffffffffffffffffffffffffffffffffffff169050919050565b60008060008473ffffffffffffffffffffffffffffffffffffffff1673ffffffffffffffffffffffffffffffffffffffff168152602001908152602001600020600083815260200190815260200160002060009054906101000a900460ff16905092915050565b60008290506000600460008573ffffffffffffffffffffffffffffffffffffffff1673ffffffffffffffffffffffffffffffffffffffff168152602001908152602001600020600084815260200190815260200160002060009054906101000a900473ffffffffffffffffffffffffffffffffffffffff169050600115156000808673ffffffffffffffffffffffffffffffffffffffff1673ffffffffffffffffffffffffffffffffffffffff168152602001908152602001600020600085815260200190815260200160002060009054906101000a900460ff16151514620010c8576040517f08c379a0000000000000000000000000000000000000000000000000000000008152600401620010bf90620021df565b60405180910390fd5b60001515600360008673ffffffffffffffffffffffffffffffffffffffff1673ffffffffffffffffffffffffffffffffffffffff168152602001908152602001600020600085815260200190815260200160002060009054906101000a900460ff161515146200116f576040517f08c379a00000000000000000000000000000000000000000000000000000000081526004016200116690620022c3565b60405180910390fd5b3373ffffffffffffffffffffffffffffffffffffffff16600160008673ffffffffffffffffffffffffffffffffffffffff1673ffffffffffffffffffffffffffffffffffffffff168152602001908152602001600020600085815260200190815260200160002060009054906101000a900473ffffffffffffffffffffffffffffffffffffffff1673ffffffffffffffffffffffffffffffffffffffff161462001250576040517f08c379a000000000000000000000000000000000000000000000000000000000815260040162001247906200235b565b60405180910390fd5b6000600160008673ffffffffffffffffffffffffffffffffffffffff1673ffffffffffffffffffffffffffffffffffffffff168152602001908152602001600020600085815260200190815260200160002060006101000a81548173ffffffffffffffffffffffffffffffffffffffff021916908373ffffffffffffffffffffffffffffffffffffffff1602179055508173ffffffffffffffffffffffffffffffffffffffff166342842e0e3033866040518463ffffffff1660e01b81526004016200131f9392919062002152565b600060405180830381600087803b1580156200133a57600080fd5b505af11580156200134f573d6000803e3d6000fd5b5050505050505050565b6000806000808573ffffffffffffffffffffffffffffffffffffffff1673ffffffffffffffffffffffffffffffffffffffff168152602001908152602001600020600084815260200190815260200160002060009054906101000a900460ff1690506000600360008673ffffffffffffffffffffffffffffffffffffffff1673ffffffffffffffffffffffffffffffffffffffff168152602001908152602001600020600085815260200190815260200160002060009054906101000a900460ff169050818015620014285750805b156200143a5760019250505062001441565b6000925050505b92915050565b60011515600260008573ffffffffffffffffffffffffffffffffffffffff1673ffffffffffffffffffffffffffffffffffffffff168152602001908152602001600020600084815260200190815260200160002060009054906101000a900460ff16151514620014ee576040517f08c379a0000000000000000000000000000000000000000000000000000000008152600401620014e590620023cd565b60405180910390fd5b600860009054906101000a900473ffffffffffffffffffffffffffffffffffffffff1673ffffffffffffffffffffffffffffffffffffffff163373ffffffffffffffffffffffffffffffffffffffff161462001581576040517f08c379a0000000000000000000000000000000000000000000000000000000008152600401620015789062002465565b60405180910390fd5b6000600260008573ffffffffffffffffffffffffffffffffffffffff1673ffffffffffffffffffffffffffffffffffffffff168152602001908152602001600020600084815260200190815260200160002060006101000a81548160ff02191690831515021790555080600160008573ffffffffffffffffffffffffffffffffffffffff1673ffffffffffffffffffffffffffffffffffffffff168152602001908152602001600020600084815260200190815260200160002060006101000a81548173ffffffffffffffffffffffffffffffffffffffff021916908373ffffffffffffffffffffffffffffffffffffffff160217905550505050565b60008190508073ffffffffffffffffffffffffffffffffffffffff166331d8e455600860009054906101000a900473ffffffffffffffffffffffffffffffffffffffff166040518263ffffffff1660e01b8152600401620016e09190620019ca565b600060405180830381600087803b158015620016fb57600080fd5b505af115801562001710573d6000803e3d6000fd5b505050505050565b612c7a806200248883390190565b6000604051905090565b600080fd5b600080fd5b600073ffffffffffffffffffffffffffffffffffffffff82169050919050565b600062001767826200173a565b9050919050565b62001779816200175a565b81146200178557600080fd5b50565b60008135905062001799816200176e565b92915050565b6000819050919050565b620017b4816200179f565b8114620017c057600080fd5b50565b600081359050620017d481620017a9565b92915050565b600080fd5b600080fd5b600080fd5b60008083601f840112620018025762001801620017da565b5b8235905067ffffffffffffffff811115620018225762001821620017df565b5b602083019150836001820283011115620018415762001840620017e4565b5b9250929050565b60008060008060006080868803121562001867576200186662001730565b5b6000620018778882890162001788565b95505060206200188a8882890162001788565b94505060406200189d88828901620017c3565b935050606086013567ffffffffffffffff811115620018c157620018c062001735565b5b620018cf88828901620017e9565b92509250509295509295909350565b60007fffffffff0000000000000000000000000000000000000000000000000000000082169050919050565b6200191581620018de565b82525050565b60006020820190506200193260008301846200190a565b92915050565b6000806040838503121562001952576200195162001730565b5b6000620019628582860162001788565b92505060206200197585828601620017c3565b9150509250929050565b60008115159050919050565b62001996816200197f565b82525050565b6000602082019050620019b360008301846200198b565b92915050565b620019c4816200175a565b82525050565b6000602082019050620019e16000830184620019b9565b92915050565b6000620019f4826200175a565b9050919050565b62001a0681620019e7565b811462001a1257600080fd5b50565b60008135905062001a2681620019fb565b92915050565b60006020828403121562001a455762001a4462001730565b5b600062001a558482850162001a15565b91505092915050565b62001a69816200179f565b82525050565b600060208201905062001a86600083018462001a5e565b92915050565b60006020828403121562001aa55762001aa462001730565b5b600062001ab58482850162001788565b91505092915050565b600080fd5b6000601f19601f8301169050919050565b7f4e487b7100000000000000000000000000000000000000000000000000000000600052604160045260246000fd5b62001b0e8262001ac3565b810181811067ffffffffffffffff8211171562001b305762001b2f62001ad4565b5b80604052505050565b600062001b4562001726565b905062001b53828262001b03565b919050565b600067ffffffffffffffff82111562001b765762001b7562001ad4565b5b62001b818262001ac3565b9050602081019050919050565b82818337600083830152505050565b600062001bb462001bae8462001b58565b62001b39565b90508281526020810184848401111562001bd35762001bd262001abe565b5b62001be084828562001b8e565b509392505050565b600082601f83011262001c005762001bff620017da565b5b813562001c1284826020860162001b9d565b91505092915050565b60008060008060008060c0878903121562001c3b5762001c3a62001730565b5b600062001c4b89828a0162001788565b965050602062001c5e89828a01620017c3565b955050604087013567ffffffffffffffff81111562001c825762001c8162001735565b5b62001c9089828a0162001be8565b945050606087013567ffffffffffffffff81111562001cb45762001cb362001735565b5b62001cc289828a0162001be8565b935050608062001cd589828a01620017c3565b92505060a062001ce889828a01620017c3565b9150509295509295509295565b60008060006060848603121562001d115762001d1062001730565b5b600062001d218682870162001788565b935050602062001d3486828701620017c3565b925050604062001d478682870162001788565b9150509250925092565b600082825260208201905092915050565b7f6f6e6c792061756374696f6e2063616e2063616c6c20746869732066756e637460008201527f696f6e0000000000000000000000000000000000000000000000000000000000602082015250565b600062001dc060238362001d51565b915062001dcd8262001d62565b604082019050919050565b6000602082019050818103600083015262001df38162001db1565b9050919050565b7f596f7520617265206e6f7420746865206f776e6572206f662074686973204e4660008201527f5400000000000000000000000000000000000000000000000000000000000000602082015250565b600062001e5860218362001d51565b915062001e658262001dfa565b604082019050919050565b6000602082019050818103600083015262001e8b8162001e49565b9050919050565b7f4f6e6c7920636f6e7472616374206465706c6f7965722063616e2063616c6c2060008201527f746869732066756e6374696f6e00000000000000000000000000000000000000602082015250565b600062001ef0602d8362001d51565b915062001efd8262001e92565b604082019050919050565b6000602082019050818103600083015262001f238162001ee1565b9050919050565b7f54686973204e4654206861736e2774206265656e206465706f7369746564207960008201527f6574000000000000000000000000000000000000000000000000000000000000602082015250565b600062001f8860228362001d51565b915062001f958262001f2a565b604082019050919050565b6000602082019050818103600083015262001fbb8162001f79565b9050919050565b7f596f7520646f206e6f74206f776e2074686973204e4654000000000000000000600082015250565b600062001ffa60178362001d51565b9150620020078262001fc2565b602082019050919050565b600060208201905081810360008301526200202d8162001feb565b9050919050565b600081519050919050565b60005b838110156200205f57808201518184015260208101905062002042565b838111156200206f576000848401525b50505050565b6000620020828262002034565b6200208e818562001d51565b9350620020a08185602086016200203f565b620020ab8162001ac3565b840191505092915050565b600061010082019050620020ce600083018b620019b9565b620020dd602083018a62001a5e565b620020ec6040830189620019b9565b818103606083015262002100818862002075565b9050818103608083015262002116818762002075565b90506200212760a083018662001a5e565b6200213660c083018562001a5e565b6200214560e0830184620019b9565b9998505050505050505050565b6000606082019050620021696000830186620019b9565b620021786020830185620019b9565b62002187604083018462001a5e565b949350505050565b7f54686973204e4654206973206e6f742077697468647261776e00000000000000600082015250565b6000620021c760198362001d51565b9150620021d4826200218f565b602082019050919050565b60006020820190508181036000830152620021fa81620021b8565b9050919050565b7f4e46542063616e6e6f742062652077697468647261776e2c206569746865722060008201527f746865204e465420686173206265656e2077697468647261776e206f7220796f60208201527f7520646f206e6f74206f776e2074686520746f74616c20737570706c79206f6660408201527f206672616374696f6e20746f6b656e7300000000000000000000000000000000606082015250565b6000620022ab60708362001d51565b9150620022b88262002201565b608082019050919050565b60006020820190508181036000830152620022de816200229c565b9050919050565b7f54686973206164647265737320646f6573206e6f74206f776e2074686973204e60008201527f4654000000000000000000000000000000000000000000000000000000000000602082015250565b60006200234360228362001d51565b91506200235082620022e5565b604082019050919050565b60006020820190508181036000830152620023768162002334565b9050919050565b7f4e6674206973206e6f74206368616e67696e67206f776e657200000000000000600082015250565b6000620023b560198362001d51565b9150620023c2826200237d565b602082019050919050565b60006020820190508181036000830152620023e881620023a6565b9050919050565b7f4f6e6c792063757272656e74206f776e6572206f66204e46542063616e20636860008201527f616e6765204e4654206f776e6572000000000000000000000000000000000000602082015250565b60006200244d602e8362001d51565b91506200245a82620023ef565b604082019050919050565b6000602082019050818103600083015262002480816200243e565b905091905056fe60806040523480156200001157600080fd5b5060405162002c7a38038062002c7a83398181016040528101906200003791906200060a565b84848160039080519060200190620000519291906200031d565b5080600490805190602001906200006a9291906200031d565b50505087600960006101000a81548173ffffffffffffffffffffffffffffffffffffffff021916908373ffffffffffffffffffffffffffffffffffffffff16021790555086600a8190555085600560006101000a81548173ffffffffffffffffffffffffffffffffffffffff021916908373ffffffffffffffffffffffffffffffffffffffff1602179055508160088190555062000131600560009054906101000a900473ffffffffffffffffffffffffffffffffffffffff16846200019b60201b60201c565b80600660006101000a81548173ffffffffffffffffffffffffffffffffffffffff021916908373ffffffffffffffffffffffffffffffffffffffff1602179055506000600c60006101000a81548160ff0219169083151502179055505050505050505050620008b2565b600073ffffffffffffffffffffffffffffffffffffffff168273ffffffffffffffffffffffffffffffffffffffff16036200020d576040517f08c379a0000000000000000000000000000000000000000000000000000000008152600401620002049062000772565b60405180910390fd5b62000221600083836200031360201b60201c565b8060026000828254620002359190620007c3565b92505081905550806000808473ffffffffffffffffffffffffffffffffffffffff1673ffffffffffffffffffffffffffffffffffffffff16815260200190815260200160002060008282546200028c9190620007c3565b925050819055508173ffffffffffffffffffffffffffffffffffffffff16600073ffffffffffffffffffffffffffffffffffffffff167fddf252ad1be2c89b69c2b068fc378daa952ba7f163c4a11628f55a4df523b3ef83604051620002f3919062000831565b60405180910390a36200030f600083836200031860201b60201c565b5050565b505050565b505050565b8280546200032b906200087d565b90600052602060002090601f0160209004810192826200034f57600085556200039b565b82601f106200036a57805160ff19168380011785556200039b565b828001600101855582156200039b579182015b828111156200039a5782518255916020019190600101906200037d565b5b509050620003aa9190620003ae565b5090565b5b80821115620003c9576000816000905550600101620003af565b5090565b6000604051905090565b600080fd5b600080fd5b600073ffffffffffffffffffffffffffffffffffffffff82169050919050565b60006200040e82620003e1565b9050919050565b620004208162000401565b81146200042c57600080fd5b50565b600081519050620004408162000415565b92915050565b6000819050919050565b6200045b8162000446565b81146200046757600080fd5b50565b6000815190506200047b8162000450565b92915050565b600080fd5b600080fd5b6000601f19601f8301169050919050565b7f4e487b7100000000000000000000000000000000000000000000000000000000600052604160045260246000fd5b620004d6826200048b565b810181811067ffffffffffffffff82111715620004f857620004f76200049c565b5b80604052505050565b60006200050d620003cd565b90506200051b8282620004cb565b919050565b600067ffffffffffffffff8211156200053e576200053d6200049c565b5b62000549826200048b565b9050602081019050919050565b60005b838110156200057657808201518184015260208101905062000559565b8381111562000586576000848401525b50505050565b6000620005a36200059d8462000520565b62000501565b905082815260208101848484011115620005c257620005c162000486565b5b620005cf84828562000556565b509392505050565b600082601f830112620005ef57620005ee62000481565b5b8151620006018482602086016200058c565b91505092915050565b600080600080600080600080610100898b0312156200062e576200062d620003d7565b5b60006200063e8b828c016200042f565b9850506020620006518b828c016200046a565b9750506040620006648b828c016200042f565b965050606089015167ffffffffffffffff811115620006885762000687620003dc565b5b620006968b828c01620005d7565b955050608089015167ffffffffffffffff811115620006ba57620006b9620003dc565b5b620006c88b828c01620005d7565b94505060a0620006db8b828c016200046a565b93505060c0620006ee8b828c016200046a565b92505060e0620007018b828c016200042f565b9150509295985092959890939650565b600082825260208201905092915050565b7f45524332303a206d696e7420746f20746865207a65726f206164647265737300600082015250565b60006200075a601f8362000711565b9150620007678262000722565b602082019050919050565b600060208201905081810360008301526200078d816200074b565b9050919050565b7f4e487b7100000000000000000000000000000000000000000000000000000000600052601160045260246000fd5b6000620007d08262000446565b9150620007dd8362000446565b9250827fffffffffffffffffffffffffffffffffffffffffffffffffffffffffffffffff0382111562000815576200081462000794565b5b828201905092915050565b6200082b8162000446565b82525050565b600060208201905062000848600083018462000820565b92915050565b7f4e487b7100000000000000000000000000000000000000000000000000000000600052602260045260246000fd5b600060028204905060018216806200089657607f821691505b602082108103620008ac57620008ab6200084e565b5b50919050565b6123b880620008c26000396000f3fe608060405234801561001057600080fd5b50600436106101735760003560e01c8063644c45e0116100de57806394ee29d911610097578063a457c2d711610071578063a457c2d714610428578063a9059cbb14610458578063be9a71bd14610488578063dd62ed3e146104a657610173565b806394ee29d9146103bc57806395d89b41146103da5780639e4c0141146103f857610173565b8063644c45e0146102fe57806370a082311461031c578063765012211461034c578063777b8eb11461036857806379cc6790146103845780639385e55a146103a057610173565b8063313ce56711610130578063313ce5671461025057806331d8e4551461026e578063395093511461028a57806342966c68146102ba57806359c8b7dd146102d657806362032bc5146102f457610173565b806306fdde031461017857806309323b0214610196578063095ea7b3146101b457806318160ddd146101e457806323b872dd146102025780632b8fdd8914610232575b600080fd5b6101806104d6565b60405161018d919061178f565b60405180910390f35b61019e610568565b6040516101ab91906117cc565b60405180910390f35b6101ce60048036038101906101c99190611880565b61057f565b6040516101db91906117cc565b60405180910390f35b6101ec6105a2565b6040516101f991906118cf565b60405180910390f35b61021c600480360381019061021791906118ea565b6105ac565b60405161022991906117cc565b60405180910390f35b61023a6106ad565b604051610247919061194c565b60405180910390f35b6102586106d7565b6040516102659190611983565b60405180910390f35b6102886004803603810190610283919061199e565b6106e0565b005b6102a4600480360381019061029f9190611880565b6107b4565b6040516102b191906117cc565b60405180910390f35b6102d460048036038101906102cf91906119cb565b6107eb565b005b6102de6107ff565b6040516102eb91906118cf565b60405180910390f35b6102fc610809565b005b6103066108b6565b60405161031391906118cf565b60405180910390f35b6103366004803603810190610331919061199e565b6108c0565b60405161034391906118cf565b60405180910390f35b6103666004803603810190610361919061199e565b610908565b005b610382600480360381019061037d91906118ea565b6109dc565b005b61039e60048036038101906103999190611880565b610a38565b005b6103ba60048036038101906103b591906119f8565b610a58565b005b6103c4610cb8565b6040516103d19190611af6565b60405180910390f35b6103e2610d46565b6040516103ef919061178f565b60405180910390f35b610412600480360381019061040d91906119cb565b610dd8565b60405161041f91906118cf565b60405180910390f35b610442600480360381019061043d9190611880565b610dfb565b60405161044f91906117cc565b60405180910390f35b610472600480360381019061046d9190611880565b610e72565b60405161047f91906117cc565b60405180910390f35b610490610f89565b60405161049d919061194c565b60405180910390f35b6104c060048036038101906104bb91906119f8565b610fb3565b6040516104cd91906118cf565b60405180910390f35b6060600380546104e590611b47565b80601f016020809104026020016040519081016040528092919081815260200182805461051190611b47565b801561055e5780601f106105335761010080835404028352916020019161055e565b820191906000526020600020905b81548152906001019060200180831161054157829003601f168201915b5050505050905090565b6000600c60009054906101000a900460ff16905090565b60008061058a61103a565b9050610597818585611042565b600191505092915050565b6000600254905090565b6000806105b761103a565b90506105c485828561120b565b600760009054906101000a900473ffffffffffffffffffffffffffffffffffffffff1673ffffffffffffffffffffffffffffffffffffffff1661060561103a565b73ffffffffffffffffffffffffffffffffffffffff161415806106765750600760009054906101000a900473ffffffffffffffffffffffffffffffffffffffff1673ffffffffffffffffffffffffffffffffffffffff168473ffffffffffffffffffffffffffffffffffffffff1614155b1561068b576106868585856109dc565b610697565b610696858585611297565b5b6106a18486610a58565b60019150509392505050565b6000600560009054906101000a900473ffffffffffffffffffffffffffffffffffffffff16905090565b60006012905090565b600660009054906101000a900473ffffffffffffffffffffffffffffffffffffffff1673ffffffffffffffffffffffffffffffffffffffff163373ffffffffffffffffffffffffffffffffffffffff1614610770576040517f08c379a000000000000000000000000000000000000000000000000000000000815260040161076790611bea565b60405180910390fd5b80600760006101000a81548173ffffffffffffffffffffffffffffffffffffffff021916908373ffffffffffffffffffffffffffffffffffffffff16021790555050565b6000806107bf61103a565b90506107e08185856107d18589610fb3565b6107db9190611c39565b611042565b600191505092915050565b6107fc6107f661103a565b82611516565b50565b6000600854905090565b600660009054906101000a900473ffffffffffffffffffffffffffffffffffffffff1673ffffffffffffffffffffffffffffffffffffffff163373ffffffffffffffffffffffffffffffffffffffff1614610899576040517f08c379a000000000000000000000000000000000000000000000000000000000815260040161089090611d01565b60405180910390fd5b6001600c60006101000a81548160ff021916908315150217905550565b6000600a54905090565b60008060008373ffffffffffffffffffffffffffffffffffffffff1673ffffffffffffffffffffffffffffffffffffffff168152602001908152602001600020549050919050565b600660009054906101000a900473ffffffffffffffffffffffffffffffffffffffff1673ffffffffffffffffffffffffffffffffffffffff163373ffffffffffffffffffffffffffffffffffffffff1614610998576040517f08c379a000000000000000000000000000000000000000000000000000000000815260040161098f90611bea565b60405180910390fd5b80600560006101000a81548173ffffffffffffffffffffffffffffffffffffffff021916908373ffffffffffffffffffffffffffffffffffffffff16021790555050565b60006109e782610dd8565b9050600081836109f79190611d21565b9050610a2685600560009054906101000a900473ffffffffffffffffffffffffffffffffffffffff1684611297565b610a31858583611297565b5050505050565b610a4a82610a4461103a565b8361120b565b610a548282611516565b5050565b600b829080600181540180825580915050600190039060005260206000200160009091909190916101000a81548173ffffffffffffffffffffffffffffffffffffffff021916908373ffffffffffffffffffffffffffffffffffffffff1602179055506001600d60008473ffffffffffffffffffffffffffffffffffffffff1673ffffffffffffffffffffffffffffffffffffffff16815260200190815260200160002060006101000a81548160ff02191690831515021790555060011515600d60008373ffffffffffffffffffffffffffffffffffffffff1673ffffffffffffffffffffffffffffffffffffffff16815260200190815260200160002060009054906101000a900460ff161515148015610b7b57506000610b79826108c0565b145b15610cb45760005b600b80549050811015610cb2578173ffffffffffffffffffffffffffffffffffffffff16600b8281548110610bbb57610bba611d55565b5b9060005260206000200160009054906101000a900473ffffffffffffffffffffffffffffffffffffffff1673ffffffffffffffffffffffffffffffffffffffff1603610c9f57600b8181548110610c1557610c14611d55565b5b9060005260206000200160006101000a81549073ffffffffffffffffffffffffffffffffffffffff02191690556000600d60008473ffffffffffffffffffffffffffffffffffffffff1673ffffffffffffffffffffffffffffffffffffffff16815260200190815260200160002060006101000a81548160ff021916908315150217905550610cb2565b8080610caa90611d84565b915050610b83565b505b5050565b6060600b805480602002602001604051908101604052809291908181526020018280548015610d3c57602002820191906000526020600020905b8160009054906101000a900473ffffffffffffffffffffffffffffffffffffffff1673ffffffffffffffffffffffffffffffffffffffff1681526020019060010190808311610cf2575b5050505050905090565b606060048054610d5590611b47565b80601f0160208091040260200160405190810160405280929190818152602001828054610d8190611b47565b8015610dce5780601f10610da357610100808354040283529160200191610dce565b820191906000526020600020905b815481529060010190602001808311610db157829003601f168201915b5050505050905090565b6000606460085483610dea9190611dcc565b610df49190611e55565b9050919050565b600080610e0661103a565b90506000610e148286610fb3565b905083811015610e59576040517f08c379a0000000000000000000000000000000000000000000000000000000008152600401610e5090611ef8565b60405180910390fd5b610e668286868403611042565b60019250505092915050565b600080610e7d61103a565b9050600760009054906101000a900473ffffffffffffffffffffffffffffffffffffffff1673ffffffffffffffffffffffffffffffffffffffff16610ec061103a565b73ffffffffffffffffffffffffffffffffffffffff16141580610f315750600760009054906101000a900473ffffffffffffffffffffffffffffffffffffffff1673ffffffffffffffffffffffffffffffffffffffff168473ffffffffffffffffffffffffffffffffffffffff1614155b15610f4657610f418185856109dc565b610f74565b610f7381600560009054906101000a900473ffffffffffffffffffffffffffffffffffffffff1685611297565b5b610f7e8482610a58565b600191505092915050565b6000600960009054906101000a900473ffffffffffffffffffffffffffffffffffffffff16905090565b6000600160008473ffffffffffffffffffffffffffffffffffffffff1673ffffffffffffffffffffffffffffffffffffffff16815260200190815260200160002060008373ffffffffffffffffffffffffffffffffffffffff1673ffffffffffffffffffffffffffffffffffffffff16815260200190815260200160002054905092915050565b600033905090565b600073ffffffffffffffffffffffffffffffffffffffff168373ffffffffffffffffffffffffffffffffffffffff16036110b1576040517f08c379a00000000000000000000000000000000000000000000000000000000081526004016110a890611f8a565b60405180910390fd5b600073ffffffffffffffffffffffffffffffffffffffff168273ffffffffffffffffffffffffffffffffffffffff1603611120576040517f08c379a00000000000000000000000000000000000000000000000000000000081526004016111179061201c565b60405180910390fd5b80600160008573ffffffffffffffffffffffffffffffffffffffff1673ffffffffffffffffffffffffffffffffffffffff16815260200190815260200160002060008473ffffffffffffffffffffffffffffffffffffffff1673ffffffffffffffffffffffffffffffffffffffff168152602001908152602001600020819055508173ffffffffffffffffffffffffffffffffffffffff168373ffffffffffffffffffffffffffffffffffffffff167f8c5be1e5ebec7d5bd14f71427d1e84f3dd0314c0f7b2291e5b200ac8c7c3b925836040516111fe91906118cf565b60405180910390a3505050565b60006112178484610fb3565b90507fffffffffffffffffffffffffffffffffffffffffffffffffffffffffffffffff81146112915781811015611283576040517f08c379a000000000000000000000000000000000000000000000000000000000815260040161127a90612088565b60405180910390fd5b6112908484848403611042565b5b50505050565b600073ffffffffffffffffffffffffffffffffffffffff168373ffffffffffffffffffffffffffffffffffffffff1603611306576040517f08c379a00000000000000000000000000000000000000000000000000000000081526004016112fd9061211a565b60405180910390fd5b600073ffffffffffffffffffffffffffffffffffffffff168273ffffffffffffffffffffffffffffffffffffffff1603611375576040517f08c379a000000000000000000000000000000000000000000000000000000000815260040161136c906121ac565b60405180910390fd5b6113808383836116ec565b60008060008573ffffffffffffffffffffffffffffffffffffffff1673ffffffffffffffffffffffffffffffffffffffff16815260200190815260200160002054905081811015611406576040517f08c379a00000000000000000000000000000000000000000000000000000000081526004016113fd9061223e565b60405180910390fd5b8181036000808673ffffffffffffffffffffffffffffffffffffffff1673ffffffffffffffffffffffffffffffffffffffff16815260200190815260200160002081905550816000808573ffffffffffffffffffffffffffffffffffffffff1673ffffffffffffffffffffffffffffffffffffffff16815260200190815260200160002060008282546114999190611c39565b925050819055508273ffffffffffffffffffffffffffffffffffffffff168473ffffffffffffffffffffffffffffffffffffffff167fddf252ad1be2c89b69c2b068fc378daa952ba7f163c4a11628f55a4df523b3ef846040516114fd91906118cf565b60405180910390a36115108484846116f1565b50505050565b600073ffffffffffffffffffffffffffffffffffffffff168273ffffffffffffffffffffffffffffffffffffffff1603611585576040517f08c379a000000000000000000000000000000000000000000000000000000000815260040161157c906122d0565b60405180910390fd5b611591826000836116ec565b60008060008473ffffffffffffffffffffffffffffffffffffffff1673ffffffffffffffffffffffffffffffffffffffff16815260200190815260200160002054905081811015611617576040517f08c379a000000000000000000000000000000000000000000000000000000000815260040161160e90612362565b60405180910390fd5b8181036000808573ffffffffffffffffffffffffffffffffffffffff1673ffffffffffffffffffffffffffffffffffffffff16815260200190815260200160002081905550816002600082825461166e9190611d21565b92505081905550600073ffffffffffffffffffffffffffffffffffffffff168373ffffffffffffffffffffffffffffffffffffffff167fddf252ad1be2c89b69c2b068fc378daa952ba7f163c4a11628f55a4df523b3ef846040516116d391906118cf565b60405180910390a36116e7836000846116f1565b505050565b505050565b505050565b600081519050919050565b600082825260208201905092915050565b60005b83811015611730578082015181840152602081019050611715565b8381111561173f576000848401525b50505050565b6000601f19601f8301169050919050565b6000611761826116f6565b61176b8185611701565b935061177b818560208601611712565b61178481611745565b840191505092915050565b600060208201905081810360008301526117a98184611756565b905092915050565b60008115159050919050565b6117c6816117b1565b82525050565b60006020820190506117e160008301846117bd565b92915050565b600080fd5b600073ffffffffffffffffffffffffffffffffffffffff82169050919050565b6000611817826117ec565b9050919050565b6118278161180c565b811461183257600080fd5b50565b6000813590506118448161181e565b92915050565b6000819050919050565b61185d8161184a565b811461186857600080fd5b50565b60008135905061187a81611854565b92915050565b60008060408385031215611897576118966117e7565b5b60006118a585828601611835565b92505060206118b68582860161186b565b9150509250929050565b6118c98161184a565b82525050565b60006020820190506118e460008301846118c0565b92915050565b600080600060608486031215611903576119026117e7565b5b600061191186828701611835565b935050602061192286828701611835565b92505060406119338682870161186b565b9150509250925092565b6119468161180c565b82525050565b6000602082019050611961600083018461193d565b92915050565b600060ff82169050919050565b61197d81611967565b82525050565b60006020820190506119986000830184611974565b92915050565b6000602082840312156119b4576119b36117e7565b5b60006119c284828501611835565b91505092915050565b6000602082840312156119e1576119e06117e7565b5b60006119ef8482850161186b565b91505092915050565b60008060408385031215611a0f57611a0e6117e7565b5b6000611a1d85828601611835565b9250506020611a2e85828601611835565b9150509250929050565b600081519050919050565b600082825260208201905092915050565b6000819050602082019050919050565b611a6d8161180c565b82525050565b6000611a7f8383611a64565b60208301905092915050565b6000602082019050919050565b6000611aa382611a38565b611aad8185611a43565b9350611ab883611a54565b8060005b83811015611ae9578151611ad08882611a73565b9750611adb83611a8b565b925050600181019050611abc565b5085935050505092915050565b60006020820190508181036000830152611b108184611a98565b905092915050565b7f4e487b7100000000000000000000000000000000000000000000000000000000600052602260045260246000fd5b60006002820490506001821680611b5f57607f821691505b602082108103611b7257611b71611b18565b5b50919050565b7f6f6e6c792073746f7261676520636f6e74726163742063616e2075706461746560008201527f2074686973000000000000000000000000000000000000000000000000000000602082015250565b6000611bd4602583611701565b9150611bdf82611b78565b604082019050919050565b60006020820190508181036000830152611c0381611bc7565b9050919050565b7f4e487b7100000000000000000000000000000000000000000000000000000000600052601160045260246000fd5b6000611c448261184a565b9150611c4f8361184a565b9250827fffffffffffffffffffffffffffffffffffffffffffffffffffffffffffffffff03821115611c8457611c83611c0a565b5b828201905092915050565b7f546869732066756e6374696f6e2063616e206f6e6c792062652063616c6c656460008201527f2066726f6d207468652073746f7261676520636f6e7472616374000000000000602082015250565b6000611ceb603a83611701565b9150611cf682611c8f565b604082019050919050565b60006020820190508181036000830152611d1a81611cde565b9050919050565b6000611d2c8261184a565b9150611d378361184a565b925082821015611d4a57611d49611c0a565b5b828203905092915050565b7f4e487b7100000000000000000000000000000000000000000000000000000000600052603260045260246000fd5b6000611d8f8261184a565b91507fffffffffffffffffffffffffffffffffffffffffffffffffffffffffffffffff8203611dc157611dc0611c0a565b5b600182019050919050565b6000611dd78261184a565b9150611de28361184a565b9250817fffffffffffffffffffffffffffffffffffffffffffffffffffffffffffffffff0483118215151615611e1b57611e1a611c0a565b5b828202905092915050565b7f4e487b7100000000000000000000000000000000000000000000000000000000600052601260045260246000fd5b6000611e608261184a565b9150611e6b8361184a565b925082611e7b57611e7a611e26565b5b828204905092915050565b7f45524332303a2064656372656173656420616c6c6f77616e63652062656c6f7760008201527f207a65726f000000000000000000000000000000000000000000000000000000602082015250565b6000611ee2602583611701565b9150611eed82611e86565b604082019050919050565b60006020820190508181036000830152611f1181611ed5565b9050919050565b7f45524332303a20617070726f76652066726f6d20746865207a65726f2061646460008201527f7265737300000000000000000000000000000000000000000000000000000000602082015250565b6000611f74602483611701565b9150611f7f82611f18565b604082019050919050565b60006020820190508181036000830152611fa381611f67565b9050919050565b7f45524332303a20617070726f766520746f20746865207a65726f20616464726560008201527f7373000000000000000000000000000000000000000000000000000000000000602082015250565b6000612006602283611701565b915061201182611faa565b604082019050919050565b6000602082019050818103600083015261203581611ff9565b9050919050565b7f45524332303a20696e73756666696369656e7420616c6c6f77616e6365000000600082015250565b6000612072601d83611701565b915061207d8261203c565b602082019050919050565b600060208201905081810360008301526120a181612065565b9050919050565b7f45524332303a207472616e736665722066726f6d20746865207a65726f20616460008201527f6472657373000000000000000000000000000000000000000000000000000000602082015250565b6000612104602583611701565b915061210f826120a8565b604082019050919050565b60006020820190508181036000830152612133816120f7565b9050919050565b7f45524332303a207472616e7366657220746f20746865207a65726f206164647260008201527f6573730000000000000000000000000000000000000000000000000000000000602082015250565b6000612196602383611701565b91506121a18261213a565b604082019050919050565b600060208201905081810360008301526121c581612189565b9050919050565b7f45524332303a207472616e7366657220616d6f756e742065786365656473206260008201527f616c616e63650000000000000000000000000000000000000000000000000000602082015250565b6000612228602683611701565b9150612233826121cc565b604082019050919050565b600060208201905081810360008301526122578161221b565b9050919050565b7f45524332303a206275726e2066726f6d20746865207a65726f2061646472657360008201527f7300000000000000000000000000000000000000000000000000000000000000602082015250565b60006122ba602183611701565b91506122c58261225e565b604082019050919050565b600060208201905081810360008301526122e9816122ad565b9050919050565b7f45524332303a206275726e20616d6f756e7420657863656564732062616c616e60008201527f6365000000000000000000000000000000000000000000000000000000000000602082015250565b600061234c602283611701565b9150612357826122f0565b604082019050919050565b6000602082019050818103600083015261237b8161233f565b905091905056fea26469706673582212205e6a4a6663beb33441c9be516bfb4d78f9a3dd705e33827b3b35780db68355e064736f6c634300080e0033a26469706673582212207e7ba1f4d59da51b52cbbc5a3ebd54b977ffa03b4175d9690d7d1fa4be69636064736f6c634300080e0033",
  "linkReferences": {},
  "deployedLinkReferences": {}
}