{
  "contractName": "Auction",
  "abi": [
    {
      "inputs": [
        {
          "internalType": "address",
          "name": "_storageContractAddress",
          "type": "address"
        }
      ],
      "stateMutability": "nonpayable",
      "type": "constructor"
    },
    {
      "inputs": [
        {
          "internalType": "contract baseFractionToken",
          "name": "_fractionToken",
          "type": "address"
        },
        {
          "internalType": "uint256",
          "name": "_amount",
          "type": "uint256"
        }
      ],
      "name": "stakeTokens",
      "outputs": [],
      "stateMutability": "nonpayable",
      "type": "function"
    },
    {
      "inputs": [
        {
          "internalType": "address",
          "name": "_fractionTokenAddress",
          "type": "address"
        },
        {
          "internalType": "uint256",
          "name": "_amount",
          "type": "uint256"
        }
      ],
      "name": "unstakeTokens",
      "outputs": [],
      "stateMutability": "nonpayable",
      "type": "function"
    },
    {
      "inputs": [
        {
          "internalType": "contract ERC721",
          "name": "_Nft",
          "type": "address"
        },
        {
          "internalType": "uint256",
          "name": "_NftId",
          "type": "uint256"
        },
        {
          "internalType": "address",
          "name": "_newOwner",
          "type": "address"
        }
      ],
      "name": "updateNftOwner",
      "outputs": [],
      "stateMutability": "nonpayable",
      "type": "function"
    },
    {
      "inputs": [
        {
          "internalType": "contract ERC721",
          "name": "_nft",
          "type": "address"
        },
        {
          "internalType": "uint256",
          "name": "_nftId",
          "type": "uint256"
        },
        {
          "internalType": "uint256",
          "name": "_startPrice",
          "type": "uint256"
        },
        {
          "internalType": "uint256",
          "name": "_stakeAmount",
          "type": "uint256"
        }
      ],
      "name": "startProposal",
      "outputs": [],
      "stateMutability": "nonpayable",
      "type": "function"
    },
    {
      "inputs": [
        {
          "internalType": "contract ERC721",
          "name": "_nft",
          "type": "address"
        },
        {
          "internalType": "uint256",
          "name": "_nftId",
          "type": "uint256"
        },
        {
          "internalType": "bool",
          "name": "_voteValue",
          "type": "bool"
        },
        {
          "internalType": "uint256",
          "name": "_voteAmount",
          "type": "uint256"
        }
      ],
      "name": "voteOnProposal",
      "outputs": [],
      "stateMutability": "nonpayable",
      "type": "function"
    },
    {
      "inputs": [
        {
          "internalType": "contract ERC721",
          "name": "_nft",
          "type": "address"
        },
        {
          "internalType": "uint256",
          "name": "_nftId",
          "type": "uint256"
        },
        {
          "internalType": "uint256",
          "name": "_auctionTime",
          "type": "uint256"
        }
      ],
      "name": "startAuction",
      "outputs": [],
      "stateMutability": "nonpayable",
      "type": "function"
    },
    {
      "inputs": [
        {
          "internalType": "contract ERC721",
          "name": "_nft",
          "type": "address"
        },
        {
          "internalType": "uint256",
          "name": "_nftId",
          "type": "uint256"
        }
      ],
      "name": "bidOnAuction",
      "outputs": [],
      "stateMutability": "payable",
      "type": "function"
    },
    {
      "inputs": [
        {
          "internalType": "address",
          "name": "FractionTokenAddress",
          "type": "address"
        }
      ],
      "name": "claimFromBuyoutTokens",
      "outputs": [],
      "stateMutability": "nonpayable",
      "type": "function"
    }
  ],
  "bytecode": "0x60806040526203f4806000553480156200001857600080fd5b5060405162003d3238038062003d3283398181016040528101906200003e9190620000f0565b80600160006101000a81548173ffffffffffffffffffffffffffffffffffffffff021916908373ffffffffffffffffffffffffffffffffffffffff1602179055505062000122565b600080fd5b600073ffffffffffffffffffffffffffffffffffffffff82169050919050565b6000620000b8826200008b565b9050919050565b620000ca81620000ab565b8114620000d657600080fd5b50565b600081519050620000ea81620000bf565b92915050565b60006020828403121562000109576200010862000086565b5b60006200011984828501620000d9565b91505092915050565b613c0080620001326000396000f3fe60806040526004361061007b5760003560e01c806350f8b0d01161004e57806350f8b0d01461011757806356dd47551461014057806379a83f5a14610169578063e89a173e146101925761007b565b8063014040461461008057806304cfe306146100a95780630890b90c146100d257806326587bbb146100ee575b600080fd5b34801561008c57600080fd5b506100a760048036038101906100a29190612d29565b6101bb565b005b3480156100b557600080fd5b506100d060048036038101906100cb9190612dca565b6105b8565b005b6100ec60048036038101906100e79190612e1d565b6107f1565b005b3480156100fa57600080fd5b5061011560048036038101906101109190612e95565b610f82565b005b34801561012357600080fd5b5061013e60048036038101906101399190612efc565b611838565b005b34801561014c57600080fd5b5061016760048036038101906101629190612f63565b611e09565b005b34801561017557600080fd5b50610190600480360381019061018b9190612ff4565b61219b565b005b34801561019e57600080fd5b506101b960048036038101906101b49190613034565b612547565b005b6000819050600115158173ffffffffffffffffffffffffffffffffffffffff166309323b026040518163ffffffff1660e01b8152600401602060405180830381865afa15801561020f573d6000803e3d6000fd5b505050506040513d601f19601f820116820180604052508101906102339190613089565b151514610275576040517f08c379a000000000000000000000000000000000000000000000000000000000815260040161026c90613139565b60405180910390fd5b60008173ffffffffffffffffffffffffffffffffffffffff166370a08231336040518263ffffffff1660e01b81526004016102b09190613168565b602060405180830381865afa1580156102cd573d6000803e3d6000fd5b505050506040513d601f19601f820116820180604052508101906102f19190613198565b600260008473ffffffffffffffffffffffffffffffffffffffff1673ffffffffffffffffffffffffffffffffffffffff16815260200190815260200160002060003373ffffffffffffffffffffffffffffffffffffffff1673ffffffffffffffffffffffffffffffffffffffff1681526020019081526020016000205461037891906131f4565b9050600081116103bd576040517f08c379a00000000000000000000000000000000000000000000000000000000081526004016103b490613296565b60405180910390fd5b8173ffffffffffffffffffffffffffffffffffffffff166323b872dd33308573ffffffffffffffffffffffffffffffffffffffff166370a08231336040518263ffffffff1660e01b81526004016104149190613168565b602060405180830381865afa158015610431573d6000803e3d6000fd5b505050506040513d601f19601f820116820180604052508101906104559190613198565b6040518463ffffffff1660e01b8152600401610473939291906132c5565b6020604051808303816000875af1158015610492573d6000803e3d6000fd5b505050506040513d601f19601f820116820180604052508101906104b69190613089565b508173ffffffffffffffffffffffffffffffffffffffff166342966c68826040518263ffffffff1660e01b81526004016104f091906132fc565b600060405180830381600087803b15801561050a57600080fd5b505af115801561051e573d6000803e3d6000fd5b505050503373ffffffffffffffffffffffffffffffffffffffff166108fc82600d60008673ffffffffffffffffffffffffffffffffffffffff1673ffffffffffffffffffffffffffffffffffffffff168152602001908152602001600020546105879190613317565b9081150290604051600060405180830381858888f193505050501580156105b2573d6000803e3d6000fd5b50505050565b600160009054906101000a900473ffffffffffffffffffffffffffffffffffffffff1673ffffffffffffffffffffffffffffffffffffffff1683836040516024016106049291906133d0565b6040516020818303038152906040527f1c68c100000000000000000000000000000000000000000000000000000000007bffffffffffffffffffffffffffffffffffffffffffffffffffffffff19166020820180517bffffffffffffffffffffffffffffffffffffffffffffffffffffffff838183161783525050505060405161068e9190613473565b600060405180830381855af49150503d80600081146106c9576040519150601f19603f3d011682016040523d82523d6000602084013e6106ce565b606091505b505050600160009054906101000a900473ffffffffffffffffffffffffffffffffffffffff1673ffffffffffffffffffffffffffffffffffffffff1683838360405160240161071f9392919061348a565b6040516020818303038152906040527f43046d17000000000000000000000000000000000000000000000000000000007bffffffffffffffffffffffffffffffffffffffffffffffffffffffff19166020820180517bffffffffffffffffffffffffffffffffffffffffffffffffffffffff83818316178352505050506040516107a99190613473565b600060405180830381855af49150503d80600081146107e4576040519150601f19603f3d011682016040523d82523d6000602084013e6107e9565b606091505b505050505050565b60001515600360008473ffffffffffffffffffffffffffffffffffffffff1673ffffffffffffffffffffffffffffffffffffffff168152602001908152602001600020600083815260200190815260200160002060009054906101000a900460ff16151514610895576040517f08c379a000000000000000000000000000000000000000000000000000000000815260040161088c9061350d565b60405180910390fd5b60011515600960008473ffffffffffffffffffffffffffffffffffffffff1673ffffffffffffffffffffffffffffffffffffffff168152602001908152602001600020600083815260200190815260200160002060009054906101000a900460ff16151514610939576040517f08c379a000000000000000000000000000000000000000000000000000000000815260040161093090613579565b60405180910390fd5b600a60008373ffffffffffffffffffffffffffffffffffffffff1673ffffffffffffffffffffffffffffffffffffffff16815260200190815260200160002060008281526020019081526020016000205434116109cb576040517f08c379a00000000000000000000000000000000000000000000000000000000081526004016109c29061360b565b60405180910390fd5b6000600160009054906101000a900473ffffffffffffffffffffffffffffffffffffffff1673ffffffffffffffffffffffffffffffffffffffff1663aafef26784846040518363ffffffff1660e01b8152600401610a2a9291906133d0565b602060405180830381865afa158015610a47573d6000803e3d6000fd5b505050506040513d601f19601f82011682018060405250810190610a6b9190613640565b9050600c60008473ffffffffffffffffffffffffffffffffffffffff1673ffffffffffffffffffffffffffffffffffffffff168152602001908152602001600020600083815260200190815260200160002054421015610dfc576001600f60008573ffffffffffffffffffffffffffffffffffffffff1673ffffffffffffffffffffffffffffffffffffffff16815260200190815260200160002060008481526020019081526020016000206000600b60008773ffffffffffffffffffffffffffffffffffffffff1673ffffffffffffffffffffffffffffffffffffffff168152602001908152602001600020600086815260200190815260200160002060009054906101000a900473ffffffffffffffffffffffffffffffffffffffff1673ffffffffffffffffffffffffffffffffffffffff1673ffffffffffffffffffffffffffffffffffffffff16815260200190815260200160002060006101000a81548160ff0219169083151502179055506000600f60008573ffffffffffffffffffffffffffffffffffffffff1673ffffffffffffffffffffffffffffffffffffffff168152602001908152602001600020600084815260200190815260200160002060003373ffffffffffffffffffffffffffffffffffffffff1673ffffffffffffffffffffffffffffffffffffffff16815260200190815260200160002060006101000a81548160ff02191690831515021790555033600b60008573ffffffffffffffffffffffffffffffffffffffff1673ffffffffffffffffffffffffffffffffffffffff168152602001908152602001600020600084815260200190815260200160002060006101000a81548173ffffffffffffffffffffffffffffffffffffffff021916908373ffffffffffffffffffffffffffffffffffffffff16021790555034600a60008573ffffffffffffffffffffffffffffffffffffffff1673ffffffffffffffffffffffffffffffffffffffff16815260200190815260200160002060008481526020019081526020016000208190555034600e60008573ffffffffffffffffffffffffffffffffffffffff1673ffffffffffffffffffffffffffffffffffffffff168152602001908152602001600020600084815260200190815260200160002060003373ffffffffffffffffffffffffffffffffffffffff1673ffffffffffffffffffffffffffffffffffffffff16815260200190815260200160002081905550610f7d565b6000600960008573ffffffffffffffffffffffffffffffffffffffff1673ffffffffffffffffffffffffffffffffffffffff168152602001908152602001600020600084815260200190815260200160002060006101000a81548160ff0219169083151502179055508073ffffffffffffffffffffffffffffffffffffffff166318160ddd6040518163ffffffff1660e01b8152600401602060405180830381865afa158015610eb0573d6000803e3d6000fd5b505050506040513d601f19601f82011682018060405250810190610ed49190613198565b600a60008573ffffffffffffffffffffffffffffffffffffffff1673ffffffffffffffffffffffffffffffffffffffff168152602001908152602001600020600084815260200190815260200160002054610f2f919061369c565b600d60008373ffffffffffffffffffffffffffffffffffffffff1673ffffffffffffffffffffffffffffffffffffffff16815260200190815260200160002081905550610f7c8383612a2f565b5b505050565b6000600160009054906101000a900473ffffffffffffffffffffffffffffffffffffffff1673ffffffffffffffffffffffffffffffffffffffff1663aafef26786866040518363ffffffff1660e01b8152600401610fe19291906133d0565b602060405180830381865afa158015610ffe573d6000803e3d6000fd5b505050506040513d601f19601f820116820180604052508101906110229190613640565b905060011515600360008773ffffffffffffffffffffffffffffffffffffffff1673ffffffffffffffffffffffffffffffffffffffff168152602001908152602001600020600086815260200190815260200160002060009054906101000a900460ff161515146110c8576040517f08c379a00000000000000000000000000000000000000000000000000000000081526004016110bf9061373f565b60405180910390fd5b818173ffffffffffffffffffffffffffffffffffffffff166370a08231336040518263ffffffff1660e01b81526004016111029190613168565b602060405180830381865afa15801561111f573d6000803e3d6000fd5b505050506040513d601f19601f820116820180604052508101906111439190613198565b1115611184576040517f08c379a000000000000000000000000000000000000000000000000000000000815260040161117b906137ab565b60405180910390fd5b600660008673ffffffffffffffffffffffffffffffffffffffff1673ffffffffffffffffffffffffffffffffffffffff16815260200190815260200160002060008581526020019081526020016000205442101561132e576111e6818361219b565b81600760008773ffffffffffffffffffffffffffffffffffffffff1673ffffffffffffffffffffffffffffffffffffffff1681526020019081526020016000206000868152602001908152602001600020600082825461124691906131f4565b9250508190555060011515831515036112c55781600860008773ffffffffffffffffffffffffffffffffffffffff1673ffffffffffffffffffffffffffffffffffffffff168152602001908152602001600020600086815260200190815260200160002060008282546112b991906131f4565b9250508190555061132d565b81600860008773ffffffffffffffffffffffffffffffffffffffff1673ffffffffffffffffffffffffffffffffffffffff1681526020019081526020016000206000868152602001908152602001600020600082825461132591906137cb565b925050819055505b5b60008173ffffffffffffffffffffffffffffffffffffffff166318160ddd6040518163ffffffff1660e01b8152600401602060405180830381865afa15801561137b573d6000803e3d6000fd5b505050506040513d601f19601f8201168201806040525081019061139f9190613198565b90506002816113ae919061369c565b600760008873ffffffffffffffffffffffffffffffffffffffff1673ffffffffffffffffffffffffffffffffffffffff1681526020019081526020016000206000878152602001908152602001600020541061183057600281611411919061369c565b600860008873ffffffffffffffffffffffffffffffffffffffff1673ffffffffffffffffffffffffffffffffffffffff16815260200190815260200160002060008781526020019081526020016000205410611632576114c28686600660008a73ffffffffffffffffffffffffffffffffffffffff1673ffffffffffffffffffffffffffffffffffffffff168152602001908152602001600020600089815260200190815260200160002054611e09565b6000600360008873ffffffffffffffffffffffffffffffffffffffff1673ffffffffffffffffffffffffffffffffffffffff168152602001908152602001600020600087815260200190815260200160002060006101000a81548160ff0219169083151502179055506000600660008873ffffffffffffffffffffffffffffffffffffffff1673ffffffffffffffffffffffffffffffffffffffff1681526020019081526020016000206000878152602001908152602001600020819055506000600760008873ffffffffffffffffffffffffffffffffffffffff1673ffffffffffffffffffffffffffffffffffffffff1681526020019081526020016000206000878152602001908152602001600020819055506000600860008873ffffffffffffffffffffffffffffffffffffffff1673ffffffffffffffffffffffffffffffffffffffff16815260200190815260200160002060008781526020019081526020016000208190555061182f565b6000600360008873ffffffffffffffffffffffffffffffffffffffff1673ffffffffffffffffffffffffffffffffffffffff168152602001908152602001600020600087815260200190815260200160002060006101000a81548160ff0219169083151502179055506000600660008873ffffffffffffffffffffffffffffffffffffffff1673ffffffffffffffffffffffffffffffffffffffff1681526020019081526020016000206000878152602001908152602001600020819055506000600760008873ffffffffffffffffffffffffffffffffffffffff1673ffffffffffffffffffffffffffffffffffffffff1681526020019081526020016000206000878152602001908152602001600020819055506000600860008873ffffffffffffffffffffffffffffffffffffffff1673ffffffffffffffffffffffffffffffffffffffff16815260200190815260200160002060008781526020019081526020016000208190555061dead600560008873ffffffffffffffffffffffffffffffffffffffff1673ffffffffffffffffffffffffffffffffffffffff168152602001908152602001600020600087815260200190815260200160002060006101000a81548173ffffffffffffffffffffffffffffffffffffffff021916908373ffffffffffffffffffffffffffffffffffffffff1602179055505b5b505050505050565b3373ffffffffffffffffffffffffffffffffffffffff16600160009054906101000a900473ffffffffffffffffffffffffffffffffffffffff1673ffffffffffffffffffffffffffffffffffffffff16635044613686866040518363ffffffff1660e01b81526004016118ac9291906133d0565b602060405180830381865afa1580156118c9573d6000803e3d6000fd5b505050506040513d601f19601f820116820180604052508101906118ed9190613640565b73ffffffffffffffffffffffffffffffffffffffff161461190d57600080fd5b60011515600160009054906101000a900473ffffffffffffffffffffffffffffffffffffffff1673ffffffffffffffffffffffffffffffffffffffff1663491f667486866040518363ffffffff1660e01b815260040161196e9291906133d0565b602060405180830381865afa15801561198b573d6000803e3d6000fd5b505050506040513d601f19601f820116820180604052508101906119af9190613089565b1515146119f1576040517f08c379a00000000000000000000000000000000000000000000000000000000081526004016119e89061384b565b60405180910390fd5b6000600160009054906101000a900473ffffffffffffffffffffffffffffffffffffffff1673ffffffffffffffffffffffffffffffffffffffff1663aafef26786866040518363ffffffff1660e01b8152600401611a509291906133d0565b602060405180830381865afa158015611a6d573d6000803e3d6000fd5b505050506040513d601f19601f82011682018060405250810190611a919190613640565b9050818173ffffffffffffffffffffffffffffffffffffffff166370a08231336040518263ffffffff1660e01b8152600401611acd9190613168565b602060405180830381865afa158015611aea573d6000803e3d6000fd5b505050506040513d601f19601f82011682018060405250810190611b0e9190613198565b1115611b4f576040517f08c379a0000000000000000000000000000000000000000000000000000000008152600401611b46906138b7565b60405180910390fd5b6001600360008773ffffffffffffffffffffffffffffffffffffffff1673ffffffffffffffffffffffffffffffffffffffff168152602001908152602001600020600086815260200190815260200160002060006101000a81548160ff02191690831515021790555033600560008773ffffffffffffffffffffffffffffffffffffffff1673ffffffffffffffffffffffffffffffffffffffff168152602001908152602001600020600086815260200190815260200160002060006101000a81548173ffffffffffffffffffffffffffffffffffffffff021916908373ffffffffffffffffffffffffffffffffffffffff16021790555082600460008773ffffffffffffffffffffffffffffffffffffffff1673ffffffffffffffffffffffffffffffffffffffff16815260200190815260200160002060008681526020019081526020016000208190555060005442611caa91906131f4565b600660008773ffffffffffffffffffffffffffffffffffffffff1673ffffffffffffffffffffffffffffffffffffffff168152602001908152602001600020600086815260200190815260200160002081905550611d08818361219b565b81600760008773ffffffffffffffffffffffffffffffffffffffff1673ffffffffffffffffffffffffffffffffffffffff168152602001908152602001600020600086815260200190815260200160002081905550600760008673ffffffffffffffffffffffffffffffffffffffff1673ffffffffffffffffffffffffffffffffffffffff168152602001908152602001600020600085815260200190815260200160002054600860008773ffffffffffffffffffffffffffffffffffffffff1673ffffffffffffffffffffffffffffffffffffffff1681526020019081526020016000206000868152602001908152602001600020819055505050505050565b6000548110611e4d576040517f08c379a0000000000000000000000000000000000000000000000000000000008152600401611e4490613923565b60405180910390fd5b80600c60008573ffffffffffffffffffffffffffffffffffffffff1673ffffffffffffffffffffffffffffffffffffffff1681526020019081526020016000206000848152602001908152602001600020819055506001600960008573ffffffffffffffffffffffffffffffffffffffff1673ffffffffffffffffffffffffffffffffffffffff168152602001908152602001600020600084815260200190815260200160002060006101000a81548160ff021916908315150217905550600460008473ffffffffffffffffffffffffffffffffffffffff1673ffffffffffffffffffffffffffffffffffffffff168152602001908152602001600020600083815260200190815260200160002054600a60008573ffffffffffffffffffffffffffffffffffffffff1673ffffffffffffffffffffffffffffffffffffffff1681526020019081526020016000206000848152602001908152602001600020819055506000600460008573ffffffffffffffffffffffffffffffffffffffff1673ffffffffffffffffffffffffffffffffffffffff168152602001908152602001600020600084815260200190815260200160002081905550600560008473ffffffffffffffffffffffffffffffffffffffff1673ffffffffffffffffffffffffffffffffffffffff168152602001908152602001600020600083815260200190815260200160002060009054906101000a900473ffffffffffffffffffffffffffffffffffffffff16600b60008573ffffffffffffffffffffffffffffffffffffffff1673ffffffffffffffffffffffffffffffffffffffff168152602001908152602001600020600084815260200190815260200160002060006101000a81548173ffffffffffffffffffffffffffffffffffffffff021916908373ffffffffffffffffffffffffffffffffffffffff16021790555061dead600560008573ffffffffffffffffffffffffffffffffffffffff1673ffffffffffffffffffffffffffffffffffffffff168152602001908152602001600020600084815260200190815260200160002060006101000a81548173ffffffffffffffffffffffffffffffffffffffff021916908373ffffffffffffffffffffffffffffffffffffffff160217905550505050565b60008273ffffffffffffffffffffffffffffffffffffffff1663ac513fb86040518163ffffffff1660e01b8152600401602060405180830381865afa1580156121e8573d6000803e3d6000fd5b505050506040513d601f19601f8201168201806040525081019061220c9190613958565b905060008373ffffffffffffffffffffffffffffffffffffffff1663644c45e06040518163ffffffff1660e01b8152600401602060405180830381865afa15801561225b573d6000803e3d6000fd5b505050506040513d601f19601f8201168201806040525081019061227f9190613198565b905060011515600160009054906101000a900473ffffffffffffffffffffffffffffffffffffffff1673ffffffffffffffffffffffffffffffffffffffff1663dcea9a9684846040518363ffffffff1660e01b81526004016122e29291906133d0565b602060405180830381865afa1580156122ff573d6000803e3d6000fd5b505050506040513d601f19601f820116820180604052508101906123239190613089565b151514612365576040517f08c379a000000000000000000000000000000000000000000000000000000000815260040161235c906139d1565b60405180910390fd5b828473ffffffffffffffffffffffffffffffffffffffff166370a08231336040518263ffffffff1660e01b815260040161239f9190613168565b602060405180830381865afa1580156123bc573d6000803e3d6000fd5b505050506040513d601f19601f820116820180604052508101906123e09190613198565b111580156123ee5750600083115b61242d576040517f08c379a000000000000000000000000000000000000000000000000000000000815260040161242490613a3d565b60405180910390fd5b82600260008673ffffffffffffffffffffffffffffffffffffffff1673ffffffffffffffffffffffffffffffffffffffff16815260200190815260200160002060003373ffffffffffffffffffffffffffffffffffffffff1673ffffffffffffffffffffffffffffffffffffffff16815260200190815260200160002060008282546124b991906131f4565b925050819055508373ffffffffffffffffffffffffffffffffffffffff166323b872dd3330866040518463ffffffff1660e01b81526004016124fd939291906132c5565b6020604051808303816000875af115801561251c573d6000803e3d6000fd5b505050506040513d601f19601f820116820180604052508101906125409190613089565b5050505050565b600082905060008173ffffffffffffffffffffffffffffffffffffffff1663ac513fb86040518163ffffffff1660e01b8152600401602060405180830381865afa158015612599573d6000803e3d6000fd5b505050506040513d601f19601f820116820180604052508101906125bd9190613958565b905060008273ffffffffffffffffffffffffffffffffffffffff1663644c45e06040518163ffffffff1660e01b8152600401602060405180830381865afa15801561260c573d6000803e3d6000fd5b505050506040513d601f19601f820116820180604052508101906126309190613198565b9050600160009054906101000a900473ffffffffffffffffffffffffffffffffffffffff1673ffffffffffffffffffffffffffffffffffffffff1663491f667483836040518363ffffffff1660e01b815260040161268f9291906133d0565b602060405180830381865afa1580156126ac573d6000803e3d6000fd5b505050506040513d601f19601f820116820180604052508101906126d09190613089565b61270f576040517f08c379a000000000000000000000000000000000000000000000000000000000815260040161270690613aa9565b60405180910390fd5b60001515600360008473ffffffffffffffffffffffffffffffffffffffff1673ffffffffffffffffffffffffffffffffffffffff168152602001908152602001600020600083815260200190815260200160002060009054906101000a900460ff161515146127b3576040517f08c379a00000000000000000000000000000000000000000000000000000000081526004016127aa90613b15565b60405180910390fd5b60001515600960008473ffffffffffffffffffffffffffffffffffffffff1673ffffffffffffffffffffffffffffffffffffffff168152602001908152602001600020600083815260200190815260200160002060009054906101000a900460ff16151514612857576040517f08c379a000000000000000000000000000000000000000000000000000000000815260040161284e90613b81565b60405180910390fd5b83600260008573ffffffffffffffffffffffffffffffffffffffff1673ffffffffffffffffffffffffffffffffffffffff16815260200190815260200160002060003373ffffffffffffffffffffffffffffffffffffffff1673ffffffffffffffffffffffffffffffffffffffff168152602001908152602001600020541115612916576040517f08c379a000000000000000000000000000000000000000000000000000000000815260040161290d90613a3d565b60405180910390fd5b83600260008573ffffffffffffffffffffffffffffffffffffffff1673ffffffffffffffffffffffffffffffffffffffff16815260200190815260200160002060003373ffffffffffffffffffffffffffffffffffffffff1673ffffffffffffffffffffffffffffffffffffffff16815260200190815260200160002060008282546129a291906137cb565b925050819055508273ffffffffffffffffffffffffffffffffffffffff1663a9059cbb33866040518363ffffffff1660e01b81526004016129e4929190613ba1565b6020604051808303816000875af1158015612a03573d6000803e3d6000fd5b505050506040513d601f19601f82011682018060405250810190612a279190613089565b505050505050565b600160009054906101000a900473ffffffffffffffffffffffffffffffffffffffff1673ffffffffffffffffffffffffffffffffffffffff16636b1ac39883836040518363ffffffff1660e01b8152600401612a8c9291906133d0565b600060405180830381600087803b158015612aa657600080fd5b505af1158015612aba573d6000803e3d6000fd5b50505050600160009054906101000a900473ffffffffffffffffffffffffffffffffffffffff1673ffffffffffffffffffffffffffffffffffffffff1663f2bb4a888383600b60008773ffffffffffffffffffffffffffffffffffffffff1673ffffffffffffffffffffffffffffffffffffffff168152602001908152602001600020600086815260200190815260200160002060009054906101000a900473ffffffffffffffffffffffffffffffffffffffff166040518463ffffffff1660e01b8152600401612b8d9392919061348a565b600060405180830381600087803b158015612ba757600080fd5b505af1158015612bbb573d6000803e3d6000fd5b505050506000600160009054906101000a900473ffffffffffffffffffffffffffffffffffffffff1673ffffffffffffffffffffffffffffffffffffffff1663aafef26784846040518363ffffffff1660e01b8152600401612c1e9291906133d0565b602060405180830381865afa158015612c3b573d6000803e3d6000fd5b505050506040513d601f19601f82011682018060405250810190612c5f9190613640565b90508073ffffffffffffffffffffffffffffffffffffffff166362032bc56040518163ffffffff1660e01b8152600401600060405180830381600087803b158015612ca957600080fd5b505af1158015612cbd573d6000803e3d6000fd5b50505050505050565b600080fd5b600073ffffffffffffffffffffffffffffffffffffffff82169050919050565b6000612cf682612ccb565b9050919050565b612d0681612ceb565b8114612d1157600080fd5b50565b600081359050612d2381612cfd565b92915050565b600060208284031215612d3f57612d3e612cc6565b5b6000612d4d84828501612d14565b91505092915050565b6000612d6182612ceb565b9050919050565b612d7181612d56565b8114612d7c57600080fd5b50565b600081359050612d8e81612d68565b92915050565b6000819050919050565b612da781612d94565b8114612db257600080fd5b50565b600081359050612dc481612d9e565b92915050565b600080600060608486031215612de357612de2612cc6565b5b6000612df186828701612d7f565b9350506020612e0286828701612db5565b9250506040612e1386828701612d14565b9150509250925092565b60008060408385031215612e3457612e33612cc6565b5b6000612e4285828601612d7f565b9250506020612e5385828601612db5565b9150509250929050565b60008115159050919050565b612e7281612e5d565b8114612e7d57600080fd5b50565b600081359050612e8f81612e69565b92915050565b60008060008060808587031215612eaf57612eae612cc6565b5b6000612ebd87828801612d7f565b9450506020612ece87828801612db5565b9350506040612edf87828801612e80565b9250506060612ef087828801612db5565b91505092959194509250565b60008060008060808587031215612f1657612f15612cc6565b5b6000612f2487828801612d7f565b9450506020612f3587828801612db5565b9350506040612f4687828801612db5565b9250506060612f5787828801612db5565b91505092959194509250565b600080600060608486031215612f7c57612f7b612cc6565b5b6000612f8a86828701612d7f565b9350506020612f9b86828701612db5565b9250506040612fac86828701612db5565b9150509250925092565b6000612fc182612ceb565b9050919050565b612fd181612fb6565b8114612fdc57600080fd5b50565b600081359050612fee81612fc8565b92915050565b6000806040838503121561300b5761300a612cc6565b5b600061301985828601612fdf565b925050602061302a85828601612db5565b9150509250929050565b6000806040838503121561304b5761304a612cc6565b5b600061305985828601612d14565b925050602061306a85828601612db5565b9150509250929050565b60008151905061308381612e69565b92915050565b60006020828403121561309f5761309e612cc6565b5b60006130ad84828501613074565b91505092915050565b600082825260208201905092915050565b7f5468697320746f6b656e206973207374696c6c2061637469766520617320612060008201527f6672616374696f6e20746f6b656e20666f7220616e204e465400000000000000602082015250565b60006131236039836130b6565b915061312e826130c7565b604082019050919050565b6000602082019050818103600083015261315281613116565b9050919050565b61316281612ceb565b82525050565b600060208201905061317d6000830184613159565b92915050565b60008151905061319281612d9e565b92915050565b6000602082840312156131ae576131ad612cc6565b5b60006131bc84828501613183565b91505092915050565b7f4e487b7100000000000000000000000000000000000000000000000000000000600052601160045260246000fd5b60006131ff82612d94565b915061320a83612d94565b9250827fffffffffffffffffffffffffffffffffffffffffffffffffffffffffffffffff0382111561323f5761323e6131c5565b5b828201905092915050565b7f596f752068617665203020746f6b656e73000000000000000000000000000000600082015250565b60006132806011836130b6565b915061328b8261324a565b602082019050919050565b600060208201905081810360008301526132af81613273565b9050919050565b6132bf81612d94565b82525050565b60006060820190506132da6000830186613159565b6132e76020830185613159565b6132f460408301846132b6565b949350505050565b600060208201905061331160008301846132b6565b92915050565b600061332282612d94565b915061332d83612d94565b9250817fffffffffffffffffffffffffffffffffffffffffffffffffffffffffffffffff0483118215151615613366576133656131c5565b5b828202905092915050565b6000819050919050565b600061339661339161338c84612ccb565b613371565b612ccb565b9050919050565b60006133a88261337b565b9050919050565b60006133ba8261339d565b9050919050565b6133ca816133af565b82525050565b60006040820190506133e560008301856133c1565b6133f260208301846132b6565b9392505050565b600081519050919050565b600081905092915050565b60005b8381101561342d578082015181840152602081019050613412565b8381111561343c576000848401525b50505050565b600061344d826133f9565b6134578185613404565b935061346781856020860161340f565b80840191505092915050565b600061347f8284613442565b915081905092915050565b600060608201905061349f60008301866133c1565b6134ac60208301856132b6565b6134b96040830184613159565b949350505050565b7f50726f706f73616c20666f72204e4654206973207374696c6c20616374697665600082015250565b60006134f76020836130b6565b9150613502826134c1565b602082019050919050565b60006020820190508181036000830152613526816134ea565b9050919050565b7f41756374696f6e206e6f742061637469766520666f722074686973204e465400600082015250565b6000613563601f836130b6565b915061356e8261352d565b602082019050919050565b6000602082019050818103600083015261359281613556565b9050919050565b7f596f75722062696420776173206c657373207468616e2074686520637572726560008201527f6e74206269640000000000000000000000000000000000000000000000000000602082015250565b60006135f56026836130b6565b915061360082613599565b604082019050919050565b60006020820190508181036000830152613624816135e8565b9050919050565b60008151905061363a81612cfd565b92915050565b60006020828403121561365657613655612cc6565b5b60006136648482850161362b565b91505092915050565b7f4e487b7100000000000000000000000000000000000000000000000000000000600052601260045260246000fd5b60006136a782612d94565b91506136b283612d94565b9250826136c2576136c161366d565b5b828204905092915050565b7f5468657265206973206e6f2070726f706f73616c2061637469766520666f722060008201527f74686973204e4654000000000000000000000000000000000000000000000000602082015250565b60006137296028836130b6565b9150613734826136cd565b604082019050919050565b600060208201905081810360008301526137588161371c565b9050919050565b7f596f7520646f6e2774206f776e20656e6f75676820746f6b656e730000000000600082015250565b6000613795601b836130b6565b91506137a08261375f565b602082019050919050565b600060208201905081810360008301526137c481613788565b9050919050565b60006137d682612d94565b91506137e183612d94565b9250828210156137f4576137f36131c5565b5b828203905092915050565b7f54686973204e4654206973206e6f74206672616374696f6e616c697365000000600082015250565b6000613835601d836130b6565b9150613840826137ff565b602082019050919050565b6000602082019050818103600083015261386481613828565b9050919050565b7f596f757220766f746520616d6f756e742077617320746f6f206c617267650000600082015250565b60006138a1601e836130b6565b91506138ac8261386b565b602082019050919050565b600060208201905081810360008301526138d081613894565b9050919050565b7f5365742061756374696f6e2074696d65206c6f776572207468616e206d617800600082015250565b600061390d601f836130b6565b9150613918826138d7565b602082019050919050565b6000602082019050818103600083015261393c81613900565b9050919050565b60008151905061395281612d68565b92915050565b60006020828403121561396e5761396d612cc6565b5b600061397c84828501613943565b91505092915050565b7f746f6b656e7320646f206e6f74206861766520616e20616374697665204e4654600082015250565b60006139bb6020836130b6565b91506139c682613985565b602082019050919050565b600060208201905081810360008301526139ea816139ae565b9050919050565b7f796f7520646f6e74206861766520656e6f75676820746f6b656e730000000000600082015250565b6000613a27601b836130b6565b9150613a32826139f1565b602082019050919050565b60006020820190508181036000830152613a5681613a1a565b9050919050565b7f4e4654206973206e6f74206672616374696f6e616c6973650000000000000000600082015250565b6000613a936018836130b6565b9150613a9e82613a5d565b602082019050919050565b60006020820190508181036000830152613ac281613a86565b9050919050565b7f4e465420697320696e2070726f706f73616c0000000000000000000000000000600082015250565b6000613aff6012836130b6565b9150613b0a82613ac9565b602082019050919050565b60006020820190508181036000830152613b2e81613af2565b9050919050565b7f4e465420697320696e2061756374696f6e000000000000000000000000000000600082015250565b6000613b6b6011836130b6565b9150613b7682613b35565b602082019050919050565b60006020820190508181036000830152613b9a81613b5e565b9050919050565b6000604082019050613bb66000830185613159565b613bc360208301846132b6565b939250505056fea2646970667358221220ea2cc8fc824e9f47a784d38090275d5a9f6627225ad610f2a8406a712592330764736f6c634300080e0033",
  "immutableReferences": {},
  "source": "//UNDER DEVELOPNMENT\r\npragma solidity 0.8.14;\r\nimport './FractionToken.sol';\r\nimport './Storage.sol';\r\n\r\ncontract Auction {\r\n    uint DEFAULT_WAIT_TIME = 259200; // 3 days;\r\n\r\n    enum Action{Proposal, Auction}\r\n\r\n    Storage storageContract;\r\n\r\n    constructor(address _storageContractAddress) {\r\n        storageContract = Storage(_storageContractAddress);\r\n    }\r\n\r\n    mapping(baseFractionToken => mapping(address => uint)) tokenBalances;\r\n\r\n    mapping(ERC721 => mapping(uint => bool)) isNftInProposal;\r\n    mapping(ERC721 => mapping(uint => uint)) nftProposalStartPrice;\r\n    mapping(ERC721 => mapping(uint => address)) proposalInitiator;\r\n    mapping(ERC721 => mapping(uint => uint)) proposalFinishTime;\r\n    mapping(ERC721 => mapping(uint => uint)) totalVoted;\r\n    mapping(ERC721 => mapping(uint => uint)) score;\r\n\r\n    mapping(ERC721 => mapping(uint => bool)) isNftInAuction;\r\n    mapping(ERC721 => mapping(uint => uint)) auctionCurrentBid;\r\n    mapping(ERC721 => mapping(uint => address)) auctionCurrentLeader;\r\n    mapping(ERC721 => mapping(uint => uint)) auctionFinishTime;\r\n    mapping(baseFractionToken => uint) pricePerToken;\r\n\r\n    mapping(ERC721 => mapping(uint => mapping(address => uint))) ethInContract;\r\n    mapping(ERC721 => mapping(uint => mapping(address => bool))) canWithdrawEthInContract;\r\n\r\n    mapping(baseFractionToken => ERC721) TokensForNFT;\r\n    //mapping (address => mapping(uint => bool)) hasVotedInProposal;\r\n    mapping (address => mapping(uint => bool)) voteValueInProposal;\r\n    mapping (address => mapping(uint => bool)) hasVotedInAuction;\r\n    mapping (address => mapping(uint => bool)) voteValueInAuction;\r\n\r\n   function stakeTokens(baseFractionToken _fractionToken, uint _amount) public {\r\n        //user needs to approve this contract to send its tokens\r\n\r\n        ERC721 nft = _fractionToken.getNft();\r\n        uint nftId = _fractionToken.getNftId();\r\n\r\n        require(storageContract.isNftActive(nft, nftId) == true, \"tokens do not have an active NFT\");\r\n        require(_fractionToken.balanceOf(msg.sender) <= _amount && _amount > 0, \"you dont have enough tokens\");\r\n\r\n        tokenBalances[_fractionToken][msg.sender] += _amount;\r\n        _fractionToken.transferFrom(msg.sender, address(this), _amount);\r\n   }\r\n\r\n    function unstakeTokens(address _fractionTokenAddress, uint _amount) public {\r\n        baseFractionToken FractionToken = baseFractionToken(_fractionTokenAddress);\r\n        ERC721 Nft = FractionToken.getNft();\r\n        uint NftId = FractionToken.getNftId();\r\n\r\n        require(storageContract.getIsNftFractionalised(Nft, NftId), \"NFT is not fractionalise\");\r\n        require(isNftInProposal[Nft][NftId] == false, \"NFT is in proposal\");\r\n        require(isNftInAuction[Nft][NftId] == false, \"NFT is in auction\");\r\n        require(tokenBalances[FractionToken][msg.sender] <= _amount, \"you dont have enough tokens\");\r\n    \r\n        tokenBalances[FractionToken][msg.sender] -= _amount;\r\n        FractionToken.transfer(msg.sender, _amount);\r\n    }\r\n\r\n    function updateNftOwner(ERC721 _Nft, uint _NftId, address _newOwner) public {\r\n        \r\n        address(storageContract).delegatecall(abi.encodeWithSignature(\"setIsNftChangingOwner\", _Nft, _NftId));\r\n        address(storageContract).delegatecall(abi.encodeWithSignature(\"SetNftOwner\", _Nft, _NftId, _newOwner));\r\n    }\r\n\r\n    function startProposal(ERC721 _nft, uint _nftId, uint _startPrice, uint _stakeAmount) public{\r\n        require(storageContract.getNftOwner(_nft, _nftId) == msg.sender);\r\n        require(storageContract.getIsNftFractionalised(_nft, _nftId) == true, \"This NFT is not fractionalise\");\r\n        \r\n        baseFractionToken FractionToken = baseFractionToken(storageContract.getFractionAddressFromNft(_nft, _nftId));\r\n        require(FractionToken.balanceOf(msg.sender) <= _stakeAmount, \"Your vote amount was too large\");\r\n        \r\n        isNftInProposal[_nft][_nftId] = true;\r\n        proposalInitiator[_nft][_nftId] = msg.sender;\r\n        nftProposalStartPrice[_nft][_nftId] = _startPrice;\r\n        proposalFinishTime[_nft][_nftId] = block.timestamp + DEFAULT_WAIT_TIME;\r\n\r\n        stakeTokens(FractionToken, _stakeAmount);\r\n        totalVoted[_nft][_nftId] = _stakeAmount;\r\n        score[_nft][_nftId] = totalVoted[_nft][_nftId];\r\n    }\r\n\r\n    function voteOnProposal(ERC721 _nft, uint _nftId, bool _voteValue, uint _voteAmount) public {\r\n        baseFractionToken FractionToken = baseFractionToken(storageContract.getFractionAddressFromNft(_nft, _nftId));\r\n\r\n        require(isNftInProposal[_nft][_nftId] == true, \"There is no proposal active for this NFT\");\r\n        require (FractionToken.balanceOf(msg.sender) <= _voteAmount, \"You don't own enough tokens\");\r\n\r\n        if (block.timestamp < proposalFinishTime[_nft][_nftId]) {\r\n           \r\n            stakeTokens(FractionToken, _voteAmount);\r\n            \r\n                totalVoted[_nft][_nftId] += _voteAmount;\r\n            if (_voteValue == true) {\r\n                score[_nft][_nftId] += _voteAmount;\r\n            } else {\r\n                score[_nft][_nftId] -= _voteAmount;\r\n            }\r\n        }\r\n\r\n        uint supply = FractionToken.totalSupply();\r\n          // percentage agree\r\n        if(totalVoted[_nft][_nftId] >= supply/2) {\r\n            if (score[_nft][_nftId] >= supply/2) {\r\n                startAuction(_nft, _nftId, proposalFinishTime[_nft][_nftId]);\r\n\r\n                isNftInProposal[_nft][_nftId] = false;\r\n                proposalFinishTime[_nft][_nftId] = 0;\r\n                totalVoted[_nft][_nftId] = 0;\r\n                score[_nft][_nftId] = 0;\r\n\r\n            } else {\r\n                isNftInProposal[_nft][_nftId] = false;\r\n                proposalFinishTime[_nft][_nftId] = 0;\r\n                totalVoted[_nft][_nftId] = 0;\r\n                score[_nft][_nftId] = 0;\r\n                proposalInitiator[_nft][_nftId] = 0x000000000000000000000000000000000000dEaD;\r\n            }\r\n        }\r\n    }\r\n\r\n    function startAuction(ERC721 _nft, uint _nftId, uint _auctionTime) public {\r\n        require(_auctionTime < DEFAULT_WAIT_TIME, \"Set auction time lower than max\");\r\n\r\n        auctionFinishTime[_nft][_nftId] = _auctionTime;\r\n\r\n        isNftInAuction[_nft][_nftId] = true;\r\n\r\n        auctionCurrentBid[_nft][_nftId] = nftProposalStartPrice[_nft][_nftId];\r\n        nftProposalStartPrice[_nft][_nftId] = 0;\r\n\r\n        auctionCurrentLeader[_nft][_nftId] = proposalInitiator[_nft][_nftId];\r\n        proposalInitiator[_nft][_nftId] = 0x000000000000000000000000000000000000dEaD;\r\n    }\r\n\r\n    function bidOnAuction(ERC721 _nft, uint _nftId) public payable {\r\n        require(isNftInProposal[_nft][_nftId] == false, \"Proposal for NFT is still active\");\r\n        require(isNftInAuction[_nft][_nftId] == true, \"Auction not active for this NFT\");\r\n        require (msg.value > auctionCurrentBid[_nft][_nftId], \"Your bid was less than the current bid\");\r\n        \r\n        baseFractionToken FractionToken = baseFractionToken(storageContract.getFractionAddressFromNft(_nft, _nftId));\r\n\r\n        if (block.timestamp < auctionFinishTime[_nft][_nftId]) { \r\n            \r\n            canWithdrawEthInContract[_nft][_nftId][auctionCurrentLeader[_nft][_nftId]] = true;\r\n\r\n            canWithdrawEthInContract[_nft][_nftId][msg.sender] = false;\r\n            auctionCurrentLeader[_nft][_nftId] = msg.sender;\r\n            auctionCurrentBid[_nft][_nftId] = msg.value;\r\n            ethInContract[_nft][_nftId][msg.sender] = msg.value;\r\n            \r\n        } else {\r\n            isNftInAuction[_nft][_nftId] = false;\r\n            pricePerToken[FractionToken] = auctionCurrentBid[_nft][_nftId] / FractionToken.totalSupply();\r\n            applyWinnings(_nft, _nftId);\r\n       }\r\n    }\r\n\r\n    function applyWinnings(ERC721 _nft, uint _nftId) internal {\r\n        storageContract.setIsNftChangingOwnerTrue(_nft, _nftId);\r\n        storageContract.setNftOwner(_nft, _nftId, auctionCurrentLeader[_nft][_nftId]);\r\n        baseFractionToken FractionToken = baseFractionToken(storageContract.getFractionAddressFromNft(_nft, _nftId));\r\n\r\n        FractionToken.setNoLongerFractionTokenTrue();\r\n    }\r\n\r\n    function claimFromBuyoutTokens(address FractionTokenAddress) public  {\r\n        baseFractionToken FractionToken = baseFractionToken(FractionTokenAddress);\r\n        require(FractionToken.getNoLongerFractionToken() == true, \"This token is still active as a fraction token for an NFT\");\r\n\r\n        uint balance = tokenBalances[FractionToken][msg.sender] + FractionToken.balanceOf(msg.sender);\r\n        require(balance > 0, \"You have 0 tokens\");\r\n\r\n        //contact must be approved\r\n\r\n        FractionToken.transferFrom(msg.sender, address (this), FractionToken.balanceOf(msg.sender));\r\n\r\n        FractionToken.burn(balance);\r\n        payable(msg.sender).transfer(pricePerToken[FractionToken] * balance);\r\n    }\r\n}\r\n\r\n",
  "sourcePath": "D:\\Libraries\\Desktop\\React\\Fractionalise NFT frontend v2 bootstrap\\contracts\\Auction.sol",
  "compiler": {
    "name": "solc",
    "version": "0.8.14+commit.80d49f37.Emscripten.clang"
  },
  "schemaVersion": "3.4.6",
  "updatedAt": "2022-06-05T19:37:13.427Z",
  "devdoc": {
    "kind": "dev",
    "methods": {},
    "version": 1
  },
  "userdoc": {
    "kind": "user",
    "methods": {},
    "version": 1
  }
}