{
  "contractName": "Auction",
  "abi": [
    {
      "inputs": [
        {
          "internalType": "address",
          "name": "_storageContractAddress",
          "type": "address"
        }
      ],
      "stateMutability": "nonpayable",
      "type": "constructor"
    },
    {
      "inputs": [
        {
          "internalType": "contract baseFractionToken",
          "name": "_fractionToken",
          "type": "address"
        },
        {
          "internalType": "uint256",
          "name": "_amount",
          "type": "uint256"
        }
      ],
      "name": "stakeTokens",
      "outputs": [],
      "stateMutability": "nonpayable",
      "type": "function"
    },
    {
      "inputs": [
        {
          "internalType": "address",
          "name": "_fractionAddress",
          "type": "address"
        },
        {
          "internalType": "uint256",
          "name": "_amount",
          "type": "uint256"
        }
      ],
      "name": "unstakeTokens",
      "outputs": [],
      "stateMutability": "nonpayable",
      "type": "function"
    },
    {
      "inputs": [
        {
          "internalType": "address",
          "name": "_nftAddress",
          "type": "address"
        },
        {
          "internalType": "uint256",
          "name": "_nftId",
          "type": "uint256"
        },
        {
          "internalType": "address",
          "name": "_newOwner",
          "type": "address"
        }
      ],
      "name": "updateNftOwner",
      "outputs": [],
      "stateMutability": "nonpayable",
      "type": "function"
    },
    {
      "inputs": [
        {
          "internalType": "address",
          "name": "_nftAddress",
          "type": "address"
        },
        {
          "internalType": "uint256",
          "name": "_nftId",
          "type": "uint256"
        },
        {
          "internalType": "uint256",
          "name": "_startPrice",
          "type": "uint256"
        },
        {
          "internalType": "uint256",
          "name": "_stakeAmount",
          "type": "uint256"
        }
      ],
      "name": "startProposal",
      "outputs": [],
      "stateMutability": "nonpayable",
      "type": "function"
    },
    {
      "inputs": [
        {
          "internalType": "address",
          "name": "_nftAddress",
          "type": "address"
        },
        {
          "internalType": "uint256",
          "name": "_nftId",
          "type": "uint256"
        },
        {
          "internalType": "bool",
          "name": "_voteValue",
          "type": "bool"
        },
        {
          "internalType": "uint256",
          "name": "_voteAmount",
          "type": "uint256"
        }
      ],
      "name": "voteOnProposal",
      "outputs": [],
      "stateMutability": "nonpayable",
      "type": "function"
    },
    {
      "inputs": [
        {
          "internalType": "address",
          "name": "_nftAddress",
          "type": "address"
        },
        {
          "internalType": "uint256",
          "name": "_nftId",
          "type": "uint256"
        },
        {
          "internalType": "uint256",
          "name": "_auctionTime",
          "type": "uint256"
        }
      ],
      "name": "startAuction",
      "outputs": [],
      "stateMutability": "nonpayable",
      "type": "function"
    },
    {
      "inputs": [
        {
          "internalType": "address",
          "name": "_nftAddress",
          "type": "address"
        },
        {
          "internalType": "uint256",
          "name": "_nftId",
          "type": "uint256"
        }
      ],
      "name": "bidOnAuction",
      "outputs": [],
      "stateMutability": "payable",
      "type": "function"
    },
    {
      "inputs": [
        {
          "internalType": "address",
          "name": "FractionTokenAddress",
          "type": "address"
        }
      ],
      "name": "claimFromBuyoutTokens",
      "outputs": [],
      "stateMutability": "nonpayable",
      "type": "function"
    },
    {
      "inputs": [
        {
          "internalType": "address",
          "name": "_fractionTokenAddress",
          "type": "address"
        },
        {
          "internalType": "address",
          "name": "_user",
          "type": "address"
        }
      ],
      "name": "getAddressTokenBalance",
      "outputs": [
        {
          "internalType": "uint256",
          "name": "",
          "type": "uint256"
        }
      ],
      "stateMutability": "view",
      "type": "function"
    }
  ],
  "bytecode": "0x60806040526203f4806000553480156200001857600080fd5b5060405162003cf938038062003cf983398181016040528101906200003e9190620000f0565b80600160006101000a81548173ffffffffffffffffffffffffffffffffffffffff021916908373ffffffffffffffffffffffffffffffffffffffff1602179055505062000122565b600080fd5b600073ffffffffffffffffffffffffffffffffffffffff82169050919050565b6000620000b8826200008b565b9050919050565b620000ca81620000ab565b8114620000d657600080fd5b50565b600081519050620000ea81620000bf565b92915050565b60006020828403121562000109576200010862000086565b5b60006200011984828501620000d9565b91505092915050565b613bc780620001326000396000f3fe6080604052600436106100865760003560e01c806350f8b0d01161005957806350f8b0d01461012257806356dd47551461014b57806379a83f5a146101745780638b98dd3e1461019d578063e89a173e146101da57610086565b8063014040461461008b57806304cfe306146100b45780630890b90c146100dd57806326587bbb146100f9575b600080fd5b34801561009757600080fd5b506100b260048036038101906100ad9190612df8565b610203565b005b3480156100c057600080fd5b506100db60048036038101906100d69190612e5b565b610600565b005b6100f760048036038101906100f29190612eae565b610839565b005b34801561010557600080fd5b50610120600480360381019061011b9190612f26565b610fca565b005b34801561012e57600080fd5b5061014960048036038101906101449190612f8d565b611880565b005b34801561015757600080fd5b50610172600480360381019061016d9190612ff4565b611e51565b005b34801561018057600080fd5b5061019b60048036038101906101969190613085565b6121e3565b005b3480156101a957600080fd5b506101c460048036038101906101bf91906130c5565b61258f565b6040516101d19190613114565b60405180910390f35b3480156101e657600080fd5b5061020160048036038101906101fc9190612eae565b612616565b005b6000819050600115158173ffffffffffffffffffffffffffffffffffffffff166309323b026040518163ffffffff1660e01b8152600401602060405180830381865afa158015610257573d6000803e3d6000fd5b505050506040513d601f19601f8201168201806040525081019061027b9190613144565b1515146102bd576040517f08c379a00000000000000000000000000000000000000000000000000000000081526004016102b4906131f4565b60405180910390fd5b60008173ffffffffffffffffffffffffffffffffffffffff166370a08231336040518263ffffffff1660e01b81526004016102f89190613223565b602060405180830381865afa158015610315573d6000803e3d6000fd5b505050506040513d601f19601f820116820180604052508101906103399190613253565b600260008573ffffffffffffffffffffffffffffffffffffffff1673ffffffffffffffffffffffffffffffffffffffff16815260200190815260200160002060003373ffffffffffffffffffffffffffffffffffffffff1673ffffffffffffffffffffffffffffffffffffffff168152602001908152602001600020546103c091906132af565b905060008111610405576040517f08c379a00000000000000000000000000000000000000000000000000000000081526004016103fc90613351565b60405180910390fd5b8173ffffffffffffffffffffffffffffffffffffffff166323b872dd33308573ffffffffffffffffffffffffffffffffffffffff166370a08231336040518263ffffffff1660e01b815260040161045c9190613223565b602060405180830381865afa158015610479573d6000803e3d6000fd5b505050506040513d601f19601f8201168201806040525081019061049d9190613253565b6040518463ffffffff1660e01b81526004016104bb93929190613371565b6020604051808303816000875af11580156104da573d6000803e3d6000fd5b505050506040513d601f19601f820116820180604052508101906104fe9190613144565b508173ffffffffffffffffffffffffffffffffffffffff166342966c68826040518263ffffffff1660e01b81526004016105389190613114565b600060405180830381600087803b15801561055257600080fd5b505af1158015610566573d6000803e3d6000fd5b505050503373ffffffffffffffffffffffffffffffffffffffff166108fc82600d60008673ffffffffffffffffffffffffffffffffffffffff1673ffffffffffffffffffffffffffffffffffffffff168152602001908152602001600020546105cf91906133a8565b9081150290604051600060405180830381858888f193505050501580156105fa573d6000803e3d6000fd5b50505050565b600160009054906101000a900473ffffffffffffffffffffffffffffffffffffffff1673ffffffffffffffffffffffffffffffffffffffff16838360405160240161064c929190613402565b6040516020818303038152906040527f1c68c100000000000000000000000000000000000000000000000000000000007bffffffffffffffffffffffffffffffffffffffffffffffffffffffff19166020820180517bffffffffffffffffffffffffffffffffffffffffffffffffffffffff83818316178352505050506040516106d691906134a5565b600060405180830381855af49150503d8060008114610711576040519150601f19603f3d011682016040523d82523d6000602084013e610716565b606091505b505050600160009054906101000a900473ffffffffffffffffffffffffffffffffffffffff1673ffffffffffffffffffffffffffffffffffffffff16838383604051602401610767939291906134bc565b6040516020818303038152906040527f43046d17000000000000000000000000000000000000000000000000000000007bffffffffffffffffffffffffffffffffffffffffffffffffffffffff19166020820180517bffffffffffffffffffffffffffffffffffffffffffffffffffffffff83818316178352505050506040516107f191906134a5565b600060405180830381855af49150503d806000811461082c576040519150601f19603f3d011682016040523d82523d6000602084013e610831565b606091505b505050505050565b60001515600360008473ffffffffffffffffffffffffffffffffffffffff1673ffffffffffffffffffffffffffffffffffffffff168152602001908152602001600020600083815260200190815260200160002060009054906101000a900460ff161515146108dd576040517f08c379a00000000000000000000000000000000000000000000000000000000081526004016108d49061353f565b60405180910390fd5b60011515600960008473ffffffffffffffffffffffffffffffffffffffff1673ffffffffffffffffffffffffffffffffffffffff168152602001908152602001600020600083815260200190815260200160002060009054906101000a900460ff16151514610981576040517f08c379a0000000000000000000000000000000000000000000000000000000008152600401610978906135ab565b60405180910390fd5b600a60008373ffffffffffffffffffffffffffffffffffffffff1673ffffffffffffffffffffffffffffffffffffffff1681526020019081526020016000206000828152602001908152602001600020543411610a13576040517f08c379a0000000000000000000000000000000000000000000000000000000008152600401610a0a9061363d565b60405180910390fd5b6000600160009054906101000a900473ffffffffffffffffffffffffffffffffffffffff1673ffffffffffffffffffffffffffffffffffffffff1663aafef26784846040518363ffffffff1660e01b8152600401610a72929190613402565b602060405180830381865afa158015610a8f573d6000803e3d6000fd5b505050506040513d601f19601f82011682018060405250810190610ab39190613672565b9050600c60008473ffffffffffffffffffffffffffffffffffffffff1673ffffffffffffffffffffffffffffffffffffffff168152602001908152602001600020600083815260200190815260200160002054421015610e44576001600f60008573ffffffffffffffffffffffffffffffffffffffff1673ffffffffffffffffffffffffffffffffffffffff16815260200190815260200160002060008481526020019081526020016000206000600b60008773ffffffffffffffffffffffffffffffffffffffff1673ffffffffffffffffffffffffffffffffffffffff168152602001908152602001600020600086815260200190815260200160002060009054906101000a900473ffffffffffffffffffffffffffffffffffffffff1673ffffffffffffffffffffffffffffffffffffffff1673ffffffffffffffffffffffffffffffffffffffff16815260200190815260200160002060006101000a81548160ff0219169083151502179055506000600f60008573ffffffffffffffffffffffffffffffffffffffff1673ffffffffffffffffffffffffffffffffffffffff168152602001908152602001600020600084815260200190815260200160002060003373ffffffffffffffffffffffffffffffffffffffff1673ffffffffffffffffffffffffffffffffffffffff16815260200190815260200160002060006101000a81548160ff02191690831515021790555033600b60008573ffffffffffffffffffffffffffffffffffffffff1673ffffffffffffffffffffffffffffffffffffffff168152602001908152602001600020600084815260200190815260200160002060006101000a81548173ffffffffffffffffffffffffffffffffffffffff021916908373ffffffffffffffffffffffffffffffffffffffff16021790555034600a60008573ffffffffffffffffffffffffffffffffffffffff1673ffffffffffffffffffffffffffffffffffffffff16815260200190815260200160002060008481526020019081526020016000208190555034600e60008573ffffffffffffffffffffffffffffffffffffffff1673ffffffffffffffffffffffffffffffffffffffff168152602001908152602001600020600084815260200190815260200160002060003373ffffffffffffffffffffffffffffffffffffffff1673ffffffffffffffffffffffffffffffffffffffff16815260200190815260200160002081905550610fc5565b6000600960008573ffffffffffffffffffffffffffffffffffffffff1673ffffffffffffffffffffffffffffffffffffffff168152602001908152602001600020600084815260200190815260200160002060006101000a81548160ff0219169083151502179055508073ffffffffffffffffffffffffffffffffffffffff166318160ddd6040518163ffffffff1660e01b8152600401602060405180830381865afa158015610ef8573d6000803e3d6000fd5b505050506040513d601f19601f82011682018060405250810190610f1c9190613253565b600a60008573ffffffffffffffffffffffffffffffffffffffff1673ffffffffffffffffffffffffffffffffffffffff168152602001908152602001600020600084815260200190815260200160002054610f7791906136ce565b600d60008373ffffffffffffffffffffffffffffffffffffffff1673ffffffffffffffffffffffffffffffffffffffff16815260200190815260200160002081905550610fc48383612afe565b5b505050565b6000600160009054906101000a900473ffffffffffffffffffffffffffffffffffffffff1673ffffffffffffffffffffffffffffffffffffffff1663aafef26786866040518363ffffffff1660e01b8152600401611029929190613402565b602060405180830381865afa158015611046573d6000803e3d6000fd5b505050506040513d601f19601f8201168201806040525081019061106a9190613672565b905060011515600360008773ffffffffffffffffffffffffffffffffffffffff1673ffffffffffffffffffffffffffffffffffffffff168152602001908152602001600020600086815260200190815260200160002060009054906101000a900460ff16151514611110576040517f08c379a000000000000000000000000000000000000000000000000000000000815260040161110790613771565b60405180910390fd5b818173ffffffffffffffffffffffffffffffffffffffff166370a08231336040518263ffffffff1660e01b815260040161114a9190613223565b602060405180830381865afa158015611167573d6000803e3d6000fd5b505050506040513d601f19601f8201168201806040525081019061118b9190613253565b11156111cc576040517f08c379a00000000000000000000000000000000000000000000000000000000081526004016111c3906137dd565b60405180910390fd5b600660008673ffffffffffffffffffffffffffffffffffffffff1673ffffffffffffffffffffffffffffffffffffffff1681526020019081526020016000206000858152602001908152602001600020544210156113765761122e81836121e3565b81600760008773ffffffffffffffffffffffffffffffffffffffff1673ffffffffffffffffffffffffffffffffffffffff1681526020019081526020016000206000868152602001908152602001600020600082825461128e91906132af565b92505081905550600115158315150361130d5781600860008773ffffffffffffffffffffffffffffffffffffffff1673ffffffffffffffffffffffffffffffffffffffff1681526020019081526020016000206000868152602001908152602001600020600082825461130191906132af565b92505081905550611375565b81600860008773ffffffffffffffffffffffffffffffffffffffff1673ffffffffffffffffffffffffffffffffffffffff1681526020019081526020016000206000868152602001908152602001600020600082825461136d91906137fd565b925050819055505b5b60008173ffffffffffffffffffffffffffffffffffffffff166318160ddd6040518163ffffffff1660e01b8152600401602060405180830381865afa1580156113c3573d6000803e3d6000fd5b505050506040513d601f19601f820116820180604052508101906113e79190613253565b90506002816113f691906136ce565b600760008873ffffffffffffffffffffffffffffffffffffffff1673ffffffffffffffffffffffffffffffffffffffff168152602001908152602001600020600087815260200190815260200160002054106118785760028161145991906136ce565b600860008873ffffffffffffffffffffffffffffffffffffffff1673ffffffffffffffffffffffffffffffffffffffff1681526020019081526020016000206000878152602001908152602001600020541061167a5761150a8686600660008a73ffffffffffffffffffffffffffffffffffffffff1673ffffffffffffffffffffffffffffffffffffffff168152602001908152602001600020600089815260200190815260200160002054611e51565b6000600360008873ffffffffffffffffffffffffffffffffffffffff1673ffffffffffffffffffffffffffffffffffffffff168152602001908152602001600020600087815260200190815260200160002060006101000a81548160ff0219169083151502179055506000600660008873ffffffffffffffffffffffffffffffffffffffff1673ffffffffffffffffffffffffffffffffffffffff1681526020019081526020016000206000878152602001908152602001600020819055506000600760008873ffffffffffffffffffffffffffffffffffffffff1673ffffffffffffffffffffffffffffffffffffffff1681526020019081526020016000206000878152602001908152602001600020819055506000600860008873ffffffffffffffffffffffffffffffffffffffff1673ffffffffffffffffffffffffffffffffffffffff168152602001908152602001600020600087815260200190815260200160002081905550611877565b6000600360008873ffffffffffffffffffffffffffffffffffffffff1673ffffffffffffffffffffffffffffffffffffffff168152602001908152602001600020600087815260200190815260200160002060006101000a81548160ff0219169083151502179055506000600660008873ffffffffffffffffffffffffffffffffffffffff1673ffffffffffffffffffffffffffffffffffffffff1681526020019081526020016000206000878152602001908152602001600020819055506000600760008873ffffffffffffffffffffffffffffffffffffffff1673ffffffffffffffffffffffffffffffffffffffff1681526020019081526020016000206000878152602001908152602001600020819055506000600860008873ffffffffffffffffffffffffffffffffffffffff1673ffffffffffffffffffffffffffffffffffffffff16815260200190815260200160002060008781526020019081526020016000208190555061dead600560008873ffffffffffffffffffffffffffffffffffffffff1673ffffffffffffffffffffffffffffffffffffffff168152602001908152602001600020600087815260200190815260200160002060006101000a81548173ffffffffffffffffffffffffffffffffffffffff021916908373ffffffffffffffffffffffffffffffffffffffff1602179055505b5b505050505050565b3373ffffffffffffffffffffffffffffffffffffffff16600160009054906101000a900473ffffffffffffffffffffffffffffffffffffffff1673ffffffffffffffffffffffffffffffffffffffff16635044613686866040518363ffffffff1660e01b81526004016118f4929190613402565b602060405180830381865afa158015611911573d6000803e3d6000fd5b505050506040513d601f19601f820116820180604052508101906119359190613672565b73ffffffffffffffffffffffffffffffffffffffff161461195557600080fd5b60011515600160009054906101000a900473ffffffffffffffffffffffffffffffffffffffff1673ffffffffffffffffffffffffffffffffffffffff1663491f667486866040518363ffffffff1660e01b81526004016119b6929190613402565b602060405180830381865afa1580156119d3573d6000803e3d6000fd5b505050506040513d601f19601f820116820180604052508101906119f79190613144565b151514611a39576040517f08c379a0000000000000000000000000000000000000000000000000000000008152600401611a309061387d565b60405180910390fd5b6000600160009054906101000a900473ffffffffffffffffffffffffffffffffffffffff1673ffffffffffffffffffffffffffffffffffffffff1663aafef26786866040518363ffffffff1660e01b8152600401611a98929190613402565b602060405180830381865afa158015611ab5573d6000803e3d6000fd5b505050506040513d601f19601f82011682018060405250810190611ad99190613672565b9050818173ffffffffffffffffffffffffffffffffffffffff166370a08231336040518263ffffffff1660e01b8152600401611b159190613223565b602060405180830381865afa158015611b32573d6000803e3d6000fd5b505050506040513d601f19601f82011682018060405250810190611b569190613253565b1115611b97576040517f08c379a0000000000000000000000000000000000000000000000000000000008152600401611b8e906138e9565b60405180910390fd5b6001600360008773ffffffffffffffffffffffffffffffffffffffff1673ffffffffffffffffffffffffffffffffffffffff168152602001908152602001600020600086815260200190815260200160002060006101000a81548160ff02191690831515021790555033600560008773ffffffffffffffffffffffffffffffffffffffff1673ffffffffffffffffffffffffffffffffffffffff168152602001908152602001600020600086815260200190815260200160002060006101000a81548173ffffffffffffffffffffffffffffffffffffffff021916908373ffffffffffffffffffffffffffffffffffffffff16021790555082600460008773ffffffffffffffffffffffffffffffffffffffff1673ffffffffffffffffffffffffffffffffffffffff16815260200190815260200160002060008681526020019081526020016000208190555060005442611cf291906132af565b600660008773ffffffffffffffffffffffffffffffffffffffff1673ffffffffffffffffffffffffffffffffffffffff168152602001908152602001600020600086815260200190815260200160002081905550611d5081836121e3565b81600760008773ffffffffffffffffffffffffffffffffffffffff1673ffffffffffffffffffffffffffffffffffffffff168152602001908152602001600020600086815260200190815260200160002081905550600760008673ffffffffffffffffffffffffffffffffffffffff1673ffffffffffffffffffffffffffffffffffffffff168152602001908152602001600020600085815260200190815260200160002054600860008773ffffffffffffffffffffffffffffffffffffffff1673ffffffffffffffffffffffffffffffffffffffff1681526020019081526020016000206000868152602001908152602001600020819055505050505050565b6000548110611e95576040517f08c379a0000000000000000000000000000000000000000000000000000000008152600401611e8c90613955565b60405180910390fd5b80600c60008573ffffffffffffffffffffffffffffffffffffffff1673ffffffffffffffffffffffffffffffffffffffff1681526020019081526020016000206000848152602001908152602001600020819055506001600960008573ffffffffffffffffffffffffffffffffffffffff1673ffffffffffffffffffffffffffffffffffffffff168152602001908152602001600020600084815260200190815260200160002060006101000a81548160ff021916908315150217905550600460008473ffffffffffffffffffffffffffffffffffffffff1673ffffffffffffffffffffffffffffffffffffffff168152602001908152602001600020600083815260200190815260200160002054600a60008573ffffffffffffffffffffffffffffffffffffffff1673ffffffffffffffffffffffffffffffffffffffff1681526020019081526020016000206000848152602001908152602001600020819055506000600460008573ffffffffffffffffffffffffffffffffffffffff1673ffffffffffffffffffffffffffffffffffffffff168152602001908152602001600020600084815260200190815260200160002081905550600560008473ffffffffffffffffffffffffffffffffffffffff1673ffffffffffffffffffffffffffffffffffffffff168152602001908152602001600020600083815260200190815260200160002060009054906101000a900473ffffffffffffffffffffffffffffffffffffffff16600b60008573ffffffffffffffffffffffffffffffffffffffff1673ffffffffffffffffffffffffffffffffffffffff168152602001908152602001600020600084815260200190815260200160002060006101000a81548173ffffffffffffffffffffffffffffffffffffffff021916908373ffffffffffffffffffffffffffffffffffffffff16021790555061dead600560008573ffffffffffffffffffffffffffffffffffffffff1673ffffffffffffffffffffffffffffffffffffffff168152602001908152602001600020600084815260200190815260200160002060006101000a81548173ffffffffffffffffffffffffffffffffffffffff021916908373ffffffffffffffffffffffffffffffffffffffff160217905550505050565b60008273ffffffffffffffffffffffffffffffffffffffff1663be9a71bd6040518163ffffffff1660e01b8152600401602060405180830381865afa158015612230573d6000803e3d6000fd5b505050506040513d601f19601f820116820180604052508101906122549190613672565b905060008373ffffffffffffffffffffffffffffffffffffffff1663644c45e06040518163ffffffff1660e01b8152600401602060405180830381865afa1580156122a3573d6000803e3d6000fd5b505050506040513d601f19601f820116820180604052508101906122c79190613253565b905060011515600160009054906101000a900473ffffffffffffffffffffffffffffffffffffffff1673ffffffffffffffffffffffffffffffffffffffff1663dcea9a9684846040518363ffffffff1660e01b815260040161232a929190613402565b602060405180830381865afa158015612347573d6000803e3d6000fd5b505050506040513d601f19601f8201168201806040525081019061236b9190613144565b1515146123ad576040517f08c379a00000000000000000000000000000000000000000000000000000000081526004016123a4906139c1565b60405180910390fd5b828473ffffffffffffffffffffffffffffffffffffffff166370a08231336040518263ffffffff1660e01b81526004016123e79190613223565b602060405180830381865afa158015612404573d6000803e3d6000fd5b505050506040513d601f19601f820116820180604052508101906124289190613253565b111580156124365750600083115b612475576040517f08c379a000000000000000000000000000000000000000000000000000000000815260040161246c90613a2d565b60405180910390fd5b82600260008673ffffffffffffffffffffffffffffffffffffffff1673ffffffffffffffffffffffffffffffffffffffff16815260200190815260200160002060003373ffffffffffffffffffffffffffffffffffffffff1673ffffffffffffffffffffffffffffffffffffffff168152602001908152602001600020600082825461250191906132af565b925050819055508373ffffffffffffffffffffffffffffffffffffffff166323b872dd3330866040518463ffffffff1660e01b815260040161254593929190613371565b6020604051808303816000875af1158015612564573d6000803e3d6000fd5b505050506040513d601f19601f820116820180604052508101906125889190613144565b5050505050565b6000600260008473ffffffffffffffffffffffffffffffffffffffff1673ffffffffffffffffffffffffffffffffffffffff16815260200190815260200160002060008373ffffffffffffffffffffffffffffffffffffffff1673ffffffffffffffffffffffffffffffffffffffff16815260200190815260200160002054905092915050565b600082905060008173ffffffffffffffffffffffffffffffffffffffff1663be9a71bd6040518163ffffffff1660e01b8152600401602060405180830381865afa158015612668573d6000803e3d6000fd5b505050506040513d601f19601f8201168201806040525081019061268c9190613672565b905060008273ffffffffffffffffffffffffffffffffffffffff1663644c45e06040518163ffffffff1660e01b8152600401602060405180830381865afa1580156126db573d6000803e3d6000fd5b505050506040513d601f19601f820116820180604052508101906126ff9190613253565b9050600160009054906101000a900473ffffffffffffffffffffffffffffffffffffffff1673ffffffffffffffffffffffffffffffffffffffff1663491f667483836040518363ffffffff1660e01b815260040161275e929190613402565b602060405180830381865afa15801561277b573d6000803e3d6000fd5b505050506040513d601f19601f8201168201806040525081019061279f9190613144565b6127de576040517f08c379a00000000000000000000000000000000000000000000000000000000081526004016127d590613a99565b60405180910390fd5b60001515600360008473ffffffffffffffffffffffffffffffffffffffff1673ffffffffffffffffffffffffffffffffffffffff168152602001908152602001600020600083815260200190815260200160002060009054906101000a900460ff16151514612882576040517f08c379a000000000000000000000000000000000000000000000000000000000815260040161287990613b05565b60405180910390fd5b60001515600960008473ffffffffffffffffffffffffffffffffffffffff1673ffffffffffffffffffffffffffffffffffffffff168152602001908152602001600020600083815260200190815260200160002060009054906101000a900460ff16151514612926576040517f08c379a000000000000000000000000000000000000000000000000000000000815260040161291d90613b71565b60405180910390fd5b83600260008773ffffffffffffffffffffffffffffffffffffffff1673ffffffffffffffffffffffffffffffffffffffff16815260200190815260200160002060003373ffffffffffffffffffffffffffffffffffffffff1673ffffffffffffffffffffffffffffffffffffffff1681526020019081526020016000205411156129e5576040517f08c379a00000000000000000000000000000000000000000000000000000000081526004016129dc90613a2d565b60405180910390fd5b83600260008773ffffffffffffffffffffffffffffffffffffffff1673ffffffffffffffffffffffffffffffffffffffff16815260200190815260200160002060003373ffffffffffffffffffffffffffffffffffffffff1673ffffffffffffffffffffffffffffffffffffffff1681526020019081526020016000206000828254612a7191906137fd565b925050819055508273ffffffffffffffffffffffffffffffffffffffff1663a9059cbb33866040518363ffffffff1660e01b8152600401612ab3929190613402565b6020604051808303816000875af1158015612ad2573d6000803e3d6000fd5b505050506040513d601f19601f82011682018060405250810190612af69190613144565b505050505050565b600160009054906101000a900473ffffffffffffffffffffffffffffffffffffffff1673ffffffffffffffffffffffffffffffffffffffff16636b1ac39883836040518363ffffffff1660e01b8152600401612b5b929190613402565b600060405180830381600087803b158015612b7557600080fd5b505af1158015612b89573d6000803e3d6000fd5b50505050600160009054906101000a900473ffffffffffffffffffffffffffffffffffffffff1673ffffffffffffffffffffffffffffffffffffffff1663f2bb4a888383600b60008773ffffffffffffffffffffffffffffffffffffffff1673ffffffffffffffffffffffffffffffffffffffff168152602001908152602001600020600086815260200190815260200160002060009054906101000a900473ffffffffffffffffffffffffffffffffffffffff166040518463ffffffff1660e01b8152600401612c5c939291906134bc565b600060405180830381600087803b158015612c7657600080fd5b505af1158015612c8a573d6000803e3d6000fd5b505050506000600160009054906101000a900473ffffffffffffffffffffffffffffffffffffffff1673ffffffffffffffffffffffffffffffffffffffff1663aafef26784846040518363ffffffff1660e01b8152600401612ced929190613402565b602060405180830381865afa158015612d0a573d6000803e3d6000fd5b505050506040513d601f19601f82011682018060405250810190612d2e9190613672565b90508073ffffffffffffffffffffffffffffffffffffffff166362032bc56040518163ffffffff1660e01b8152600401600060405180830381600087803b158015612d7857600080fd5b505af1158015612d8c573d6000803e3d6000fd5b50505050505050565b600080fd5b600073ffffffffffffffffffffffffffffffffffffffff82169050919050565b6000612dc582612d9a565b9050919050565b612dd581612dba565b8114612de057600080fd5b50565b600081359050612df281612dcc565b92915050565b600060208284031215612e0e57612e0d612d95565b5b6000612e1c84828501612de3565b91505092915050565b6000819050919050565b612e3881612e25565b8114612e4357600080fd5b50565b600081359050612e5581612e2f565b92915050565b600080600060608486031215612e7457612e73612d95565b5b6000612e8286828701612de3565b9350506020612e9386828701612e46565b9250506040612ea486828701612de3565b9150509250925092565b60008060408385031215612ec557612ec4612d95565b5b6000612ed385828601612de3565b9250506020612ee485828601612e46565b9150509250929050565b60008115159050919050565b612f0381612eee565b8114612f0e57600080fd5b50565b600081359050612f2081612efa565b92915050565b60008060008060808587031215612f4057612f3f612d95565b5b6000612f4e87828801612de3565b9450506020612f5f87828801612e46565b9350506040612f7087828801612f11565b9250506060612f8187828801612e46565b91505092959194509250565b60008060008060808587031215612fa757612fa6612d95565b5b6000612fb587828801612de3565b9450506020612fc687828801612e46565b9350506040612fd787828801612e46565b9250506060612fe887828801612e46565b91505092959194509250565b60008060006060848603121561300d5761300c612d95565b5b600061301b86828701612de3565b935050602061302c86828701612e46565b925050604061303d86828701612e46565b9150509250925092565b600061305282612dba565b9050919050565b61306281613047565b811461306d57600080fd5b50565b60008135905061307f81613059565b92915050565b6000806040838503121561309c5761309b612d95565b5b60006130aa85828601613070565b92505060206130bb85828601612e46565b9150509250929050565b600080604083850312156130dc576130db612d95565b5b60006130ea85828601612de3565b92505060206130fb85828601612de3565b9150509250929050565b61310e81612e25565b82525050565b60006020820190506131296000830184613105565b92915050565b60008151905061313e81612efa565b92915050565b60006020828403121561315a57613159612d95565b5b60006131688482850161312f565b91505092915050565b600082825260208201905092915050565b7f5468697320746f6b656e206973207374696c6c2061637469766520617320612060008201527f6672616374696f6e20746f6b656e20666f7220616e204e465400000000000000602082015250565b60006131de603983613171565b91506131e982613182565b604082019050919050565b6000602082019050818103600083015261320d816131d1565b9050919050565b61321d81612dba565b82525050565b60006020820190506132386000830184613214565b92915050565b60008151905061324d81612e2f565b92915050565b60006020828403121561326957613268612d95565b5b60006132778482850161323e565b91505092915050565b7f4e487b7100000000000000000000000000000000000000000000000000000000600052601160045260246000fd5b60006132ba82612e25565b91506132c583612e25565b9250827fffffffffffffffffffffffffffffffffffffffffffffffffffffffffffffffff038211156132fa576132f9613280565b5b828201905092915050565b7f596f752068617665203020746f6b656e73000000000000000000000000000000600082015250565b600061333b601183613171565b915061334682613305565b602082019050919050565b6000602082019050818103600083015261336a8161332e565b9050919050565b60006060820190506133866000830186613214565b6133936020830185613214565b6133a06040830184613105565b949350505050565b60006133b382612e25565b91506133be83612e25565b9250817fffffffffffffffffffffffffffffffffffffffffffffffffffffffffffffffff04831182151516156133f7576133f6613280565b5b828202905092915050565b60006040820190506134176000830185613214565b6134246020830184613105565b9392505050565b600081519050919050565b600081905092915050565b60005b8381101561345f578082015181840152602081019050613444565b8381111561346e576000848401525b50505050565b600061347f8261342b565b6134898185613436565b9350613499818560208601613441565b80840191505092915050565b60006134b18284613474565b915081905092915050565b60006060820190506134d16000830186613214565b6134de6020830185613105565b6134eb6040830184613214565b949350505050565b7f50726f706f73616c20666f72204e4654206973207374696c6c20616374697665600082015250565b6000613529602083613171565b9150613534826134f3565b602082019050919050565b600060208201905081810360008301526135588161351c565b9050919050565b7f41756374696f6e206e6f742061637469766520666f722074686973204e465400600082015250565b6000613595601f83613171565b91506135a08261355f565b602082019050919050565b600060208201905081810360008301526135c481613588565b9050919050565b7f596f75722062696420776173206c657373207468616e2074686520637572726560008201527f6e74206269640000000000000000000000000000000000000000000000000000602082015250565b6000613627602683613171565b9150613632826135cb565b604082019050919050565b600060208201905081810360008301526136568161361a565b9050919050565b60008151905061366c81612dcc565b92915050565b60006020828403121561368857613687612d95565b5b60006136968482850161365d565b91505092915050565b7f4e487b7100000000000000000000000000000000000000000000000000000000600052601260045260246000fd5b60006136d982612e25565b91506136e483612e25565b9250826136f4576136f361369f565b5b828204905092915050565b7f5468657265206973206e6f2070726f706f73616c2061637469766520666f722060008201527f74686973204e4654000000000000000000000000000000000000000000000000602082015250565b600061375b602883613171565b9150613766826136ff565b604082019050919050565b6000602082019050818103600083015261378a8161374e565b9050919050565b7f596f7520646f6e2774206f776e20656e6f75676820746f6b656e730000000000600082015250565b60006137c7601b83613171565b91506137d282613791565b602082019050919050565b600060208201905081810360008301526137f6816137ba565b9050919050565b600061380882612e25565b915061381383612e25565b92508282101561382657613825613280565b5b828203905092915050565b7f54686973204e4654206973206e6f74206672616374696f6e616c697365000000600082015250565b6000613867601d83613171565b915061387282613831565b602082019050919050565b600060208201905081810360008301526138968161385a565b9050919050565b7f596f757220766f746520616d6f756e742077617320746f6f206c617267650000600082015250565b60006138d3601e83613171565b91506138de8261389d565b602082019050919050565b60006020820190508181036000830152613902816138c6565b9050919050565b7f5365742061756374696f6e2074696d65206c6f776572207468616e206d617800600082015250565b600061393f601f83613171565b915061394a82613909565b602082019050919050565b6000602082019050818103600083015261396e81613932565b9050919050565b7f746f6b656e7320646f206e6f74206861766520616e20616374697665204e4654600082015250565b60006139ab602083613171565b91506139b682613975565b602082019050919050565b600060208201905081810360008301526139da8161399e565b9050919050565b7f796f7520646f6e74206861766520656e6f75676820746f6b656e730000000000600082015250565b6000613a17601b83613171565b9150613a22826139e1565b602082019050919050565b60006020820190508181036000830152613a4681613a0a565b9050919050565b7f4e4654206973206e6f74206672616374696f6e616c6973650000000000000000600082015250565b6000613a83601883613171565b9150613a8e82613a4d565b602082019050919050565b60006020820190508181036000830152613ab281613a76565b9050919050565b7f4e465420697320696e2070726f706f73616c0000000000000000000000000000600082015250565b6000613aef601283613171565b9150613afa82613ab9565b602082019050919050565b60006020820190508181036000830152613b1e81613ae2565b9050919050565b7f4e465420697320696e2061756374696f6e000000000000000000000000000000600082015250565b6000613b5b601183613171565b9150613b6682613b25565b602082019050919050565b60006020820190508181036000830152613b8a81613b4e565b905091905056fea26469706673582212208c9d6cae2cb93ccec54e502805d45adeb6796a2aabc2b56bad788f726375826564736f6c634300080e0033",
  "immutableReferences": {},
  "source": "//UNDER DEVELOPNMENT\r\npragma solidity 0.8.14;\r\nimport './FractionToken.sol';\r\nimport './Storage.sol';\r\n\r\ncontract Auction {\r\n    uint DEFAULT_WAIT_TIME = 259200; // 3 days;\r\n\r\n    enum Action{Proposal, Auction}\r\n\r\n    Storage storageContract;\r\n\r\n    constructor(address _storageContractAddress) {\r\n        storageContract = Storage(_storageContractAddress);\r\n    }\r\n\r\n    mapping(address => mapping(address => uint)) tokenBalances;\r\n\r\n    mapping(address => mapping(uint => bool)) isNftInProposal;\r\n    mapping(address => mapping(uint => uint)) nftProposalStartPrice;\r\n    mapping(address => mapping(uint => address)) proposalInitiator;\r\n    mapping(address => mapping(uint => uint)) proposalFinishTime;\r\n    mapping(address => mapping(uint => uint)) totalVoted;\r\n    mapping(address => mapping(uint => uint)) score;\r\n\r\n    mapping(address => mapping(uint => bool)) isNftInAuction;\r\n    mapping(address => mapping(uint => uint)) auctionCurrentBid;\r\n    mapping(address => mapping(uint => address)) auctionCurrentLeader;\r\n    mapping(address => mapping(uint => uint)) auctionFinishTime;\r\n    mapping(baseFractionToken => uint) pricePerToken;\r\n\r\n    mapping(address => mapping(uint => mapping(address => uint))) ethInContract;\r\n    mapping(address => mapping(uint => mapping(address => bool))) canWithdrawEthInContract;\r\n\r\n    mapping(baseFractionToken => ERC721) TokensForNFT;\r\n    //mapping (address => mapping(uint => bool)) hasVotedInProposal;\r\n    mapping (address => mapping(uint => bool)) voteValueInProposal;\r\n    mapping (address => mapping(uint => bool)) hasVotedInAuction;\r\n    mapping (address => mapping(uint => bool)) voteValueInAuction;\r\n\r\n   function stakeTokens(baseFractionToken _fractionToken, uint _amount) public {\r\n        //user needs to approve this contract to send its tokens\r\n\r\n        address nftAddress = _fractionToken.getNftAddress();\r\n        uint nftId = _fractionToken.getNftId();\r\n\r\n        require(storageContract.isNftActive(nftAddress, nftId) == true, \"tokens do not have an active NFT\");\r\n        require(_fractionToken.balanceOf(msg.sender) <= _amount && _amount > 0, \"you dont have enough tokens\");\r\n\r\n        tokenBalances[address (_fractionToken)][msg.sender] += _amount;\r\n        _fractionToken.transferFrom(msg.sender, address(this), _amount);\r\n   }\r\n\r\n    function unstakeTokens(address _fractionAddress, uint _amount) public {\r\n        baseFractionToken FractionToken = baseFractionToken(_fractionAddress);\r\n        address NftAddress = FractionToken.getNftAddress();\r\n        uint NftId = FractionToken.getNftId();\r\n\r\n        require(storageContract.getIsNftFractionalised(NftAddress, NftId), \"NFT is not fractionalise\");\r\n        require(isNftInProposal[NftAddress][NftId] == false, \"NFT is in proposal\");\r\n        require(isNftInAuction[NftAddress][NftId] == false, \"NFT is in auction\");\r\n        require(tokenBalances[_fractionAddress][msg.sender] <= _amount, \"you dont have enough tokens\");\r\n    \r\n        tokenBalances[_fractionAddress][msg.sender] -= _amount;\r\n        FractionToken.transfer(msg.sender, _amount);\r\n    }\r\n\r\n    function updateNftOwner(address _nftAddress, uint _nftId, address _newOwner) public {\r\n        \r\n        address(storageContract).delegatecall(abi.encodeWithSignature(\"setIsNftChangingOwner\", _nftAddress, _nftId));\r\n        address(storageContract).delegatecall(abi.encodeWithSignature(\"SetNftOwner\", _nftAddress, _nftId, _newOwner));\r\n    }\r\n\r\n    function startProposal(address _nftAddress , uint _nftId, uint _startPrice, uint _stakeAmount) public{\r\n        require(storageContract.getNftOwner(_nftAddress, _nftId) == msg.sender);\r\n        require(storageContract.getIsNftFractionalised(_nftAddress, _nftId) == true, \"This NFT is not fractionalise\");\r\n        \r\n        baseFractionToken FractionToken = baseFractionToken(storageContract.getFractionAddressFromNft(_nftAddress, _nftId));\r\n        require(FractionToken.balanceOf(msg.sender) <= _stakeAmount, \"Your vote amount was too large\");\r\n        \r\n        isNftInProposal[_nftAddress][_nftId] = true;\r\n        proposalInitiator[_nftAddress][_nftId] = msg.sender;\r\n        nftProposalStartPrice[_nftAddress][_nftId] = _startPrice;\r\n        proposalFinishTime[_nftAddress][_nftId] = block.timestamp + DEFAULT_WAIT_TIME;\r\n\r\n        stakeTokens(FractionToken, _stakeAmount);\r\n        totalVoted[_nftAddress][_nftId] = _stakeAmount;\r\n        score[_nftAddress][_nftId] = totalVoted[_nftAddress][_nftId];\r\n    }\r\n\r\n    function voteOnProposal(address _nftAddress, uint _nftId, bool _voteValue, uint _voteAmount) public {\r\n        baseFractionToken FractionToken = baseFractionToken(storageContract.getFractionAddressFromNft(_nftAddress, _nftId));\r\n\r\n        require(isNftInProposal[_nftAddress][_nftId] == true, \"There is no proposal active for this NFT\");\r\n        require (FractionToken.balanceOf(msg.sender) <= _voteAmount, \"You don't own enough tokens\");\r\n\r\n        if (block.timestamp < proposalFinishTime[_nftAddress][_nftId]) {\r\n           \r\n            stakeTokens(FractionToken, _voteAmount);\r\n            \r\n                totalVoted[_nftAddress][_nftId] += _voteAmount;\r\n            if (_voteValue == true) {\r\n                score[_nftAddress][_nftId] += _voteAmount;\r\n            } else {\r\n                score[_nftAddress][_nftId] -= _voteAmount;\r\n            }\r\n        }\r\n\r\n        uint supply = FractionToken.totalSupply();\r\n          // percentage agree\r\n        if(totalVoted[_nftAddress][_nftId] >= supply/2) {\r\n            if (score[_nftAddress][_nftId] >= supply/2) {\r\n                startAuction(_nftAddress, _nftId, proposalFinishTime[_nftAddress][_nftId]);\r\n\r\n                isNftInProposal[_nftAddress][_nftId] = false;\r\n                proposalFinishTime[_nftAddress][_nftId] = 0;\r\n                totalVoted[_nftAddress][_nftId] = 0;\r\n                score[_nftAddress][_nftId] = 0;\r\n\r\n            } else {\r\n                isNftInProposal[_nftAddress][_nftId] = false;\r\n                proposalFinishTime[_nftAddress][_nftId] = 0;\r\n                totalVoted[_nftAddress][_nftId] = 0;\r\n                score[_nftAddress][_nftId] = 0;\r\n                proposalInitiator[_nftAddress][_nftId] = 0x000000000000000000000000000000000000dEaD;\r\n            }\r\n        }\r\n    }\r\n\r\n    function startAuction(address _nftAddress, uint _nftId, uint _auctionTime) public {\r\n        require(_auctionTime < DEFAULT_WAIT_TIME, \"Set auction time lower than max\");\r\n\r\n        auctionFinishTime[_nftAddress][_nftId] = _auctionTime;\r\n\r\n        isNftInAuction[_nftAddress][_nftId] = true;\r\n\r\n        auctionCurrentBid[_nftAddress][_nftId] = nftProposalStartPrice[_nftAddress][_nftId];\r\n        nftProposalStartPrice[_nftAddress][_nftId] = 0;\r\n\r\n        auctionCurrentLeader[_nftAddress][_nftId] = proposalInitiator[_nftAddress][_nftId];\r\n        proposalInitiator[_nftAddress][_nftId] = 0x000000000000000000000000000000000000dEaD;\r\n    }\r\n\r\n    function bidOnAuction(address _nftAddress, uint _nftId) public payable {\r\n        require(isNftInProposal[_nftAddress][_nftId] == false, \"Proposal for NFT is still active\");\r\n        require(isNftInAuction[_nftAddress][_nftId] == true, \"Auction not active for this NFT\");\r\n        require (msg.value > auctionCurrentBid[_nftAddress][_nftId], \"Your bid was less than the current bid\");\r\n        \r\n        baseFractionToken FractionToken = baseFractionToken(storageContract.getFractionAddressFromNft(_nftAddress, _nftId));\r\n\r\n        if (block.timestamp < auctionFinishTime[_nftAddress][_nftId]) { \r\n            \r\n            canWithdrawEthInContract[_nftAddress][_nftId][auctionCurrentLeader[_nftAddress][_nftId]] = true;\r\n\r\n            canWithdrawEthInContract[_nftAddress][_nftId][msg.sender] = false;\r\n            auctionCurrentLeader[_nftAddress][_nftId] = msg.sender;\r\n            auctionCurrentBid[_nftAddress][_nftId] = msg.value;\r\n            ethInContract[_nftAddress][_nftId][msg.sender] = msg.value;\r\n            \r\n        } else {\r\n            isNftInAuction[_nftAddress][_nftId] = false;\r\n            pricePerToken[FractionToken] = auctionCurrentBid[_nftAddress][_nftId] / FractionToken.totalSupply();\r\n            applyWinnings(_nftAddress, _nftId);\r\n       }\r\n    }\r\n\r\n    function applyWinnings(address _nftAddress, uint _nftId) internal {\r\n        storageContract.setIsNftChangingOwnerTrue(_nftAddress, _nftId);\r\n        storageContract.setNftOwner(_nftAddress, _nftId, auctionCurrentLeader[_nftAddress][_nftId]);\r\n        baseFractionToken FractionToken = baseFractionToken(storageContract.getFractionAddressFromNft(_nftAddress, _nftId));\r\n\r\n        FractionToken.setNoLongerFractionTokenTrue();\r\n    }\r\n\r\n    function claimFromBuyoutTokens(address FractionTokenAddress) public  {\r\n        baseFractionToken FractionToken = baseFractionToken(FractionTokenAddress);\r\n        require(FractionToken.getNoLongerFractionToken() == true, \"This token is still active as a fraction token for an NFT\");\r\n\r\n        uint balance = tokenBalances[FractionTokenAddress][msg.sender] + FractionToken.balanceOf(msg.sender);\r\n        require(balance > 0, \"You have 0 tokens\");\r\n\r\n        //contact must be approved\r\n\r\n        FractionToken.transferFrom(msg.sender, address (this), FractionToken.balanceOf(msg.sender));\r\n\r\n        FractionToken.burn(balance);\r\n        payable(msg.sender).transfer(pricePerToken[FractionToken] * balance);\r\n    }\r\n\r\n    function getAddressTokenBalance(address _fractionTokenAddress, address _user) public view returns(uint){\r\n        return tokenBalances[_fractionTokenAddress][_user];\r\n    }\r\n}\r\n\r\n",
  "sourcePath": "D:\\Libraries\\Desktop\\React\\Fractionalise NFT frontend v2 bootstrap\\contracts\\Auction.sol",
  "compiler": {
    "name": "solc",
    "version": "0.8.14+commit.80d49f37.Emscripten.clang"
  },
  "schemaVersion": "3.4.6",
  "updatedAt": "2022-06-06T17:05:58.070Z",
  "devdoc": {
    "kind": "dev",
    "methods": {},
    "version": 1
  },
  "userdoc": {
    "kind": "user",
    "methods": {},
    "version": 1
  }
}