{
  "contractName": "baseFractionToken",
  "abi": [
    {
      "inputs": [
        {
          "internalType": "contract ERC721",
          "name": "_nft",
          "type": "address"
        },
        {
          "internalType": "uint256",
          "name": "_nftId",
          "type": "uint256"
        },
        {
          "internalType": "address",
          "name": "_nftOwner",
          "type": "address"
        },
        {
          "internalType": "string",
          "name": "_tokenName",
          "type": "string"
        },
        {
          "internalType": "string",
          "name": "_tokenTicker",
          "type": "string"
        },
        {
          "internalType": "uint256",
          "name": "_supply",
          "type": "uint256"
        },
        {
          "internalType": "uint256",
          "name": "_royaltyPercentage",
          "type": "uint256"
        },
        {
          "internalType": "address",
          "name": "_storageContractAddress",
          "type": "address"
        }
      ],
      "stateMutability": "nonpayable",
      "type": "constructor"
    },
    {
      "anonymous": false,
      "inputs": [
        {
          "indexed": true,
          "internalType": "address",
          "name": "owner",
          "type": "address"
        },
        {
          "indexed": true,
          "internalType": "address",
          "name": "spender",
          "type": "address"
        },
        {
          "indexed": false,
          "internalType": "uint256",
          "name": "value",
          "type": "uint256"
        }
      ],
      "name": "Approval",
      "type": "event"
    },
    {
      "anonymous": false,
      "inputs": [
        {
          "indexed": true,
          "internalType": "address",
          "name": "from",
          "type": "address"
        },
        {
          "indexed": true,
          "internalType": "address",
          "name": "to",
          "type": "address"
        },
        {
          "indexed": false,
          "internalType": "uint256",
          "name": "value",
          "type": "uint256"
        }
      ],
      "name": "Transfer",
      "type": "event"
    },
    {
      "inputs": [
        {
          "internalType": "address",
          "name": "owner",
          "type": "address"
        },
        {
          "internalType": "address",
          "name": "spender",
          "type": "address"
        }
      ],
      "name": "allowance",
      "outputs": [
        {
          "internalType": "uint256",
          "name": "",
          "type": "uint256"
        }
      ],
      "stateMutability": "view",
      "type": "function"
    },
    {
      "inputs": [
        {
          "internalType": "address",
          "name": "spender",
          "type": "address"
        },
        {
          "internalType": "uint256",
          "name": "amount",
          "type": "uint256"
        }
      ],
      "name": "approve",
      "outputs": [
        {
          "internalType": "bool",
          "name": "",
          "type": "bool"
        }
      ],
      "stateMutability": "nonpayable",
      "type": "function"
    },
    {
      "inputs": [
        {
          "internalType": "address",
          "name": "account",
          "type": "address"
        }
      ],
      "name": "balanceOf",
      "outputs": [
        {
          "internalType": "uint256",
          "name": "",
          "type": "uint256"
        }
      ],
      "stateMutability": "view",
      "type": "function"
    },
    {
      "inputs": [
        {
          "internalType": "address",
          "name": "account",
          "type": "address"
        },
        {
          "internalType": "uint256",
          "name": "amount",
          "type": "uint256"
        }
      ],
      "name": "burnFrom",
      "outputs": [],
      "stateMutability": "nonpayable",
      "type": "function"
    },
    {
      "inputs": [],
      "name": "decimals",
      "outputs": [
        {
          "internalType": "uint8",
          "name": "",
          "type": "uint8"
        }
      ],
      "stateMutability": "view",
      "type": "function"
    },
    {
      "inputs": [
        {
          "internalType": "address",
          "name": "spender",
          "type": "address"
        },
        {
          "internalType": "uint256",
          "name": "subtractedValue",
          "type": "uint256"
        }
      ],
      "name": "decreaseAllowance",
      "outputs": [
        {
          "internalType": "bool",
          "name": "",
          "type": "bool"
        }
      ],
      "stateMutability": "nonpayable",
      "type": "function"
    },
    {
      "inputs": [
        {
          "internalType": "address",
          "name": "spender",
          "type": "address"
        },
        {
          "internalType": "uint256",
          "name": "addedValue",
          "type": "uint256"
        }
      ],
      "name": "increaseAllowance",
      "outputs": [
        {
          "internalType": "bool",
          "name": "",
          "type": "bool"
        }
      ],
      "stateMutability": "nonpayable",
      "type": "function"
    },
    {
      "inputs": [],
      "name": "name",
      "outputs": [
        {
          "internalType": "string",
          "name": "",
          "type": "string"
        }
      ],
      "stateMutability": "view",
      "type": "function"
    },
    {
      "inputs": [],
      "name": "symbol",
      "outputs": [
        {
          "internalType": "string",
          "name": "",
          "type": "string"
        }
      ],
      "stateMutability": "view",
      "type": "function"
    },
    {
      "inputs": [],
      "name": "totalSupply",
      "outputs": [
        {
          "internalType": "uint256",
          "name": "",
          "type": "uint256"
        }
      ],
      "stateMutability": "view",
      "type": "function"
    },
    {
      "inputs": [
        {
          "internalType": "address",
          "name": "to",
          "type": "address"
        },
        {
          "internalType": "uint256",
          "name": "amount",
          "type": "uint256"
        }
      ],
      "name": "transfer",
      "outputs": [
        {
          "internalType": "bool",
          "name": "",
          "type": "bool"
        }
      ],
      "stateMutability": "nonpayable",
      "type": "function"
    },
    {
      "inputs": [
        {
          "internalType": "address",
          "name": "from",
          "type": "address"
        },
        {
          "internalType": "address",
          "name": "to",
          "type": "address"
        },
        {
          "internalType": "uint256",
          "name": "amount",
          "type": "uint256"
        }
      ],
      "name": "transferFrom",
      "outputs": [
        {
          "internalType": "bool",
          "name": "",
          "type": "bool"
        }
      ],
      "stateMutability": "nonpayable",
      "type": "function"
    },
    {
      "inputs": [
        {
          "internalType": "uint256",
          "name": "amount",
          "type": "uint256"
        }
      ],
      "name": "burn",
      "outputs": [],
      "stateMutability": "nonpayable",
      "type": "function"
    },
    {
      "inputs": [],
      "name": "setNoLongerFractionTokenTrue",
      "outputs": [],
      "stateMutability": "nonpayable",
      "type": "function"
    },
    {
      "inputs": [
        {
          "internalType": "address",
          "name": "newUser",
          "type": "address"
        },
        {
          "internalType": "address",
          "name": "oldUser",
          "type": "address"
        }
      ],
      "name": "addNewUserRemoveOld",
      "outputs": [],
      "stateMutability": "nonpayable",
      "type": "function"
    },
    {
      "inputs": [
        {
          "internalType": "address",
          "name": "_newOwner",
          "type": "address"
        }
      ],
      "name": "updateNFTOwner",
      "outputs": [],
      "stateMutability": "nonpayable",
      "type": "function"
    },
    {
      "inputs": [],
      "name": "getNoLongerFractionToken",
      "outputs": [
        {
          "internalType": "bool",
          "name": "",
          "type": "bool"
        }
      ],
      "stateMutability": "view",
      "type": "function"
    },
    {
      "inputs": [],
      "name": "getNft",
      "outputs": [
        {
          "internalType": "contract ERC721",
          "name": "",
          "type": "address"
        }
      ],
      "stateMutability": "view",
      "type": "function"
    },
    {
      "inputs": [],
      "name": "getNftId",
      "outputs": [
        {
          "internalType": "uint256",
          "name": "",
          "type": "uint256"
        }
      ],
      "stateMutability": "view",
      "type": "function"
    },
    {
      "inputs": [],
      "name": "returnTokenOwners",
      "outputs": [
        {
          "internalType": "address[]",
          "name": "",
          "type": "address[]"
        }
      ],
      "stateMutability": "view",
      "type": "function"
    }
  ],
  "bytecode": "0x60806040523480156200001157600080fd5b50604051620029a5380380620029a583398181016040528101906200003791906200064f565b84848160039080519060200190620000519291906200031d565b5080600490805190602001906200006a9291906200031d565b50505087600860006101000a81548173ffffffffffffffffffffffffffffffffffffffff021916908373ffffffffffffffffffffffffffffffffffffffff1602179055508660098190555085600560006101000a81548173ffffffffffffffffffffffffffffffffffffffff021916908373ffffffffffffffffffffffffffffffffffffffff1602179055508160078190555062000131600560009054906101000a900473ffffffffffffffffffffffffffffffffffffffff16846200019b60201b60201c565b80600660006101000a81548173ffffffffffffffffffffffffffffffffffffffff021916908373ffffffffffffffffffffffffffffffffffffffff1602179055506000600b60006101000a81548160ff0219169083151502179055505050505050505050620008f7565b600073ffffffffffffffffffffffffffffffffffffffff168273ffffffffffffffffffffffffffffffffffffffff16036200020d576040517f08c379a00000000000000000000000000000000000000000000000000000000081526004016200020490620007b7565b60405180910390fd5b62000221600083836200031360201b60201c565b806002600082825462000235919062000808565b92505081905550806000808473ffffffffffffffffffffffffffffffffffffffff1673ffffffffffffffffffffffffffffffffffffffff16815260200190815260200160002060008282546200028c919062000808565b925050819055508173ffffffffffffffffffffffffffffffffffffffff16600073ffffffffffffffffffffffffffffffffffffffff167fddf252ad1be2c89b69c2b068fc378daa952ba7f163c4a11628f55a4df523b3ef83604051620002f3919062000876565b60405180910390a36200030f600083836200031860201b60201c565b5050565b505050565b505050565b8280546200032b90620008c2565b90600052602060002090601f0160209004810192826200034f57600085556200039b565b82601f106200036a57805160ff19168380011785556200039b565b828001600101855582156200039b579182015b828111156200039a5782518255916020019190600101906200037d565b5b509050620003aa9190620003ae565b5090565b5b80821115620003c9576000816000905550600101620003af565b5090565b6000604051905090565b600080fd5b600080fd5b600073ffffffffffffffffffffffffffffffffffffffff82169050919050565b60006200040e82620003e1565b9050919050565b6000620004228262000401565b9050919050565b620004348162000415565b81146200044057600080fd5b50565b600081519050620004548162000429565b92915050565b6000819050919050565b6200046f816200045a565b81146200047b57600080fd5b50565b6000815190506200048f8162000464565b92915050565b620004a08162000401565b8114620004ac57600080fd5b50565b600081519050620004c08162000495565b92915050565b600080fd5b600080fd5b6000601f19601f8301169050919050565b7f4e487b7100000000000000000000000000000000000000000000000000000000600052604160045260246000fd5b6200051b82620004d0565b810181811067ffffffffffffffff821117156200053d576200053c620004e1565b5b80604052505050565b600062000552620003cd565b905062000560828262000510565b919050565b600067ffffffffffffffff821115620005835762000582620004e1565b5b6200058e82620004d0565b9050602081019050919050565b60005b83811015620005bb5780820151818401526020810190506200059e565b83811115620005cb576000848401525b50505050565b6000620005e8620005e28462000565565b62000546565b905082815260208101848484011115620006075762000606620004cb565b5b620006148482856200059b565b509392505050565b600082601f830112620006345762000633620004c6565b5b815162000646848260208601620005d1565b91505092915050565b600080600080600080600080610100898b031215620006735762000672620003d7565b5b6000620006838b828c0162000443565b9850506020620006968b828c016200047e565b9750506040620006a98b828c01620004af565b965050606089015167ffffffffffffffff811115620006cd57620006cc620003dc565b5b620006db8b828c016200061c565b955050608089015167ffffffffffffffff811115620006ff57620006fe620003dc565b5b6200070d8b828c016200061c565b94505060a0620007208b828c016200047e565b93505060c0620007338b828c016200047e565b92505060e0620007468b828c01620004af565b9150509295985092959890939650565b600082825260208201905092915050565b7f45524332303a206d696e7420746f20746865207a65726f206164647265737300600082015250565b60006200079f601f8362000756565b9150620007ac8262000767565b602082019050919050565b60006020820190508181036000830152620007d28162000790565b9050919050565b7f4e487b7100000000000000000000000000000000000000000000000000000000600052601160045260246000fd5b600062000815826200045a565b915062000822836200045a565b9250827fffffffffffffffffffffffffffffffffffffffffffffffffffffffffffffffff038211156200085a5762000859620007d9565b5b828201905092915050565b62000870816200045a565b82525050565b60006020820190506200088d600083018462000865565b92915050565b7f4e487b7100000000000000000000000000000000000000000000000000000000600052602260045260246000fd5b60006002820490506001821680620008db57607f821691505b602082108103620008f157620008f062000893565b5b50919050565b61209e80620009076000396000f3fe608060405234801561001057600080fd5b506004361061012c5760003560e01c806370a08231116100ad57806395d89b411161007157806395d89b411461031f578063a457c2d71461033d578063a9059cbb1461036d578063ac513fb81461039d578063dd62ed3e146103bb5761012c565b806370a082311461027d57806376501221146102ad57806379cc6790146102c95780639385e55a146102e557806394ee29d9146103015761012c565b8063313ce567116100f4578063313ce567146101eb578063395093511461020957806342966c681461023957806362032bc514610255578063644c45e01461025f5761012c565b806306fdde031461013157806309323b021461014f578063095ea7b31461016d57806318160ddd1461019d57806323b872dd146101bb575b600080fd5b6101396103eb565b6040516101469190611425565b60405180910390f35b61015761047d565b6040516101649190611462565b60405180910390f35b61018760048036038101906101829190611516565b610494565b6040516101949190611462565b60405180910390f35b6101a56104b7565b6040516101b29190611565565b60405180910390f35b6101d560048036038101906101d09190611580565b6104c1565b6040516101e29190611462565b60405180910390f35b6101f3610557565b60405161020091906115ef565b60405180910390f35b610223600480360381019061021e9190611516565b610560565b6040516102309190611462565b60405180910390f35b610253600480360381019061024e919061160a565b610597565b005b61025d6105ab565b005b610267610658565b6040516102749190611565565b60405180910390f35b61029760048036038101906102929190611637565b610662565b6040516102a49190611565565b60405180910390f35b6102c760048036038101906102c29190611637565b6106aa565b005b6102e360048036038101906102de9190611516565b61077e565b005b6102ff60048036038101906102fa9190611664565b61079e565b005b6103096109fe565b6040516103169190611762565b60405180910390f35b610327610a8c565b6040516103349190611425565b60405180910390f35b61035760048036038101906103529190611516565b610b1e565b6040516103649190611462565b60405180910390f35b61038760048036038101906103829190611516565b610b95565b6040516103949190611462565b60405180910390f35b6103a5610c1f565b6040516103b291906117e3565b60405180910390f35b6103d560048036038101906103d09190611664565b610c49565b6040516103e29190611565565b60405180910390f35b6060600380546103fa9061182d565b80601f01602080910402602001604051908101604052809291908181526020018280546104269061182d565b80156104735780601f1061044857610100808354040283529160200191610473565b820191906000526020600020905b81548152906001019060200180831161045657829003601f168201915b5050505050905090565b6000600b60009054906101000a900460ff16905090565b60008061049f610cd0565b90506104ac818585610cd8565b600191505092915050565b6000600254905090565b6000806104cc610cd0565b90506104d9858285610ea1565b60006064600754856104eb919061188d565b6104f59190611916565b9050600081856105059190611947565b905061053487600560009054906101000a900473ffffffffffffffffffffffffffffffffffffffff1684610f2d565b61053f878783610f2d565b610549868861079e565b600193505050509392505050565b60006012905090565b60008061056b610cd0565b905061058c81858561057d8589610c49565b610587919061197b565b610cd8565b600191505092915050565b6105a86105a2610cd0565b826111ac565b50565b600660009054906101000a900473ffffffffffffffffffffffffffffffffffffffff1673ffffffffffffffffffffffffffffffffffffffff163373ffffffffffffffffffffffffffffffffffffffff161461063b576040517f08c379a000000000000000000000000000000000000000000000000000000000815260040161063290611a43565b60405180910390fd5b6001600b60006101000a81548160ff021916908315150217905550565b6000600954905090565b60008060008373ffffffffffffffffffffffffffffffffffffffff1673ffffffffffffffffffffffffffffffffffffffff168152602001908152602001600020549050919050565b600660009054906101000a900473ffffffffffffffffffffffffffffffffffffffff1673ffffffffffffffffffffffffffffffffffffffff163373ffffffffffffffffffffffffffffffffffffffff161461073a576040517f08c379a000000000000000000000000000000000000000000000000000000000815260040161073190611ad5565b60405180910390fd5b80600560006101000a81548173ffffffffffffffffffffffffffffffffffffffff021916908373ffffffffffffffffffffffffffffffffffffffff16021790555050565b6107908261078a610cd0565b83610ea1565b61079a82826111ac565b5050565b600a829080600181540180825580915050600190039060005260206000200160009091909190916101000a81548173ffffffffffffffffffffffffffffffffffffffff021916908373ffffffffffffffffffffffffffffffffffffffff1602179055506001600c60008473ffffffffffffffffffffffffffffffffffffffff1673ffffffffffffffffffffffffffffffffffffffff16815260200190815260200160002060006101000a81548160ff02191690831515021790555060011515600c60008373ffffffffffffffffffffffffffffffffffffffff1673ffffffffffffffffffffffffffffffffffffffff16815260200190815260200160002060009054906101000a900460ff1615151480156108c1575060006108bf82610662565b145b156109fa5760005b600a805490508110156109f8578173ffffffffffffffffffffffffffffffffffffffff16600a828154811061090157610900611af5565b5b9060005260206000200160009054906101000a900473ffffffffffffffffffffffffffffffffffffffff1673ffffffffffffffffffffffffffffffffffffffff16036109e557600a818154811061095b5761095a611af5565b5b9060005260206000200160006101000a81549073ffffffffffffffffffffffffffffffffffffffff02191690556000600c60008473ffffffffffffffffffffffffffffffffffffffff1673ffffffffffffffffffffffffffffffffffffffff16815260200190815260200160002060006101000a81548160ff0219169083151502179055506109f8565b80806109f090611b24565b9150506108c9565b505b5050565b6060600a805480602002602001604051908101604052809291908181526020018280548015610a8257602002820191906000526020600020905b8160009054906101000a900473ffffffffffffffffffffffffffffffffffffffff1673ffffffffffffffffffffffffffffffffffffffff1681526020019060010190808311610a38575b5050505050905090565b606060048054610a9b9061182d565b80601f0160208091040260200160405190810160405280929190818152602001828054610ac79061182d565b8015610b145780601f10610ae957610100808354040283529160200191610b14565b820191906000526020600020905b815481529060010190602001808311610af757829003601f168201915b5050505050905090565b600080610b29610cd0565b90506000610b378286610c49565b905083811015610b7c576040517f08c379a0000000000000000000000000000000000000000000000000000000008152600401610b7390611bde565b60405180910390fd5b610b898286868403610cd8565b60019250505092915050565b600080606460075484610ba8919061188d565b610bb29190611916565b905060008184610bc29190611947565b90506000610bce610cd0565b9050610bfd81600560009054906101000a900473ffffffffffffffffffffffffffffffffffffffff1685610f2d565b610c08818784610f2d565b610c12868261079e565b6001935050505092915050565b6000600860009054906101000a900473ffffffffffffffffffffffffffffffffffffffff16905090565b6000600160008473ffffffffffffffffffffffffffffffffffffffff1673ffffffffffffffffffffffffffffffffffffffff16815260200190815260200160002060008373ffffffffffffffffffffffffffffffffffffffff1673ffffffffffffffffffffffffffffffffffffffff16815260200190815260200160002054905092915050565b600033905090565b600073ffffffffffffffffffffffffffffffffffffffff168373ffffffffffffffffffffffffffffffffffffffff1603610d47576040517f08c379a0000000000000000000000000000000000000000000000000000000008152600401610d3e90611c70565b60405180910390fd5b600073ffffffffffffffffffffffffffffffffffffffff168273ffffffffffffffffffffffffffffffffffffffff1603610db6576040517f08c379a0000000000000000000000000000000000000000000000000000000008152600401610dad90611d02565b60405180910390fd5b80600160008573ffffffffffffffffffffffffffffffffffffffff1673ffffffffffffffffffffffffffffffffffffffff16815260200190815260200160002060008473ffffffffffffffffffffffffffffffffffffffff1673ffffffffffffffffffffffffffffffffffffffff168152602001908152602001600020819055508173ffffffffffffffffffffffffffffffffffffffff168373ffffffffffffffffffffffffffffffffffffffff167f8c5be1e5ebec7d5bd14f71427d1e84f3dd0314c0f7b2291e5b200ac8c7c3b92583604051610e949190611565565b60405180910390a3505050565b6000610ead8484610c49565b90507fffffffffffffffffffffffffffffffffffffffffffffffffffffffffffffffff8114610f275781811015610f19576040517f08c379a0000000000000000000000000000000000000000000000000000000008152600401610f1090611d6e565b60405180910390fd5b610f268484848403610cd8565b5b50505050565b600073ffffffffffffffffffffffffffffffffffffffff168373ffffffffffffffffffffffffffffffffffffffff1603610f9c576040517f08c379a0000000000000000000000000000000000000000000000000000000008152600401610f9390611e00565b60405180910390fd5b600073ffffffffffffffffffffffffffffffffffffffff168273ffffffffffffffffffffffffffffffffffffffff160361100b576040517f08c379a000000000000000000000000000000000000000000000000000000000815260040161100290611e92565b60405180910390fd5b611016838383611382565b60008060008573ffffffffffffffffffffffffffffffffffffffff1673ffffffffffffffffffffffffffffffffffffffff1681526020019081526020016000205490508181101561109c576040517f08c379a000000000000000000000000000000000000000000000000000000000815260040161109390611f24565b60405180910390fd5b8181036000808673ffffffffffffffffffffffffffffffffffffffff1673ffffffffffffffffffffffffffffffffffffffff16815260200190815260200160002081905550816000808573ffffffffffffffffffffffffffffffffffffffff1673ffffffffffffffffffffffffffffffffffffffff168152602001908152602001600020600082825461112f919061197b565b925050819055508273ffffffffffffffffffffffffffffffffffffffff168473ffffffffffffffffffffffffffffffffffffffff167fddf252ad1be2c89b69c2b068fc378daa952ba7f163c4a11628f55a4df523b3ef846040516111939190611565565b60405180910390a36111a6848484611387565b50505050565b600073ffffffffffffffffffffffffffffffffffffffff168273ffffffffffffffffffffffffffffffffffffffff160361121b576040517f08c379a000000000000000000000000000000000000000000000000000000000815260040161121290611fb6565b60405180910390fd5b61122782600083611382565b60008060008473ffffffffffffffffffffffffffffffffffffffff1673ffffffffffffffffffffffffffffffffffffffff168152602001908152602001600020549050818110156112ad576040517f08c379a00000000000000000000000000000000000000000000000000000000081526004016112a490612048565b60405180910390fd5b8181036000808573ffffffffffffffffffffffffffffffffffffffff1673ffffffffffffffffffffffffffffffffffffffff1681526020019081526020016000208190555081600260008282546113049190611947565b92505081905550600073ffffffffffffffffffffffffffffffffffffffff168373ffffffffffffffffffffffffffffffffffffffff167fddf252ad1be2c89b69c2b068fc378daa952ba7f163c4a11628f55a4df523b3ef846040516113699190611565565b60405180910390a361137d83600084611387565b505050565b505050565b505050565b600081519050919050565b600082825260208201905092915050565b60005b838110156113c65780820151818401526020810190506113ab565b838111156113d5576000848401525b50505050565b6000601f19601f8301169050919050565b60006113f78261138c565b6114018185611397565b93506114118185602086016113a8565b61141a816113db565b840191505092915050565b6000602082019050818103600083015261143f81846113ec565b905092915050565b60008115159050919050565b61145c81611447565b82525050565b60006020820190506114776000830184611453565b92915050565b600080fd5b600073ffffffffffffffffffffffffffffffffffffffff82169050919050565b60006114ad82611482565b9050919050565b6114bd816114a2565b81146114c857600080fd5b50565b6000813590506114da816114b4565b92915050565b6000819050919050565b6114f3816114e0565b81146114fe57600080fd5b50565b600081359050611510816114ea565b92915050565b6000806040838503121561152d5761152c61147d565b5b600061153b858286016114cb565b925050602061154c85828601611501565b9150509250929050565b61155f816114e0565b82525050565b600060208201905061157a6000830184611556565b92915050565b6000806000606084860312156115995761159861147d565b5b60006115a7868287016114cb565b93505060206115b8868287016114cb565b92505060406115c986828701611501565b9150509250925092565b600060ff82169050919050565b6115e9816115d3565b82525050565b600060208201905061160460008301846115e0565b92915050565b6000602082840312156116205761161f61147d565b5b600061162e84828501611501565b91505092915050565b60006020828403121561164d5761164c61147d565b5b600061165b848285016114cb565b91505092915050565b6000806040838503121561167b5761167a61147d565b5b6000611689858286016114cb565b925050602061169a858286016114cb565b9150509250929050565b600081519050919050565b600082825260208201905092915050565b6000819050602082019050919050565b6116d9816114a2565b82525050565b60006116eb83836116d0565b60208301905092915050565b6000602082019050919050565b600061170f826116a4565b61171981856116af565b9350611724836116c0565b8060005b8381101561175557815161173c88826116df565b9750611747836116f7565b925050600181019050611728565b5085935050505092915050565b6000602082019050818103600083015261177c8184611704565b905092915050565b6000819050919050565b60006117a96117a461179f84611482565b611784565b611482565b9050919050565b60006117bb8261178e565b9050919050565b60006117cd826117b0565b9050919050565b6117dd816117c2565b82525050565b60006020820190506117f860008301846117d4565b92915050565b7f4e487b7100000000000000000000000000000000000000000000000000000000600052602260045260246000fd5b6000600282049050600182168061184557607f821691505b602082108103611858576118576117fe565b5b50919050565b7f4e487b7100000000000000000000000000000000000000000000000000000000600052601160045260246000fd5b6000611898826114e0565b91506118a3836114e0565b9250817fffffffffffffffffffffffffffffffffffffffffffffffffffffffffffffffff04831182151516156118dc576118db61185e565b5b828202905092915050565b7f4e487b7100000000000000000000000000000000000000000000000000000000600052601260045260246000fd5b6000611921826114e0565b915061192c836114e0565b92508261193c5761193b6118e7565b5b828204905092915050565b6000611952826114e0565b915061195d836114e0565b9250828210156119705761196f61185e565b5b828203905092915050565b6000611986826114e0565b9150611991836114e0565b9250827fffffffffffffffffffffffffffffffffffffffffffffffffffffffffffffffff038211156119c6576119c561185e565b5b828201905092915050565b7f546869732066756e6374696f6e2063616e206f6e6c792062652063616c6c656460008201527f2066726f6d207468652073746f7261676520636f6e7472616374000000000000602082015250565b6000611a2d603a83611397565b9150611a38826119d1565b604082019050919050565b60006020820190508181036000830152611a5c81611a20565b9050919050565b7f6f6e6c792073746f7261676520636f6e74726163742063616e2075706461746560008201527f2074686973000000000000000000000000000000000000000000000000000000602082015250565b6000611abf602583611397565b9150611aca82611a63565b604082019050919050565b60006020820190508181036000830152611aee81611ab2565b9050919050565b7f4e487b7100000000000000000000000000000000000000000000000000000000600052603260045260246000fd5b6000611b2f826114e0565b91507fffffffffffffffffffffffffffffffffffffffffffffffffffffffffffffffff8203611b6157611b6061185e565b5b600182019050919050565b7f45524332303a2064656372656173656420616c6c6f77616e63652062656c6f7760008201527f207a65726f000000000000000000000000000000000000000000000000000000602082015250565b6000611bc8602583611397565b9150611bd382611b6c565b604082019050919050565b60006020820190508181036000830152611bf781611bbb565b9050919050565b7f45524332303a20617070726f76652066726f6d20746865207a65726f2061646460008201527f7265737300000000000000000000000000000000000000000000000000000000602082015250565b6000611c5a602483611397565b9150611c6582611bfe565b604082019050919050565b60006020820190508181036000830152611c8981611c4d565b9050919050565b7f45524332303a20617070726f766520746f20746865207a65726f20616464726560008201527f7373000000000000000000000000000000000000000000000000000000000000602082015250565b6000611cec602283611397565b9150611cf782611c90565b604082019050919050565b60006020820190508181036000830152611d1b81611cdf565b9050919050565b7f45524332303a20696e73756666696369656e7420616c6c6f77616e6365000000600082015250565b6000611d58601d83611397565b9150611d6382611d22565b602082019050919050565b60006020820190508181036000830152611d8781611d4b565b9050919050565b7f45524332303a207472616e736665722066726f6d20746865207a65726f20616460008201527f6472657373000000000000000000000000000000000000000000000000000000602082015250565b6000611dea602583611397565b9150611df582611d8e565b604082019050919050565b60006020820190508181036000830152611e1981611ddd565b9050919050565b7f45524332303a207472616e7366657220746f20746865207a65726f206164647260008201527f6573730000000000000000000000000000000000000000000000000000000000602082015250565b6000611e7c602383611397565b9150611e8782611e20565b604082019050919050565b60006020820190508181036000830152611eab81611e6f565b9050919050565b7f45524332303a207472616e7366657220616d6f756e742065786365656473206260008201527f616c616e63650000000000000000000000000000000000000000000000000000602082015250565b6000611f0e602683611397565b9150611f1982611eb2565b604082019050919050565b60006020820190508181036000830152611f3d81611f01565b9050919050565b7f45524332303a206275726e2066726f6d20746865207a65726f2061646472657360008201527f7300000000000000000000000000000000000000000000000000000000000000602082015250565b6000611fa0602183611397565b9150611fab82611f44565b604082019050919050565b60006020820190508181036000830152611fcf81611f93565b9050919050565b7f45524332303a206275726e20616d6f756e7420657863656564732062616c616e60008201527f6365000000000000000000000000000000000000000000000000000000000000602082015250565b6000612032602283611397565b915061203d82611fd6565b604082019050919050565b6000602082019050818103600083015261206181612025565b905091905056fea26469706673582212208a7d00a07932386d250061308045f68763543bb6351bf3ed968393b18ce4a7c364736f6c634300080e0033",
  "immutableReferences": {},
  "source": "pragma solidity 0.8.14;\r\n\r\nimport \"@openzeppelin/contracts/token/ERC20/ERC20.sol\";\r\nimport \"@openzeppelin/contracts/token/ERC20/extensions/ERC20Burnable.sol\";\r\nimport \"@openzeppelin/contracts/security/ReentrancyGuard.sol\";\r\nimport \"@openzeppelin/contracts/token/ERC721/ERC721.sol\";\r\ncontract baseFractionToken is ERC20, ERC20Burnable {\r\n    address NFTOwner;\r\n    address StorageContractAddress;\r\n    uint RoyaltyPercentage;\r\n\r\n    ERC721 Nft;\r\n    uint NftId;\r\n\r\n    address[] tokenOwners;\r\n\r\n    bool internal noLongerFractionToken;\r\n    mapping(address => bool) isHolding;\r\n\r\n    constructor(ERC721 _nft, uint _nftId, address _nftOwner, string memory _tokenName, string memory _tokenTicker, uint _supply, uint _royaltyPercentage, address _storageContractAddress) ERC20(_tokenName, _tokenTicker) {\r\n    Nft = _nft;\r\n    NftId = _nftId;\r\n    NFTOwner = _nftOwner;\r\n    RoyaltyPercentage = _royaltyPercentage;\r\n    _mint(NFTOwner, _supply);\r\n    StorageContractAddress = _storageContractAddress;\r\n    noLongerFractionToken = false;\r\n    }\r\n\r\n    function transfer(address to, uint256 amount) override public returns (bool) {\r\n        uint royaltyFee = amount * RoyaltyPercentage / 100;\r\n        uint afterRoyaltyFee = amount - royaltyFee;\r\n        \r\n        address owner = _msgSender();\r\n        //send royalty\r\n        _transfer(owner, NFTOwner, royaltyFee);\r\n        //send to new owner\r\n        _transfer(owner, to, afterRoyaltyFee);\r\n\r\n        addNewUserRemoveOld(to, owner);\r\n        \r\n        return true;\r\n    }\r\n\r\n    function transferFrom(\r\n        address from,\r\n        address to,\r\n        uint256 amount\r\n    ) public virtual override returns (bool) {\r\n        address spender = _msgSender();\r\n        _spendAllowance(from, spender, amount);\r\n\r\n        uint royaltyFee = amount * RoyaltyPercentage / 100;\r\n        uint afterRoyaltyFee = amount - royaltyFee;\r\n        //send royalty\r\n        _transfer(from, NFTOwner, royaltyFee);\r\n        //send to new owner\r\n        _transfer(from, to, afterRoyaltyFee);\r\n\r\n        addNewUserRemoveOld(to, from);\r\n\r\n        return true;\r\n    }\r\n\r\n    function burn(uint256 amount) public virtual override {\r\n        _burn(_msgSender(), amount);\r\n    }\r\n\r\n    function setNoLongerFractionTokenTrue() public {\r\n        require(msg.sender == StorageContractAddress, \"This function can only be called from the storage contract\");\r\n        noLongerFractionToken = true;\r\n    }\r\n\r\n    function addNewUserRemoveOld(address newUser, address oldUser) public{\r\n        tokenOwners.push(newUser);\r\n        isHolding[newUser] = true;\r\n\r\n        if (isHolding[oldUser] == true &&\r\n            balanceOf(oldUser) == 0 ) {\r\n            \r\n            for (uint i = 0; i < tokenOwners.length; i++) {\r\n                if (tokenOwners[i] == oldUser) {\r\n\r\n                    delete tokenOwners[i];\r\n                    isHolding[oldUser] = false;\r\n                    break;\r\n                }\r\n            }\r\n        }\r\n    }\r\n\r\n    function updateNFTOwner(address _newOwner) public {\r\n        require(msg.sender == StorageContractAddress, \"only storage contract can update this\");\r\n\r\n        NFTOwner = _newOwner;\r\n    }\r\n    \r\n    function getNoLongerFractionToken() public view returns(bool) {\r\n        return noLongerFractionToken;\r\n    }\r\n\r\n    function getNft() public view returns(ERC721) {\r\n        return Nft;\r\n    }\r\n\r\n    function getNftId() public view returns(uint) {\r\n        return NftId;\r\n    }\r\n\r\n    function returnTokenOwners() public view returns(address[] memory) {\r\n        return tokenOwners;\r\n    }\r\n}",
  "sourcePath": "D:\\Libraries\\Desktop\\React\\Fractionalise NFT frontend v2 bootstrap\\contracts\\FractionToken.sol",
  "compiler": {
    "name": "solc",
    "version": "0.8.14+commit.80d49f37.Emscripten.clang"
  },
  "schemaVersion": "3.4.6",
  "updatedAt": "2022-06-05T19:37:13.453Z",
  "devdoc": {
    "kind": "dev",
    "methods": {
      "allowance(address,address)": {
        "details": "See {IERC20-allowance}."
      },
      "approve(address,uint256)": {
        "details": "See {IERC20-approve}. NOTE: If `amount` is the maximum `uint256`, the allowance is not updated on `transferFrom`. This is semantically equivalent to an infinite approval. Requirements: - `spender` cannot be the zero address."
      },
      "balanceOf(address)": {
        "details": "See {IERC20-balanceOf}."
      },
      "burn(uint256)": {
        "details": "Destroys `amount` tokens from the caller. See {ERC20-_burn}."
      },
      "burnFrom(address,uint256)": {
        "details": "Destroys `amount` tokens from `account`, deducting from the caller's allowance. See {ERC20-_burn} and {ERC20-allowance}. Requirements: - the caller must have allowance for ``accounts``'s tokens of at least `amount`."
      },
      "decimals()": {
        "details": "Returns the number of decimals used to get its user representation. For example, if `decimals` equals `2`, a balance of `505` tokens should be displayed to a user as `5.05` (`505 / 10 ** 2`). Tokens usually opt for a value of 18, imitating the relationship between Ether and Wei. This is the value {ERC20} uses, unless this function is overridden; NOTE: This information is only used for _display_ purposes: it in no way affects any of the arithmetic of the contract, including {IERC20-balanceOf} and {IERC20-transfer}."
      },
      "decreaseAllowance(address,uint256)": {
        "details": "Atomically decreases the allowance granted to `spender` by the caller. This is an alternative to {approve} that can be used as a mitigation for problems described in {IERC20-approve}. Emits an {Approval} event indicating the updated allowance. Requirements: - `spender` cannot be the zero address. - `spender` must have allowance for the caller of at least `subtractedValue`."
      },
      "increaseAllowance(address,uint256)": {
        "details": "Atomically increases the allowance granted to `spender` by the caller. This is an alternative to {approve} that can be used as a mitigation for problems described in {IERC20-approve}. Emits an {Approval} event indicating the updated allowance. Requirements: - `spender` cannot be the zero address."
      },
      "name()": {
        "details": "Returns the name of the token."
      },
      "symbol()": {
        "details": "Returns the symbol of the token, usually a shorter version of the name."
      },
      "totalSupply()": {
        "details": "See {IERC20-totalSupply}."
      },
      "transfer(address,uint256)": {
        "details": "See {IERC20-transfer}. Requirements: - `to` cannot be the zero address. - the caller must have a balance of at least `amount`."
      },
      "transferFrom(address,address,uint256)": {
        "details": "See {IERC20-transferFrom}. Emits an {Approval} event indicating the updated allowance. This is not required by the EIP. See the note at the beginning of {ERC20}. NOTE: Does not update the allowance if the current allowance is the maximum `uint256`. Requirements: - `from` and `to` cannot be the zero address. - `from` must have a balance of at least `amount`. - the caller must have allowance for ``from``'s tokens of at least `amount`."
      }
    },
    "version": 1
  },
  "userdoc": {
    "kind": "user",
    "methods": {},
    "version": 1
  }
}