{
  "contractName": "ReclaimNftAuction",
  "abi": [
    {
      "inputs": [
        {
          "internalType": "contract baseFractionToken",
          "name": "_tokens",
          "type": "address"
        },
        {
          "internalType": "uint256",
          "name": "_amount",
          "type": "uint256"
        }
      ],
      "name": "stakeTokens",
      "outputs": [],
      "stateMutability": "nonpayable",
      "type": "function"
    },
    {
      "inputs": [
        {
          "internalType": "contract baseFractionToken",
          "name": "_tokens",
          "type": "address"
        },
        {
          "internalType": "uint256",
          "name": "_amount",
          "type": "uint256"
        }
      ],
      "name": "unstakeTokens",
      "outputs": [],
      "stateMutability": "nonpayable",
      "type": "function"
    },
    {
      "inputs": [
        {
          "internalType": "address",
          "name": "_oldOwner",
          "type": "address"
        },
        {
          "internalType": "address",
          "name": "_newOwner",
          "type": "address"
        },
        {
          "components": [
            {
              "internalType": "address",
              "name": "owner",
              "type": "address"
            },
            {
              "internalType": "address",
              "name": "NFTContractAddress",
              "type": "address"
            },
            {
              "internalType": "contract ERC721",
              "name": "NFT",
              "type": "address"
            },
            {
              "internalType": "uint256",
              "name": "supply",
              "type": "uint256"
            },
            {
              "internalType": "uint256",
              "name": "tokenId",
              "type": "uint256"
            },
            {
              "internalType": "uint256",
              "name": "depositTimestamp",
              "type": "uint256"
            },
            {
              "internalType": "address",
              "name": "fractionContractAddress",
              "type": "address"
            },
            {
              "internalType": "contract baseFractionToken",
              "name": "fractionToken",
              "type": "address"
            },
            {
              "internalType": "bool",
              "name": "hasFractionalised",
              "type": "bool"
            },
            {
              "internalType": "bool",
              "name": "canWithdraw",
              "type": "bool"
            },
            {
              "internalType": "bool",
              "name": "isChangingOwnership",
              "type": "bool"
            }
          ],
          "internalType": "struct ReclaimNftAuction.NFTDeposit",
          "name": "_nftDeposit",
          "type": "tuple"
        }
      ],
      "name": "updateNftOwner",
      "outputs": [],
      "stateMutability": "nonpayable",
      "type": "function"
    },
    {
      "inputs": [
        {
          "internalType": "address",
          "name": "_NFTContractAddress",
          "type": "address"
        },
        {
          "internalType": "uint256",
          "name": "_tokenId",
          "type": "uint256"
        }
      ],
      "name": "buyoutAllTokens",
      "outputs": [],
      "stateMutability": "nonpayable",
      "type": "function"
    },
    {
      "inputs": [
        {
          "internalType": "contract baseFractionToken",
          "name": "_token",
          "type": "address"
        },
        {
          "components": [
            {
              "internalType": "address",
              "name": "owner",
              "type": "address"
            },
            {
              "internalType": "address",
              "name": "NFTContractAddress",
              "type": "address"
            },
            {
              "internalType": "contract ERC721",
              "name": "NFT",
              "type": "address"
            },
            {
              "internalType": "uint256",
              "name": "supply",
              "type": "uint256"
            },
            {
              "internalType": "uint256",
              "name": "tokenId",
              "type": "uint256"
            },
            {
              "internalType": "uint256",
              "name": "depositTimestamp",
              "type": "uint256"
            },
            {
              "internalType": "address",
              "name": "fractionContractAddress",
              "type": "address"
            },
            {
              "internalType": "contract baseFractionToken",
              "name": "fractionToken",
              "type": "address"
            },
            {
              "internalType": "bool",
              "name": "hasFractionalised",
              "type": "bool"
            },
            {
              "internalType": "bool",
              "name": "canWithdraw",
              "type": "bool"
            },
            {
              "internalType": "bool",
              "name": "isChangingOwnership",
              "type": "bool"
            }
          ],
          "internalType": "struct ReclaimNftAuction.NFTDeposit",
          "name": "_nftDeposit",
          "type": "tuple"
        }
      ],
      "name": "startBuyoutProposal",
      "outputs": [],
      "stateMutability": "payable",
      "type": "function"
    },
    {
      "inputs": [
        {
          "components": [
            {
              "internalType": "address",
              "name": "owner",
              "type": "address"
            },
            {
              "internalType": "address",
              "name": "NFTContractAddress",
              "type": "address"
            },
            {
              "internalType": "contract ERC721",
              "name": "NFT",
              "type": "address"
            },
            {
              "internalType": "uint256",
              "name": "supply",
              "type": "uint256"
            },
            {
              "internalType": "uint256",
              "name": "tokenId",
              "type": "uint256"
            },
            {
              "internalType": "uint256",
              "name": "depositTimestamp",
              "type": "uint256"
            },
            {
              "internalType": "address",
              "name": "fractionContractAddress",
              "type": "address"
            },
            {
              "internalType": "contract baseFractionToken",
              "name": "fractionToken",
              "type": "address"
            },
            {
              "internalType": "bool",
              "name": "hasFractionalised",
              "type": "bool"
            },
            {
              "internalType": "bool",
              "name": "canWithdraw",
              "type": "bool"
            },
            {
              "internalType": "bool",
              "name": "isChangingOwnership",
              "type": "bool"
            }
          ],
          "internalType": "struct ReclaimNftAuction.NFTDeposit",
          "name": "_NFTDeposit",
          "type": "tuple"
        },
        {
          "internalType": "bool",
          "name": "_voteValue",
          "type": "bool"
        },
        {
          "internalType": "uint256",
          "name": "_voteAmount",
          "type": "uint256"
        }
      ],
      "name": "voteOnProposal",
      "outputs": [],
      "stateMutability": "nonpayable",
      "type": "function"
    },
    {
      "inputs": [
        {
          "internalType": "contract baseFractionToken",
          "name": "_token",
          "type": "address"
        },
        {
          "components": [
            {
              "internalType": "bool",
              "name": "active",
              "type": "bool"
            },
            {
              "components": [
                {
                  "internalType": "address",
                  "name": "owner",
                  "type": "address"
                },
                {
                  "internalType": "address",
                  "name": "NFTContractAddress",
                  "type": "address"
                },
                {
                  "internalType": "contract ERC721",
                  "name": "NFT",
                  "type": "address"
                },
                {
                  "internalType": "uint256",
                  "name": "supply",
                  "type": "uint256"
                },
                {
                  "internalType": "uint256",
                  "name": "tokenId",
                  "type": "uint256"
                },
                {
                  "internalType": "uint256",
                  "name": "depositTimestamp",
                  "type": "uint256"
                },
                {
                  "internalType": "address",
                  "name": "fractionContractAddress",
                  "type": "address"
                },
                {
                  "internalType": "contract baseFractionToken",
                  "name": "fractionToken",
                  "type": "address"
                },
                {
                  "internalType": "bool",
                  "name": "hasFractionalised",
                  "type": "bool"
                },
                {
                  "internalType": "bool",
                  "name": "canWithdraw",
                  "type": "bool"
                },
                {
                  "internalType": "bool",
                  "name": "isChangingOwnership",
                  "type": "bool"
                }
              ],
              "internalType": "struct ReclaimNftAuction.NFTDeposit",
              "name": "nftDeposit",
              "type": "tuple"
            },
            {
              "internalType": "address",
              "name": "proposalInitiator",
              "type": "address"
            },
            {
              "internalType": "uint256",
              "name": "id",
              "type": "uint256"
            },
            {
              "internalType": "uint256",
              "name": "buyoutPriceStart",
              "type": "uint256"
            },
            {
              "internalType": "uint256",
              "name": "totalVoted",
              "type": "uint256"
            },
            {
              "internalType": "uint256",
              "name": "totalAmountAgree",
              "type": "uint256"
            },
            {
              "internalType": "uint256",
              "name": "totalAmountDisagree",
              "type": "uint256"
            },
            {
              "internalType": "uint256",
              "name": "finishTime",
              "type": "uint256"
            }
          ],
          "internalType": "struct ReclaimNftAuction.buyoutProposal",
          "name": "proposal",
          "type": "tuple"
        }
      ],
      "name": "startBuyoutAuction",
      "outputs": [],
      "stateMutability": "nonpayable",
      "type": "function"
    },
    {
      "inputs": [
        {
          "internalType": "contract baseFractionToken",
          "name": "_token",
          "type": "address"
        },
        {
          "internalType": "bool",
          "name": "_voteValue",
          "type": "bool"
        }
      ],
      "name": "bidOnAuction",
      "outputs": [],
      "stateMutability": "payable",
      "type": "function"
    },
    {
      "inputs": [
        {
          "internalType": "contract baseFractionToken",
          "name": "_token",
          "type": "address"
        },
        {
          "internalType": "uint256",
          "name": "_amount",
          "type": "uint256"
        }
      ],
      "name": "claimFromBuyoutTokens",
      "outputs": [],
      "stateMutability": "nonpayable",
      "type": "function"
    }
  ],
  "bytecode": "0x60806040526203f480600055603260015534801561001c57600080fd5b50614a698061002c6000396000f3fe6080604052600436106100865760003560e01c8063a7525b3b11610059578063a7525b3b14610115578063b83a75e51461013e578063e0cf2b6114610167578063e89a173e14610190578063f4164f57146101b957610086565b80630de4fd491461008b5780633ac6ec99146100a757806379a83f5a146100d05780637f042b8b146100f9575b600080fd5b6100a560048036038101906100a09190613f7d565b6101e2565b005b3480156100b357600080fd5b506100ce60048036038101906100c99190613fbe565b610902565b005b3480156100dc57600080fd5b506100f760048036038101906100f29190613ffe565b610bb8565b005b610113600480360381019061010e919061403e565b610d4f565b005b34801561012157600080fd5b5061013c60048036038101906101379190613ffe565b611e50565b005b34801561014a57600080fd5b506101656004803603810190610160919061407e565b6120fb565b005b34801561017357600080fd5b5061018e600480360381019061018991906140d2565b612196565b005b34801561019c57600080fd5b506101b760048036038101906101b29190613ffe565b612ef8565b005b3480156101c557600080fd5b506101e060048036038101906101db919061420e565b613053565b005b8160001515600a60008373ffffffffffffffffffffffffffffffffffffffff1673ffffffffffffffffffffffffffffffffffffffff168152602001908152602001600020600001600a60008473ffffffffffffffffffffffffffffffffffffffff1673ffffffffffffffffffffffffffffffffffffffff16815260200190815260200160002060000180549050815481106102805761027f61424f565b5b906000526020600020906010020160000160009054906101000a900460ff161515146102e1576040517f08c379a00000000000000000000000000000000000000000000000000000000081526004016102d8906142db565b60405180910390fd5b60001515600a60008373ffffffffffffffffffffffffffffffffffffffff1673ffffffffffffffffffffffffffffffffffffffff168152602001908152602001600020600101600a60008473ffffffffffffffffffffffffffffffffffffffff1673ffffffffffffffffffffffffffffffffffffffff168152602001908152602001600020600101805490508154811061037e5761037d61424f565b5b90600052602060002090601e020160000160009054906101000a900460ff161515146103df576040517f08c379a00000000000000000000000000000000000000000000000000000000081526004016103d690614347565b60405180910390fd5b6103e7613ae3565b600054426103f59190614396565b816101000181815250503481608001818152505033816040019073ffffffffffffffffffffffffffffffffffffffff16908173ffffffffffffffffffffffffffffffffffffffff16815250506001600660003373ffffffffffffffffffffffffffffffffffffffff1673ffffffffffffffffffffffffffffffffffffffff1681526020019081526020016000206000600254815260200190815260200160002060006101000a81548160ff0219169083151502179055508373ffffffffffffffffffffffffffffffffffffffff166370a08231336040518263ffffffff1660e01b81526004016104e591906143fb565b602060405180830381865afa158015610502573d6000803e3d6000fd5b505050506040513d601f19601f82011682018060405250810190610526919061442b565b8160c001818152505060008160e00181815250508373ffffffffffffffffffffffffffffffffffffffff166370a08231336040518263ffffffff1660e01b815260040161057391906143fb565b602060405180830381865afa158015610590573d6000803e3d6000fd5b505050506040513d601f19601f820116820180604052508101906105b4919061442b565b8160a00181815250506001816000019015159081151581525050828160200181905250600254816060018181525050600a60008573ffffffffffffffffffffffffffffffffffffffff1673ffffffffffffffffffffffffffffffffffffffff16815260200190815260200160002060000181908060018154018082558091505060019003906000526020600020906010020160009091909190915060008201518160000160006101000a81548160ff02191690831515021790555060208201518160010160008201518160000160006101000a81548173ffffffffffffffffffffffffffffffffffffffff021916908373ffffffffffffffffffffffffffffffffffffffff16021790555060208201518160010160006101000a81548173ffffffffffffffffffffffffffffffffffffffff021916908373ffffffffffffffffffffffffffffffffffffffff16021790555060408201518160020160006101000a81548173ffffffffffffffffffffffffffffffffffffffff021916908373ffffffffffffffffffffffffffffffffffffffff160217905550606082015181600301556080820151816004015560a0820151816005015560c08201518160060160006101000a81548173ffffffffffffffffffffffffffffffffffffffff021916908373ffffffffffffffffffffffffffffffffffffffff16021790555060e08201518160070160006101000a81548173ffffffffffffffffffffffffffffffffffffffff021916908373ffffffffffffffffffffffffffffffffffffffff1602179055506101008201518160070160146101000a81548160ff0219169083151502179055506101208201518160070160156101000a81548160ff0219169083151502179055506101408201518160070160166101000a81548160ff021916908315150217905550505060408201518160090160006101000a81548173ffffffffffffffffffffffffffffffffffffffff021916908373ffffffffffffffffffffffffffffffffffffffff160217905550606082015181600a0155608082015181600b015560a082015181600c015560c082015181600d015560e082015181600e015561010082015181600f01555050600260008154809291906108f790614458565b919050555050505050565b600082905060005b600560003373ffffffffffffffffffffffffffffffffffffffff1673ffffffffffffffffffffffffffffffffffffffff16815260200190815260200160002060000180549050811015610bb2578173ffffffffffffffffffffffffffffffffffffffff16600560003373ffffffffffffffffffffffffffffffffffffffff1673ffffffffffffffffffffffffffffffffffffffff16815260200190815260200160002060000182815481106109c2576109c161424f565b5b906000526020600020906008020160020160009054906101000a900473ffffffffffffffffffffffffffffffffffffffff1673ffffffffffffffffffffffffffffffffffffffff16148015610a7b575082600560003373ffffffffffffffffffffffffffffffffffffffff1673ffffffffffffffffffffffffffffffffffffffff1681526020019081526020016000206000018281548110610a6757610a6661424f565b5b906000526020600020906008020160040154145b15610b9f576000600560003373ffffffffffffffffffffffffffffffffffffffff1673ffffffffffffffffffffffffffffffffffffffff1681526020019081526020016000206000018281548110610ad657610ad561424f565b5b906000526020600020906008020160070160009054906101000a900473ffffffffffffffffffffffffffffffffffffffff16905060005b8173ffffffffffffffffffffffffffffffffffffffff166394ee29d96040518163ffffffff1660e01b8152600401600060405180830381865afa158015610b58573d6000803e3d6000fd5b505050506040513d6000823e3d601f19601f82011682018060405250810190610b819190614582565b51811015610b9c578080610b9490614458565b915050610b0d565b50505b8080610baa90614458565b91505061090a565b50505050565b808273ffffffffffffffffffffffffffffffffffffffff166370a08231336040518263ffffffff1660e01b8152600401610bf291906143fb565b602060405180830381865afa158015610c0f573d6000803e3d6000fd5b505050506040513d601f19601f82011682018060405250810190610c33919061442b565b1115610c74576040517f08c379a0000000000000000000000000000000000000000000000000000000008152600401610c6b90614617565b60405180910390fd5b8173ffffffffffffffffffffffffffffffffffffffff166323b872dd3330846040518463ffffffff1660e01b8152600401610cb193929190614646565b6020604051808303816000875af1158015610cd0573d6000803e3d6000fd5b505050506040513d601f19601f82011682018060405250810190610cf49190614692565b5080600460003373ffffffffffffffffffffffffffffffffffffffff1673ffffffffffffffffffffffffffffffffffffffff1681526020019081526020016000206000828254610d449190614396565b925050819055505050565b6000600a60008473ffffffffffffffffffffffffffffffffffffffff1673ffffffffffffffffffffffffffffffffffffffff1681526020019081526020016000206000018054905090506000600a60008573ffffffffffffffffffffffffffffffffffffffff1673ffffffffffffffffffffffffffffffffffffffff168152602001908152602001600020600101805490509050600a60008573ffffffffffffffffffffffffffffffffffffffff1673ffffffffffffffffffffffffffffffffffffffff1681526020019081526020016000206001018181548110610e3757610e3661424f565b5b90600052602060002090601e0201601b01543411610e9b573373ffffffffffffffffffffffffffffffffffffffff166108fc349081150290604051600060405180830381858888f19350505050158015610e95573d6000803e3d6000fd5b50611509565b600a60008573ffffffffffffffffffffffffffffffffffffffff1673ffffffffffffffffffffffffffffffffffffffff1681526020019081526020016000206001018181548110610eef57610eee61424f565b5b90600052602060002090601e0201601c01544210156112ca5760011515600a60008673ffffffffffffffffffffffffffffffffffffffff1673ffffffffffffffffffffffffffffffffffffffff1681526020019081526020016000206001018281548110610f6057610f5f61424f565b5b90600052602060002090601e020160000160009054906101000a900460ff16151514610fc1576040517f08c379a0000000000000000000000000000000000000000000000000000000008152600401610fb89061470b565b60405180910390fd5b60001515600a60008673ffffffffffffffffffffffffffffffffffffffff1673ffffffffffffffffffffffffffffffffffffffff16815260200190815260200160002060000183815481106110195761101861424f565b5b906000526020600020906010020160000160009054906101000a900460ff1615151461107a576040517f08c379a00000000000000000000000000000000000000000000000000000000081526004016110719061479d565b60405180910390fd5b6000600a60008673ffffffffffffffffffffffffffffffffffffffff1673ffffffffffffffffffffffffffffffffffffffff16815260200190815260200160002060010182815481106110d0576110cf61424f565b5b90600052602060002090601e0201601b015490506000600a60008773ffffffffffffffffffffffffffffffffffffffff1673ffffffffffffffffffffffffffffffffffffffff168152602001908152602001600020600101838154811061113a5761113961424f565b5b90600052602060002090601e020160190160009054906101000a900473ffffffffffffffffffffffffffffffffffffffff16905034600a60008873ffffffffffffffffffffffffffffffffffffffff1673ffffffffffffffffffffffffffffffffffffffff16815260200190815260200160002060010184815481106111c3576111c261424f565b5b90600052602060002090601e0201601b018190555033600a60008873ffffffffffffffffffffffffffffffffffffffff1673ffffffffffffffffffffffffffffffffffffffff168152602001908152602001600020600101848154811061122d5761122c61424f565b5b90600052602060002090601e020160190160006101000a81548173ffffffffffffffffffffffffffffffffffffffff021916908373ffffffffffffffffffffffffffffffffffffffff1602179055508073ffffffffffffffffffffffffffffffffffffffff166108fc839081150290604051600060405180830381858888f193505050501580156112c2573d6000803e3d6000fd5b5050506113c0565b60011515600a60008673ffffffffffffffffffffffffffffffffffffffff1673ffffffffffffffffffffffffffffffffffffffff16815260200190815260200160002060010182815481106113225761132161424f565b5b90600052602060002090601e020160000160009054906101000a900460ff161515036113bf5760001515600a60008673ffffffffffffffffffffffffffffffffffffffff1673ffffffffffffffffffffffffffffffffffffffff16815260200190815260200160002060010182815481106113a05761139f61424f565b5b90600052602060002090601e020160000160009054906101000a905050505b5b8373ffffffffffffffffffffffffffffffffffffffff166318160ddd6040518163ffffffff1660e01b8152600401602060405180830381865afa15801561140b573d6000803e3d6000fd5b505050506040513d601f19601f8201168201806040525081019061142f919061442b565b600a60008673ffffffffffffffffffffffffffffffffffffffff1673ffffffffffffffffffffffffffffffffffffffff16815260200190815260200160002060010182815481106114835761148261424f565b5b90600052602060002090601e0201601b015461149f91906147ec565b600a60008673ffffffffffffffffffffffffffffffffffffffff1673ffffffffffffffffffffffffffffffffffffffff16815260200190815260200160002060010182815481106114f3576114f261424f565b5b90600052602060002090601e0201601d01819055505b611dcc600a60008673ffffffffffffffffffffffffffffffffffffffff1673ffffffffffffffffffffffffffffffffffffffff16815260200190815260200160002060010182815481106115605761155f61424f565b5b90600052602060002090601e0201604051806101000160405290816000820160009054906101000a900460ff1615151515815260200160018201604051806101600160405290816000820160009054906101000a900473ffffffffffffffffffffffffffffffffffffffff1673ffffffffffffffffffffffffffffffffffffffff1673ffffffffffffffffffffffffffffffffffffffff1681526020016001820160009054906101000a900473ffffffffffffffffffffffffffffffffffffffff1673ffffffffffffffffffffffffffffffffffffffff1673ffffffffffffffffffffffffffffffffffffffff1681526020016002820160009054906101000a900473ffffffffffffffffffffffffffffffffffffffff1673ffffffffffffffffffffffffffffffffffffffff1673ffffffffffffffffffffffffffffffffffffffff1681526020016003820154815260200160048201548152602001600582015481526020016006820160009054906101000a900473ffffffffffffffffffffffffffffffffffffffff1673ffffffffffffffffffffffffffffffffffffffff1673ffffffffffffffffffffffffffffffffffffffff1681526020016007820160009054906101000a900473ffffffffffffffffffffffffffffffffffffffff1673ffffffffffffffffffffffffffffffffffffffff1673ffffffffffffffffffffffffffffffffffffffff1681526020016007820160149054906101000a900460ff161515151581526020016007820160159054906101000a900460ff161515151581526020016007820160169054906101000a900460ff161515151581525050815260200160098201604051806101200160405290816000820160009054906101000a900460ff1615151515815260200160018201604051806101600160405290816000820160009054906101000a900473ffffffffffffffffffffffffffffffffffffffff1673ffffffffffffffffffffffffffffffffffffffff1673ffffffffffffffffffffffffffffffffffffffff1681526020016001820160009054906101000a900473ffffffffffffffffffffffffffffffffffffffff1673ffffffffffffffffffffffffffffffffffffffff1673ffffffffffffffffffffffffffffffffffffffff1681526020016002820160009054906101000a900473ffffffffffffffffffffffffffffffffffffffff1673ffffffffffffffffffffffffffffffffffffffff1673ffffffffffffffffffffffffffffffffffffffff1681526020016003820154815260200160048201548152602001600582015481526020016006820160009054906101000a900473ffffffffffffffffffffffffffffffffffffffff1673ffffffffffffffffffffffffffffffffffffffff1673ffffffffffffffffffffffffffffffffffffffff1681526020016007820160009054906101000a900473ffffffffffffffffffffffffffffffffffffffff1673ffffffffffffffffffffffffffffffffffffffff1673ffffffffffffffffffffffffffffffffffffffff1681526020016007820160149054906101000a900460ff161515151581526020016007820160159054906101000a900460ff161515151581526020016007820160169054906101000a900460ff16151515158152505081526020016009820160009054906101000a900473ffffffffffffffffffffffffffffffffffffffff1673ffffffffffffffffffffffffffffffffffffffff1673ffffffffffffffffffffffffffffffffffffffff168152602001600a8201548152602001600b8201548152602001600c8201548152602001600d8201548152602001600e8201548152602001600f8201548152505081526020016019820160009054906101000a900473ffffffffffffffffffffffffffffffffffffffff1673ffffffffffffffffffffffffffffffffffffffff1673ffffffffffffffffffffffffffffffffffffffff168152602001601a8201548152602001601b8201548152602001601c8201548152602001601d82015481525050600a60008773ffffffffffffffffffffffffffffffffffffffff1673ffffffffffffffffffffffffffffffffffffffff1681526020019081526020016000206001018381548110611b8d57611b8c61424f565b5b90600052602060002090601e0201600101604051806101600160405290816000820160009054906101000a900473ffffffffffffffffffffffffffffffffffffffff1673ffffffffffffffffffffffffffffffffffffffff1673ffffffffffffffffffffffffffffffffffffffff1681526020016001820160009054906101000a900473ffffffffffffffffffffffffffffffffffffffff1673ffffffffffffffffffffffffffffffffffffffff1673ffffffffffffffffffffffffffffffffffffffff1681526020016002820160009054906101000a900473ffffffffffffffffffffffffffffffffffffffff1673ffffffffffffffffffffffffffffffffffffffff1673ffffffffffffffffffffffffffffffffffffffff1681526020016003820154815260200160048201548152602001600582015481526020016006820160009054906101000a900473ffffffffffffffffffffffffffffffffffffffff1673ffffffffffffffffffffffffffffffffffffffff1673ffffffffffffffffffffffffffffffffffffffff1681526020016007820160009054906101000a900473ffffffffffffffffffffffffffffffffffffffff1673ffffffffffffffffffffffffffffffffffffffff1673ffffffffffffffffffffffffffffffffffffffff1681526020016007820160149054906101000a900460ff161515151581526020016007820160159054906101000a900460ff161515151581526020016007820160169054906101000a900460ff161515151581525050613a35565b6000600a60008673ffffffffffffffffffffffffffffffffffffffff1673ffffffffffffffffffffffffffffffffffffffff1681526020019081526020016000206001018281548110611e2257611e2161424f565b5b90600052602060002090601e020160000160006101000a81548160ff02191690831515021790555050505050565b6000600a60008473ffffffffffffffffffffffffffffffffffffffff1673ffffffffffffffffffffffffffffffffffffffff16815260200190815260200160002060010180549050905060001515600a60008573ffffffffffffffffffffffffffffffffffffffff1673ffffffffffffffffffffffffffffffffffffffff1681526020019081526020016000206001018281548110611ef257611ef161424f565b5b90600052602060002090601e020160000160009054906101000a900460ff16151514611f53576040517f08c379a0000000000000000000000000000000000000000000000000000000008152600401611f4a90614869565b60405180910390fd5b8273ffffffffffffffffffffffffffffffffffffffff166323b872dd3330856040518463ffffffff1660e01b8152600401611f9093929190614646565b6020604051808303816000875af1158015611faf573d6000803e3d6000fd5b505050506040513d601f19601f82011682018060405250810190611fd39190614692565b508273ffffffffffffffffffffffffffffffffffffffff166342966c68836040518263ffffffff1660e01b815260040161200d9190614889565b600060405180830381600087803b15801561202757600080fd5b505af115801561203b573d6000803e3d6000fd5b505050503373ffffffffffffffffffffffffffffffffffffffff166108fc83600a60008773ffffffffffffffffffffffffffffffffffffffff1673ffffffffffffffffffffffffffffffffffffffff16815260200190815260200160002060010184815481106120ae576120ad61424f565b5b90600052602060002090601e0201601d01546120ca91906148a4565b9081150290604051600060405180830381858888f193505050501580156120f5573d6000803e3d6000fd5b50505050565b60011515816101400151151514612147576040517f08c379a000000000000000000000000000000000000000000000000000000000815260040161213e9061494a565b60405180910390fd5b81816000019073ffffffffffffffffffffffffffffffffffffffff16908173ffffffffffffffffffffffffffffffffffffffff1681525050600081610140019015159081151581525050505050565b60008360e0015190506000600a60008373ffffffffffffffffffffffffffffffffffffffff1673ffffffffffffffffffffffffffffffffffffffff1681526020019081526020016000206000018054905090506000600a60008473ffffffffffffffffffffffffffffffffffffffff1673ffffffffffffffffffffffffffffffffffffffff1681526020019081526020016000206001018054905090506000600a60008573ffffffffffffffffffffffffffffffffffffffff1673ffffffffffffffffffffffffffffffffffffffff16815260200190815260200160002060000183815481106122895761228861424f565b5b9060005260206000209060100201600a0154905060011515600a60008673ffffffffffffffffffffffffffffffffffffffff1673ffffffffffffffffffffffffffffffffffffffff16815260200190815260200160002060000184815481106122f5576122f461424f565b5b906000526020600020906010020160000160009054906101000a900460ff16151514612356576040517f08c379a000000000000000000000000000000000000000000000000000000000815260040161234d9061470b565b60405180910390fd5b60001515600660003373ffffffffffffffffffffffffffffffffffffffff1673ffffffffffffffffffffffffffffffffffffffff168152602001908152602001600020600083815260200190815260200160002060009054906101000a900460ff161515146123fa576040517f08c379a00000000000000000000000000000000000000000000000000000000081526004016123f1906149b6565b60405180910390fd5b600a60008573ffffffffffffffffffffffffffffffffffffffff1673ffffffffffffffffffffffffffffffffffffffff168152602001908152602001600020600001838154811061244e5761244d61424f565b5b9060005260206000209060100201600f0154421015612df1576124f9600a60008673ffffffffffffffffffffffffffffffffffffffff1673ffffffffffffffffffffffffffffffffffffffff16815260200190815260200160002060000184815481106124be576124bd61424f565b5b906000526020600020906010020160010160070160009054906101000a900473ffffffffffffffffffffffffffffffffffffffff1686610bb8565b6001600660003373ffffffffffffffffffffffffffffffffffffffff1673ffffffffffffffffffffffffffffffffffffffff168152602001908152602001600020600083815260200190815260200160002060006101000a81548160ff02191690831515021790555085600760003373ffffffffffffffffffffffffffffffffffffffff1673ffffffffffffffffffffffffffffffffffffffff168152602001908152602001600020600083815260200190815260200160002060006101000a81548160ff02191690831515021790555084600a60008673ffffffffffffffffffffffffffffffffffffffff1673ffffffffffffffffffffffffffffffffffffffff168152602001908152602001600020600001848154811061261f5761261e61424f565b5b9060005260206000209060100201600c01600082825461263f9190614396565b9250508190555060011515861515036126d35784600a60008673ffffffffffffffffffffffffffffffffffffffff1673ffffffffffffffffffffffffffffffffffffffff16815260200190815260200160002060000184815481106126a7576126a661424f565b5b9060005260206000209060100201600d0160008282546126c79190614396565b92505081905550612750565b84600a60008673ffffffffffffffffffffffffffffffffffffffff1673ffffffffffffffffffffffffffffffffffffffff16815260200190815260200160002060000184815481106127285761272761424f565b5b9060005260206000209060100201600e0160008282546127489190614396565b925050819055505b6001546064600a60008773ffffffffffffffffffffffffffffffffffffffff1673ffffffffffffffffffffffffffffffffffffffff16815260200190815260200160002060000185815481106127a9576127a861424f565b5b9060005260206000209060100201600d015489606001516127ca91906148a4565b6127d491906147ec565b10612bb2576000600a60008673ffffffffffffffffffffffffffffffffffffffff1673ffffffffffffffffffffffffffffffffffffffff168152602001908152602001600020600001848154811061282f5761282e61424f565b5b906000526020600020906010020160000160006101000a81548160ff021916908315150217905550612bad84600a60008773ffffffffffffffffffffffffffffffffffffffff1673ffffffffffffffffffffffffffffffffffffffff16815260200190815260200160002060000185815481106128af576128ae61424f565b5b9060005260206000209060100201604051806101200160405290816000820160009054906101000a900460ff1615151515815260200160018201604051806101600160405290816000820160009054906101000a900473ffffffffffffffffffffffffffffffffffffffff1673ffffffffffffffffffffffffffffffffffffffff1673ffffffffffffffffffffffffffffffffffffffff1681526020016001820160009054906101000a900473ffffffffffffffffffffffffffffffffffffffff1673ffffffffffffffffffffffffffffffffffffffff1673ffffffffffffffffffffffffffffffffffffffff1681526020016002820160009054906101000a900473ffffffffffffffffffffffffffffffffffffffff1673ffffffffffffffffffffffffffffffffffffffff1673ffffffffffffffffffffffffffffffffffffffff1681526020016003820154815260200160048201548152602001600582015481526020016006820160009054906101000a900473ffffffffffffffffffffffffffffffffffffffff1673ffffffffffffffffffffffffffffffffffffffff1673ffffffffffffffffffffffffffffffffffffffff1681526020016007820160009054906101000a900473ffffffffffffffffffffffffffffffffffffffff1673ffffffffffffffffffffffffffffffffffffffff1673ffffffffffffffffffffffffffffffffffffffff1681526020016007820160149054906101000a900460ff161515151581526020016007820160159054906101000a900460ff161515151581526020016007820160169054906101000a900460ff16151515158152505081526020016009820160009054906101000a900473ffffffffffffffffffffffffffffffffffffffff1673ffffffffffffffffffffffffffffffffffffffff1673ffffffffffffffffffffffffffffffffffffffff168152602001600a8201548152602001600b8201548152602001600c8201548152602001600d8201548152602001600e8201548152602001600f82015481525050613053565b612dec565b6001546064600a60008773ffffffffffffffffffffffffffffffffffffffff1673ffffffffffffffffffffffffffffffffffffffff1681526020019081526020016000206000018581548110612c0b57612c0a61424f565b5b9060005260206000209060100201600e01548960600151612c2c91906148a4565b612c3691906147ec565b10612deb576000600a60008673ffffffffffffffffffffffffffffffffffffffff1673ffffffffffffffffffffffffffffffffffffffff1681526020019081526020016000206000018481548110612c9157612c9061424f565b5b906000526020600020906010020160000160006101000a81548160ff021916908315150217905550600a60008573ffffffffffffffffffffffffffffffffffffffff1673ffffffffffffffffffffffffffffffffffffffff1681526020019081526020016000206000018381548110612d0d57612d0c61424f565b5b906000526020600020906010020160090160009054906101000a900473ffffffffffffffffffffffffffffffffffffffff1673ffffffffffffffffffffffffffffffffffffffff166108fc600a60008773ffffffffffffffffffffffffffffffffffffffff1673ffffffffffffffffffffffffffffffffffffffff1681526020019081526020016000206000018581548110612dac57612dab61424f565b5b9060005260206000209060100201600b01549081150290604051600060405180830381858888f19350505050158015612de9573d6000803e3d6000fd5b505b5b612eef565b60011515600a60008673ffffffffffffffffffffffffffffffffffffffff1673ffffffffffffffffffffffffffffffffffffffff1681526020019081526020016000206000018481548110612e4957612e4861424f565b5b906000526020600020906010020160000160009054906101000a900460ff16151503612eee576000600a60008673ffffffffffffffffffffffffffffffffffffffff1673ffffffffffffffffffffffffffffffffffffffff1681526020019081526020016000206000018481548110612ec557612ec461424f565b5b906000526020600020906010020160000160006101000a81548160ff0219169083151502179055505b5b50505050505050565b80600460003373ffffffffffffffffffffffffffffffffffffffff1673ffffffffffffffffffffffffffffffffffffffff168152602001908152602001600020541115612f7a576040517f08c379a0000000000000000000000000000000000000000000000000000000008152600401612f7190614617565b60405180910390fd5b80600460003373ffffffffffffffffffffffffffffffffffffffff1673ffffffffffffffffffffffffffffffffffffffff1681526020019081526020016000206000828254612fc991906149d6565b925050819055508173ffffffffffffffffffffffffffffffffffffffff1663a9059cbb33836040518363ffffffff1660e01b815260040161300b929190614a0a565b6020604051808303816000875af115801561302a573d6000803e3d6000fd5b505050506040513d601f19601f8201168201806040525081019061304e9190614692565b505050565b6003600081548092919061306690614458565b91905055506000600a60008473ffffffffffffffffffffffffffffffffffffffff1673ffffffffffffffffffffffffffffffffffffffff1681526020019081526020016000206000018054905090506130bd613b4d565b600a60008573ffffffffffffffffffffffffffffffffffffffff1673ffffffffffffffffffffffffffffffffffffffff16815260200190815260200160002060000182815481106131115761311061424f565b5b9060005260206000209060100201604051806101200160405290816000820160009054906101000a900460ff1615151515815260200160018201604051806101600160405290816000820160009054906101000a900473ffffffffffffffffffffffffffffffffffffffff1673ffffffffffffffffffffffffffffffffffffffff1673ffffffffffffffffffffffffffffffffffffffff1681526020016001820160009054906101000a900473ffffffffffffffffffffffffffffffffffffffff1673ffffffffffffffffffffffffffffffffffffffff1673ffffffffffffffffffffffffffffffffffffffff1681526020016002820160009054906101000a900473ffffffffffffffffffffffffffffffffffffffff1673ffffffffffffffffffffffffffffffffffffffff1673ffffffffffffffffffffffffffffffffffffffff1681526020016003820154815260200160048201548152602001600582015481526020016006820160009054906101000a900473ffffffffffffffffffffffffffffffffffffffff1673ffffffffffffffffffffffffffffffffffffffff1673ffffffffffffffffffffffffffffffffffffffff1681526020016007820160009054906101000a900473ffffffffffffffffffffffffffffffffffffffff1673ffffffffffffffffffffffffffffffffffffffff1673ffffffffffffffffffffffffffffffffffffffff1681526020016007820160149054906101000a900460ff161515151581526020016007820160159054906101000a900460ff161515151581526020016007820160169054906101000a900460ff16151515158152505081526020016009820160009054906101000a900473ffffffffffffffffffffffffffffffffffffffff1673ffffffffffffffffffffffffffffffffffffffff1673ffffffffffffffffffffffffffffffffffffffff168152602001600a8201548152602001600b8201548152602001600c8201548152602001600d8201548152602001600e8201548152602001600f820154815250508160400181905250600054426134209190614396565b8160c00181815250508060400151608001518160a0018181525050806040015160400151816060019073ffffffffffffffffffffffffffffffffffffffff16908173ffffffffffffffffffffffffffffffffffffffff1681525050600181600001901515908115158152505082602001518160200181905250600354816080018181525050600a60008573ffffffffffffffffffffffffffffffffffffffff1673ffffffffffffffffffffffffffffffffffffffff1681526020019081526020016000206001018190806001815401808255809150506001900390600052602060002090601e020160009091909190915060008201518160000160006101000a81548160ff02191690831515021790555060208201518160010160008201518160000160006101000a81548173ffffffffffffffffffffffffffffffffffffffff021916908373ffffffffffffffffffffffffffffffffffffffff16021790555060208201518160010160006101000a81548173ffffffffffffffffffffffffffffffffffffffff021916908373ffffffffffffffffffffffffffffffffffffffff16021790555060408201518160020160006101000a81548173ffffffffffffffffffffffffffffffffffffffff021916908373ffffffffffffffffffffffffffffffffffffffff160217905550606082015181600301556080820151816004015560a0820151816005015560c08201518160060160006101000a81548173ffffffffffffffffffffffffffffffffffffffff021916908373ffffffffffffffffffffffffffffffffffffffff16021790555060e08201518160070160006101000a81548173ffffffffffffffffffffffffffffffffffffffff021916908373ffffffffffffffffffffffffffffffffffffffff1602179055506101008201518160070160146101000a81548160ff0219169083151502179055506101208201518160070160156101000a81548160ff0219169083151502179055506101408201518160070160166101000a81548160ff021916908315150217905550505060408201518160090160008201518160000160006101000a81548160ff02191690831515021790555060208201518160010160008201518160000160006101000a81548173ffffffffffffffffffffffffffffffffffffffff021916908373ffffffffffffffffffffffffffffffffffffffff16021790555060208201518160010160006101000a81548173ffffffffffffffffffffffffffffffffffffffff021916908373ffffffffffffffffffffffffffffffffffffffff16021790555060408201518160020160006101000a81548173ffffffffffffffffffffffffffffffffffffffff021916908373ffffffffffffffffffffffffffffffffffffffff160217905550606082015181600301556080820151816004015560a0820151816005015560c08201518160060160006101000a81548173ffffffffffffffffffffffffffffffffffffffff021916908373ffffffffffffffffffffffffffffffffffffffff16021790555060e08201518160070160006101000a81548173ffffffffffffffffffffffffffffffffffffffff021916908373ffffffffffffffffffffffffffffffffffffffff1602179055506101008201518160070160146101000a81548160ff0219169083151502179055506101208201518160070160156101000a81548160ff0219169083151502179055506101408201518160070160166101000a81548160ff021916908315150217905550505060408201518160090160006101000a81548173ffffffffffffffffffffffffffffffffffffffff021916908373ffffffffffffffffffffffffffffffffffffffff160217905550606082015181600a0155608082015181600b015560a082015181600c015560c082015181600d015560e082015181600e015561010082015181600f0155505060608201518160190160006101000a81548173ffffffffffffffffffffffffffffffffffffffff021916908373ffffffffffffffffffffffffffffffffffffffff160217905550608082015181601a015560a082015181601b015560c082015181601c015560e082015181601d0155505050505050565b600181610140019015159081151581525050613a5a81600001518360600151836120fb565b6000816101400190151590811515815250508060e0015173ffffffffffffffffffffffffffffffffffffffff16637650122183606001516040518263ffffffff1660e01b8152600401613aad91906143fb565b600060405180830381600087803b158015613ac757600080fd5b505af1158015613adb573d6000803e3d6000fd5b505050505050565b604051806101200160405280600015158152602001613b00613bb6565b8152602001600073ffffffffffffffffffffffffffffffffffffffff1681526020016000815260200160008152602001600081526020016000815260200160008152602001600081525090565b604051806101000160405280600015158152602001613b6a613bb6565b8152602001613b77613ae3565b8152602001600073ffffffffffffffffffffffffffffffffffffffff168152602001600081526020016000815260200160008152602001600081525090565b604051806101600160405280600073ffffffffffffffffffffffffffffffffffffffff168152602001600073ffffffffffffffffffffffffffffffffffffffff168152602001600073ffffffffffffffffffffffffffffffffffffffff168152602001600081526020016000815260200160008152602001600073ffffffffffffffffffffffffffffffffffffffff168152602001600073ffffffffffffffffffffffffffffffffffffffff1681526020016000151581526020016000151581526020016000151581525090565b6000604051905090565b600080fd5b600080fd5b600073ffffffffffffffffffffffffffffffffffffffff82169050919050565b6000613cc382613c98565b9050919050565b6000613cd582613cb8565b9050919050565b613ce581613cca565b8114613cf057600080fd5b50565b600081359050613d0281613cdc565b92915050565b600080fd5b6000601f19601f8301169050919050565b7f4e487b7100000000000000000000000000000000000000000000000000000000600052604160045260246000fd5b613d5682613d0d565b810181811067ffffffffffffffff82111715613d7557613d74613d1e565b5b80604052505050565b6000613d88613c84565b9050613d948282613d4d565b919050565b613da281613cb8565b8114613dad57600080fd5b50565b600081359050613dbf81613d99565b92915050565b6000613dd082613cb8565b9050919050565b613de081613dc5565b8114613deb57600080fd5b50565b600081359050613dfd81613dd7565b92915050565b6000819050919050565b613e1681613e03565b8114613e2157600080fd5b50565b600081359050613e3381613e0d565b92915050565b60008115159050919050565b613e4e81613e39565b8114613e5957600080fd5b50565b600081359050613e6b81613e45565b92915050565b60006101608284031215613e8857613e87613d08565b5b613e93610160613d7e565b90506000613ea384828501613db0565b6000830152506020613eb784828501613db0565b6020830152506040613ecb84828501613dee565b6040830152506060613edf84828501613e24565b6060830152506080613ef384828501613e24565b60808301525060a0613f0784828501613e24565b60a08301525060c0613f1b84828501613db0565b60c08301525060e0613f2f84828501613cf3565b60e083015250610100613f4484828501613e5c565b61010083015250610120613f5a84828501613e5c565b61012083015250610140613f7084828501613e5c565b6101408301525092915050565b6000806101808385031215613f9557613f94613c8e565b5b6000613fa385828601613cf3565b9250506020613fb485828601613e71565b9150509250929050565b60008060408385031215613fd557613fd4613c8e565b5b6000613fe385828601613db0565b9250506020613ff485828601613e24565b9150509250929050565b6000806040838503121561401557614014613c8e565b5b600061402385828601613cf3565b925050602061403485828601613e24565b9150509250929050565b6000806040838503121561405557614054613c8e565b5b600061406385828601613cf3565b925050602061407485828601613e5c565b9150509250929050565b60008060006101a0848603121561409857614097613c8e565b5b60006140a686828701613db0565b93505060206140b786828701613db0565b92505060406140c886828701613e71565b9150509250925092565b60008060006101a084860312156140ec576140eb613c8e565b5b60006140fa86828701613e71565b93505061016061410c86828701613e5c565b92505061018061411e86828701613e24565b9150509250925092565b6000610260828403121561413f5761413e613d08565b5b61414a610120613d7e565b9050600061415a84828501613e5c565b600083015250602061416e84828501613e71565b60208301525061018061418384828501613db0565b6040830152506101a061419884828501613e24565b6060830152506101c06141ad84828501613e24565b6080830152506101e06141c284828501613e24565b60a0830152506102006141d784828501613e24565b60c0830152506102206141ec84828501613e24565b60e08301525061024061420184828501613e24565b6101008301525092915050565b600080610280838503121561422657614225613c8e565b5b600061423485828601613cf3565b925050602061424585828601614128565b9150509250929050565b7f4e487b7100000000000000000000000000000000000000000000000000000000600052603260045260246000fd5b600082825260208201905092915050565b7f546f6b656e20616c726561647920696e2070726f706f73616c00000000000000600082015250565b60006142c560198361427e565b91506142d08261428f565b602082019050919050565b600060208201905081810360008301526142f4816142b8565b9050919050565b7f546f6b656e20616c726561647920696e2061756374696f6e0000000000000000600082015250565b600061433160188361427e565b915061433c826142fb565b602082019050919050565b6000602082019050818103600083015261436081614324565b9050919050565b7f4e487b7100000000000000000000000000000000000000000000000000000000600052601160045260246000fd5b60006143a182613e03565b91506143ac83613e03565b9250827fffffffffffffffffffffffffffffffffffffffffffffffffffffffffffffffff038211156143e1576143e0614367565b5b828201905092915050565b6143f581613cb8565b82525050565b600060208201905061441060008301846143ec565b92915050565b60008151905061442581613e0d565b92915050565b60006020828403121561444157614440613c8e565b5b600061444f84828501614416565b91505092915050565b600061446382613e03565b91507fffffffffffffffffffffffffffffffffffffffffffffffffffffffffffffffff820361449557614494614367565b5b600182019050919050565b600080fd5b600067ffffffffffffffff8211156144c0576144bf613d1e565b5b602082029050602081019050919050565b600080fd5b6000815190506144e581613d99565b92915050565b60006144fe6144f9846144a5565b613d7e565b90508083825260208201905060208402830185811115614521576145206144d1565b5b835b8181101561454a578061453688826144d6565b845260208401935050602081019050614523565b5050509392505050565b600082601f830112614569576145686144a0565b5b81516145798482602086016144eb565b91505092915050565b60006020828403121561459857614597613c8e565b5b600082015167ffffffffffffffff8111156145b6576145b5613c93565b5b6145c284828501614554565b91505092915050565b7f796f7520646f6e74206861766520656e6f75676820746f6b656e730000000000600082015250565b6000614601601b8361427e565b915061460c826145cb565b602082019050919050565b60006020820190508181036000830152614630816145f4565b9050919050565b61464081613e03565b82525050565b600060608201905061465b60008301866143ec565b61466860208301856143ec565b6146756040830184614637565b949350505050565b60008151905061468c81613e45565b92915050565b6000602082840312156146a8576146a7613c8e565b5b60006146b68482850161467d565b91505092915050565b7f70726f706f73616c206973206e6f742061637469766500000000000000000000600082015250565b60006146f560168361427e565b9150614700826146bf565b602082019050919050565b60006020820190508181036000830152614724816146e8565b9050919050565b7f7468697320746f6b656e206e6565647320746f206c656176652074686520707260008201527f6f706f73616c2066697273740000000000000000000000000000000000000000602082015250565b6000614787602c8361427e565b91506147928261472b565b604082019050919050565b600060208201905081810360008301526147b68161477a565b9050919050565b7f4e487b7100000000000000000000000000000000000000000000000000000000600052601260045260246000fd5b60006147f782613e03565b915061480283613e03565b925082614812576148116147bd565b5b828204905092915050565b7f61756374696f6e207374696c6c20616374697665000000000000000000000000600082015250565b600061485360148361427e565b915061485e8261481d565b602082019050919050565b6000602082019050818103600083015261488281614846565b9050919050565b600060208201905061489e6000830184614637565b92915050565b60006148af82613e03565b91506148ba83613e03565b9250817fffffffffffffffffffffffffffffffffffffffffffffffffffffffffffffffff04831182151516156148f3576148f2614367565b5b828202905092915050565b7f4e4654206973206e6f74206368616e67696e67206f776e657273686970000000600082015250565b6000614934601d8361427e565b915061493f826148fe565b602082019050919050565b6000602082019050818103600083015261496381614927565b9050919050565b7f7468697320757365722068617320616c726561647920766f7465640000000000600082015250565b60006149a0601b8361427e565b91506149ab8261496a565b602082019050919050565b600060208201905081810360008301526149cf81614993565b9050919050565b60006149e182613e03565b91506149ec83613e03565b9250828210156149ff576149fe614367565b5b828203905092915050565b6000604082019050614a1f60008301856143ec565b614a2c6020830184614637565b939250505056fea2646970667358221220a37c4e6b89107038db8e50dcba112c0f32dbf63ad5ecc5ae0d3825b54297f15764736f6c634300080e0033",
  "immutableReferences": {},
  "source": "//UNDER DEVELOPNMENT\r\npragma solidity 0.8.14;\r\n\r\nimport './FractionToken.sol';\r\nimport './MainContract.sol';\r\n\r\ncontract ReclaimNftAuction {\r\n    uint DEFAULT_WAIT_TIME = 259200; // 3 days;\r\n    uint DEFAULT_PROPOSAL_TO_PASS = 50; //50%\r\n\r\n    uint currentLastProposalId;\r\n    uint currentLastAuctionId;\r\n\r\n    mapping(address => uint) tokenBalances;\r\n\r\n    struct allVotingInfo {\r\n        buyoutProposal[] proposals;\r\n        buyoutAuction[] auctions;\r\n    }\r\n\r\n    struct NFTDeposit {\r\n        address owner;\r\n        address NFTContractAddress;\r\n        ERC721 NFT;\r\n        uint256 supply;\r\n        uint256 tokenId;\r\n        uint256 depositTimestamp;\r\n        address fractionContractAddress;\r\n        baseFractionToken fractionToken;\r\n        bool hasFractionalised;\r\n        bool canWithdraw;\r\n        bool isChangingOwnership;\r\n    }\r\n\r\n    struct buyoutProposal {\r\n        bool active;\r\n\r\n        NFTDeposit nftDeposit;\r\n\r\n        address proposalInitiator;\r\n\r\n        uint id;\r\n        uint buyoutPriceStart;\r\n        uint totalVoted;\r\n        uint totalAmountAgree;\r\n        uint totalAmountDisagree;\r\n        uint finishTime;\r\n    }\r\n\r\n    struct buyoutAuction {\r\n        bool active;\r\n\r\n        NFTDeposit nftDeposit;\r\n\r\n        buyoutProposal initialProposal;\r\n        \r\n        address currentBidLeader;\r\n\r\n        uint id;\r\n        uint currentBid;\r\n        uint finishTime;\r\n        uint pricePerToken;\r\n    }\r\n        \r\n    struct CurrentDepositedNFTs {\r\n        NFTDeposit[] deposits;\r\n    }\r\n    mapping(address => CurrentDepositedNFTs) nftDeposits;\r\n\r\n    mapping (address => mapping(uint => bool)) hasVotedInProposal;\r\n    mapping (address => mapping(uint  => bool)) voteValueInProposal;\r\n    mapping (address => mapping(uint => bool)) hasVotedInAuction;\r\n    mapping (address => mapping(uint => bool)) voteValueInAuction;\r\n\r\n    mapping(baseFractionToken => allVotingInfo) AllVotingInfo;\r\n\r\n    modifier isProposalOrAuctionNotActive(baseFractionToken token) {\r\n        require(AllVotingInfo[token].proposals[AllVotingInfo[token].proposals.length].active == false, \"Token already in proposal\");\r\n        require(AllVotingInfo[token].auctions[AllVotingInfo[token].auctions.length].active == false, \"Token already in auction\");\r\n        _;\r\n    }\r\n\r\n    function stakeTokens(baseFractionToken _tokens, uint _amount) public {\r\n        require(_tokens.balanceOf(msg.sender) <= _amount, \"you dont have enough tokens\");\r\n\r\n        //user needs to approve first\r\n\r\n        _tokens.transferFrom(msg.sender, address(this), _amount);\r\n        tokenBalances[msg.sender] += _amount;\r\n    }\r\n\r\n    function unstakeTokens(baseFractionToken _tokens, uint _amount) public {\r\n        require(tokenBalances[msg.sender] <= _amount, \"you dont have enough tokens\");\r\n\r\n        tokenBalances[msg.sender] -= _amount;\r\n        _tokens.transfer(msg.sender, _amount);\r\n    }\r\n\r\n    function updateNftOwner(address _oldOwner, address _newOwner, NFTDeposit memory _nftDeposit) public {\r\n        require(_nftDeposit.isChangingOwnership == true, \"NFT is not changing ownership\");\r\n        _nftDeposit.owner = _newOwner;\r\n        _nftDeposit.isChangingOwnership = false;\r\n    }\r\n\r\n    function buyoutAllTokens(address _NFTContractAddress, uint256 _tokenId) public {\r\n        ERC721 NFTContract = ERC721(_NFTContractAddress);\r\n\r\n       //access tokens\r\n        for (uint256 i = 0; i < nftDeposits[msg.sender].deposits.length; i++) {\r\n            if (nftDeposits[msg.sender].deposits[i].NFT == NFTContract && \r\n                nftDeposits[msg.sender].deposits[i].tokenId == _tokenId) {\r\n\r\n                    baseFractionToken nftFraction = nftDeposits[msg.sender].deposits[i].fractionToken;\r\n                    for (uint j = 0; j < nftFraction.returnTokenOwners().length; j++) {\r\n\r\n                    }\r\n                }\r\n            }\r\n    }\r\n\r\n    function startBuyoutProposal(baseFractionToken _token, NFTDeposit memory _nftDeposit) isProposalOrAuctionNotActive(_token) public payable{\r\n        buyoutProposal memory newProposal; \r\n        \r\n        newProposal.finishTime = block.timestamp + DEFAULT_WAIT_TIME;\r\n        newProposal.buyoutPriceStart = msg.value;\r\n        newProposal.proposalInitiator = msg.sender;\r\n        hasVotedInProposal[msg.sender][currentLastProposalId] = true;\r\n        newProposal.totalAmountAgree = _token.balanceOf(msg.sender);\r\n        newProposal.totalAmountDisagree = 0;\r\n        newProposal.totalVoted = _token.balanceOf(msg.sender);\r\n        newProposal.active = true;\r\n        newProposal.nftDeposit = _nftDeposit;\r\n        newProposal.id = currentLastProposalId; \r\n        AllVotingInfo[_token].proposals.push(newProposal);\r\n        currentLastProposalId++;\r\n    }\r\n\r\n    function voteOnProposal(NFTDeposit memory _NFTDeposit, bool _voteValue, uint _voteAmount) public {\r\n        baseFractionToken Token = _NFTDeposit.fractionToken;\r\n        uint latestProposal = AllVotingInfo[Token].proposals.length;\r\n        uint latestAuction = AllVotingInfo[Token].auctions.length;\r\n\r\n        uint id = AllVotingInfo[Token].proposals[latestProposal].id;\r\n\r\n        require (AllVotingInfo[Token].proposals[latestProposal].active == true, \"proposal is not active\");\r\n        require (hasVotedInProposal[msg.sender][id] == false, \"this user has already voted\");\r\n\r\n       if (block.timestamp < AllVotingInfo[Token].proposals[latestProposal].finishTime) {\r\n           stakeTokens(AllVotingInfo[Token].proposals[latestProposal].nftDeposit.fractionToken, _voteAmount);\r\n           hasVotedInProposal[msg.sender][id] = true;\r\n           voteValueInProposal[msg.sender][id] = _voteValue;\r\n\r\n           AllVotingInfo[Token].proposals[latestProposal].totalVoted += _voteAmount;\r\n\r\n           if (_voteValue == true) {\r\n               AllVotingInfo[Token].proposals[latestProposal].totalAmountAgree += _voteAmount;\r\n           } else {\r\n               AllVotingInfo[Token].proposals[latestProposal].totalAmountDisagree += _voteAmount;\r\n           }\r\n\r\n           // percentage agree\r\n           if(_NFTDeposit.supply * AllVotingInfo[Token].proposals[latestProposal].totalAmountAgree / 100 \r\n               >= DEFAULT_PROPOSAL_TO_PASS) {\r\n               AllVotingInfo[Token].proposals[latestProposal].active = false;\r\n               startBuyoutAuction(Token, AllVotingInfo[Token].proposals[latestProposal]);\r\n           }\r\n           //percentage disagree\r\n           else if (_NFTDeposit.supply * AllVotingInfo[Token].proposals[latestProposal].totalAmountDisagree / 100 \r\n                   >= DEFAULT_PROPOSAL_TO_PASS) {\r\n                   AllVotingInfo[Token].proposals[latestProposal].active = false;\r\n                   payable(AllVotingInfo[Token].proposals[latestProposal].proposalInitiator).transfer(AllVotingInfo[Token].proposals[latestProposal].buyoutPriceStart);\r\n\r\n           }\r\n       } else {\r\n           if (AllVotingInfo[Token].proposals[latestProposal].active == true) {\r\n               AllVotingInfo[Token].proposals[latestProposal].active = false;\r\n           }\r\n       }\r\n    }\r\n\r\n    function startBuyoutAuction(baseFractionToken _token, buyoutProposal memory proposal) public {\r\n        currentLastAuctionId++;\r\n        uint latestProposal = AllVotingInfo[_token].proposals.length;\r\n\r\n        buyoutAuction memory newAuction;\r\n        newAuction.initialProposal = AllVotingInfo[_token].proposals[latestProposal];\r\n        newAuction.finishTime = block.timestamp + DEFAULT_WAIT_TIME;\r\n        newAuction.currentBid = newAuction.initialProposal.buyoutPriceStart;\r\n        newAuction.currentBidLeader = newAuction.initialProposal.proposalInitiator;\r\n        newAuction.active = true;\r\n        newAuction.nftDeposit = proposal.nftDeposit;\r\n        newAuction.id = currentLastAuctionId;\r\n\r\n        AllVotingInfo[_token].auctions.push(newAuction);\r\n    }\r\n\r\n    function bidOnAuction(baseFractionToken _token, bool _voteValue) public payable{\r\n        uint latestProposal = AllVotingInfo[_token].proposals.length;\r\n        uint latestAuction = AllVotingInfo[_token].auctions.length;\r\n\r\n        if (msg.value <= AllVotingInfo[_token].auctions[latestAuction].currentBid) {\r\n            payable(msg.sender).transfer(msg.value);\r\n        } else { \r\n\r\n            if (block.timestamp < AllVotingInfo[_token].auctions[latestAuction].finishTime) { \r\n\r\n            require (AllVotingInfo[_token].auctions[latestAuction].active == true, \"proposal is not active\");\r\n            require (AllVotingInfo[_token].proposals[latestProposal].active == false, \"this token needs to leave the proposal first\");\r\n\r\n            uint oldBid = AllVotingInfo[_token].auctions[latestAuction].currentBid;\r\n            address oldLeader = AllVotingInfo[_token].auctions[latestAuction].currentBidLeader;\r\n            AllVotingInfo[_token].auctions[latestAuction].currentBid = msg.value;\r\n            AllVotingInfo[_token].auctions[latestAuction].currentBidLeader = msg.sender;\r\n            payable(oldLeader).transfer(oldBid);\r\n\r\n            } else if (AllVotingInfo[_token].auctions[latestAuction].active == true) {\r\n                AllVotingInfo[_token].auctions[latestAuction].active == false;\r\n            }\r\n\r\n            AllVotingInfo[_token].auctions[latestAuction].pricePerToken = AllVotingInfo[_token].auctions[latestAuction].currentBid / _token.totalSupply();\r\n            }\r\n\r\n            determineAuctionWinner(AllVotingInfo[_token].auctions[latestAuction], AllVotingInfo[_token].auctions[latestAuction].nftDeposit);\r\n            AllVotingInfo[_token].auctions[latestAuction].active = false; \r\n    }\r\n\r\n    function determineAuctionWinner(buyoutAuction memory _auction, NFTDeposit memory _nftDeposit) private {\r\n        _nftDeposit.isChangingOwnership = true;\r\n        updateNftOwner(_nftDeposit.owner, _auction.currentBidLeader, _nftDeposit);\r\n        _nftDeposit.isChangingOwnership = false;\r\n\r\n        _nftDeposit.fractionToken.updateNFTOwner(_auction.currentBidLeader);\r\n    }\r\n\r\n    //add non reentract modifier\r\n    function claimFromBuyoutTokens(baseFractionToken _token, uint _amount) public  {\r\n        uint latestAuction = AllVotingInfo[_token].auctions.length;\r\n\r\n        require(AllVotingInfo[_token].auctions[latestAuction].active == false, \"auction still active\");\r\n\r\n        _token.transferFrom(msg.sender, address(this), _amount);\r\n        _token.burn(_amount);\r\n        payable(msg.sender).transfer(AllVotingInfo[_token].auctions[latestAuction].pricePerToken * _amount);\r\n    }\r\n}\r\n\r\n",
  "sourcePath": "D:\\Libraries\\Desktop\\React\\Fractionalise NFT frontend v2 bootstrap\\contracts\\ReclaimNftAuction.sol",
  "compiler": {
    "name": "solc",
    "version": "0.8.14+commit.80d49f37.Emscripten.clang"
  },
  "schemaVersion": "3.4.6",
  "updatedAt": "2022-06-03T19:02:04.281Z",
  "devdoc": {
    "kind": "dev",
    "methods": {},
    "version": 1
  },
  "userdoc": {
    "kind": "user",
    "methods": {},
    "version": 1
  }
}