{
  "contractName": "Storage",
  "abi": [
    {
      "inputs": [],
      "stateMutability": "nonpayable",
      "type": "constructor"
    },
    {
      "inputs": [
        {
          "internalType": "address",
          "name": "_nftAddress",
          "type": "address"
        },
        {
          "internalType": "uint256",
          "name": "_nftId",
          "type": "uint256"
        },
        {
          "internalType": "address",
          "name": "newOwner",
          "type": "address"
        }
      ],
      "name": "setNftOwner",
      "outputs": [],
      "stateMutability": "nonpayable",
      "type": "function"
    },
    {
      "inputs": [
        {
          "internalType": "address",
          "name": "_nftAddress",
          "type": "address"
        },
        {
          "internalType": "uint256",
          "name": "_nftId",
          "type": "uint256"
        }
      ],
      "name": "isNftActive",
      "outputs": [
        {
          "internalType": "bool",
          "name": "",
          "type": "bool"
        }
      ],
      "stateMutability": "view",
      "type": "function"
    },
    {
      "inputs": [
        {
          "internalType": "address",
          "name": "_nftAddress",
          "type": "address"
        },
        {
          "internalType": "uint256",
          "name": "_nftId",
          "type": "uint256"
        }
      ],
      "name": "depositNft",
      "outputs": [],
      "stateMutability": "nonpayable",
      "type": "function"
    },
    {
      "inputs": [
        {
          "internalType": "address",
          "name": "_nftAddress",
          "type": "address"
        },
        {
          "internalType": "uint256",
          "name": "_nftId",
          "type": "uint256"
        },
        {
          "internalType": "string",
          "name": "_tokenName",
          "type": "string"
        },
        {
          "internalType": "string",
          "name": "_tokenTicker",
          "type": "string"
        },
        {
          "internalType": "uint256",
          "name": "_supply",
          "type": "uint256"
        },
        {
          "internalType": "uint256",
          "name": "_royaltyPercentage",
          "type": "uint256"
        }
      ],
      "name": "createFraction",
      "outputs": [],
      "stateMutability": "nonpayable",
      "type": "function"
    },
    {
      "inputs": [
        {
          "internalType": "address",
          "name": "_nftAddress",
          "type": "address"
        },
        {
          "internalType": "uint256",
          "name": "_nftId",
          "type": "uint256"
        }
      ],
      "name": "withdrawNft",
      "outputs": [],
      "stateMutability": "nonpayable",
      "type": "function"
    },
    {
      "inputs": [
        {
          "internalType": "address",
          "name": "_nftAddress",
          "type": "address"
        },
        {
          "internalType": "uint256",
          "name": "_nftId",
          "type": "uint256"
        }
      ],
      "name": "getNftOwner",
      "outputs": [
        {
          "internalType": "address",
          "name": "",
          "type": "address"
        }
      ],
      "stateMutability": "view",
      "type": "function"
    },
    {
      "inputs": [
        {
          "internalType": "address",
          "name": "_nftAddress",
          "type": "address"
        },
        {
          "internalType": "uint256",
          "name": "_nftId",
          "type": "uint256"
        }
      ],
      "name": "getIsChangingNftOwner",
      "outputs": [
        {
          "internalType": "bool",
          "name": "",
          "type": "bool"
        }
      ],
      "stateMutability": "view",
      "type": "function"
    },
    {
      "inputs": [
        {
          "internalType": "address",
          "name": "_nftAddress",
          "type": "address"
        },
        {
          "internalType": "uint256",
          "name": "_nftId",
          "type": "uint256"
        }
      ],
      "name": "getFractionAddressFromNft",
      "outputs": [
        {
          "internalType": "address",
          "name": "",
          "type": "address"
        }
      ],
      "stateMutability": "view",
      "type": "function"
    },
    {
      "inputs": [
        {
          "internalType": "contract baseFractionToken",
          "name": "_fractionToken",
          "type": "address"
        }
      ],
      "name": "getNftIdFromFraction",
      "outputs": [
        {
          "internalType": "uint256",
          "name": "",
          "type": "uint256"
        }
      ],
      "stateMutability": "view",
      "type": "function"
    },
    {
      "inputs": [
        {
          "internalType": "contract baseFractionToken",
          "name": "_fractionToken",
          "type": "address"
        }
      ],
      "name": "getNftAddressFromFraction",
      "outputs": [
        {
          "internalType": "address",
          "name": "",
          "type": "address"
        }
      ],
      "stateMutability": "view",
      "type": "function"
    },
    {
      "inputs": [
        {
          "internalType": "address",
          "name": "_nftAddress",
          "type": "address"
        },
        {
          "internalType": "uint256",
          "name": "_nftId",
          "type": "uint256"
        }
      ],
      "name": "getIsNftDeposited",
      "outputs": [
        {
          "internalType": "bool",
          "name": "",
          "type": "bool"
        }
      ],
      "stateMutability": "view",
      "type": "function"
    },
    {
      "inputs": [
        {
          "internalType": "address",
          "name": "_nftAddress",
          "type": "address"
        },
        {
          "internalType": "uint256",
          "name": "_nftId",
          "type": "uint256"
        }
      ],
      "name": "getIsNftFractionalised",
      "outputs": [
        {
          "internalType": "bool",
          "name": "",
          "type": "bool"
        }
      ],
      "stateMutability": "view",
      "type": "function"
    },
    {
      "inputs": [
        {
          "internalType": "address",
          "name": "_nftAddress",
          "type": "address"
        },
        {
          "internalType": "uint256",
          "name": "_nftId",
          "type": "uint256"
        }
      ],
      "name": "setIsNftChangingOwnerTrue",
      "outputs": [],
      "stateMutability": "nonpayable",
      "type": "function"
    },
    {
      "inputs": [
        {
          "internalType": "address",
          "name": "",
          "type": "address"
        },
        {
          "internalType": "address",
          "name": "from",
          "type": "address"
        },
        {
          "internalType": "uint256",
          "name": "",
          "type": "uint256"
        },
        {
          "internalType": "bytes",
          "name": "",
          "type": "bytes"
        }
      ],
      "name": "onERC721Received",
      "outputs": [
        {
          "internalType": "bytes4",
          "name": "",
          "type": "bytes4"
        }
      ],
      "stateMutability": "pure",
      "type": "function"
    }
  ],
  "bytecode": "0x608060405234801561001057600080fd5b5033600760006101000a81548173ffffffffffffffffffffffffffffffffffffffff021916908373ffffffffffffffffffffffffffffffffffffffff1602179055506147be806100616000396000f3fe60806040523480156200001157600080fd5b5060043610620001005760003560e01c8063aafef2671162000099578063b6926178116200006f578063b692617814620002df578063d8fc65191462000315578063dcea9a961462000335578063f2bb4a88146200036b5762000100565b8063aafef267146200023d578063ab2397f71462000273578063add933a314620002a95762000100565b80636b1ac39811620000db5780636b1ac39814620001a75780638c4d094a14620001c75780639d91f93514620001fd578063a72e2cd6146200021d5762000100565b8063150b7a021462000105578063491f6674146200013b578063504461361462000171575b600080fd5b6200012360048036038101906200011d9190620013ea565b6200038b565b604051620001329190620014bd565b60405180910390f35b620001596004803603810190620001539190620014da565b620003a0565b6040516200016891906200153e565b60405180910390f35b6200018f6004803603810190620001899190620014da565b62000408565b6040516200019e91906200156c565b60405180910390f35b620001c56004803603810190620001bf9190620014da565b62000483565b005b620001e56004803603810190620001df9190620015ce565b620005d1565b604051620001f4919062001611565b60405180910390f35b6200021b60048036038101906200021591906200178b565b6200061a565b005b6200023b6004803603810190620002359190620014da565b620008e6565b005b6200025b6004803603810190620002559190620014da565b62000a5a565b6040516200026a91906200156c565b60405180910390f35b6200029160048036038101906200028b9190620014da565b62000ad5565b604051620002a091906200153e565b60405180910390f35b620002c76004803603810190620002c19190620015ce565b62000b3d565b604051620002d691906200156c565b60405180910390f35b620002fd6004803603810190620002f79190620014da565b62000ba6565b6040516200030c91906200153e565b60405180910390f35b6200033360048036038101906200032d9190620014da565b62000c0d565b005b6200035360048036038101906200034d9190620014da565b62000f47565b6040516200036291906200153e565b60405180910390f35b62000389600480360381019062000383919062001865565b62001035565b005b600063150b7a0260e01b905095945050505050565b6000600360008473ffffffffffffffffffffffffffffffffffffffff1673ffffffffffffffffffffffffffffffffffffffff168152602001908152602001600020600083815260200190815260200160002060009054906101000a900460ff16905092915050565b6000600160008473ffffffffffffffffffffffffffffffffffffffff1673ffffffffffffffffffffffffffffffffffffffff168152602001908152602001600020600083815260200190815260200160002060009054906101000a900473ffffffffffffffffffffffffffffffffffffffff16905092915050565b600160008373ffffffffffffffffffffffffffffffffffffffff1673ffffffffffffffffffffffffffffffffffffffff168152602001908152602001600020600082815260200190815260200160002060009054906101000a900473ffffffffffffffffffffffffffffffffffffffff1673ffffffffffffffffffffffffffffffffffffffff163373ffffffffffffffffffffffffffffffffffffffff161462000564576040517f08c379a00000000000000000000000000000000000000000000000000000000081526004016200055b9062001948565b60405180910390fd5b6001600260008473ffffffffffffffffffffffffffffffffffffffff1673ffffffffffffffffffffffffffffffffffffffff168152602001908152602001600020600083815260200190815260200160002060006101000a81548160ff0219169083151502179055505050565b6000600660008373ffffffffffffffffffffffffffffffffffffffff1673ffffffffffffffffffffffffffffffffffffffff168152602001908152602001600020549050919050565b6000808773ffffffffffffffffffffffffffffffffffffffff1673ffffffffffffffffffffffffffffffffffffffff168152602001908152602001600020600086815260200190815260200160002060009054906101000a900460ff16620006b9576040517f08c379a0000000000000000000000000000000000000000000000000000000008152600401620006b090620019e0565b60405180910390fd5b3373ffffffffffffffffffffffffffffffffffffffff16600160008873ffffffffffffffffffffffffffffffffffffffff1673ffffffffffffffffffffffffffffffffffffffff168152602001908152602001600020600087815260200190815260200160002060009054906101000a900473ffffffffffffffffffffffffffffffffffffffff1673ffffffffffffffffffffffffffffffffffffffff16146200079a576040517f08c379a0000000000000000000000000000000000000000000000000000000008152600401620007919062001a52565b60405180910390fd5b6001600360008873ffffffffffffffffffffffffffffffffffffffff1673ffffffffffffffffffffffffffffffffffffffff168152602001908152602001600020600087815260200190815260200160002060006101000a81548160ff021916908315150217905550600086863387878787306040516200081b90620012ba565b6200082e98979695949392919062001af6565b604051809103906000f0801580156200084b573d6000803e3d6000fd5b50905080600460008973ffffffffffffffffffffffffffffffffffffffff1673ffffffffffffffffffffffffffffffffffffffff168152602001908152602001600020600088815260200190815260200160002060006101000a81548173ffffffffffffffffffffffffffffffffffffffff021916908373ffffffffffffffffffffffffffffffffffffffff16021790555050505050505050565b60008290508073ffffffffffffffffffffffffffffffffffffffff166342842e0e3330856040518463ffffffff1660e01b81526004016200092a9392919062001b92565b600060405180830381600087803b1580156200094557600080fd5b505af11580156200095a573d6000803e3d6000fd5b5050505060016000808573ffffffffffffffffffffffffffffffffffffffff1673ffffffffffffffffffffffffffffffffffffffff168152602001908152602001600020600084815260200190815260200160002060006101000a81548160ff02191690831515021790555033600160008573ffffffffffffffffffffffffffffffffffffffff1673ffffffffffffffffffffffffffffffffffffffff168152602001908152602001600020600084815260200190815260200160002060006101000a81548173ffffffffffffffffffffffffffffffffffffffff021916908373ffffffffffffffffffffffffffffffffffffffff160217905550505050565b6000600460008473ffffffffffffffffffffffffffffffffffffffff1673ffffffffffffffffffffffffffffffffffffffff168152602001908152602001600020600083815260200190815260200160002060009054906101000a900473ffffffffffffffffffffffffffffffffffffffff16905092915050565b6000600260008473ffffffffffffffffffffffffffffffffffffffff1673ffffffffffffffffffffffffffffffffffffffff168152602001908152602001600020600083815260200190815260200160002060009054906101000a900460ff16905092915050565b6000600560008373ffffffffffffffffffffffffffffffffffffffff1673ffffffffffffffffffffffffffffffffffffffff16815260200190815260200160002060009054906101000a900473ffffffffffffffffffffffffffffffffffffffff169050919050565b60008060008473ffffffffffffffffffffffffffffffffffffffff1673ffffffffffffffffffffffffffffffffffffffff168152602001908152602001600020600083815260200190815260200160002060009054906101000a900460ff16905092915050565b60008290506000600460008573ffffffffffffffffffffffffffffffffffffffff1673ffffffffffffffffffffffffffffffffffffffff168152602001908152602001600020600084815260200190815260200160002060009054906101000a900473ffffffffffffffffffffffffffffffffffffffff169050600115156000808673ffffffffffffffffffffffffffffffffffffffff1673ffffffffffffffffffffffffffffffffffffffff168152602001908152602001600020600085815260200190815260200160002060009054906101000a900460ff1615151462000d2d576040517f08c379a000000000000000000000000000000000000000000000000000000000815260040162000d249062001c1f565b60405180910390fd5b60001515600360008673ffffffffffffffffffffffffffffffffffffffff1673ffffffffffffffffffffffffffffffffffffffff168152602001908152602001600020600085815260200190815260200160002060009054906101000a900460ff161515148062000e8c57508073ffffffffffffffffffffffffffffffffffffffff166318160ddd6040518163ffffffff1660e01b8152600401602060405180830381865afa15801562000de5573d6000803e3d6000fd5b505050506040513d601f19601f8201168201806040525081019062000e0b919062001c58565b8173ffffffffffffffffffffffffffffffffffffffff166370a08231336040518263ffffffff1660e01b815260040162000e4691906200156c565b602060405180830381865afa15801562000e64573d6000803e3d6000fd5b505050506040513d601f19601f8201168201806040525081019062000e8a919062001c58565b145b62000ece576040517f08c379a000000000000000000000000000000000000000000000000000000000815260040162000ec59062001d4c565b60405180910390fd5b8173ffffffffffffffffffffffffffffffffffffffff166342842e0e3033866040518463ffffffff1660e01b815260040162000f0d9392919062001b92565b600060405180830381600087803b15801562000f2857600080fd5b505af115801562000f3d573d6000803e3d6000fd5b5050505050505050565b6000806000808573ffffffffffffffffffffffffffffffffffffffff1673ffffffffffffffffffffffffffffffffffffffff168152602001908152602001600020600084815260200190815260200160002060009054906101000a900460ff1690506000600360008673ffffffffffffffffffffffffffffffffffffffff1673ffffffffffffffffffffffffffffffffffffffff168152602001908152602001600020600085815260200190815260200160002060009054906101000a900460ff169050818015620010165750805b1562001028576001925050506200102f565b6000925050505b92915050565b60011515600260008573ffffffffffffffffffffffffffffffffffffffff1673ffffffffffffffffffffffffffffffffffffffff168152602001908152602001600020600084815260200190815260200160002060009054906101000a900460ff16151514620010dc576040517f08c379a0000000000000000000000000000000000000000000000000000000008152600401620010d39062001dbe565b60405180910390fd5b600160008473ffffffffffffffffffffffffffffffffffffffff1673ffffffffffffffffffffffffffffffffffffffff168152602001908152602001600020600083815260200190815260200160002060009054906101000a900473ffffffffffffffffffffffffffffffffffffffff1673ffffffffffffffffffffffffffffffffffffffff163373ffffffffffffffffffffffffffffffffffffffff1614620011bd576040517f08c379a0000000000000000000000000000000000000000000000000000000008152600401620011b49062001e56565b60405180910390fd5b6000600260008573ffffffffffffffffffffffffffffffffffffffff1673ffffffffffffffffffffffffffffffffffffffff168152602001908152602001600020600084815260200190815260200160002060006101000a81548160ff02191690831515021790555080600160008573ffffffffffffffffffffffffffffffffffffffff1673ffffffffffffffffffffffffffffffffffffffff168152602001908152602001600020600084815260200190815260200160002060006101000a81548173ffffffffffffffffffffffffffffffffffffffff021916908373ffffffffffffffffffffffffffffffffffffffff160217905550505050565b6129108062001e7983390190565b6000604051905090565b600080fd5b600080fd5b600073ffffffffffffffffffffffffffffffffffffffff82169050919050565b60006200130982620012dc565b9050919050565b6200131b81620012fc565b81146200132757600080fd5b50565b6000813590506200133b8162001310565b92915050565b6000819050919050565b620013568162001341565b81146200136257600080fd5b50565b60008135905062001376816200134b565b92915050565b600080fd5b600080fd5b600080fd5b60008083601f840112620013a457620013a36200137c565b5b8235905067ffffffffffffffff811115620013c457620013c362001381565b5b602083019150836001820283011115620013e357620013e262001386565b5b9250929050565b600080600080600060808688031215620014095762001408620012d2565b5b600062001419888289016200132a565b95505060206200142c888289016200132a565b94505060406200143f8882890162001365565b935050606086013567ffffffffffffffff811115620014635762001462620012d7565b5b62001471888289016200138b565b92509250509295509295909350565b60007fffffffff0000000000000000000000000000000000000000000000000000000082169050919050565b620014b78162001480565b82525050565b6000602082019050620014d46000830184620014ac565b92915050565b60008060408385031215620014f457620014f3620012d2565b5b600062001504858286016200132a565b9250506020620015178582860162001365565b9150509250929050565b60008115159050919050565b620015388162001521565b82525050565b60006020820190506200155560008301846200152d565b92915050565b6200156681620012fc565b82525050565b60006020820190506200158360008301846200155b565b92915050565b60006200159682620012fc565b9050919050565b620015a88162001589565b8114620015b457600080fd5b50565b600081359050620015c8816200159d565b92915050565b600060208284031215620015e757620015e6620012d2565b5b6000620015f784828501620015b7565b91505092915050565b6200160b8162001341565b82525050565b600060208201905062001628600083018462001600565b92915050565b600080fd5b6000601f19601f8301169050919050565b7f4e487b7100000000000000000000000000000000000000000000000000000000600052604160045260246000fd5b6200167e8262001633565b810181811067ffffffffffffffff82111715620016a0576200169f62001644565b5b80604052505050565b6000620016b5620012c8565b9050620016c3828262001673565b919050565b600067ffffffffffffffff821115620016e657620016e562001644565b5b620016f18262001633565b9050602081019050919050565b82818337600083830152505050565b6000620017246200171e84620016c8565b620016a9565b9050828152602081018484840111156200174357620017426200162e565b5b62001750848285620016fe565b509392505050565b600082601f83011262001770576200176f6200137c565b5b8135620017828482602086016200170d565b91505092915050565b60008060008060008060c08789031215620017ab57620017aa620012d2565b5b6000620017bb89828a016200132a565b9650506020620017ce89828a0162001365565b955050604087013567ffffffffffffffff811115620017f257620017f1620012d7565b5b6200180089828a0162001758565b945050606087013567ffffffffffffffff811115620018245762001823620012d7565b5b6200183289828a0162001758565b93505060806200184589828a0162001365565b92505060a06200185889828a0162001365565b9150509295509295509295565b600080600060608486031215620018815762001880620012d2565b5b600062001891868287016200132a565b9350506020620018a48682870162001365565b9250506040620018b7868287016200132a565b9150509250925092565b600082825260208201905092915050565b7f596f7520617265206e6f7420746865206f776e6572206f662074686973204e4660008201527f5400000000000000000000000000000000000000000000000000000000000000602082015250565b600062001930602183620018c1565b91506200193d82620018d2565b604082019050919050565b60006020820190508181036000830152620019638162001921565b9050919050565b7f54686973204e4654206861736e2774206265656e206465706f7369746564207960008201527f6574000000000000000000000000000000000000000000000000000000000000602082015250565b6000620019c8602283620018c1565b9150620019d5826200196a565b604082019050919050565b60006020820190508181036000830152620019fb81620019b9565b9050919050565b7f596f7520646f206e6f74206f776e2074686973204e4654000000000000000000600082015250565b600062001a3a601783620018c1565b915062001a478262001a02565b602082019050919050565b6000602082019050818103600083015262001a6d8162001a2b565b9050919050565b600081519050919050565b60005b8381101562001a9f57808201518184015260208101905062001a82565b8381111562001aaf576000848401525b50505050565b600062001ac28262001a74565b62001ace8185620018c1565b935062001ae081856020860162001a7f565b62001aeb8162001633565b840191505092915050565b60006101008201905062001b0e600083018b6200155b565b62001b1d602083018a62001600565b62001b2c60408301896200155b565b818103606083015262001b40818862001ab5565b9050818103608083015262001b56818762001ab5565b905062001b6760a083018662001600565b62001b7660c083018562001600565b62001b8560e08301846200155b565b9998505050505050505050565b600060608201905062001ba960008301866200155b565b62001bb860208301856200155b565b62001bc7604083018462001600565b949350505050565b7f54686973204e4654206973206e6f742077697468647261776e00000000000000600082015250565b600062001c07601983620018c1565b915062001c148262001bcf565b602082019050919050565b6000602082019050818103600083015262001c3a8162001bf8565b9050919050565b60008151905062001c52816200134b565b92915050565b60006020828403121562001c715762001c70620012d2565b5b600062001c818482850162001c41565b91505092915050565b7f4e46542063616e6e6f742062652077697468647261776e2c206574686572207460008201527f6865204e465420686173206265656e2077697468647261776e206f7220796f7560208201527f20646f206e6f74206f776e2074686520746f74616c20737570706c79206f662060408201527f6672616374696f6e20746f6b656e730000000000000000000000000000000000606082015250565b600062001d34606f83620018c1565b915062001d418262001c8a565b608082019050919050565b6000602082019050818103600083015262001d678162001d25565b9050919050565b7f4e6674206973206e6f74206368616e67696e67206f776e657200000000000000600082015250565b600062001da6601983620018c1565b915062001db38262001d6e565b602082019050919050565b6000602082019050818103600083015262001dd98162001d97565b9050919050565b7f4f6e6c792063757272656e74206f776e6572206f66204e46542063616e20636860008201527f616e6765204e4654206f776e6572000000000000000000000000000000000000602082015250565b600062001e3e602e83620018c1565b915062001e4b8262001de0565b604082019050919050565b6000602082019050818103600083015262001e718162001e2f565b905091905056fe60806040523480156200001157600080fd5b50604051620029103803806200291083398181016040528101906200003791906200060a565b84848160039080519060200190620000519291906200031d565b5080600490805190602001906200006a9291906200031d565b50505087600860006101000a81548173ffffffffffffffffffffffffffffffffffffffff021916908373ffffffffffffffffffffffffffffffffffffffff1602179055508660098190555085600560006101000a81548173ffffffffffffffffffffffffffffffffffffffff021916908373ffffffffffffffffffffffffffffffffffffffff1602179055508160078190555062000131600560009054906101000a900473ffffffffffffffffffffffffffffffffffffffff16846200019b60201b60201c565b80600660006101000a81548173ffffffffffffffffffffffffffffffffffffffff021916908373ffffffffffffffffffffffffffffffffffffffff1602179055506000600b60006101000a81548160ff0219169083151502179055505050505050505050620008b2565b600073ffffffffffffffffffffffffffffffffffffffff168273ffffffffffffffffffffffffffffffffffffffff16036200020d576040517f08c379a0000000000000000000000000000000000000000000000000000000008152600401620002049062000772565b60405180910390fd5b62000221600083836200031360201b60201c565b8060026000828254620002359190620007c3565b92505081905550806000808473ffffffffffffffffffffffffffffffffffffffff1673ffffffffffffffffffffffffffffffffffffffff16815260200190815260200160002060008282546200028c9190620007c3565b925050819055508173ffffffffffffffffffffffffffffffffffffffff16600073ffffffffffffffffffffffffffffffffffffffff167fddf252ad1be2c89b69c2b068fc378daa952ba7f163c4a11628f55a4df523b3ef83604051620002f3919062000831565b60405180910390a36200030f600083836200031860201b60201c565b5050565b505050565b505050565b8280546200032b906200087d565b90600052602060002090601f0160209004810192826200034f57600085556200039b565b82601f106200036a57805160ff19168380011785556200039b565b828001600101855582156200039b579182015b828111156200039a5782518255916020019190600101906200037d565b5b509050620003aa9190620003ae565b5090565b5b80821115620003c9576000816000905550600101620003af565b5090565b6000604051905090565b600080fd5b600080fd5b600073ffffffffffffffffffffffffffffffffffffffff82169050919050565b60006200040e82620003e1565b9050919050565b620004208162000401565b81146200042c57600080fd5b50565b600081519050620004408162000415565b92915050565b6000819050919050565b6200045b8162000446565b81146200046757600080fd5b50565b6000815190506200047b8162000450565b92915050565b600080fd5b600080fd5b6000601f19601f8301169050919050565b7f4e487b7100000000000000000000000000000000000000000000000000000000600052604160045260246000fd5b620004d6826200048b565b810181811067ffffffffffffffff82111715620004f857620004f76200049c565b5b80604052505050565b60006200050d620003cd565b90506200051b8282620004cb565b919050565b600067ffffffffffffffff8211156200053e576200053d6200049c565b5b62000549826200048b565b9050602081019050919050565b60005b838110156200057657808201518184015260208101905062000559565b8381111562000586576000848401525b50505050565b6000620005a36200059d8462000520565b62000501565b905082815260208101848484011115620005c257620005c162000486565b5b620005cf84828562000556565b509392505050565b600082601f830112620005ef57620005ee62000481565b5b8151620006018482602086016200058c565b91505092915050565b600080600080600080600080610100898b0312156200062e576200062d620003d7565b5b60006200063e8b828c016200042f565b9850506020620006518b828c016200046a565b9750506040620006648b828c016200042f565b965050606089015167ffffffffffffffff811115620006885762000687620003dc565b5b620006968b828c01620005d7565b955050608089015167ffffffffffffffff811115620006ba57620006b9620003dc565b5b620006c88b828c01620005d7565b94505060a0620006db8b828c016200046a565b93505060c0620006ee8b828c016200046a565b92505060e0620007018b828c016200042f565b9150509295985092959890939650565b600082825260208201905092915050565b7f45524332303a206d696e7420746f20746865207a65726f206164647265737300600082015250565b60006200075a601f8362000711565b9150620007678262000722565b602082019050919050565b600060208201905081810360008301526200078d816200074b565b9050919050565b7f4e487b7100000000000000000000000000000000000000000000000000000000600052601160045260246000fd5b6000620007d08262000446565b9150620007dd8362000446565b9250827fffffffffffffffffffffffffffffffffffffffffffffffffffffffffffffffff0382111562000815576200081462000794565b5b828201905092915050565b6200082b8162000446565b82525050565b600060208201905062000848600083018462000820565b92915050565b7f4e487b7100000000000000000000000000000000000000000000000000000000600052602260045260246000fd5b600060028204905060018216806200089657607f821691505b602082108103620008ac57620008ab6200084e565b5b50919050565b61204e80620008c26000396000f3fe608060405234801561001057600080fd5b506004361061012c5760003560e01c806370a08231116100ad57806395d89b411161007157806395d89b411461031f578063a457c2d71461033d578063a9059cbb1461036d578063be9a71bd1461039d578063dd62ed3e146103bb5761012c565b806370a082311461027d57806376501221146102ad57806379cc6790146102c95780639385e55a146102e557806394ee29d9146103015761012c565b8063313ce567116100f4578063313ce567146101eb578063395093511461020957806342966c681461023957806362032bc514610255578063644c45e01461025f5761012c565b806306fdde031461013157806309323b021461014f578063095ea7b31461016d57806318160ddd1461019d57806323b872dd146101bb575b600080fd5b6101396103eb565b6040516101469190611425565b60405180910390f35b61015761047d565b6040516101649190611462565b60405180910390f35b61018760048036038101906101829190611516565b610494565b6040516101949190611462565b60405180910390f35b6101a56104b7565b6040516101b29190611565565b60405180910390f35b6101d560048036038101906101d09190611580565b6104c1565b6040516101e29190611462565b60405180910390f35b6101f3610557565b60405161020091906115ef565b60405180910390f35b610223600480360381019061021e9190611516565b610560565b6040516102309190611462565b60405180910390f35b610253600480360381019061024e919061160a565b610597565b005b61025d6105ab565b005b610267610658565b6040516102749190611565565b60405180910390f35b61029760048036038101906102929190611637565b610662565b6040516102a49190611565565b60405180910390f35b6102c760048036038101906102c29190611637565b6106aa565b005b6102e360048036038101906102de9190611516565b61077e565b005b6102ff60048036038101906102fa9190611664565b61079e565b005b6103096109fe565b6040516103169190611762565b60405180910390f35b610327610a8c565b6040516103349190611425565b60405180910390f35b61035760048036038101906103529190611516565b610b1e565b6040516103649190611462565b60405180910390f35b61038760048036038101906103829190611516565b610b95565b6040516103949190611462565b60405180910390f35b6103a5610c1f565b6040516103b29190611793565b60405180910390f35b6103d560048036038101906103d09190611664565b610c49565b6040516103e29190611565565b60405180910390f35b6060600380546103fa906117dd565b80601f0160208091040260200160405190810160405280929190818152602001828054610426906117dd565b80156104735780601f1061044857610100808354040283529160200191610473565b820191906000526020600020905b81548152906001019060200180831161045657829003601f168201915b5050505050905090565b6000600b60009054906101000a900460ff16905090565b60008061049f610cd0565b90506104ac818585610cd8565b600191505092915050565b6000600254905090565b6000806104cc610cd0565b90506104d9858285610ea1565b60006064600754856104eb919061183d565b6104f591906118c6565b90506000818561050591906118f7565b905061053487600560009054906101000a900473ffffffffffffffffffffffffffffffffffffffff1684610f2d565b61053f878783610f2d565b610549868861079e565b600193505050509392505050565b60006012905090565b60008061056b610cd0565b905061058c81858561057d8589610c49565b610587919061192b565b610cd8565b600191505092915050565b6105a86105a2610cd0565b826111ac565b50565b600660009054906101000a900473ffffffffffffffffffffffffffffffffffffffff1673ffffffffffffffffffffffffffffffffffffffff163373ffffffffffffffffffffffffffffffffffffffff161461063b576040517f08c379a0000000000000000000000000000000000000000000000000000000008152600401610632906119f3565b60405180910390fd5b6001600b60006101000a81548160ff021916908315150217905550565b6000600954905090565b60008060008373ffffffffffffffffffffffffffffffffffffffff1673ffffffffffffffffffffffffffffffffffffffff168152602001908152602001600020549050919050565b600660009054906101000a900473ffffffffffffffffffffffffffffffffffffffff1673ffffffffffffffffffffffffffffffffffffffff163373ffffffffffffffffffffffffffffffffffffffff161461073a576040517f08c379a000000000000000000000000000000000000000000000000000000000815260040161073190611a85565b60405180910390fd5b80600560006101000a81548173ffffffffffffffffffffffffffffffffffffffff021916908373ffffffffffffffffffffffffffffffffffffffff16021790555050565b6107908261078a610cd0565b83610ea1565b61079a82826111ac565b5050565b600a829080600181540180825580915050600190039060005260206000200160009091909190916101000a81548173ffffffffffffffffffffffffffffffffffffffff021916908373ffffffffffffffffffffffffffffffffffffffff1602179055506001600c60008473ffffffffffffffffffffffffffffffffffffffff1673ffffffffffffffffffffffffffffffffffffffff16815260200190815260200160002060006101000a81548160ff02191690831515021790555060011515600c60008373ffffffffffffffffffffffffffffffffffffffff1673ffffffffffffffffffffffffffffffffffffffff16815260200190815260200160002060009054906101000a900460ff1615151480156108c1575060006108bf82610662565b145b156109fa5760005b600a805490508110156109f8578173ffffffffffffffffffffffffffffffffffffffff16600a828154811061090157610900611aa5565b5b9060005260206000200160009054906101000a900473ffffffffffffffffffffffffffffffffffffffff1673ffffffffffffffffffffffffffffffffffffffff16036109e557600a818154811061095b5761095a611aa5565b5b9060005260206000200160006101000a81549073ffffffffffffffffffffffffffffffffffffffff02191690556000600c60008473ffffffffffffffffffffffffffffffffffffffff1673ffffffffffffffffffffffffffffffffffffffff16815260200190815260200160002060006101000a81548160ff0219169083151502179055506109f8565b80806109f090611ad4565b9150506108c9565b505b5050565b6060600a805480602002602001604051908101604052809291908181526020018280548015610a8257602002820191906000526020600020905b8160009054906101000a900473ffffffffffffffffffffffffffffffffffffffff1673ffffffffffffffffffffffffffffffffffffffff1681526020019060010190808311610a38575b5050505050905090565b606060048054610a9b906117dd565b80601f0160208091040260200160405190810160405280929190818152602001828054610ac7906117dd565b8015610b145780601f10610ae957610100808354040283529160200191610b14565b820191906000526020600020905b815481529060010190602001808311610af757829003601f168201915b5050505050905090565b600080610b29610cd0565b90506000610b378286610c49565b905083811015610b7c576040517f08c379a0000000000000000000000000000000000000000000000000000000008152600401610b7390611b8e565b60405180910390fd5b610b898286868403610cd8565b60019250505092915050565b600080606460075484610ba8919061183d565b610bb291906118c6565b905060008184610bc291906118f7565b90506000610bce610cd0565b9050610bfd81600560009054906101000a900473ffffffffffffffffffffffffffffffffffffffff1685610f2d565b610c08818784610f2d565b610c12868261079e565b6001935050505092915050565b6000600860009054906101000a900473ffffffffffffffffffffffffffffffffffffffff16905090565b6000600160008473ffffffffffffffffffffffffffffffffffffffff1673ffffffffffffffffffffffffffffffffffffffff16815260200190815260200160002060008373ffffffffffffffffffffffffffffffffffffffff1673ffffffffffffffffffffffffffffffffffffffff16815260200190815260200160002054905092915050565b600033905090565b600073ffffffffffffffffffffffffffffffffffffffff168373ffffffffffffffffffffffffffffffffffffffff1603610d47576040517f08c379a0000000000000000000000000000000000000000000000000000000008152600401610d3e90611c20565b60405180910390fd5b600073ffffffffffffffffffffffffffffffffffffffff168273ffffffffffffffffffffffffffffffffffffffff1603610db6576040517f08c379a0000000000000000000000000000000000000000000000000000000008152600401610dad90611cb2565b60405180910390fd5b80600160008573ffffffffffffffffffffffffffffffffffffffff1673ffffffffffffffffffffffffffffffffffffffff16815260200190815260200160002060008473ffffffffffffffffffffffffffffffffffffffff1673ffffffffffffffffffffffffffffffffffffffff168152602001908152602001600020819055508173ffffffffffffffffffffffffffffffffffffffff168373ffffffffffffffffffffffffffffffffffffffff167f8c5be1e5ebec7d5bd14f71427d1e84f3dd0314c0f7b2291e5b200ac8c7c3b92583604051610e949190611565565b60405180910390a3505050565b6000610ead8484610c49565b90507fffffffffffffffffffffffffffffffffffffffffffffffffffffffffffffffff8114610f275781811015610f19576040517f08c379a0000000000000000000000000000000000000000000000000000000008152600401610f1090611d1e565b60405180910390fd5b610f268484848403610cd8565b5b50505050565b600073ffffffffffffffffffffffffffffffffffffffff168373ffffffffffffffffffffffffffffffffffffffff1603610f9c576040517f08c379a0000000000000000000000000000000000000000000000000000000008152600401610f9390611db0565b60405180910390fd5b600073ffffffffffffffffffffffffffffffffffffffff168273ffffffffffffffffffffffffffffffffffffffff160361100b576040517f08c379a000000000000000000000000000000000000000000000000000000000815260040161100290611e42565b60405180910390fd5b611016838383611382565b60008060008573ffffffffffffffffffffffffffffffffffffffff1673ffffffffffffffffffffffffffffffffffffffff1681526020019081526020016000205490508181101561109c576040517f08c379a000000000000000000000000000000000000000000000000000000000815260040161109390611ed4565b60405180910390fd5b8181036000808673ffffffffffffffffffffffffffffffffffffffff1673ffffffffffffffffffffffffffffffffffffffff16815260200190815260200160002081905550816000808573ffffffffffffffffffffffffffffffffffffffff1673ffffffffffffffffffffffffffffffffffffffff168152602001908152602001600020600082825461112f919061192b565b925050819055508273ffffffffffffffffffffffffffffffffffffffff168473ffffffffffffffffffffffffffffffffffffffff167fddf252ad1be2c89b69c2b068fc378daa952ba7f163c4a11628f55a4df523b3ef846040516111939190611565565b60405180910390a36111a6848484611387565b50505050565b600073ffffffffffffffffffffffffffffffffffffffff168273ffffffffffffffffffffffffffffffffffffffff160361121b576040517f08c379a000000000000000000000000000000000000000000000000000000000815260040161121290611f66565b60405180910390fd5b61122782600083611382565b60008060008473ffffffffffffffffffffffffffffffffffffffff1673ffffffffffffffffffffffffffffffffffffffff168152602001908152602001600020549050818110156112ad576040517f08c379a00000000000000000000000000000000000000000000000000000000081526004016112a490611ff8565b60405180910390fd5b8181036000808573ffffffffffffffffffffffffffffffffffffffff1673ffffffffffffffffffffffffffffffffffffffff16815260200190815260200160002081905550816002600082825461130491906118f7565b92505081905550600073ffffffffffffffffffffffffffffffffffffffff168373ffffffffffffffffffffffffffffffffffffffff167fddf252ad1be2c89b69c2b068fc378daa952ba7f163c4a11628f55a4df523b3ef846040516113699190611565565b60405180910390a361137d83600084611387565b505050565b505050565b505050565b600081519050919050565b600082825260208201905092915050565b60005b838110156113c65780820151818401526020810190506113ab565b838111156113d5576000848401525b50505050565b6000601f19601f8301169050919050565b60006113f78261138c565b6114018185611397565b93506114118185602086016113a8565b61141a816113db565b840191505092915050565b6000602082019050818103600083015261143f81846113ec565b905092915050565b60008115159050919050565b61145c81611447565b82525050565b60006020820190506114776000830184611453565b92915050565b600080fd5b600073ffffffffffffffffffffffffffffffffffffffff82169050919050565b60006114ad82611482565b9050919050565b6114bd816114a2565b81146114c857600080fd5b50565b6000813590506114da816114b4565b92915050565b6000819050919050565b6114f3816114e0565b81146114fe57600080fd5b50565b600081359050611510816114ea565b92915050565b6000806040838503121561152d5761152c61147d565b5b600061153b858286016114cb565b925050602061154c85828601611501565b9150509250929050565b61155f816114e0565b82525050565b600060208201905061157a6000830184611556565b92915050565b6000806000606084860312156115995761159861147d565b5b60006115a7868287016114cb565b93505060206115b8868287016114cb565b92505060406115c986828701611501565b9150509250925092565b600060ff82169050919050565b6115e9816115d3565b82525050565b600060208201905061160460008301846115e0565b92915050565b6000602082840312156116205761161f61147d565b5b600061162e84828501611501565b91505092915050565b60006020828403121561164d5761164c61147d565b5b600061165b848285016114cb565b91505092915050565b6000806040838503121561167b5761167a61147d565b5b6000611689858286016114cb565b925050602061169a858286016114cb565b9150509250929050565b600081519050919050565b600082825260208201905092915050565b6000819050602082019050919050565b6116d9816114a2565b82525050565b60006116eb83836116d0565b60208301905092915050565b6000602082019050919050565b600061170f826116a4565b61171981856116af565b9350611724836116c0565b8060005b8381101561175557815161173c88826116df565b9750611747836116f7565b925050600181019050611728565b5085935050505092915050565b6000602082019050818103600083015261177c8184611704565b905092915050565b61178d816114a2565b82525050565b60006020820190506117a86000830184611784565b92915050565b7f4e487b7100000000000000000000000000000000000000000000000000000000600052602260045260246000fd5b600060028204905060018216806117f557607f821691505b602082108103611808576118076117ae565b5b50919050565b7f4e487b7100000000000000000000000000000000000000000000000000000000600052601160045260246000fd5b6000611848826114e0565b9150611853836114e0565b9250817fffffffffffffffffffffffffffffffffffffffffffffffffffffffffffffffff048311821515161561188c5761188b61180e565b5b828202905092915050565b7f4e487b7100000000000000000000000000000000000000000000000000000000600052601260045260246000fd5b60006118d1826114e0565b91506118dc836114e0565b9250826118ec576118eb611897565b5b828204905092915050565b6000611902826114e0565b915061190d836114e0565b9250828210156119205761191f61180e565b5b828203905092915050565b6000611936826114e0565b9150611941836114e0565b9250827fffffffffffffffffffffffffffffffffffffffffffffffffffffffffffffffff038211156119765761197561180e565b5b828201905092915050565b7f546869732066756e6374696f6e2063616e206f6e6c792062652063616c6c656460008201527f2066726f6d207468652073746f7261676520636f6e7472616374000000000000602082015250565b60006119dd603a83611397565b91506119e882611981565b604082019050919050565b60006020820190508181036000830152611a0c816119d0565b9050919050565b7f6f6e6c792073746f7261676520636f6e74726163742063616e2075706461746560008201527f2074686973000000000000000000000000000000000000000000000000000000602082015250565b6000611a6f602583611397565b9150611a7a82611a13565b604082019050919050565b60006020820190508181036000830152611a9e81611a62565b9050919050565b7f4e487b7100000000000000000000000000000000000000000000000000000000600052603260045260246000fd5b6000611adf826114e0565b91507fffffffffffffffffffffffffffffffffffffffffffffffffffffffffffffffff8203611b1157611b1061180e565b5b600182019050919050565b7f45524332303a2064656372656173656420616c6c6f77616e63652062656c6f7760008201527f207a65726f000000000000000000000000000000000000000000000000000000602082015250565b6000611b78602583611397565b9150611b8382611b1c565b604082019050919050565b60006020820190508181036000830152611ba781611b6b565b9050919050565b7f45524332303a20617070726f76652066726f6d20746865207a65726f2061646460008201527f7265737300000000000000000000000000000000000000000000000000000000602082015250565b6000611c0a602483611397565b9150611c1582611bae565b604082019050919050565b60006020820190508181036000830152611c3981611bfd565b9050919050565b7f45524332303a20617070726f766520746f20746865207a65726f20616464726560008201527f7373000000000000000000000000000000000000000000000000000000000000602082015250565b6000611c9c602283611397565b9150611ca782611c40565b604082019050919050565b60006020820190508181036000830152611ccb81611c8f565b9050919050565b7f45524332303a20696e73756666696369656e7420616c6c6f77616e6365000000600082015250565b6000611d08601d83611397565b9150611d1382611cd2565b602082019050919050565b60006020820190508181036000830152611d3781611cfb565b9050919050565b7f45524332303a207472616e736665722066726f6d20746865207a65726f20616460008201527f6472657373000000000000000000000000000000000000000000000000000000602082015250565b6000611d9a602583611397565b9150611da582611d3e565b604082019050919050565b60006020820190508181036000830152611dc981611d8d565b9050919050565b7f45524332303a207472616e7366657220746f20746865207a65726f206164647260008201527f6573730000000000000000000000000000000000000000000000000000000000602082015250565b6000611e2c602383611397565b9150611e3782611dd0565b604082019050919050565b60006020820190508181036000830152611e5b81611e1f565b9050919050565b7f45524332303a207472616e7366657220616d6f756e742065786365656473206260008201527f616c616e63650000000000000000000000000000000000000000000000000000602082015250565b6000611ebe602683611397565b9150611ec982611e62565b604082019050919050565b60006020820190508181036000830152611eed81611eb1565b9050919050565b7f45524332303a206275726e2066726f6d20746865207a65726f2061646472657360008201527f7300000000000000000000000000000000000000000000000000000000000000602082015250565b6000611f50602183611397565b9150611f5b82611ef4565b604082019050919050565b60006020820190508181036000830152611f7f81611f43565b9050919050565b7f45524332303a206275726e20616d6f756e7420657863656564732062616c616e60008201527f6365000000000000000000000000000000000000000000000000000000000000602082015250565b6000611fe2602283611397565b9150611fed82611f86565b604082019050919050565b6000602082019050818103600083015261201181611fd5565b905091905056fea26469706673582212202ac02c31195b99f330d984468aef5b47518d653bbc6b69e33b8a9e625adeab1c64736f6c634300080e0033a2646970667358221220e93d025d8c951d28b7c14732abbd5c89d74e9f7b9437a661160151418381d99964736f6c634300080e0033",
  "immutableReferences": {},
  "source": "pragma solidity 0.8.14;\r\nimport \"@openzeppelin/contracts/token/ERC721/IERC721Receiver.sol\";\r\nimport \"@openzeppelin/contracts/token/ERC721/ERC721.sol\";\r\nimport \"@openzeppelin/contracts/token/ERC721/utils/ERC721Holder.sol\";\r\nimport './FractionToken.sol';\r\n\r\ncontract Storage is IERC721Receiver {\r\n    mapping(address => mapping(uint => bool)) isNftDeposited;\r\n    mapping(address => mapping(uint => address)) nftOwner;\r\n    mapping(address => mapping(uint => bool)) isNftChangingOwner;\r\n\r\n    mapping(address => mapping(uint => bool)) isNftFractionalised;\r\n    mapping(address => mapping(uint => address)) fractionTokenAddressFromNft;\r\n    mapping(baseFractionToken => address) nftAddressFromFraction;\r\n    mapping(baseFractionToken => uint) nftIdFromFraction;\r\n\r\n    address contractDeployer;\r\n\r\n    constructor() {\r\n        contractDeployer = msg.sender;\r\n    }\r\n\r\n    modifier contractDeployerOnly {\r\n        require (msg.sender == contractDeployer, \"Only contract deployer can call this function\");\r\n        _;\r\n    }\r\n    \r\n    function setNftOwner(address _nftAddress, uint _nftId, address newOwner) public {\r\n        require(isNftChangingOwner[_nftAddress][_nftId] == true, \"Nft is not changing owner\");\r\n        require(msg.sender == nftOwner[_nftAddress][_nftId], \"Only current owner of NFT can change NFT owner\");\r\n        \r\n        isNftChangingOwner[_nftAddress][_nftId] = false;\r\n        nftOwner[_nftAddress][_nftId] = newOwner;\r\n    }\r\n\r\n    function isNftActive(address _nftAddress, uint _nftId) public view returns(bool) {\r\n        bool hasDeposited = isNftDeposited[_nftAddress][_nftId];\r\n        bool hasFractionalise = isNftFractionalised[_nftAddress][_nftId];\r\n        if (hasDeposited && hasFractionalise) {\r\n            return true;\r\n        } else {\r\n            return false;\r\n        }\r\n    }\r\n\r\n    function depositNft(address _nftAddress, uint256 _nftId) public {\r\n        // this contract must be approved first\r\n\r\n        ERC721 nft = ERC721(_nftAddress);\r\n        nft.safeTransferFrom(msg.sender, address(this), _nftId);\r\n    \r\n        isNftDeposited[_nftAddress][_nftId] = true;\r\n        nftOwner[_nftAddress][_nftId] = msg.sender;\r\n    }\r\n\r\n    function createFraction(\r\n        address _nftAddress,\r\n        uint256 _nftId,\r\n        string memory _tokenName,\r\n        string memory _tokenTicker,\r\n        uint256 _supply,\r\n        uint256 _royaltyPercentage\r\n\r\n    ) public {\r\n        require(isNftDeposited[_nftAddress][_nftId], \"This NFT hasn't been deposited yet\");\r\n        require(nftOwner[_nftAddress][_nftId] == msg.sender, \"You do not own this NFT\");\r\n\r\n        isNftFractionalised[_nftAddress][_nftId] = true;\r\n\r\n        baseFractionToken FractionToken = new baseFractionToken(_nftAddress,\r\n                                                                _nftId,\r\n                                                                msg.sender,\r\n                                                                _tokenName,\r\n                                                                _tokenTicker,\r\n                                                                _supply,                                                                \r\n                                                                _royaltyPercentage,\r\n                                                                address (this)\r\n        );\r\n\r\n        fractionTokenAddressFromNft[_nftAddress][_nftId] = address (FractionToken);\r\n    }\r\n\r\n     function withdrawNft(address _nftAddress, uint256 _nftId) public {\r\n        ERC721 nft = ERC721(_nftAddress);\r\n        baseFractionToken FractionToken = baseFractionToken(fractionTokenAddressFromNft[_nftAddress][_nftId]);\r\n        \r\n        require(isNftDeposited[_nftAddress][_nftId] == true, \"This NFT is not withdrawn\");\r\n        require(isNftFractionalised[_nftAddress][_nftId] == false ||\r\n                FractionToken.balanceOf(msg.sender) == FractionToken.totalSupply(), \r\n                \"NFT cannot be withdrawn, ether the NFT has been withdrawn or you do not own the total supply of fraction tokens\"\r\n                );\r\n\r\n        nft.safeTransferFrom(address(this), msg.sender, _nftId);\r\n    }\r\n    \r\n    function getNftOwner(address _nftAddress, uint _nftId) public view returns(address) {\r\n        return nftOwner[_nftAddress][_nftId];\r\n    }\r\n    function getIsChangingNftOwner(address _nftAddress, uint _nftId) public view returns(bool) {\r\n        return isNftChangingOwner[_nftAddress][_nftId];\r\n    }\r\n    function getFractionAddressFromNft(address _nftAddress, uint _nftId) public view returns(address) {\r\n        return fractionTokenAddressFromNft[_nftAddress][_nftId];\r\n    }\r\n    function getNftIdFromFraction(baseFractionToken _fractionToken) public view returns (uint) {\r\n        return nftIdFromFraction[_fractionToken];\r\n    }\r\n    \r\n    function getNftAddressFromFraction(baseFractionToken _fractionToken) public view returns(address) {\r\n        return nftAddressFromFraction[_fractionToken];\r\n    }\r\n\r\n    function getIsNftDeposited(address _nftAddress, uint _nftId) public view returns (bool) {\r\n        return isNftDeposited[_nftAddress][_nftId];\r\n    }\r\n\r\n    function getIsNftFractionalised(address _nftAddress, uint _nftId) public view returns (bool) {\r\n        return isNftFractionalised[_nftAddress][_nftId];\r\n    }\r\n\r\n    function setIsNftChangingOwnerTrue(address _nftAddress, uint _nftId) public {\r\n        require(msg.sender == nftOwner[_nftAddress][_nftId], \"You are not the owner of this NFT\");\r\n        isNftChangingOwner[_nftAddress][_nftId] = true;\r\n    }\r\n\r\n    function onERC721Received(\r\n        address,\r\n        address from,\r\n        uint256,\r\n        bytes calldata\r\n    ) external pure override returns (bytes4) {\r\n        // require(from == address(), \"Cannot send nfts to Vault dirrectly\");\r\n        \r\n        return IERC721Receiver.onERC721Received.selector;\r\n    }\r\n}\r\n",
  "sourcePath": "D:\\Libraries\\Desktop\\React\\Fractionalise NFT frontend v2 bootstrap\\contracts\\Storage.sol",
  "compiler": {
    "name": "solc",
    "version": "0.8.14+commit.80d49f37.Emscripten.clang"
  },
  "schemaVersion": "3.4.6",
  "updatedAt": "2022-06-06T17:05:58.155Z",
  "devdoc": {
    "kind": "dev",
    "methods": {},
    "version": 1
  },
  "userdoc": {
    "kind": "user",
    "methods": {},
    "version": 1
  }
}